{
	"@chainlink/contracts/src/v0.8/mocks/VRFCoordinatorV2Mock.sol": {
		"VRFCoordinatorV2Mock": {
			"abi": [
				{
					"inputs": [
						{
							"internalType": "uint96",
							"name": "_baseFee",
							"type": "uint96"
						},
						{
							"internalType": "uint96",
							"name": "_gasPriceLink",
							"type": "uint96"
						}
					],
					"stateMutability": "nonpayable",
					"type": "constructor"
				},
				{
					"inputs": [],
					"name": "InsufficientBalance",
					"type": "error"
				},
				{
					"inputs": [],
					"name": "InvalidConsumer",
					"type": "error"
				},
				{
					"inputs": [],
					"name": "InvalidRandomWords",
					"type": "error"
				},
				{
					"inputs": [],
					"name": "InvalidSubscription",
					"type": "error"
				},
				{
					"inputs": [
						{
							"internalType": "address",
							"name": "owner",
							"type": "address"
						}
					],
					"name": "MustBeSubOwner",
					"type": "error"
				},
				{
					"inputs": [],
					"name": "Reentrant",
					"type": "error"
				},
				{
					"inputs": [],
					"name": "TooManyConsumers",
					"type": "error"
				},
				{
					"anonymous": false,
					"inputs": [],
					"name": "ConfigSet",
					"type": "event"
				},
				{
					"anonymous": false,
					"inputs": [
						{
							"indexed": true,
							"internalType": "uint64",
							"name": "subId",
							"type": "uint64"
						},
						{
							"indexed": false,
							"internalType": "address",
							"name": "consumer",
							"type": "address"
						}
					],
					"name": "ConsumerAdded",
					"type": "event"
				},
				{
					"anonymous": false,
					"inputs": [
						{
							"indexed": true,
							"internalType": "uint64",
							"name": "subId",
							"type": "uint64"
						},
						{
							"indexed": false,
							"internalType": "address",
							"name": "consumer",
							"type": "address"
						}
					],
					"name": "ConsumerRemoved",
					"type": "event"
				},
				{
					"anonymous": false,
					"inputs": [
						{
							"indexed": true,
							"internalType": "address",
							"name": "from",
							"type": "address"
						},
						{
							"indexed": true,
							"internalType": "address",
							"name": "to",
							"type": "address"
						}
					],
					"name": "OwnershipTransferRequested",
					"type": "event"
				},
				{
					"anonymous": false,
					"inputs": [
						{
							"indexed": true,
							"internalType": "address",
							"name": "from",
							"type": "address"
						},
						{
							"indexed": true,
							"internalType": "address",
							"name": "to",
							"type": "address"
						}
					],
					"name": "OwnershipTransferred",
					"type": "event"
				},
				{
					"anonymous": false,
					"inputs": [
						{
							"indexed": true,
							"internalType": "uint256",
							"name": "requestId",
							"type": "uint256"
						},
						{
							"indexed": false,
							"internalType": "uint256",
							"name": "outputSeed",
							"type": "uint256"
						},
						{
							"indexed": false,
							"internalType": "uint96",
							"name": "payment",
							"type": "uint96"
						},
						{
							"indexed": false,
							"internalType": "bool",
							"name": "success",
							"type": "bool"
						}
					],
					"name": "RandomWordsFulfilled",
					"type": "event"
				},
				{
					"anonymous": false,
					"inputs": [
						{
							"indexed": true,
							"internalType": "bytes32",
							"name": "keyHash",
							"type": "bytes32"
						},
						{
							"indexed": false,
							"internalType": "uint256",
							"name": "requestId",
							"type": "uint256"
						},
						{
							"indexed": false,
							"internalType": "uint256",
							"name": "preSeed",
							"type": "uint256"
						},
						{
							"indexed": true,
							"internalType": "uint64",
							"name": "subId",
							"type": "uint64"
						},
						{
							"indexed": false,
							"internalType": "uint16",
							"name": "minimumRequestConfirmations",
							"type": "uint16"
						},
						{
							"indexed": false,
							"internalType": "uint32",
							"name": "callbackGasLimit",
							"type": "uint32"
						},
						{
							"indexed": false,
							"internalType": "uint32",
							"name": "numWords",
							"type": "uint32"
						},
						{
							"indexed": true,
							"internalType": "address",
							"name": "sender",
							"type": "address"
						}
					],
					"name": "RandomWordsRequested",
					"type": "event"
				},
				{
					"anonymous": false,
					"inputs": [
						{
							"indexed": true,
							"internalType": "uint64",
							"name": "subId",
							"type": "uint64"
						},
						{
							"indexed": false,
							"internalType": "address",
							"name": "to",
							"type": "address"
						},
						{
							"indexed": false,
							"internalType": "uint256",
							"name": "amount",
							"type": "uint256"
						}
					],
					"name": "SubscriptionCanceled",
					"type": "event"
				},
				{
					"anonymous": false,
					"inputs": [
						{
							"indexed": true,
							"internalType": "uint64",
							"name": "subId",
							"type": "uint64"
						},
						{
							"indexed": false,
							"internalType": "address",
							"name": "owner",
							"type": "address"
						}
					],
					"name": "SubscriptionCreated",
					"type": "event"
				},
				{
					"anonymous": false,
					"inputs": [
						{
							"indexed": true,
							"internalType": "uint64",
							"name": "subId",
							"type": "uint64"
						},
						{
							"indexed": false,
							"internalType": "uint256",
							"name": "oldBalance",
							"type": "uint256"
						},
						{
							"indexed": false,
							"internalType": "uint256",
							"name": "newBalance",
							"type": "uint256"
						}
					],
					"name": "SubscriptionFunded",
					"type": "event"
				},
				{
					"inputs": [],
					"name": "BASE_FEE",
					"outputs": [
						{
							"internalType": "uint96",
							"name": "",
							"type": "uint96"
						}
					],
					"stateMutability": "view",
					"type": "function"
				},
				{
					"inputs": [],
					"name": "GAS_PRICE_LINK",
					"outputs": [
						{
							"internalType": "uint96",
							"name": "",
							"type": "uint96"
						}
					],
					"stateMutability": "view",
					"type": "function"
				},
				{
					"inputs": [],
					"name": "MAX_CONSUMERS",
					"outputs": [
						{
							"internalType": "uint16",
							"name": "",
							"type": "uint16"
						}
					],
					"stateMutability": "view",
					"type": "function"
				},
				{
					"inputs": [],
					"name": "acceptOwnership",
					"outputs": [],
					"stateMutability": "nonpayable",
					"type": "function"
				},
				{
					"inputs": [
						{
							"internalType": "uint64",
							"name": "",
							"type": "uint64"
						}
					],
					"name": "acceptSubscriptionOwnerTransfer",
					"outputs": [],
					"stateMutability": "pure",
					"type": "function"
				},
				{
					"inputs": [
						{
							"internalType": "uint64",
							"name": "_subId",
							"type": "uint64"
						},
						{
							"internalType": "address",
							"name": "_consumer",
							"type": "address"
						}
					],
					"name": "addConsumer",
					"outputs": [],
					"stateMutability": "nonpayable",
					"type": "function"
				},
				{
					"inputs": [
						{
							"internalType": "uint64",
							"name": "_subId",
							"type": "uint64"
						},
						{
							"internalType": "address",
							"name": "_to",
							"type": "address"
						}
					],
					"name": "cancelSubscription",
					"outputs": [],
					"stateMutability": "nonpayable",
					"type": "function"
				},
				{
					"inputs": [
						{
							"internalType": "uint64",
							"name": "_subId",
							"type": "uint64"
						},
						{
							"internalType": "address",
							"name": "_consumer",
							"type": "address"
						}
					],
					"name": "consumerIsAdded",
					"outputs": [
						{
							"internalType": "bool",
							"name": "",
							"type": "bool"
						}
					],
					"stateMutability": "view",
					"type": "function"
				},
				{
					"inputs": [],
					"name": "createSubscription",
					"outputs": [
						{
							"internalType": "uint64",
							"name": "_subId",
							"type": "uint64"
						}
					],
					"stateMutability": "nonpayable",
					"type": "function"
				},
				{
					"inputs": [
						{
							"internalType": "uint256",
							"name": "_requestId",
							"type": "uint256"
						},
						{
							"internalType": "address",
							"name": "_consumer",
							"type": "address"
						}
					],
					"name": "fulfillRandomWords",
					"outputs": [],
					"stateMutability": "nonpayable",
					"type": "function"
				},
				{
					"inputs": [
						{
							"internalType": "uint256",
							"name": "_requestId",
							"type": "uint256"
						},
						{
							"internalType": "address",
							"name": "_consumer",
							"type": "address"
						},
						{
							"internalType": "uint256[]",
							"name": "_words",
							"type": "uint256[]"
						}
					],
					"name": "fulfillRandomWordsWithOverride",
					"outputs": [],
					"stateMutability": "nonpayable",
					"type": "function"
				},
				{
					"inputs": [
						{
							"internalType": "uint64",
							"name": "_subId",
							"type": "uint64"
						},
						{
							"internalType": "uint96",
							"name": "_amount",
							"type": "uint96"
						}
					],
					"name": "fundSubscription",
					"outputs": [],
					"stateMutability": "nonpayable",
					"type": "function"
				},
				{
					"inputs": [],
					"name": "getConfig",
					"outputs": [
						{
							"internalType": "uint16",
							"name": "minimumRequestConfirmations",
							"type": "uint16"
						},
						{
							"internalType": "uint32",
							"name": "maxGasLimit",
							"type": "uint32"
						},
						{
							"internalType": "uint32",
							"name": "stalenessSeconds",
							"type": "uint32"
						},
						{
							"internalType": "uint32",
							"name": "gasAfterPaymentCalculation",
							"type": "uint32"
						}
					],
					"stateMutability": "pure",
					"type": "function"
				},
				{
					"inputs": [],
					"name": "getFallbackWeiPerUnitLink",
					"outputs": [
						{
							"internalType": "int256",
							"name": "",
							"type": "int256"
						}
					],
					"stateMutability": "pure",
					"type": "function"
				},
				{
					"inputs": [],
					"name": "getFeeConfig",
					"outputs": [
						{
							"internalType": "uint32",
							"name": "fulfillmentFlatFeeLinkPPMTier1",
							"type": "uint32"
						},
						{
							"internalType": "uint32",
							"name": "fulfillmentFlatFeeLinkPPMTier2",
							"type": "uint32"
						},
						{
							"internalType": "uint32",
							"name": "fulfillmentFlatFeeLinkPPMTier3",
							"type": "uint32"
						},
						{
							"internalType": "uint32",
							"name": "fulfillmentFlatFeeLinkPPMTier4",
							"type": "uint32"
						},
						{
							"internalType": "uint32",
							"name": "fulfillmentFlatFeeLinkPPMTier5",
							"type": "uint32"
						},
						{
							"internalType": "uint24",
							"name": "reqsForTier2",
							"type": "uint24"
						},
						{
							"internalType": "uint24",
							"name": "reqsForTier3",
							"type": "uint24"
						},
						{
							"internalType": "uint24",
							"name": "reqsForTier4",
							"type": "uint24"
						},
						{
							"internalType": "uint24",
							"name": "reqsForTier5",
							"type": "uint24"
						}
					],
					"stateMutability": "pure",
					"type": "function"
				},
				{
					"inputs": [],
					"name": "getRequestConfig",
					"outputs": [
						{
							"internalType": "uint16",
							"name": "",
							"type": "uint16"
						},
						{
							"internalType": "uint32",
							"name": "",
							"type": "uint32"
						},
						{
							"internalType": "bytes32[]",
							"name": "",
							"type": "bytes32[]"
						}
					],
					"stateMutability": "pure",
					"type": "function"
				},
				{
					"inputs": [
						{
							"internalType": "uint64",
							"name": "_subId",
							"type": "uint64"
						}
					],
					"name": "getSubscription",
					"outputs": [
						{
							"internalType": "uint96",
							"name": "balance",
							"type": "uint96"
						},
						{
							"internalType": "uint64",
							"name": "reqCount",
							"type": "uint64"
						},
						{
							"internalType": "address",
							"name": "owner",
							"type": "address"
						},
						{
							"internalType": "address[]",
							"name": "consumers",
							"type": "address[]"
						}
					],
					"stateMutability": "view",
					"type": "function"
				},
				{
					"inputs": [],
					"name": "owner",
					"outputs": [
						{
							"internalType": "address",
							"name": "",
							"type": "address"
						}
					],
					"stateMutability": "view",
					"type": "function"
				},
				{
					"inputs": [
						{
							"internalType": "uint64",
							"name": "",
							"type": "uint64"
						}
					],
					"name": "pendingRequestExists",
					"outputs": [
						{
							"internalType": "bool",
							"name": "",
							"type": "bool"
						}
					],
					"stateMutability": "pure",
					"type": "function"
				},
				{
					"inputs": [
						{
							"internalType": "uint64",
							"name": "_subId",
							"type": "uint64"
						},
						{
							"internalType": "address",
							"name": "_consumer",
							"type": "address"
						}
					],
					"name": "removeConsumer",
					"outputs": [],
					"stateMutability": "nonpayable",
					"type": "function"
				},
				{
					"inputs": [
						{
							"internalType": "bytes32",
							"name": "_keyHash",
							"type": "bytes32"
						},
						{
							"internalType": "uint64",
							"name": "_subId",
							"type": "uint64"
						},
						{
							"internalType": "uint16",
							"name": "_minimumRequestConfirmations",
							"type": "uint16"
						},
						{
							"internalType": "uint32",
							"name": "_callbackGasLimit",
							"type": "uint32"
						},
						{
							"internalType": "uint32",
							"name": "_numWords",
							"type": "uint32"
						}
					],
					"name": "requestRandomWords",
					"outputs": [
						{
							"internalType": "uint256",
							"name": "",
							"type": "uint256"
						}
					],
					"stateMutability": "nonpayable",
					"type": "function"
				},
				{
					"inputs": [
						{
							"internalType": "uint64",
							"name": "",
							"type": "uint64"
						},
						{
							"internalType": "address",
							"name": "",
							"type": "address"
						}
					],
					"name": "requestSubscriptionOwnerTransfer",
					"outputs": [],
					"stateMutability": "pure",
					"type": "function"
				},
				{
					"inputs": [],
					"name": "setConfig",
					"outputs": [],
					"stateMutability": "nonpayable",
					"type": "function"
				},
				{
					"inputs": [
						{
							"internalType": "address",
							"name": "to",
							"type": "address"
						}
					],
					"name": "transferOwnership",
					"outputs": [],
					"stateMutability": "nonpayable",
					"type": "function"
				}
			],
			"devdoc": {
				"kind": "dev",
				"methods": {
					"createSubscription()": {
						"details": "You can manage the consumer set dynamically with addConsumer/removeConsumer.Note to fund the subscription, use transferAndCall. For exampleLINKTOKEN.transferAndCall(address(COORDINATOR),amount,abi.encode(subId));",
						"returns": {
							"_subId": "- A unique subscription id."
						}
					},
					"fulfillRandomWords(uint256,address)": {
						"details": "This mock uses a simplified formula for calculating payment amount and gas usage, and doesnot account for all edge cases handled in the real VRF coordinator. When making requestsagainst the real coordinator a small amount of additional LINK is required.",
						"params": {
							"_consumer": "the VRF randomness consumer to send the result to",
							"_requestId": "the request to fulfill"
						}
					},
					"fulfillRandomWordsWithOverride(uint256,address,uint256[])": {
						"params": {
							"_consumer": "the VRF randomness consumer to send the result to",
							"_requestId": "the request to fulfill",
							"_words": "user-provided random words"
						}
					},
					"fundSubscription(uint64,uint96)": {
						"params": {
							"_amount": "the amount to fund",
							"_subId": "the subscription to fund"
						}
					},
					"getRequestConfig()": {
						"returns": {
							"_0": "minimumRequestConfirmations global min for request confirmations",
							"_1": "maxGasLimit global max for request gas limit",
							"_2": "s_provingKeyHashes list of registered key hashes"
						}
					}
				},
				"version": 1
			},
			"evm": {
				"assembly": "    /* \"@chainlink/contracts/src/v0.8/mocks/VRFCoordinatorV2Mock.sol\":311:9963  contract VRFCoordinatorV2Mock is VRFCoordinatorV2Interface, ConfirmedOwner {... */\n  mstore(0x40, 0xe0)\n    /* \"@chainlink/contracts/src/v0.8/mocks/VRFCoordinatorV2Mock.sol\":508:511  100 */\n  0x64\n    /* \"@chainlink/contracts/src/v0.8/mocks/VRFCoordinatorV2Mock.sol\":468:511  uint16 public immutable MAX_CONSUMERS = 100 */\n  0xffff\n  and\n  0xc0\n  swap1\n  0xffff\n  and\n  dup2\n  mstore\n  pop\n    /* \"@chainlink/contracts/src/v0.8/mocks/VRFCoordinatorV2Mock.sol\":1623:1624  1 */\n  0x01\n    /* \"@chainlink/contracts/src/v0.8/mocks/VRFCoordinatorV2Mock.sol\":1597:1624  uint256 s_nextRequestId = 1 */\n  0x04\n  sstore\n    /* \"@chainlink/contracts/src/v0.8/mocks/VRFCoordinatorV2Mock.sol\":1652:1655  100 */\n  0x64\n    /* \"@chainlink/contracts/src/v0.8/mocks/VRFCoordinatorV2Mock.sol\":1628:1655  uint256 s_nextPreSeed = 100 */\n  0x05\n  sstore\n    /* \"@chainlink/contracts/src/v0.8/mocks/VRFCoordinatorV2Mock.sol\":2045:2206  constructor(uint96 _baseFee, uint96 _gasPriceLink) ConfirmedOwner(msg.sender) {... */\n  callvalue\n  dup1\n  iszero\n  tag_1\n  jumpi\n  0x00\n  dup1\n  revert\ntag_1:\n  pop\n  mload(0x40)\n  sub(codesize, bytecodeSize)\n  dup1\n  bytecodeSize\n  dup4\n  codecopy\n  dup2\n  dup2\n  add\n  0x40\n  mstore\n  dup2\n  add\n  swap1\n  tag_2\n  swap2\n  swap1\n  tag_3\n  jump\t// in\ntag_2:\n    /* \"@chainlink/contracts/src/v0.8/mocks/VRFCoordinatorV2Mock.sol\":2111:2121  msg.sender */\n  caller\n    /* \"@chainlink/contracts/src/v0.8/shared/access/ConfirmedOwner.sol\":355:363  newOwner */\n  dup1\n    /* \"@chainlink/contracts/src/v0.8/shared/access/ConfirmedOwner.sol\":373:374  0 */\n  0x00\n    /* \"@chainlink/contracts/src/v0.8/shared/access/ConfirmedOwnerWithProposal.sol\":618:619  0 */\n  dup1\n    /* \"@chainlink/contracts/src/v0.8/shared/access/ConfirmedOwnerWithProposal.sol\":598:620  newOwner != address(0) */\n  0xffffffffffffffffffffffffffffffffffffffff\n  and\n    /* \"@chainlink/contracts/src/v0.8/shared/access/ConfirmedOwnerWithProposal.sol\":598:606  newOwner */\n  dup3\n    /* \"@chainlink/contracts/src/v0.8/shared/access/ConfirmedOwnerWithProposal.sol\":598:620  newOwner != address(0) */\n  0xffffffffffffffffffffffffffffffffffffffff\n  and\n  sub\n    /* \"@chainlink/contracts/src/v0.8/shared/access/ConfirmedOwnerWithProposal.sol\":590:649  require(newOwner != address(0), \"Cannot set owner to zero\") */\n  tag_8\n  jumpi\n  mload(0x40)\n  0x08c379a000000000000000000000000000000000000000000000000000000000\n  dup2\n  mstore\n  0x04\n  add\n  tag_9\n  swap1\n  tag_10\n  jump\t// in\ntag_9:\n  mload(0x40)\n  dup1\n  swap2\n  sub\n  swap1\n  revert\ntag_8:\n    /* \"@chainlink/contracts/src/v0.8/shared/access/ConfirmedOwnerWithProposal.sol\":666:674  newOwner */\n  dup2\n    /* \"@chainlink/contracts/src/v0.8/shared/access/ConfirmedOwnerWithProposal.sol\":656:663  s_owner */\n  0x00\n  dup1\n    /* \"@chainlink/contracts/src/v0.8/shared/access/ConfirmedOwnerWithProposal.sol\":656:674  s_owner = newOwner */\n  0x0100\n  exp\n  dup2\n  sload\n  dup2\n  0xffffffffffffffffffffffffffffffffffffffff\n  mul\n  not\n  and\n  swap1\n  dup4\n  0xffffffffffffffffffffffffffffffffffffffff\n  and\n  mul\n  or\n  swap1\n  sstore\n  pop\n    /* \"@chainlink/contracts/src/v0.8/shared/access/ConfirmedOwnerWithProposal.sol\":708:709  0 */\n  0x00\n    /* \"@chainlink/contracts/src/v0.8/shared/access/ConfirmedOwnerWithProposal.sol\":684:710  pendingOwner != address(0) */\n  0xffffffffffffffffffffffffffffffffffffffff\n  and\n    /* \"@chainlink/contracts/src/v0.8/shared/access/ConfirmedOwnerWithProposal.sol\":684:696  pendingOwner */\n  dup2\n    /* \"@chainlink/contracts/src/v0.8/shared/access/ConfirmedOwnerWithProposal.sol\":684:710  pendingOwner != address(0) */\n  0xffffffffffffffffffffffffffffffffffffffff\n  and\n  eq\n    /* \"@chainlink/contracts/src/v0.8/shared/access/ConfirmedOwnerWithProposal.sol\":680:759  if (pendingOwner != address(0)) {... */\n  tag_11\n  jumpi\n    /* \"@chainlink/contracts/src/v0.8/shared/access/ConfirmedOwnerWithProposal.sol\":720:752  _transferOwnership(pendingOwner) */\n  tag_12\n    /* \"@chainlink/contracts/src/v0.8/shared/access/ConfirmedOwnerWithProposal.sol\":739:751  pendingOwner */\n  dup2\n    /* \"@chainlink/contracts/src/v0.8/shared/access/ConfirmedOwnerWithProposal.sol\":720:738  _transferOwnership */\n  shl(0x20, tag_13)\n    /* \"@chainlink/contracts/src/v0.8/shared/access/ConfirmedOwnerWithProposal.sol\":720:752  _transferOwnership(pendingOwner) */\n  0x20\n  shr\n  jump\t// in\ntag_12:\n    /* \"@chainlink/contracts/src/v0.8/shared/access/ConfirmedOwnerWithProposal.sol\":680:759  if (pendingOwner != address(0)) {... */\ntag_11:\n    /* \"@chainlink/contracts/src/v0.8/shared/access/ConfirmedOwnerWithProposal.sol\":481:763  constructor(address newOwner, address pendingOwner) {... */\n  pop\n  pop\n    /* \"@chainlink/contracts/src/v0.8/shared/access/ConfirmedOwner.sol\":298:379  constructor(address newOwner) ConfirmedOwnerWithProposal(newOwner, address(0)) {} */\n  pop\n    /* \"@chainlink/contracts/src/v0.8/mocks/VRFCoordinatorV2Mock.sol\":2140:2148  _baseFee */\n  dup2\n    /* \"@chainlink/contracts/src/v0.8/mocks/VRFCoordinatorV2Mock.sol\":2129:2148  BASE_FEE = _baseFee */\n  0xffffffffffffffffffffffff\n  and\n  0x80\n  dup2\n  0xffffffffffffffffffffffff\n  and\n  dup2\n  mstore\n  pop\n  pop\n    /* \"@chainlink/contracts/src/v0.8/mocks/VRFCoordinatorV2Mock.sol\":2171:2184  _gasPriceLink */\n  dup1\n    /* \"@chainlink/contracts/src/v0.8/mocks/VRFCoordinatorV2Mock.sol\":2154:2184  GAS_PRICE_LINK = _gasPriceLink */\n  0xffffffffffffffffffffffff\n  and\n  0xa0\n  dup2\n  0xffffffffffffffffffffffff\n  and\n  dup2\n  mstore\n  pop\n  pop\n    /* \"@chainlink/contracts/src/v0.8/mocks/VRFCoordinatorV2Mock.sol\":2190:2201  setConfig() */\n  tag_16\n    /* \"@chainlink/contracts/src/v0.8/mocks/VRFCoordinatorV2Mock.sol\":2190:2199  setConfig */\n  shl(0x20, tag_17)\n    /* \"@chainlink/contracts/src/v0.8/mocks/VRFCoordinatorV2Mock.sol\":2190:2201  setConfig() */\n  0x20\n  shr\n  jump\t// in\ntag_16:\n    /* \"@chainlink/contracts/src/v0.8/mocks/VRFCoordinatorV2Mock.sol\":2045:2206  constructor(uint96 _baseFee, uint96 _gasPriceLink) ConfirmedOwner(msg.sender) {... */\n  pop\n  pop\n    /* \"@chainlink/contracts/src/v0.8/mocks/VRFCoordinatorV2Mock.sol\":311:9963  contract VRFCoordinatorV2Mock is VRFCoordinatorV2Interface, ConfirmedOwner {... */\n  jump(tag_18)\n    /* \"@chainlink/contracts/src/v0.8/shared/access/ConfirmedOwnerWithProposal.sol\":1536:1775  function _transferOwnership(address to) private {... */\ntag_13:\n    /* \"@chainlink/contracts/src/v0.8/shared/access/ConfirmedOwnerWithProposal.sol\":1655:1665  msg.sender */\n  caller\n    /* \"@chainlink/contracts/src/v0.8/shared/access/ConfirmedOwnerWithProposal.sol\":1649:1665  to != msg.sender */\n  0xffffffffffffffffffffffffffffffffffffffff\n  and\n    /* \"@chainlink/contracts/src/v0.8/shared/access/ConfirmedOwnerWithProposal.sol\":1649:1651  to */\n  dup2\n    /* \"@chainlink/contracts/src/v0.8/shared/access/ConfirmedOwnerWithProposal.sol\":1649:1665  to != msg.sender */\n  0xffffffffffffffffffffffffffffffffffffffff\n  and\n  sub\n    /* \"@chainlink/contracts/src/v0.8/shared/access/ConfirmedOwnerWithProposal.sol\":1641:1693  require(to != msg.sender, \"Cannot transfer to self\") */\n  tag_20\n  jumpi\n  mload(0x40)\n  0x08c379a000000000000000000000000000000000000000000000000000000000\n  dup2\n  mstore\n  0x04\n  add\n  tag_21\n  swap1\n  tag_22\n  jump\t// in\ntag_21:\n  mload(0x40)\n  dup1\n  swap2\n  sub\n  swap1\n  revert\ntag_20:\n    /* \"@chainlink/contracts/src/v0.8/shared/access/ConfirmedOwnerWithProposal.sol\":1717:1719  to */\n  dup1\n    /* \"@chainlink/contracts/src/v0.8/shared/access/ConfirmedOwnerWithProposal.sol\":1700:1714  s_pendingOwner */\n  0x01\n  0x00\n    /* \"@chainlink/contracts/src/v0.8/shared/access/ConfirmedOwnerWithProposal.sol\":1700:1719  s_pendingOwner = to */\n  0x0100\n  exp\n  dup2\n  sload\n  dup2\n  0xffffffffffffffffffffffffffffffffffffffff\n  mul\n  not\n  and\n  swap1\n  dup4\n  0xffffffffffffffffffffffffffffffffffffffff\n  and\n  mul\n  or\n  swap1\n  sstore\n  pop\n    /* \"@chainlink/contracts/src/v0.8/shared/access/ConfirmedOwnerWithProposal.sol\":1767:1769  to */\n  dup1\n    /* \"@chainlink/contracts/src/v0.8/shared/access/ConfirmedOwnerWithProposal.sol\":1731:1770  OwnershipTransferRequested(s_owner, to) */\n  0xffffffffffffffffffffffffffffffffffffffff\n  and\n    /* \"@chainlink/contracts/src/v0.8/shared/access/ConfirmedOwnerWithProposal.sol\":1758:1765  s_owner */\n  0x00\n  dup1\n  sload\n  swap1\n  0x0100\n  exp\n  swap1\n  div\n  0xffffffffffffffffffffffffffffffffffffffff\n  and\n    /* \"@chainlink/contracts/src/v0.8/shared/access/ConfirmedOwnerWithProposal.sol\":1731:1770  OwnershipTransferRequested(s_owner, to) */\n  0xffffffffffffffffffffffffffffffffffffffff\n  and\n  0xed8889f560326eb138920d842192f0eb3dd22b4f139c87a2c57538e05bae1278\n  mload(0x40)\n  mload(0x40)\n  dup1\n  swap2\n  sub\n  swap1\n  log3\n    /* \"@chainlink/contracts/src/v0.8/shared/access/ConfirmedOwnerWithProposal.sol\":1536:1775  function _transferOwnership(address to) private {... */\n  pop\n  jump\t// out\n    /* \"@chainlink/contracts/src/v0.8/mocks/VRFCoordinatorV2Mock.sol\":2288:2401  function setConfig() public onlyOwner {... */\ntag_17:\n    /* \"@chainlink/contracts/src/v0.8/shared/access/ConfirmedOwnerWithProposal.sol\":2075:2095  _validateOwnership() */\n  tag_24\n    /* \"@chainlink/contracts/src/v0.8/shared/access/ConfirmedOwnerWithProposal.sol\":2075:2093  _validateOwnership */\n  shl(0x20, tag_25)\n    /* \"@chainlink/contracts/src/v0.8/shared/access/ConfirmedOwnerWithProposal.sol\":2075:2095  _validateOwnership() */\n  0x20\n  shr\n  jump\t// in\ntag_24:\n    /* \"@chainlink/contracts/src/v0.8/mocks/VRFCoordinatorV2Mock.sol\":2343:2374  Config({reentrancyLock: false}) */\n  mload(0x40)\n  dup1\n  0x20\n  add\n  0x40\n  mstore\n  dup1\n    /* \"@chainlink/contracts/src/v0.8/mocks/VRFCoordinatorV2Mock.sol\":2367:2372  false */\n  0x00\n    /* \"@chainlink/contracts/src/v0.8/mocks/VRFCoordinatorV2Mock.sol\":2343:2374  Config({reentrancyLock: false}) */\n  iszero\n  iszero\n  dup2\n  mstore\n  pop\n    /* \"@chainlink/contracts/src/v0.8/mocks/VRFCoordinatorV2Mock.sol\":2332:2340  s_config */\n  0x02\n    /* \"@chainlink/contracts/src/v0.8/mocks/VRFCoordinatorV2Mock.sol\":2332:2374  s_config = Config({reentrancyLock: false}) */\n  0x00\n  dup3\n  add\n  mload\n  dup2\n  0x00\n  add\n  exp(0x0100, 0x00)\n  dup2\n  sload\n  dup2\n  0xff\n  mul\n  not\n  and\n  swap1\n  dup4\n  iszero\n  iszero\n  mul\n  or\n  swap1\n  sstore\n  pop\n  swap1\n  pop\n  pop\n    /* \"@chainlink/contracts/src/v0.8/mocks/VRFCoordinatorV2Mock.sol\":2385:2396  ConfigSet() */\n  0x4b2974a542484cba2783812ff8033f7fc682cac2fe0905c28c5e27869b3155be\n  mload(0x40)\n  mload(0x40)\n  dup1\n  swap2\n  sub\n  swap1\n  log1\n    /* \"@chainlink/contracts/src/v0.8/mocks/VRFCoordinatorV2Mock.sol\":2288:2401  function setConfig() public onlyOwner {... */\n  jump\t// out\n    /* \"@chainlink/contracts/src/v0.8/shared/access/ConfirmedOwnerWithProposal.sol\":1809:1971  function _validateOwnership() internal view {... */\ntag_25:\n    /* \"@chainlink/contracts/src/v0.8/shared/access/ConfirmedOwnerWithProposal.sol\":1932:1939  s_owner */\n  0x00\n  dup1\n  sload\n  swap1\n  0x0100\n  exp\n  swap1\n  div\n  0xffffffffffffffffffffffffffffffffffffffff\n  and\n    /* \"@chainlink/contracts/src/v0.8/shared/access/ConfirmedOwnerWithProposal.sol\":1918:1939  msg.sender == s_owner */\n  0xffffffffffffffffffffffffffffffffffffffff\n  and\n    /* \"@chainlink/contracts/src/v0.8/shared/access/ConfirmedOwnerWithProposal.sol\":1918:1928  msg.sender */\n  caller\n    /* \"@chainlink/contracts/src/v0.8/shared/access/ConfirmedOwnerWithProposal.sol\":1918:1939  msg.sender == s_owner */\n  0xffffffffffffffffffffffffffffffffffffffff\n  and\n  eq\n    /* \"@chainlink/contracts/src/v0.8/shared/access/ConfirmedOwnerWithProposal.sol\":1910:1966  require(msg.sender == s_owner, \"Only callable by owner\") */\n  tag_28\n  jumpi\n  mload(0x40)\n  0x08c379a000000000000000000000000000000000000000000000000000000000\n  dup2\n  mstore\n  0x04\n  add\n  tag_29\n  swap1\n  tag_30\n  jump\t// in\ntag_29:\n  mload(0x40)\n  dup1\n  swap2\n  sub\n  swap1\n  revert\ntag_28:\n    /* \"@chainlink/contracts/src/v0.8/shared/access/ConfirmedOwnerWithProposal.sol\":1809:1971  function _validateOwnership() internal view {... */\n  jump\t// out\n    /* \"#utility.yul\":88:205   */\ntag_32:\n    /* \"#utility.yul\":197:198   */\n  0x00\n    /* \"#utility.yul\":194:195   */\n  dup1\n    /* \"#utility.yul\":187:199   */\n  revert\n    /* \"#utility.yul\":334:443   */\ntag_34:\n    /* \"#utility.yul\":370:377   */\n  0x00\n    /* \"#utility.yul\":410:436   */\n  0xffffffffffffffffffffffff\n    /* \"#utility.yul\":403:408   */\n  dup3\n    /* \"#utility.yul\":399:437   */\n  and\n    /* \"#utility.yul\":388:437   */\n  swap1\n  pop\n    /* \"#utility.yul\":334:443   */\n  swap2\n  swap1\n  pop\n  jump\t// out\n    /* \"#utility.yul\":449:569   */\ntag_35:\n    /* \"#utility.yul\":521:544   */\n  tag_50\n    /* \"#utility.yul\":538:543   */\n  dup2\n    /* \"#utility.yul\":521:544   */\n  tag_34\n  jump\t// in\ntag_50:\n    /* \"#utility.yul\":514:519   */\n  dup2\n    /* \"#utility.yul\":511:545   */\n  eq\n    /* \"#utility.yul\":501:563   */\n  tag_51\n  jumpi\n    /* \"#utility.yul\":559:560   */\n  0x00\n    /* \"#utility.yul\":556:557   */\n  dup1\n    /* \"#utility.yul\":549:561   */\n  revert\n    /* \"#utility.yul\":501:563   */\ntag_51:\n    /* \"#utility.yul\":449:569   */\n  pop\n  jump\t// out\n    /* \"#utility.yul\":575:716   */\ntag_36:\n    /* \"#utility.yul\":631:636   */\n  0x00\n    /* \"#utility.yul\":662:668   */\n  dup2\n    /* \"#utility.yul\":656:669   */\n  mload\n    /* \"#utility.yul\":647:669   */\n  swap1\n  pop\n    /* \"#utility.yul\":678:710   */\n  tag_53\n    /* \"#utility.yul\":704:709   */\n  dup2\n    /* \"#utility.yul\":678:710   */\n  tag_35\n  jump\t// in\ntag_53:\n    /* \"#utility.yul\":575:716   */\n  swap3\n  swap2\n  pop\n  pop\n  jump\t// out\n    /* \"#utility.yul\":722:1225   */\ntag_3:\n    /* \"#utility.yul\":799:805   */\n  0x00\n    /* \"#utility.yul\":807:813   */\n  dup1\n    /* \"#utility.yul\":856:858   */\n  0x40\n    /* \"#utility.yul\":844:853   */\n  dup4\n    /* \"#utility.yul\":835:842   */\n  dup6\n    /* \"#utility.yul\":831:854   */\n  sub\n    /* \"#utility.yul\":827:859   */\n  slt\n    /* \"#utility.yul\":824:943   */\n  iszero\n  tag_55\n  jumpi\n    /* \"#utility.yul\":862:941   */\n  tag_56\n  tag_32\n  jump\t// in\ntag_56:\n    /* \"#utility.yul\":824:943   */\ntag_55:\n    /* \"#utility.yul\":982:983   */\n  0x00\n    /* \"#utility.yul\":1007:1070   */\n  tag_57\n    /* \"#utility.yul\":1062:1069   */\n  dup6\n    /* \"#utility.yul\":1053:1059   */\n  dup3\n    /* \"#utility.yul\":1042:1051   */\n  dup7\n    /* \"#utility.yul\":1038:1060   */\n  add\n    /* \"#utility.yul\":1007:1070   */\n  tag_36\n  jump\t// in\ntag_57:\n    /* \"#utility.yul\":997:1070   */\n  swap3\n  pop\n    /* \"#utility.yul\":953:1080   */\n  pop\n    /* \"#utility.yul\":1119:1121   */\n  0x20\n    /* \"#utility.yul\":1145:1208   */\n  tag_58\n    /* \"#utility.yul\":1200:1207   */\n  dup6\n    /* \"#utility.yul\":1191:1197   */\n  dup3\n    /* \"#utility.yul\":1180:1189   */\n  dup7\n    /* \"#utility.yul\":1176:1198   */\n  add\n    /* \"#utility.yul\":1145:1208   */\n  tag_36\n  jump\t// in\ntag_58:\n    /* \"#utility.yul\":1135:1208   */\n  swap2\n  pop\n    /* \"#utility.yul\":1090:1218   */\n  pop\n    /* \"#utility.yul\":722:1225   */\n  swap3\n  pop\n  swap3\n  swap1\n  pop\n  jump\t// out\n    /* \"#utility.yul\":1231:1400   */\ntag_37:\n    /* \"#utility.yul\":1315:1326   */\n  0x00\n    /* \"#utility.yul\":1349:1355   */\n  dup3\n    /* \"#utility.yul\":1344:1347   */\n  dup3\n    /* \"#utility.yul\":1337:1356   */\n  mstore\n    /* \"#utility.yul\":1389:1393   */\n  0x20\n    /* \"#utility.yul\":1384:1387   */\n  dup3\n    /* \"#utility.yul\":1380:1394   */\n  add\n    /* \"#utility.yul\":1365:1394   */\n  swap1\n  pop\n    /* \"#utility.yul\":1231:1400   */\n  swap3\n  swap2\n  pop\n  pop\n  jump\t// out\n    /* \"#utility.yul\":1406:1580   */\ntag_38:\n    /* \"#utility.yul\":1546:1572   */\n  0x43616e6e6f7420736574206f776e657220746f207a65726f0000000000000000\n    /* \"#utility.yul\":1542:1543   */\n  0x00\n    /* \"#utility.yul\":1534:1540   */\n  dup3\n    /* \"#utility.yul\":1530:1544   */\n  add\n    /* \"#utility.yul\":1523:1573   */\n  mstore\n    /* \"#utility.yul\":1406:1580   */\n  pop\n  jump\t// out\n    /* \"#utility.yul\":1586:1952   */\ntag_39:\n    /* \"#utility.yul\":1728:1731   */\n  0x00\n    /* \"#utility.yul\":1749:1816   */\n  tag_62\n    /* \"#utility.yul\":1813:1815   */\n  0x18\n    /* \"#utility.yul\":1808:1811   */\n  dup4\n    /* \"#utility.yul\":1749:1816   */\n  tag_37\n  jump\t// in\ntag_62:\n    /* \"#utility.yul\":1742:1816   */\n  swap2\n  pop\n    /* \"#utility.yul\":1825:1918   */\n  tag_63\n    /* \"#utility.yul\":1914:1917   */\n  dup3\n    /* \"#utility.yul\":1825:1918   */\n  tag_38\n  jump\t// in\ntag_63:\n    /* \"#utility.yul\":1943:1945   */\n  0x20\n    /* \"#utility.yul\":1938:1941   */\n  dup3\n    /* \"#utility.yul\":1934:1946   */\n  add\n    /* \"#utility.yul\":1927:1946   */\n  swap1\n  pop\n    /* \"#utility.yul\":1586:1952   */\n  swap2\n  swap1\n  pop\n  jump\t// out\n    /* \"#utility.yul\":1958:2377   */\ntag_10:\n    /* \"#utility.yul\":2124:2128   */\n  0x00\n    /* \"#utility.yul\":2162:2164   */\n  0x20\n    /* \"#utility.yul\":2151:2160   */\n  dup3\n    /* \"#utility.yul\":2147:2165   */\n  add\n    /* \"#utility.yul\":2139:2165   */\n  swap1\n  pop\n    /* \"#utility.yul\":2211:2220   */\n  dup2\n    /* \"#utility.yul\":2205:2209   */\n  dup2\n    /* \"#utility.yul\":2201:2221   */\n  sub\n    /* \"#utility.yul\":2197:2198   */\n  0x00\n    /* \"#utility.yul\":2186:2195   */\n  dup4\n    /* \"#utility.yul\":2182:2199   */\n  add\n    /* \"#utility.yul\":2175:2222   */\n  mstore\n    /* \"#utility.yul\":2239:2370   */\n  tag_65\n    /* \"#utility.yul\":2365:2369   */\n  dup2\n    /* \"#utility.yul\":2239:2370   */\n  tag_39\n  jump\t// in\ntag_65:\n    /* \"#utility.yul\":2231:2370   */\n  swap1\n  pop\n    /* \"#utility.yul\":1958:2377   */\n  swap2\n  swap1\n  pop\n  jump\t// out\n    /* \"#utility.yul\":2383:2556   */\ntag_40:\n    /* \"#utility.yul\":2523:2548   */\n  0x43616e6e6f74207472616e7366657220746f2073656c66000000000000000000\n    /* \"#utility.yul\":2519:2520   */\n  0x00\n    /* \"#utility.yul\":2511:2517   */\n  dup3\n    /* \"#utility.yul\":2507:2521   */\n  add\n    /* \"#utility.yul\":2500:2549   */\n  mstore\n    /* \"#utility.yul\":2383:2556   */\n  pop\n  jump\t// out\n    /* \"#utility.yul\":2562:2928   */\ntag_41:\n    /* \"#utility.yul\":2704:2707   */\n  0x00\n    /* \"#utility.yul\":2725:2792   */\n  tag_68\n    /* \"#utility.yul\":2789:2791   */\n  0x17\n    /* \"#utility.yul\":2784:2787   */\n  dup4\n    /* \"#utility.yul\":2725:2792   */\n  tag_37\n  jump\t// in\ntag_68:\n    /* \"#utility.yul\":2718:2792   */\n  swap2\n  pop\n    /* \"#utility.yul\":2801:2894   */\n  tag_69\n    /* \"#utility.yul\":2890:2893   */\n  dup3\n    /* \"#utility.yul\":2801:2894   */\n  tag_40\n  jump\t// in\ntag_69:\n    /* \"#utility.yul\":2919:2921   */\n  0x20\n    /* \"#utility.yul\":2914:2917   */\n  dup3\n    /* \"#utility.yul\":2910:2922   */\n  add\n    /* \"#utility.yul\":2903:2922   */\n  swap1\n  pop\n    /* \"#utility.yul\":2562:2928   */\n  swap2\n  swap1\n  pop\n  jump\t// out\n    /* \"#utility.yul\":2934:3353   */\ntag_22:\n    /* \"#utility.yul\":3100:3104   */\n  0x00\n    /* \"#utility.yul\":3138:3140   */\n  0x20\n    /* \"#utility.yul\":3127:3136   */\n  dup3\n    /* \"#utility.yul\":3123:3141   */\n  add\n    /* \"#utility.yul\":3115:3141   */\n  swap1\n  pop\n    /* \"#utility.yul\":3187:3196   */\n  dup2\n    /* \"#utility.yul\":3181:3185   */\n  dup2\n    /* \"#utility.yul\":3177:3197   */\n  sub\n    /* \"#utility.yul\":3173:3174   */\n  0x00\n    /* \"#utility.yul\":3162:3171   */\n  dup4\n    /* \"#utility.yul\":3158:3175   */\n  add\n    /* \"#utility.yul\":3151:3198   */\n  mstore\n    /* \"#utility.yul\":3215:3346   */\n  tag_71\n    /* \"#utility.yul\":3341:3345   */\n  dup2\n    /* \"#utility.yul\":3215:3346   */\n  tag_41\n  jump\t// in\ntag_71:\n    /* \"#utility.yul\":3207:3346   */\n  swap1\n  pop\n    /* \"#utility.yul\":2934:3353   */\n  swap2\n  swap1\n  pop\n  jump\t// out\n    /* \"#utility.yul\":3359:3531   */\ntag_42:\n    /* \"#utility.yul\":3499:3523   */\n  0x4f6e6c792063616c6c61626c65206279206f776e657200000000000000000000\n    /* \"#utility.yul\":3495:3496   */\n  0x00\n    /* \"#utility.yul\":3487:3493   */\n  dup3\n    /* \"#utility.yul\":3483:3497   */\n  add\n    /* \"#utility.yul\":3476:3524   */\n  mstore\n    /* \"#utility.yul\":3359:3531   */\n  pop\n  jump\t// out\n    /* \"#utility.yul\":3537:3903   */\ntag_43:\n    /* \"#utility.yul\":3679:3682   */\n  0x00\n    /* \"#utility.yul\":3700:3767   */\n  tag_74\n    /* \"#utility.yul\":3764:3766   */\n  0x16\n    /* \"#utility.yul\":3759:3762   */\n  dup4\n    /* \"#utility.yul\":3700:3767   */\n  tag_37\n  jump\t// in\ntag_74:\n    /* \"#utility.yul\":3693:3767   */\n  swap2\n  pop\n    /* \"#utility.yul\":3776:3869   */\n  tag_75\n    /* \"#utility.yul\":3865:3868   */\n  dup3\n    /* \"#utility.yul\":3776:3869   */\n  tag_42\n  jump\t// in\ntag_75:\n    /* \"#utility.yul\":3894:3896   */\n  0x20\n    /* \"#utility.yul\":3889:3892   */\n  dup3\n    /* \"#utility.yul\":3885:3897   */\n  add\n    /* \"#utility.yul\":3878:3897   */\n  swap1\n  pop\n    /* \"#utility.yul\":3537:3903   */\n  swap2\n  swap1\n  pop\n  jump\t// out\n    /* \"#utility.yul\":3909:4328   */\ntag_30:\n    /* \"#utility.yul\":4075:4079   */\n  0x00\n    /* \"#utility.yul\":4113:4115   */\n  0x20\n    /* \"#utility.yul\":4102:4111   */\n  dup3\n    /* \"#utility.yul\":4098:4116   */\n  add\n    /* \"#utility.yul\":4090:4116   */\n  swap1\n  pop\n    /* \"#utility.yul\":4162:4171   */\n  dup2\n    /* \"#utility.yul\":4156:4160   */\n  dup2\n    /* \"#utility.yul\":4152:4172   */\n  sub\n    /* \"#utility.yul\":4148:4149   */\n  0x00\n    /* \"#utility.yul\":4137:4146   */\n  dup4\n    /* \"#utility.yul\":4133:4150   */\n  add\n    /* \"#utility.yul\":4126:4173   */\n  mstore\n    /* \"#utility.yul\":4190:4321   */\n  tag_77\n    /* \"#utility.yul\":4316:4320   */\n  dup2\n    /* \"#utility.yul\":4190:4321   */\n  tag_43\n  jump\t// in\ntag_77:\n    /* \"#utility.yul\":4182:4321   */\n  swap1\n  pop\n    /* \"#utility.yul\":3909:4328   */\n  swap2\n  swap1\n  pop\n  jump\t// out\n    /* \"@chainlink/contracts/src/v0.8/mocks/VRFCoordinatorV2Mock.sol\":311:9963  contract VRFCoordinatorV2Mock is VRFCoordinatorV2Interface, ConfirmedOwner {... */\ntag_18:\n  mload(0x80)\n  mload(0xa0)\n  mload(0xc0)\n  codecopy(0x00, dataOffset(sub_0), dataSize(sub_0))\n  0x00\n  assignImmutable(\"0xe864dc03065e4dfe580e59a415a66186da3a35ff7cde57e5a4d851feef903ceb\")\n  0x00\n  assignImmutable(\"0xb811eb8190fe00dc85563459f7e9e4ba4c2ef31ddac91e9e2d37d1e7e1b1d5bc\")\n  0x00\n  assignImmutable(\"0xe41a685dc3df81383d452481451b89eb3f69781b836c19936fa9714a13d1c9c2\")\n  return(0x00, dataSize(sub_0))\nstop\n\nsub_0: assembly {\n        /* \"@chainlink/contracts/src/v0.8/mocks/VRFCoordinatorV2Mock.sol\":311:9963  contract VRFCoordinatorV2Mock is VRFCoordinatorV2Interface, ConfirmedOwner {... */\n      mstore(0x40, 0x80)\n      callvalue\n      dup1\n      iszero\n      tag_1\n      jumpi\n      0x00\n      dup1\n      revert\n    tag_1:\n      pop\n      jumpi(tag_2, lt(calldatasize, 0x04))\n      shr(0xe0, calldataload(0x00))\n      dup1\n      0x8b673e7a\n      gt\n      tag_27\n      jumpi\n      dup1\n      0xafc69b53\n      gt\n      tag_28\n      jumpi\n      dup1\n      0xafc69b53\n      eq\n      tag_21\n      jumpi\n      dup1\n      0xc3f909d4\n      eq\n      tag_22\n      jumpi\n      dup1\n      0xd7ae1d30\n      eq\n      tag_23\n      jumpi\n      dup1\n      0xe82ad7d4\n      eq\n      tag_24\n      jumpi\n      dup1\n      0xed5eb06d\n      eq\n      tag_25\n      jumpi\n      dup1\n      0xf2fde38b\n      eq\n      tag_26\n      jumpi\n      jump(tag_2)\n    tag_28:\n      dup1\n      0x8b673e7a\n      eq\n      tag_15\n      jumpi\n      dup1\n      0x8da5cb5b\n      eq\n      tag_16\n      jumpi\n      dup1\n      0x9f87fad7\n      eq\n      tag_17\n      jumpi\n      dup1\n      0xa21a23e4\n      eq\n      tag_18\n      jumpi\n      dup1\n      0xa410347f\n      eq\n      tag_19\n      jumpi\n      dup1\n      0xa47c7696\n      eq\n      tag_20\n      jumpi\n      jump(tag_2)\n    tag_27:\n      dup1\n      0x5fbbc0d2\n      gt\n      tag_29\n      jumpi\n      dup1\n      0x5fbbc0d2\n      eq\n      tag_9\n      jumpi\n      dup1\n      0x64d51a2a\n      eq\n      tag_10\n      jumpi\n      dup1\n      0x7341c10c\n      eq\n      tag_11\n      jumpi\n      dup1\n      0x79ba5097\n      eq\n      tag_12\n      jumpi\n      dup1\n      0x808974ff\n      eq\n      tag_13\n      jumpi\n      dup1\n      0x82359740\n      eq\n      tag_14\n      jumpi\n      jump(tag_2)\n    tag_29:\n      dup1\n      0x012291\n      eq\n      tag_3\n      jumpi\n      dup1\n      0x04c357cb\n      eq\n      tag_4\n      jumpi\n      dup1\n      0x08e3898e\n      eq\n      tag_5\n      jumpi\n      dup1\n      0x356dac71\n      eq\n      tag_6\n      jumpi\n      dup1\n      0x3d18651e\n      eq\n      tag_7\n      jumpi\n      dup1\n      0x5d3b1d30\n      eq\n      tag_8\n      jumpi\n    tag_2:\n      0x00\n      dup1\n      revert\n        /* \"@chainlink/contracts/src/v0.8/mocks/VRFCoordinatorV2Mock.sol\":7500:7642  function getRequestConfig() external pure override returns (uint16, uint32, bytes32[] memory) {... */\n    tag_3:\n      tag_30\n      tag_31\n      jump\t// in\n    tag_30:\n      mload(0x40)\n      tag_32\n      swap4\n      swap3\n      swap2\n      swap1\n      tag_33\n      jump\t// in\n    tag_32:\n      mload(0x40)\n      dup1\n      swap2\n      sub\n      swap1\n      return\n        /* \"@chainlink/contracts/src/v0.8/mocks/VRFCoordinatorV2Mock.sol\":9571:9714  function requestSubscriptionOwnerTransfer(uint64 /*_subId*/, address /*_newOwner*/) external pure override {... */\n    tag_4:\n      tag_34\n      0x04\n      dup1\n      calldatasize\n      sub\n      dup2\n      add\n      swap1\n      tag_35\n      swap2\n      swap1\n      tag_36\n      jump\t// in\n    tag_35:\n      tag_37\n      jump\t// in\n    tag_34:\n      stop\n        /* \"@chainlink/contracts/src/v0.8/mocks/VRFCoordinatorV2Mock.sol\":3862:5061  function fulfillRandomWordsWithOverride(uint256 _requestId, address _consumer, uint256[] memory _words) public {... */\n    tag_5:\n      tag_38\n      0x04\n      dup1\n      calldatasize\n      sub\n      dup2\n      add\n      swap1\n      tag_39\n      swap2\n      swap1\n      tag_40\n      jump\t// in\n    tag_39:\n      tag_41\n      jump\t// in\n    tag_38:\n      stop\n        /* \"@chainlink/contracts/src/v0.8/mocks/VRFCoordinatorV2Mock.sol\":9450:9567  function getFallbackWeiPerUnitLink() external pure returns (int256) {... */\n    tag_6:\n      tag_42\n      tag_43\n      jump\t// in\n    tag_42:\n      mload(0x40)\n      tag_44\n      swap2\n      swap1\n      tag_45\n      jump\t// in\n    tag_44:\n      mload(0x40)\n      dup1\n      swap2\n      sub\n      swap1\n      return\n        /* \"@chainlink/contracts/src/v0.8/mocks/VRFCoordinatorV2Mock.sol\":390:422  uint96 public immutable BASE_FEE */\n    tag_7:\n      tag_46\n      tag_47\n      jump\t// in\n    tag_46:\n      mload(0x40)\n      tag_48\n      swap2\n      swap1\n      tag_49\n      jump\t// in\n    tag_48:\n      mload(0x40)\n      dup1\n      swap2\n      sub\n      swap1\n      return\n        /* \"@chainlink/contracts/src/v0.8/mocks/VRFCoordinatorV2Mock.sol\":5609:6378  function requestRandomWords(... */\n    tag_8:\n      tag_50\n      0x04\n      dup1\n      calldatasize\n      sub\n      dup2\n      add\n      swap1\n      tag_51\n      swap2\n      swap1\n      tag_52\n      jump\t// in\n    tag_51:\n      tag_53\n      jump\t// in\n    tag_50:\n      mload(0x40)\n      tag_54\n      swap2\n      swap1\n      tag_55\n      jump\t// in\n    tag_54:\n      mload(0x40)\n      dup1\n      swap2\n      sub\n      swap1\n      return\n        /* \"@chainlink/contracts/src/v0.8/mocks/VRFCoordinatorV2Mock.sol\":8749:9339  function getFeeConfig()... */\n    tag_9:\n      tag_56\n      tag_57\n      jump\t// in\n    tag_56:\n      mload(0x40)\n      tag_58\n      swap10\n      swap9\n      swap8\n      swap7\n      swap6\n      swap5\n      swap4\n      swap3\n      swap2\n      swap1\n      tag_59\n      jump\t// in\n    tag_58:\n      mload(0x40)\n      dup1\n      swap2\n      sub\n      swap1\n      return\n        /* \"@chainlink/contracts/src/v0.8/mocks/VRFCoordinatorV2Mock.sol\":468:511  uint16 public immutable MAX_CONSUMERS = 100 */\n    tag_10:\n      tag_60\n      tag_61\n      jump\t// in\n    tag_60:\n      mload(0x40)\n      tag_62\n      swap2\n      swap1\n      tag_63\n      jump\t// in\n    tag_62:\n      mload(0x40)\n      dup1\n      swap2\n      sub\n      swap1\n      return\n        /* \"@chainlink/contracts/src/v0.8/mocks/VRFCoordinatorV2Mock.sol\":7646:7991  function addConsumer(uint64 _subId, address _consumer) external override onlySubOwner(_subId) {... */\n    tag_11:\n      tag_64\n      0x04\n      dup1\n      calldatasize\n      sub\n      dup2\n      add\n      swap1\n      tag_65\n      swap2\n      swap1\n      tag_36\n      jump\t// in\n    tag_65:\n      tag_66\n      jump\t// in\n    tag_64:\n      stop\n        /* \"@chainlink/contracts/src/v0.8/shared/access/ConfirmedOwnerWithProposal.sol\":1026:1342  function acceptOwnership() external override {... */\n    tag_12:\n      tag_67\n      tag_68\n      jump\t// in\n    tag_67:\n      stop\n        /* \"@chainlink/contracts/src/v0.8/mocks/VRFCoordinatorV2Mock.sol\":3411:3582  function fulfillRandomWords(uint256 _requestId, address _consumer) external nonReentrant {... */\n    tag_13:\n      tag_69\n      0x04\n      dup1\n      calldatasize\n      sub\n      dup2\n      add\n      swap1\n      tag_70\n      swap2\n      swap1\n      tag_71\n      jump\t// in\n    tag_70:\n      tag_72\n      jump\t// in\n    tag_69:\n      stop\n        /* \"@chainlink/contracts/src/v0.8/mocks/VRFCoordinatorV2Mock.sol\":9718:9837  function acceptSubscriptionOwnerTransfer(uint64 /*_subId*/) external pure override {... */\n    tag_14:\n      tag_73\n      0x04\n      dup1\n      calldatasize\n      sub\n      dup2\n      add\n      swap1\n      tag_74\n      swap2\n      swap1\n      tag_75\n      jump\t// in\n    tag_74:\n      tag_76\n      jump\t// in\n    tag_73:\n      stop\n        /* \"@chainlink/contracts/src/v0.8/mocks/VRFCoordinatorV2Mock.sol\":2288:2401  function setConfig() public onlyOwner {... */\n    tag_15:\n      tag_77\n      tag_78\n      jump\t// in\n    tag_77:\n      stop\n        /* \"@chainlink/contracts/src/v0.8/shared/access/ConfirmedOwnerWithProposal.sol\":1382:1463  function owner() public view override returns (address) {... */\n    tag_16:\n      tag_79\n      tag_80\n      jump\t// in\n    tag_79:\n      mload(0x40)\n      tag_81\n      swap2\n      swap1\n      tag_82\n      jump\t// in\n    tag_81:\n      mload(0x40)\n      dup1\n      swap2\n      sub\n      swap1\n      return\n        /* \"@chainlink/contracts/src/v0.8/mocks/VRFCoordinatorV2Mock.sol\":7995:8491  function removeConsumer(... */\n    tag_17:\n      tag_83\n      0x04\n      dup1\n      calldatasize\n      sub\n      dup2\n      add\n      swap1\n      tag_84\n      swap2\n      swap1\n      tag_36\n      jump\t// in\n    tag_84:\n      tag_85\n      jump\t// in\n    tag_83:\n      stop\n        /* \"@chainlink/contracts/src/v0.8/mocks/VRFCoordinatorV2Mock.sol\":6382:6651  function createSubscription() external override returns (uint64 _subId) {... */\n    tag_18:\n      tag_86\n      tag_87\n      jump\t// in\n    tag_86:\n      mload(0x40)\n      tag_88\n      swap2\n      swap1\n      tag_89\n      jump\t// in\n    tag_88:\n      mload(0x40)\n      dup1\n      swap2\n      sub\n      swap1\n      return\n        /* \"@chainlink/contracts/src/v0.8/mocks/VRFCoordinatorV2Mock.sol\":426:464  uint96 public immutable GAS_PRICE_LINK */\n    tag_19:\n      tag_90\n      tag_91\n      jump\t// in\n    tag_90:\n      mload(0x40)\n      tag_92\n      swap2\n      swap1\n      tag_49\n      jump\t// in\n    tag_92:\n      mload(0x40)\n      dup1\n      swap2\n      sub\n      swap1\n      return\n        /* \"@chainlink/contracts/src/v0.8/mocks/VRFCoordinatorV2Mock.sol\":6655:7014  function getSubscription(... */\n    tag_20:\n      tag_93\n      0x04\n      dup1\n      calldatasize\n      sub\n      dup2\n      add\n      swap1\n      tag_94\n      swap2\n      swap1\n      tag_75\n      jump\t// in\n    tag_94:\n      tag_95\n      jump\t// in\n    tag_93:\n      mload(0x40)\n      tag_96\n      swap5\n      swap4\n      swap3\n      swap2\n      swap1\n      tag_97\n      jump\t// in\n    tag_96:\n      mload(0x40)\n      dup1\n      swap2\n      sub\n      swap1\n      return\n        /* \"@chainlink/contracts/src/v0.8/mocks/VRFCoordinatorV2Mock.sol\":5263:5605  function fundSubscription(uint64 _subId, uint96 _amount) public {... */\n    tag_21:\n      tag_98\n      0x04\n      dup1\n      calldatasize\n      sub\n      dup2\n      add\n      swap1\n      tag_99\n      swap2\n      swap1\n      tag_100\n      jump\t// in\n    tag_99:\n      tag_101\n      jump\t// in\n    tag_98:\n      stop\n        /* \"@chainlink/contracts/src/v0.8/mocks/VRFCoordinatorV2Mock.sol\":8495:8745  function getConfig()... */\n    tag_22:\n      tag_102\n      tag_103\n      jump\t// in\n    tag_102:\n      mload(0x40)\n      tag_104\n      swap5\n      swap4\n      swap3\n      swap2\n      swap1\n      tag_105\n      jump\t// in\n    tag_104:\n      mload(0x40)\n      dup1\n      swap2\n      sub\n      swap1\n      return\n        /* \"@chainlink/contracts/src/v0.8/mocks/VRFCoordinatorV2Mock.sol\":7018:7246  function cancelSubscription(uint64 _subId, address _to) external override onlySubOwner(_subId) nonReentrant {... */\n    tag_23:\n      tag_106\n      0x04\n      dup1\n      calldatasize\n      sub\n      dup2\n      add\n      swap1\n      tag_107\n      swap2\n      swap1\n      tag_36\n      jump\t// in\n    tag_107:\n      tag_108\n      jump\t// in\n    tag_106:\n      stop\n        /* \"@chainlink/contracts/src/v0.8/mocks/VRFCoordinatorV2Mock.sol\":9841:9961  function pendingRequestExists(uint64 /*subId*/) public pure override returns (bool) {... */\n    tag_24:\n      tag_109\n      0x04\n      dup1\n      calldatasize\n      sub\n      dup2\n      add\n      swap1\n      tag_110\n      swap2\n      swap1\n      tag_75\n      jump\t// in\n    tag_110:\n      tag_111\n      jump\t// in\n    tag_109:\n      mload(0x40)\n      tag_112\n      swap2\n      swap1\n      tag_113\n      jump\t// in\n    tag_112:\n      mload(0x40)\n      dup1\n      swap2\n      sub\n      swap1\n      return\n        /* \"@chainlink/contracts/src/v0.8/mocks/VRFCoordinatorV2Mock.sol\":2405:2695  function consumerIsAdded(uint64 _subId, address _consumer) public view returns (bool) {... */\n    tag_25:\n      tag_114\n      0x04\n      dup1\n      calldatasize\n      sub\n      dup2\n      add\n      swap1\n      tag_115\n      swap2\n      swap1\n      tag_36\n      jump\t// in\n    tag_115:\n      tag_116\n      jump\t// in\n    tag_114:\n      mload(0x40)\n      tag_117\n      swap2\n      swap1\n      tag_113\n      jump\t// in\n    tag_117:\n      mload(0x40)\n      dup1\n      swap2\n      sub\n      swap1\n      return\n        /* \"@chainlink/contracts/src/v0.8/shared/access/ConfirmedOwnerWithProposal.sol\":847:945  function transferOwnership(address to) public override onlyOwner {... */\n    tag_26:\n      tag_118\n      0x04\n      dup1\n      calldatasize\n      sub\n      dup2\n      add\n      swap1\n      tag_119\n      swap2\n      swap1\n      tag_120\n      jump\t// in\n    tag_119:\n      tag_121\n      jump\t// in\n    tag_118:\n      stop\n        /* \"@chainlink/contracts/src/v0.8/mocks/VRFCoordinatorV2Mock.sol\":7500:7642  function getRequestConfig() external pure override returns (uint16, uint32, bytes32[] memory) {... */\n    tag_31:\n        /* \"@chainlink/contracts/src/v0.8/mocks/VRFCoordinatorV2Mock.sol\":7560:7566  uint16 */\n      0x00\n        /* \"@chainlink/contracts/src/v0.8/mocks/VRFCoordinatorV2Mock.sol\":7568:7574  uint32 */\n      dup1\n        /* \"@chainlink/contracts/src/v0.8/mocks/VRFCoordinatorV2Mock.sol\":7576:7592  bytes32[] memory */\n      0x60\n        /* \"@chainlink/contracts/src/v0.8/mocks/VRFCoordinatorV2Mock.sol\":7608:7609  3 */\n      0x03\n        /* \"@chainlink/contracts/src/v0.8/mocks/VRFCoordinatorV2Mock.sol\":7611:7618  2000000 */\n      0x1e8480\n        /* \"@chainlink/contracts/src/v0.8/mocks/VRFCoordinatorV2Mock.sol\":7634:7635  0 */\n      0x00\n        /* \"@chainlink/contracts/src/v0.8/mocks/VRFCoordinatorV2Mock.sol\":7620:7636  new bytes32[](0) */\n      0xffffffffffffffff\n      dup2\n      gt\n      iszero\n      tag_123\n      jumpi\n      tag_124\n      tag_125\n      jump\t// in\n    tag_124:\n    tag_123:\n      mload(0x40)\n      swap1\n      dup1\n      dup3\n      mstore\n      dup1\n      0x20\n      mul\n      0x20\n      add\n      dup3\n      add\n      0x40\n      mstore\n      dup1\n      iszero\n      tag_126\n      jumpi\n      dup2\n      0x20\n      add\n      0x20\n      dup3\n      mul\n      dup1\n      calldatasize\n      dup4\n      calldatacopy\n      dup1\n      dup3\n      add\n      swap2\n      pop\n      pop\n      swap1\n      pop\n    tag_126:\n      pop\n        /* \"@chainlink/contracts/src/v0.8/mocks/VRFCoordinatorV2Mock.sol\":7600:7637  return (3, 2000000, new bytes32[](0)) */\n      swap3\n      pop\n      swap3\n      pop\n      swap3\n      pop\n        /* \"@chainlink/contracts/src/v0.8/mocks/VRFCoordinatorV2Mock.sol\":7500:7642  function getRequestConfig() external pure override returns (uint16, uint32, bytes32[] memory) {... */\n      swap1\n      swap2\n      swap3\n      jump\t// out\n        /* \"@chainlink/contracts/src/v0.8/mocks/VRFCoordinatorV2Mock.sol\":9571:9714  function requestSubscriptionOwnerTransfer(uint64 /*_subId*/, address /*_newOwner*/) external pure override {... */\n    tag_37:\n        /* \"@chainlink/contracts/src/v0.8/mocks/VRFCoordinatorV2Mock.sol\":9684:9709  revert(\"not implemented\") */\n      mload(0x40)\n      0x08c379a000000000000000000000000000000000000000000000000000000000\n      dup2\n      mstore\n      0x04\n      add\n      tag_128\n      swap1\n      tag_129\n      jump\t// in\n    tag_128:\n      mload(0x40)\n      dup1\n      swap2\n      sub\n      swap1\n      revert\n        /* \"@chainlink/contracts/src/v0.8/mocks/VRFCoordinatorV2Mock.sol\":3862:5061  function fulfillRandomWordsWithOverride(uint256 _requestId, address _consumer, uint256[] memory _words) public {... */\n    tag_41:\n        /* \"@chainlink/contracts/src/v0.8/mocks/VRFCoordinatorV2Mock.sol\":3979:3995  uint256 startGas */\n      0x00\n        /* \"@chainlink/contracts/src/v0.8/mocks/VRFCoordinatorV2Mock.sol\":3998:4007  gasleft() */\n      gas\n        /* \"@chainlink/contracts/src/v0.8/mocks/VRFCoordinatorV2Mock.sol\":3979:4007  uint256 startGas = gasleft() */\n      swap1\n      pop\n        /* \"@chainlink/contracts/src/v0.8/mocks/VRFCoordinatorV2Mock.sol\":4049:4050  0 */\n      0x00\n        /* \"@chainlink/contracts/src/v0.8/mocks/VRFCoordinatorV2Mock.sol\":4017:4027  s_requests */\n      0x08\n        /* \"@chainlink/contracts/src/v0.8/mocks/VRFCoordinatorV2Mock.sol\":4017:4039  s_requests[_requestId] */\n      0x00\n        /* \"@chainlink/contracts/src/v0.8/mocks/VRFCoordinatorV2Mock.sol\":4028:4038  _requestId */\n      dup7\n        /* \"@chainlink/contracts/src/v0.8/mocks/VRFCoordinatorV2Mock.sol\":4017:4039  s_requests[_requestId] */\n      dup2\n      mstore\n      0x20\n      add\n      swap1\n      dup2\n      mstore\n      0x20\n      add\n      0x00\n      keccak256\n        /* \"@chainlink/contracts/src/v0.8/mocks/VRFCoordinatorV2Mock.sol\":4017:4045  s_requests[_requestId].subId */\n      0x00\n      add\n      0x00\n      swap1\n      sload\n      swap1\n      0x0100\n      exp\n      swap1\n      div\n      0xffffffffffffffff\n      and\n        /* \"@chainlink/contracts/src/v0.8/mocks/VRFCoordinatorV2Mock.sol\":4017:4050  s_requests[_requestId].subId == 0 */\n      0xffffffffffffffff\n      and\n      sub\n        /* \"@chainlink/contracts/src/v0.8/mocks/VRFCoordinatorV2Mock.sol\":4013:4096  if (s_requests[_requestId].subId == 0) {... */\n      tag_131\n      jumpi\n        /* \"@chainlink/contracts/src/v0.8/mocks/VRFCoordinatorV2Mock.sol\":4060:4089  revert(\"nonexistent request\") */\n      mload(0x40)\n      0x08c379a000000000000000000000000000000000000000000000000000000000\n      dup2\n      mstore\n      0x04\n      add\n      tag_132\n      swap1\n      tag_133\n      jump\t// in\n    tag_132:\n      mload(0x40)\n      dup1\n      swap2\n      sub\n      swap1\n      revert\n        /* \"@chainlink/contracts/src/v0.8/mocks/VRFCoordinatorV2Mock.sol\":4013:4096  if (s_requests[_requestId].subId == 0) {... */\n    tag_131:\n        /* \"@chainlink/contracts/src/v0.8/mocks/VRFCoordinatorV2Mock.sol\":4101:4119  Request memory req */\n      0x00\n        /* \"@chainlink/contracts/src/v0.8/mocks/VRFCoordinatorV2Mock.sol\":4122:4132  s_requests */\n      0x08\n        /* \"@chainlink/contracts/src/v0.8/mocks/VRFCoordinatorV2Mock.sol\":4122:4144  s_requests[_requestId] */\n      0x00\n        /* \"@chainlink/contracts/src/v0.8/mocks/VRFCoordinatorV2Mock.sol\":4133:4143  _requestId */\n      dup7\n        /* \"@chainlink/contracts/src/v0.8/mocks/VRFCoordinatorV2Mock.sol\":4122:4144  s_requests[_requestId] */\n      dup2\n      mstore\n      0x20\n      add\n      swap1\n      dup2\n      mstore\n      0x20\n      add\n      0x00\n      keccak256\n        /* \"@chainlink/contracts/src/v0.8/mocks/VRFCoordinatorV2Mock.sol\":4101:4144  Request memory req = s_requests[_requestId] */\n      mload(0x40)\n      dup1\n      0x60\n      add\n      0x40\n      mstore\n      swap1\n      dup2\n      0x00\n      dup3\n      add\n      0x00\n      swap1\n      sload\n      swap1\n      0x0100\n      exp\n      swap1\n      div\n      0xffffffffffffffff\n      and\n      0xffffffffffffffff\n      and\n      0xffffffffffffffff\n      and\n      dup2\n      mstore\n      0x20\n      add\n      0x00\n      dup3\n      add\n      0x08\n      swap1\n      sload\n      swap1\n      0x0100\n      exp\n      swap1\n      div\n      0xffffffff\n      and\n      0xffffffff\n      and\n      0xffffffff\n      and\n      dup2\n      mstore\n      0x20\n      add\n      0x00\n      dup3\n      add\n      0x0c\n      swap1\n      sload\n      swap1\n      0x0100\n      exp\n      swap1\n      div\n      0xffffffff\n      and\n      0xffffffff\n      and\n      0xffffffff\n      and\n      dup2\n      mstore\n      pop\n      pop\n      swap1\n      pop\n        /* \"@chainlink/contracts/src/v0.8/mocks/VRFCoordinatorV2Mock.sol\":4172:4173  0 */\n      0x00\n        /* \"@chainlink/contracts/src/v0.8/mocks/VRFCoordinatorV2Mock.sol\":4155:4161  _words */\n      dup4\n        /* \"@chainlink/contracts/src/v0.8/mocks/VRFCoordinatorV2Mock.sol\":4155:4168  _words.length */\n      mload\n        /* \"@chainlink/contracts/src/v0.8/mocks/VRFCoordinatorV2Mock.sol\":4155:4173  _words.length == 0 */\n      sub\n        /* \"@chainlink/contracts/src/v0.8/mocks/VRFCoordinatorV2Mock.sol\":4151:4435  if (_words.length == 0) {... */\n      tag_134\n      jumpi\n        /* \"@chainlink/contracts/src/v0.8/mocks/VRFCoordinatorV2Mock.sol\":4206:4209  req */\n      dup1\n        /* \"@chainlink/contracts/src/v0.8/mocks/VRFCoordinatorV2Mock.sol\":4206:4218  req.numWords */\n      0x40\n      add\n      mload\n        /* \"@chainlink/contracts/src/v0.8/mocks/VRFCoordinatorV2Mock.sol\":4192:4219  new uint256[](req.numWords) */\n      0xffffffff\n      and\n      0xffffffffffffffff\n      dup2\n      gt\n      iszero\n      tag_135\n      jumpi\n      tag_136\n      tag_125\n      jump\t// in\n    tag_136:\n    tag_135:\n      mload(0x40)\n      swap1\n      dup1\n      dup3\n      mstore\n      dup1\n      0x20\n      mul\n      0x20\n      add\n      dup3\n      add\n      0x40\n      mstore\n      dup1\n      iszero\n      tag_137\n      jumpi\n      dup2\n      0x20\n      add\n      0x20\n      dup3\n      mul\n      dup1\n      calldatasize\n      dup4\n      calldatacopy\n      dup1\n      dup3\n      add\n      swap2\n      pop\n      pop\n      swap1\n      pop\n    tag_137:\n      pop\n        /* \"@chainlink/contracts/src/v0.8/mocks/VRFCoordinatorV2Mock.sol\":4183:4219  _words = new uint256[](req.numWords) */\n      swap3\n      pop\n        /* \"@chainlink/contracts/src/v0.8/mocks/VRFCoordinatorV2Mock.sol\":4232:4241  uint256 i */\n      0x00\n        /* \"@chainlink/contracts/src/v0.8/mocks/VRFCoordinatorV2Mock.sol\":4227:4346  for (uint256 i = 0; i < req.numWords; i++) {... */\n    tag_138:\n        /* \"@chainlink/contracts/src/v0.8/mocks/VRFCoordinatorV2Mock.sol\":4251:4254  req */\n      dup2\n        /* \"@chainlink/contracts/src/v0.8/mocks/VRFCoordinatorV2Mock.sol\":4251:4263  req.numWords */\n      0x40\n      add\n      mload\n        /* \"@chainlink/contracts/src/v0.8/mocks/VRFCoordinatorV2Mock.sol\":4247:4263  i < req.numWords */\n      0xffffffff\n      and\n        /* \"@chainlink/contracts/src/v0.8/mocks/VRFCoordinatorV2Mock.sol\":4247:4248  i */\n      dup2\n        /* \"@chainlink/contracts/src/v0.8/mocks/VRFCoordinatorV2Mock.sol\":4247:4263  i < req.numWords */\n      lt\n        /* \"@chainlink/contracts/src/v0.8/mocks/VRFCoordinatorV2Mock.sol\":4227:4346  for (uint256 i = 0; i < req.numWords; i++) {... */\n      iszero\n      tag_139\n      jumpi\n        /* \"@chainlink/contracts/src/v0.8/mocks/VRFCoordinatorV2Mock.sol\":4321:4331  _requestId */\n      dup6\n        /* \"@chainlink/contracts/src/v0.8/mocks/VRFCoordinatorV2Mock.sol\":4333:4334  i */\n      dup2\n        /* \"@chainlink/contracts/src/v0.8/mocks/VRFCoordinatorV2Mock.sol\":4310:4335  abi.encode(_requestId, i) */\n      add(0x20, mload(0x40))\n      tag_141\n      swap3\n      swap2\n      swap1\n      tag_142\n      jump\t// in\n    tag_141:\n      mload(0x40)\n      0x20\n      dup2\n      dup4\n      sub\n      sub\n      dup2\n      mstore\n      swap1\n      0x40\n      mstore\n        /* \"@chainlink/contracts/src/v0.8/mocks/VRFCoordinatorV2Mock.sol\":4300:4336  keccak256(abi.encode(_requestId, i)) */\n      dup1\n      mload\n      swap1\n      0x20\n      add\n      keccak256\n        /* \"@chainlink/contracts/src/v0.8/mocks/VRFCoordinatorV2Mock.sol\":4292:4337  uint256(keccak256(abi.encode(_requestId, i))) */\n      0x00\n      shr\n        /* \"@chainlink/contracts/src/v0.8/mocks/VRFCoordinatorV2Mock.sol\":4280:4286  _words */\n      dup5\n        /* \"@chainlink/contracts/src/v0.8/mocks/VRFCoordinatorV2Mock.sol\":4287:4288  i */\n      dup3\n        /* \"@chainlink/contracts/src/v0.8/mocks/VRFCoordinatorV2Mock.sol\":4280:4289  _words[i] */\n      dup2\n      mload\n      dup2\n      lt\n      tag_143\n      jumpi\n      tag_144\n      tag_145\n      jump\t// in\n    tag_144:\n    tag_143:\n      0x20\n      mul\n      0x20\n      add\n      add\n        /* \"@chainlink/contracts/src/v0.8/mocks/VRFCoordinatorV2Mock.sol\":4280:4337  _words[i] = uint256(keccak256(abi.encode(_requestId, i))) */\n      dup2\n      dup2\n      mstore\n      pop\n      pop\n        /* \"@chainlink/contracts/src/v0.8/mocks/VRFCoordinatorV2Mock.sol\":4265:4268  i++ */\n      dup1\n      dup1\n      tag_146\n      swap1\n      tag_147\n      jump\t// in\n    tag_146:\n      swap2\n      pop\n      pop\n        /* \"@chainlink/contracts/src/v0.8/mocks/VRFCoordinatorV2Mock.sol\":4227:4346  for (uint256 i = 0; i < req.numWords; i++) {... */\n      jump(tag_138)\n    tag_139:\n      pop\n        /* \"@chainlink/contracts/src/v0.8/mocks/VRFCoordinatorV2Mock.sol\":4151:4435  if (_words.length == 0) {... */\n      jump(tag_148)\n    tag_134:\n        /* \"@chainlink/contracts/src/v0.8/mocks/VRFCoordinatorV2Mock.sol\":4379:4382  req */\n      dup1\n        /* \"@chainlink/contracts/src/v0.8/mocks/VRFCoordinatorV2Mock.sol\":4379:4391  req.numWords */\n      0x40\n      add\n      mload\n        /* \"@chainlink/contracts/src/v0.8/mocks/VRFCoordinatorV2Mock.sol\":4362:4391  _words.length != req.numWords */\n      0xffffffff\n      and\n        /* \"@chainlink/contracts/src/v0.8/mocks/VRFCoordinatorV2Mock.sol\":4362:4368  _words */\n      dup4\n        /* \"@chainlink/contracts/src/v0.8/mocks/VRFCoordinatorV2Mock.sol\":4362:4375  _words.length */\n      mload\n        /* \"@chainlink/contracts/src/v0.8/mocks/VRFCoordinatorV2Mock.sol\":4362:4391  _words.length != req.numWords */\n      eq\n        /* \"@chainlink/contracts/src/v0.8/mocks/VRFCoordinatorV2Mock.sol\":4358:4435  if (_words.length != req.numWords) {... */\n      tag_149\n      jumpi\n        /* \"@chainlink/contracts/src/v0.8/mocks/VRFCoordinatorV2Mock.sol\":4408:4428  InvalidRandomWords() */\n      mload(0x40)\n      0x3f3df5b600000000000000000000000000000000000000000000000000000000\n      dup2\n      mstore\n      0x04\n      add\n      mload(0x40)\n      dup1\n      swap2\n      sub\n      swap1\n      revert\n        /* \"@chainlink/contracts/src/v0.8/mocks/VRFCoordinatorV2Mock.sol\":4358:4435  if (_words.length != req.numWords) {... */\n    tag_149:\n        /* \"@chainlink/contracts/src/v0.8/mocks/VRFCoordinatorV2Mock.sol\":4151:4435  if (_words.length == 0) {... */\n    tag_148:\n        /* \"@chainlink/contracts/src/v0.8/mocks/VRFCoordinatorV2Mock.sol\":4441:4460  VRFConsumerBaseV2 v */\n      0x00\n        /* \"@chainlink/contracts/src/v0.8/mocks/VRFCoordinatorV2Mock.sol\":4466:4486  bytes memory callReq */\n      dup1\n        /* \"@chainlink/contracts/src/v0.8/mocks/VRFCoordinatorV2Mock.sol\":4512:4544  v.rawFulfillRandomWords.selector */\n      shl(0xe0, 0x1fe543e3)\n        /* \"@chainlink/contracts/src/v0.8/mocks/VRFCoordinatorV2Mock.sol\":4546:4556  _requestId */\n      dup8\n        /* \"@chainlink/contracts/src/v0.8/mocks/VRFCoordinatorV2Mock.sol\":4558:4564  _words */\n      dup7\n        /* \"@chainlink/contracts/src/v0.8/mocks/VRFCoordinatorV2Mock.sol\":4489:4565  abi.encodeWithSelector(v.rawFulfillRandomWords.selector, _requestId, _words) */\n      add(0x24, mload(0x40))\n      tag_150\n      swap3\n      swap2\n      swap1\n      tag_151\n      jump\t// in\n    tag_150:\n      mload(0x40)\n      0x20\n      dup2\n      dup4\n      sub\n      sub\n      dup2\n      mstore\n      swap1\n      0x40\n      mstore\n      swap1\n      not(0xffffffffffffffffffffffffffffffffffffffffffffffffffffffff)\n      and\n      0x20\n      dup3\n      add\n      dup1\n      mload\n      0xffffffffffffffffffffffffffffffffffffffffffffffffffffffff\n      dup4\n      dup2\n      dup4\n      and\n      or\n      dup4\n      mstore\n      pop\n      pop\n      pop\n      pop\n        /* \"@chainlink/contracts/src/v0.8/mocks/VRFCoordinatorV2Mock.sol\":4466:4565  bytes memory callReq = abi.encodeWithSelector(v.rawFulfillRandomWords.selector, _requestId, _words) */\n      swap1\n      pop\n        /* \"@chainlink/contracts/src/v0.8/mocks/VRFCoordinatorV2Mock.sol\":4597:4601  true */\n      0x01\n        /* \"@chainlink/contracts/src/v0.8/mocks/VRFCoordinatorV2Mock.sol\":4571:4579  s_config */\n      0x02\n        /* \"@chainlink/contracts/src/v0.8/mocks/VRFCoordinatorV2Mock.sol\":4571:4594  s_config.reentrancyLock */\n      0x00\n      add\n      0x00\n        /* \"@chainlink/contracts/src/v0.8/mocks/VRFCoordinatorV2Mock.sol\":4571:4601  s_config.reentrancyLock = true */\n      0x0100\n      exp\n      dup2\n      sload\n      dup2\n      0xff\n      mul\n      not\n      and\n      swap1\n      dup4\n      iszero\n      iszero\n      mul\n      or\n      swap1\n      sstore\n      pop\n        /* \"@chainlink/contracts/src/v0.8/mocks/VRFCoordinatorV2Mock.sol\":4608:4620  bool success */\n      0x00\n        /* \"@chainlink/contracts/src/v0.8/mocks/VRFCoordinatorV2Mock.sol\":4626:4635  _consumer */\n      dup7\n        /* \"@chainlink/contracts/src/v0.8/mocks/VRFCoordinatorV2Mock.sol\":4626:4640  _consumer.call */\n      0xffffffffffffffffffffffffffffffffffffffff\n      and\n        /* \"@chainlink/contracts/src/v0.8/mocks/VRFCoordinatorV2Mock.sol\":4646:4649  req */\n      dup5\n        /* \"@chainlink/contracts/src/v0.8/mocks/VRFCoordinatorV2Mock.sol\":4646:4666  req.callbackGasLimit */\n      0x20\n      add\n      mload\n        /* \"@chainlink/contracts/src/v0.8/mocks/VRFCoordinatorV2Mock.sol\":4626:4676  _consumer.call{gas: req.callbackGasLimit}(callReq) */\n      0xffffffff\n      and\n        /* \"@chainlink/contracts/src/v0.8/mocks/VRFCoordinatorV2Mock.sol\":4668:4675  callReq */\n      dup4\n        /* \"@chainlink/contracts/src/v0.8/mocks/VRFCoordinatorV2Mock.sol\":4626:4676  _consumer.call{gas: req.callbackGasLimit}(callReq) */\n      mload(0x40)\n      tag_152\n      swap2\n      swap1\n      tag_153\n      jump\t// in\n    tag_152:\n      0x00\n      mload(0x40)\n      dup1\n      dup4\n      sub\n      dup2\n      0x00\n      dup8\n      dup8\n      call\n      swap3\n      pop\n      pop\n      pop\n      returndatasize\n      dup1\n      0x00\n      dup2\n      eq\n      tag_156\n      jumpi\n      mload(0x40)\n      swap2\n      pop\n      and(add(returndatasize, 0x3f), not(0x1f))\n      dup3\n      add\n      0x40\n      mstore\n      returndatasize\n      dup3\n      mstore\n      returndatasize\n      0x00\n      0x20\n      dup5\n      add\n      returndatacopy\n      jump(tag_155)\n    tag_156:\n      0x60\n      swap2\n      pop\n    tag_155:\n      pop\n        /* \"@chainlink/contracts/src/v0.8/mocks/VRFCoordinatorV2Mock.sol\":4607:4676  (bool success, ) = _consumer.call{gas: req.callbackGasLimit}(callReq) */\n      pop\n      swap1\n      pop\n        /* \"@chainlink/contracts/src/v0.8/mocks/VRFCoordinatorV2Mock.sol\":4708:4713  false */\n      0x00\n        /* \"@chainlink/contracts/src/v0.8/mocks/VRFCoordinatorV2Mock.sol\":4682:4690  s_config */\n      0x02\n        /* \"@chainlink/contracts/src/v0.8/mocks/VRFCoordinatorV2Mock.sol\":4682:4705  s_config.reentrancyLock */\n      0x00\n      add\n      0x00\n        /* \"@chainlink/contracts/src/v0.8/mocks/VRFCoordinatorV2Mock.sol\":4682:4713  s_config.reentrancyLock = false */\n      0x0100\n      exp\n      dup2\n      sload\n      dup2\n      0xff\n      mul\n      not\n      and\n      swap1\n      dup4\n      iszero\n      iszero\n      mul\n      or\n      swap1\n      sstore\n      pop\n        /* \"@chainlink/contracts/src/v0.8/mocks/VRFCoordinatorV2Mock.sol\":4720:4734  uint96 payment */\n      0x00\n        /* \"@chainlink/contracts/src/v0.8/mocks/VRFCoordinatorV2Mock.sol\":4781:4795  GAS_PRICE_LINK */\n      immutable(\"0xb811eb8190fe00dc85563459f7e9e4ba4c2ef31ddac91e9e2d37d1e7e1b1d5bc\")\n        /* \"@chainlink/contracts/src/v0.8/mocks/VRFCoordinatorV2Mock.sol\":4756:4795  (startGas - gasleft()) * GAS_PRICE_LINK */\n      0xffffffffffffffffffffffff\n      and\n        /* \"@chainlink/contracts/src/v0.8/mocks/VRFCoordinatorV2Mock.sol\":4768:4777  gasleft() */\n      gas\n        /* \"@chainlink/contracts/src/v0.8/mocks/VRFCoordinatorV2Mock.sol\":4757:4765  startGas */\n      dup8\n        /* \"@chainlink/contracts/src/v0.8/mocks/VRFCoordinatorV2Mock.sol\":4757:4777  startGas - gasleft() */\n      tag_157\n      swap2\n      swap1\n      tag_158\n      jump\t// in\n    tag_157:\n        /* \"@chainlink/contracts/src/v0.8/mocks/VRFCoordinatorV2Mock.sol\":4756:4795  (startGas - gasleft()) * GAS_PRICE_LINK */\n      tag_159\n      swap2\n      swap1\n      tag_160\n      jump\t// in\n    tag_159:\n        /* \"@chainlink/contracts/src/v0.8/mocks/VRFCoordinatorV2Mock.sol\":4744:4752  BASE_FEE */\n      immutable(\"0xe41a685dc3df81383d452481451b89eb3f69781b836c19936fa9714a13d1c9c2\")\n        /* \"@chainlink/contracts/src/v0.8/mocks/VRFCoordinatorV2Mock.sol\":4744:4796  BASE_FEE + ((startGas - gasleft()) * GAS_PRICE_LINK) */\n      0xffffffffffffffffffffffff\n      and\n      tag_161\n      swap2\n      swap1\n      tag_162\n      jump\t// in\n    tag_161:\n        /* \"@chainlink/contracts/src/v0.8/mocks/VRFCoordinatorV2Mock.sol\":4720:4797  uint96 payment = uint96(BASE_FEE + ((startGas - gasleft()) * GAS_PRICE_LINK)) */\n      swap1\n      pop\n        /* \"@chainlink/contracts/src/v0.8/mocks/VRFCoordinatorV2Mock.sol\":4844:4851  payment */\n      dup1\n        /* \"@chainlink/contracts/src/v0.8/mocks/VRFCoordinatorV2Mock.sol\":4807:4851  s_subscriptions[req.subId].balance < payment */\n      0xffffffffffffffffffffffff\n      and\n        /* \"@chainlink/contracts/src/v0.8/mocks/VRFCoordinatorV2Mock.sol\":4807:4822  s_subscriptions */\n      0x06\n        /* \"@chainlink/contracts/src/v0.8/mocks/VRFCoordinatorV2Mock.sol\":4807:4833  s_subscriptions[req.subId] */\n      0x00\n        /* \"@chainlink/contracts/src/v0.8/mocks/VRFCoordinatorV2Mock.sol\":4823:4826  req */\n      dup8\n        /* \"@chainlink/contracts/src/v0.8/mocks/VRFCoordinatorV2Mock.sol\":4823:4832  req.subId */\n      0x00\n      add\n      mload\n        /* \"@chainlink/contracts/src/v0.8/mocks/VRFCoordinatorV2Mock.sol\":4807:4833  s_subscriptions[req.subId] */\n      0xffffffffffffffff\n      and\n      0xffffffffffffffff\n      and\n      dup2\n      mstore\n      0x20\n      add\n      swap1\n      dup2\n      mstore\n      0x20\n      add\n      0x00\n      keccak256\n        /* \"@chainlink/contracts/src/v0.8/mocks/VRFCoordinatorV2Mock.sol\":4807:4841  s_subscriptions[req.subId].balance */\n      0x00\n      add\n      0x14\n      swap1\n      sload\n      swap1\n      0x0100\n      exp\n      swap1\n      div\n      0xffffffffffffffffffffffff\n      and\n        /* \"@chainlink/contracts/src/v0.8/mocks/VRFCoordinatorV2Mock.sol\":4807:4851  s_subscriptions[req.subId].balance < payment */\n      0xffffffffffffffffffffffff\n      and\n      lt\n        /* \"@chainlink/contracts/src/v0.8/mocks/VRFCoordinatorV2Mock.sol\":4803:4896  if (s_subscriptions[req.subId].balance < payment) {... */\n      iszero\n      tag_163\n      jumpi\n        /* \"@chainlink/contracts/src/v0.8/mocks/VRFCoordinatorV2Mock.sol\":4868:4889  InsufficientBalance() */\n      mload(0x40)\n      0xf4d678b800000000000000000000000000000000000000000000000000000000\n      dup2\n      mstore\n      0x04\n      add\n      mload(0x40)\n      dup1\n      swap2\n      sub\n      swap1\n      revert\n        /* \"@chainlink/contracts/src/v0.8/mocks/VRFCoordinatorV2Mock.sol\":4803:4896  if (s_subscriptions[req.subId].balance < payment) {... */\n    tag_163:\n        /* \"@chainlink/contracts/src/v0.8/mocks/VRFCoordinatorV2Mock.sol\":4939:4946  payment */\n      dup1\n        /* \"@chainlink/contracts/src/v0.8/mocks/VRFCoordinatorV2Mock.sol\":4901:4916  s_subscriptions */\n      0x06\n        /* \"@chainlink/contracts/src/v0.8/mocks/VRFCoordinatorV2Mock.sol\":4901:4927  s_subscriptions[req.subId] */\n      0x00\n        /* \"@chainlink/contracts/src/v0.8/mocks/VRFCoordinatorV2Mock.sol\":4917:4920  req */\n      dup8\n        /* \"@chainlink/contracts/src/v0.8/mocks/VRFCoordinatorV2Mock.sol\":4917:4926  req.subId */\n      0x00\n      add\n      mload\n        /* \"@chainlink/contracts/src/v0.8/mocks/VRFCoordinatorV2Mock.sol\":4901:4927  s_subscriptions[req.subId] */\n      0xffffffffffffffff\n      and\n      0xffffffffffffffff\n      and\n      dup2\n      mstore\n      0x20\n      add\n      swap1\n      dup2\n      mstore\n      0x20\n      add\n      0x00\n      keccak256\n        /* \"@chainlink/contracts/src/v0.8/mocks/VRFCoordinatorV2Mock.sol\":4901:4935  s_subscriptions[req.subId].balance */\n      0x00\n      add\n      0x14\n        /* \"@chainlink/contracts/src/v0.8/mocks/VRFCoordinatorV2Mock.sol\":4901:4946  s_subscriptions[req.subId].balance -= payment */\n      dup3\n      dup3\n      dup3\n      swap1\n      sload\n      swap1\n      0x0100\n      exp\n      swap1\n      div\n      0xffffffffffffffffffffffff\n      and\n      tag_164\n      swap2\n      swap1\n      tag_165\n      jump\t// in\n    tag_164:\n      swap3\n      pop\n      0x0100\n      exp\n      dup2\n      sload\n      dup2\n      0xffffffffffffffffffffffff\n      mul\n      not\n      and\n      swap1\n      dup4\n      0xffffffffffffffffffffffff\n      and\n      mul\n      or\n      swap1\n      sstore\n      pop\n        /* \"@chainlink/contracts/src/v0.8/mocks/VRFCoordinatorV2Mock.sol\":4960:4970  s_requests */\n      0x08\n        /* \"@chainlink/contracts/src/v0.8/mocks/VRFCoordinatorV2Mock.sol\":4960:4982  s_requests[_requestId] */\n      0x00\n        /* \"@chainlink/contracts/src/v0.8/mocks/VRFCoordinatorV2Mock.sol\":4971:4981  _requestId */\n      dup11\n        /* \"@chainlink/contracts/src/v0.8/mocks/VRFCoordinatorV2Mock.sol\":4960:4982  s_requests[_requestId] */\n      dup2\n      mstore\n      0x20\n      add\n      swap1\n      dup2\n      mstore\n      0x20\n      add\n      0x00\n      keccak256\n      0x00\n        /* \"@chainlink/contracts/src/v0.8/mocks/VRFCoordinatorV2Mock.sol\":4952:4983  delete (s_requests[_requestId]) */\n      dup1\n      dup3\n      add\n      exp(0x0100, 0x00)\n      dup2\n      sload\n      swap1\n      0xffffffffffffffff\n      mul\n      not\n      and\n      swap1\n      sstore\n      0x00\n      dup3\n      add\n      exp(0x0100, 0x08)\n      dup2\n      sload\n      swap1\n      0xffffffff\n      mul\n      not\n      and\n      swap1\n      sstore\n      0x00\n      dup3\n      add\n      exp(0x0100, 0x0c)\n      dup2\n      sload\n      swap1\n      0xffffffff\n      mul\n      not\n      and\n      swap1\n      sstore\n      pop\n      pop\n        /* \"@chainlink/contracts/src/v0.8/mocks/VRFCoordinatorV2Mock.sol\":5015:5025  _requestId */\n      dup9\n        /* \"@chainlink/contracts/src/v0.8/mocks/VRFCoordinatorV2Mock.sol\":4994:5056  RandomWordsFulfilled(_requestId, _requestId, payment, success) */\n      0x7dffc5ae5ee4e2e4df1651cf6ad329a73cebdb728f37ea0187b9b17e036756e4\n        /* \"@chainlink/contracts/src/v0.8/mocks/VRFCoordinatorV2Mock.sol\":5027:5037  _requestId */\n      dup11\n        /* \"@chainlink/contracts/src/v0.8/mocks/VRFCoordinatorV2Mock.sol\":5039:5046  payment */\n      dup4\n        /* \"@chainlink/contracts/src/v0.8/mocks/VRFCoordinatorV2Mock.sol\":5048:5055  success */\n      dup6\n        /* \"@chainlink/contracts/src/v0.8/mocks/VRFCoordinatorV2Mock.sol\":4994:5056  RandomWordsFulfilled(_requestId, _requestId, payment, success) */\n      mload(0x40)\n      tag_166\n      swap4\n      swap3\n      swap2\n      swap1\n      tag_167\n      jump\t// in\n    tag_166:\n      mload(0x40)\n      dup1\n      swap2\n      sub\n      swap1\n      log2\n        /* \"@chainlink/contracts/src/v0.8/mocks/VRFCoordinatorV2Mock.sol\":3973:5061  {... */\n      pop\n      pop\n      pop\n      pop\n      pop\n      pop\n        /* \"@chainlink/contracts/src/v0.8/mocks/VRFCoordinatorV2Mock.sol\":3862:5061  function fulfillRandomWordsWithOverride(uint256 _requestId, address _consumer, uint256[] memory _words) public {... */\n      pop\n      pop\n      pop\n      jump\t// out\n        /* \"@chainlink/contracts/src/v0.8/mocks/VRFCoordinatorV2Mock.sol\":9450:9567  function getFallbackWeiPerUnitLink() external pure returns (int256) {... */\n    tag_43:\n        /* \"@chainlink/contracts/src/v0.8/mocks/VRFCoordinatorV2Mock.sol\":9510:9516  int256 */\n      0x00\n        /* \"@chainlink/contracts/src/v0.8/mocks/VRFCoordinatorV2Mock.sol\":9531:9547  4000000000000000 */\n      0x0e35fa931a0000\n        /* \"@chainlink/contracts/src/v0.8/mocks/VRFCoordinatorV2Mock.sol\":9524:9547  return 4000000000000000 */\n      swap1\n      pop\n        /* \"@chainlink/contracts/src/v0.8/mocks/VRFCoordinatorV2Mock.sol\":9450:9567  function getFallbackWeiPerUnitLink() external pure returns (int256) {... */\n      swap1\n      jump\t// out\n        /* \"@chainlink/contracts/src/v0.8/mocks/VRFCoordinatorV2Mock.sol\":390:422  uint96 public immutable BASE_FEE */\n    tag_47:\n      immutable(\"0xe41a685dc3df81383d452481451b89eb3f69781b836c19936fa9714a13d1c9c2\")\n      dup2\n      jump\t// out\n        /* \"@chainlink/contracts/src/v0.8/mocks/VRFCoordinatorV2Mock.sol\":5609:6378  function requestRandomWords(... */\n    tag_53:\n        /* \"@chainlink/contracts/src/v0.8/mocks/VRFCoordinatorV2Mock.sol\":5853:5860  uint256 */\n      0x00\n        /* \"@chainlink/contracts/src/v0.8/mocks/VRFCoordinatorV2Mock.sol\":9377:9385  s_config */\n      0x02\n        /* \"@chainlink/contracts/src/v0.8/mocks/VRFCoordinatorV2Mock.sol\":9377:9400  s_config.reentrancyLock */\n      0x00\n      add\n      0x00\n      swap1\n      sload\n      swap1\n      0x0100\n      exp\n      swap1\n      div\n      0xff\n      and\n        /* \"@chainlink/contracts/src/v0.8/mocks/VRFCoordinatorV2Mock.sol\":9373:9435  if (s_config.reentrancyLock) {... */\n      iszero\n      tag_170\n      jumpi\n        /* \"@chainlink/contracts/src/v0.8/mocks/VRFCoordinatorV2Mock.sol\":9417:9428  Reentrant() */\n      mload(0x40)\n      0xed3ba6a600000000000000000000000000000000000000000000000000000000\n      dup2\n      mstore\n      0x04\n      add\n      mload(0x40)\n      dup1\n      swap2\n      sub\n      swap1\n      revert\n        /* \"@chainlink/contracts/src/v0.8/mocks/VRFCoordinatorV2Mock.sol\":9373:9435  if (s_config.reentrancyLock) {... */\n    tag_170:\n        /* \"@chainlink/contracts/src/v0.8/mocks/VRFCoordinatorV2Mock.sol\":5824:5830  _subId */\n      dup5\n        /* \"@chainlink/contracts/src/v0.8/mocks/VRFCoordinatorV2Mock.sol\":5832:5842  msg.sender */\n      caller\n        /* \"@chainlink/contracts/src/v0.8/mocks/VRFCoordinatorV2Mock.sol\":2771:2805  consumerIsAdded(_subId, _consumer) */\n      tag_172\n        /* \"@chainlink/contracts/src/v0.8/mocks/VRFCoordinatorV2Mock.sol\":2787:2793  _subId */\n      dup3\n        /* \"@chainlink/contracts/src/v0.8/mocks/VRFCoordinatorV2Mock.sol\":2795:2804  _consumer */\n      dup3\n        /* \"@chainlink/contracts/src/v0.8/mocks/VRFCoordinatorV2Mock.sol\":2771:2786  consumerIsAdded */\n      tag_116\n        /* \"@chainlink/contracts/src/v0.8/mocks/VRFCoordinatorV2Mock.sol\":2771:2805  consumerIsAdded(_subId, _consumer) */\n      jump\t// in\n    tag_172:\n        /* \"@chainlink/contracts/src/v0.8/mocks/VRFCoordinatorV2Mock.sol\":2766:2846  if (!consumerIsAdded(_subId, _consumer)) {... */\n      tag_173\n      jumpi\n        /* \"@chainlink/contracts/src/v0.8/mocks/VRFCoordinatorV2Mock.sol\":2822:2839  InvalidConsumer() */\n      mload(0x40)\n      0x71e8313700000000000000000000000000000000000000000000000000000000\n      dup2\n      mstore\n      0x04\n      add\n      mload(0x40)\n      dup1\n      swap2\n      sub\n      swap1\n      revert\n        /* \"@chainlink/contracts/src/v0.8/mocks/VRFCoordinatorV2Mock.sol\":2766:2846  if (!consumerIsAdded(_subId, _consumer)) {... */\n    tag_173:\n        /* \"@chainlink/contracts/src/v0.8/mocks/VRFCoordinatorV2Mock.sol\":5913:5914  0 */\n      0x00\n        /* \"@chainlink/contracts/src/v0.8/mocks/VRFCoordinatorV2Mock.sol\":5872:5915  s_subscriptions[_subId].owner == address(0) */\n      0xffffffffffffffffffffffffffffffffffffffff\n      and\n        /* \"@chainlink/contracts/src/v0.8/mocks/VRFCoordinatorV2Mock.sol\":5872:5887  s_subscriptions */\n      0x06\n        /* \"@chainlink/contracts/src/v0.8/mocks/VRFCoordinatorV2Mock.sol\":5872:5895  s_subscriptions[_subId] */\n      0x00\n        /* \"@chainlink/contracts/src/v0.8/mocks/VRFCoordinatorV2Mock.sol\":5888:5894  _subId */\n      dup10\n        /* \"@chainlink/contracts/src/v0.8/mocks/VRFCoordinatorV2Mock.sol\":5872:5895  s_subscriptions[_subId] */\n      0xffffffffffffffff\n      and\n      0xffffffffffffffff\n      and\n      dup2\n      mstore\n      0x20\n      add\n      swap1\n      dup2\n      mstore\n      0x20\n      add\n      0x00\n      keccak256\n        /* \"@chainlink/contracts/src/v0.8/mocks/VRFCoordinatorV2Mock.sol\":5872:5901  s_subscriptions[_subId].owner */\n      0x00\n      add\n      0x00\n      swap1\n      sload\n      swap1\n      0x0100\n      exp\n      swap1\n      div\n      0xffffffffffffffffffffffffffffffffffffffff\n      and\n        /* \"@chainlink/contracts/src/v0.8/mocks/VRFCoordinatorV2Mock.sol\":5872:5915  s_subscriptions[_subId].owner == address(0) */\n      0xffffffffffffffffffffffffffffffffffffffff\n      and\n      sub\n        /* \"@chainlink/contracts/src/v0.8/mocks/VRFCoordinatorV2Mock.sol\":5868:5960  if (s_subscriptions[_subId].owner == address(0)) {... */\n      tag_175\n      jumpi\n        /* \"@chainlink/contracts/src/v0.8/mocks/VRFCoordinatorV2Mock.sol\":5932:5953  InvalidSubscription() */\n      mload(0x40)\n      0x1f6a65b600000000000000000000000000000000000000000000000000000000\n      dup2\n      mstore\n      0x04\n      add\n      mload(0x40)\n      dup1\n      swap2\n      sub\n      swap1\n      revert\n        /* \"@chainlink/contracts/src/v0.8/mocks/VRFCoordinatorV2Mock.sol\":5868:5960  if (s_subscriptions[_subId].owner == address(0)) {... */\n    tag_175:\n        /* \"@chainlink/contracts/src/v0.8/mocks/VRFCoordinatorV2Mock.sol\":5966:5983  uint256 requestId */\n      0x00\n        /* \"@chainlink/contracts/src/v0.8/mocks/VRFCoordinatorV2Mock.sol\":5986:6001  s_nextRequestId */\n      0x04\n      0x00\n        /* \"@chainlink/contracts/src/v0.8/mocks/VRFCoordinatorV2Mock.sol\":5986:6003  s_nextRequestId++ */\n      dup2\n      sload\n      dup1\n      swap3\n      swap2\n      swap1\n      tag_176\n      swap1\n      tag_147\n      jump\t// in\n    tag_176:\n      swap2\n      swap1\n      pop\n      sstore\n        /* \"@chainlink/contracts/src/v0.8/mocks/VRFCoordinatorV2Mock.sol\":5966:6003  uint256 requestId = s_nextRequestId++ */\n      swap1\n      pop\n        /* \"@chainlink/contracts/src/v0.8/mocks/VRFCoordinatorV2Mock.sol\":6009:6024  uint256 preSeed */\n      0x00\n        /* \"@chainlink/contracts/src/v0.8/mocks/VRFCoordinatorV2Mock.sol\":6027:6040  s_nextPreSeed */\n      0x05\n      0x00\n        /* \"@chainlink/contracts/src/v0.8/mocks/VRFCoordinatorV2Mock.sol\":6027:6042  s_nextPreSeed++ */\n      dup2\n      sload\n      dup1\n      swap3\n      swap2\n      swap1\n      tag_177\n      swap1\n      tag_147\n      jump\t// in\n    tag_177:\n      swap2\n      swap1\n      pop\n      sstore\n        /* \"@chainlink/contracts/src/v0.8/mocks/VRFCoordinatorV2Mock.sol\":6009:6042  uint256 preSeed = s_nextPreSeed++ */\n      swap1\n      pop\n        /* \"@chainlink/contracts/src/v0.8/mocks/VRFCoordinatorV2Mock.sol\":6073:6155  Request({subId: _subId, callbackGasLimit: _callbackGasLimit, numWords: _numWords}) */\n      mload(0x40)\n      dup1\n      0x60\n      add\n      0x40\n      mstore\n      dup1\n        /* \"@chainlink/contracts/src/v0.8/mocks/VRFCoordinatorV2Mock.sol\":6089:6095  _subId */\n      dup11\n        /* \"@chainlink/contracts/src/v0.8/mocks/VRFCoordinatorV2Mock.sol\":6073:6155  Request({subId: _subId, callbackGasLimit: _callbackGasLimit, numWords: _numWords}) */\n      0xffffffffffffffff\n      and\n      dup2\n      mstore\n      0x20\n      add\n        /* \"@chainlink/contracts/src/v0.8/mocks/VRFCoordinatorV2Mock.sol\":6115:6132  _callbackGasLimit */\n      dup9\n        /* \"@chainlink/contracts/src/v0.8/mocks/VRFCoordinatorV2Mock.sol\":6073:6155  Request({subId: _subId, callbackGasLimit: _callbackGasLimit, numWords: _numWords}) */\n      0xffffffff\n      and\n      dup2\n      mstore\n      0x20\n      add\n        /* \"@chainlink/contracts/src/v0.8/mocks/VRFCoordinatorV2Mock.sol\":6144:6153  _numWords */\n      dup8\n        /* \"@chainlink/contracts/src/v0.8/mocks/VRFCoordinatorV2Mock.sol\":6073:6155  Request({subId: _subId, callbackGasLimit: _callbackGasLimit, numWords: _numWords}) */\n      0xffffffff\n      and\n      dup2\n      mstore\n      pop\n        /* \"@chainlink/contracts/src/v0.8/mocks/VRFCoordinatorV2Mock.sol\":6049:6059  s_requests */\n      0x08\n        /* \"@chainlink/contracts/src/v0.8/mocks/VRFCoordinatorV2Mock.sol\":6049:6070  s_requests[requestId] */\n      0x00\n        /* \"@chainlink/contracts/src/v0.8/mocks/VRFCoordinatorV2Mock.sol\":6060:6069  requestId */\n      dup5\n        /* \"@chainlink/contracts/src/v0.8/mocks/VRFCoordinatorV2Mock.sol\":6049:6070  s_requests[requestId] */\n      dup2\n      mstore\n      0x20\n      add\n      swap1\n      dup2\n      mstore\n      0x20\n      add\n      0x00\n      keccak256\n        /* \"@chainlink/contracts/src/v0.8/mocks/VRFCoordinatorV2Mock.sol\":6049:6155  s_requests[requestId] = Request({subId: _subId, callbackGasLimit: _callbackGasLimit, numWords: _numWords}) */\n      0x00\n      dup3\n      add\n      mload\n      dup2\n      0x00\n      add\n      exp(0x0100, 0x00)\n      dup2\n      sload\n      dup2\n      0xffffffffffffffff\n      mul\n      not\n      and\n      swap1\n      dup4\n      0xffffffffffffffff\n      and\n      mul\n      or\n      swap1\n      sstore\n      pop\n      0x20\n      dup3\n      add\n      mload\n      dup2\n      0x00\n      add\n      exp(0x0100, 0x08)\n      dup2\n      sload\n      dup2\n      0xffffffff\n      mul\n      not\n      and\n      swap1\n      dup4\n      0xffffffff\n      and\n      mul\n      or\n      swap1\n      sstore\n      pop\n      0x40\n      dup3\n      add\n      mload\n      dup2\n      0x00\n      add\n      exp(0x0100, 0x0c)\n      dup2\n      sload\n      dup2\n      0xffffffff\n      mul\n      not\n      and\n      swap1\n      dup4\n      0xffffffff\n      and\n      mul\n      or\n      swap1\n      sstore\n      pop\n      swap1\n      pop\n      pop\n        /* \"@chainlink/contracts/src/v0.8/mocks/VRFCoordinatorV2Mock.sol\":6335:6345  msg.sender */\n      caller\n        /* \"@chainlink/contracts/src/v0.8/mocks/VRFCoordinatorV2Mock.sol\":6167:6351  RandomWordsRequested(... */\n      0xffffffffffffffffffffffffffffffffffffffff\n      and\n        /* \"@chainlink/contracts/src/v0.8/mocks/VRFCoordinatorV2Mock.sol\":6243:6249  _subId */\n      dup10\n        /* \"@chainlink/contracts/src/v0.8/mocks/VRFCoordinatorV2Mock.sol\":6167:6351  RandomWordsRequested(... */\n      0xffffffffffffffff\n      and\n        /* \"@chainlink/contracts/src/v0.8/mocks/VRFCoordinatorV2Mock.sol\":6195:6203  _keyHash */\n      dup12\n        /* \"@chainlink/contracts/src/v0.8/mocks/VRFCoordinatorV2Mock.sol\":6167:6351  RandomWordsRequested(... */\n      0x63373d1c4696214b898952999c9aaec57dac1ee2723cec59bea6888f489a9772\n        /* \"@chainlink/contracts/src/v0.8/mocks/VRFCoordinatorV2Mock.sol\":6211:6220  requestId */\n      dup6\n        /* \"@chainlink/contracts/src/v0.8/mocks/VRFCoordinatorV2Mock.sol\":6228:6235  preSeed */\n      dup6\n        /* \"@chainlink/contracts/src/v0.8/mocks/VRFCoordinatorV2Mock.sol\":6257:6285  _minimumRequestConfirmations */\n      dup14\n        /* \"@chainlink/contracts/src/v0.8/mocks/VRFCoordinatorV2Mock.sol\":6293:6310  _callbackGasLimit */\n      dup14\n        /* \"@chainlink/contracts/src/v0.8/mocks/VRFCoordinatorV2Mock.sol\":6318:6327  _numWords */\n      dup14\n        /* \"@chainlink/contracts/src/v0.8/mocks/VRFCoordinatorV2Mock.sol\":6167:6351  RandomWordsRequested(... */\n      mload(0x40)\n      tag_178\n      swap6\n      swap5\n      swap4\n      swap3\n      swap2\n      swap1\n      tag_179\n      jump\t// in\n    tag_178:\n      mload(0x40)\n      dup1\n      swap2\n      sub\n      swap1\n      log4\n        /* \"@chainlink/contracts/src/v0.8/mocks/VRFCoordinatorV2Mock.sol\":6364:6373  requestId */\n      dup2\n        /* \"@chainlink/contracts/src/v0.8/mocks/VRFCoordinatorV2Mock.sol\":6357:6373  return requestId */\n      swap5\n      pop\n      pop\n      pop\n        /* \"@chainlink/contracts/src/v0.8/mocks/VRFCoordinatorV2Mock.sol\":9440:9441  _ */\n      pop\n      pop\n        /* \"@chainlink/contracts/src/v0.8/mocks/VRFCoordinatorV2Mock.sol\":5609:6378  function requestRandomWords(... */\n      swap6\n      swap5\n      pop\n      pop\n      pop\n      pop\n      pop\n      jump\t// out\n        /* \"@chainlink/contracts/src/v0.8/mocks/VRFCoordinatorV2Mock.sol\":8749:9339  function getFeeConfig()... */\n    tag_57:\n        /* \"@chainlink/contracts/src/v0.8/mocks/VRFCoordinatorV2Mock.sol\":8815:8852  uint32 fulfillmentFlatFeeLinkPPMTier1 */\n      0x00\n        /* \"@chainlink/contracts/src/v0.8/mocks/VRFCoordinatorV2Mock.sol\":8860:8897  uint32 fulfillmentFlatFeeLinkPPMTier2 */\n      dup1\n        /* \"@chainlink/contracts/src/v0.8/mocks/VRFCoordinatorV2Mock.sol\":8905:8942  uint32 fulfillmentFlatFeeLinkPPMTier3 */\n      0x00\n        /* \"@chainlink/contracts/src/v0.8/mocks/VRFCoordinatorV2Mock.sol\":8950:8987  uint32 fulfillmentFlatFeeLinkPPMTier4 */\n      dup1\n        /* \"@chainlink/contracts/src/v0.8/mocks/VRFCoordinatorV2Mock.sol\":8995:9032  uint32 fulfillmentFlatFeeLinkPPMTier5 */\n      0x00\n        /* \"@chainlink/contracts/src/v0.8/mocks/VRFCoordinatorV2Mock.sol\":9040:9059  uint24 reqsForTier2 */\n      dup1\n        /* \"@chainlink/contracts/src/v0.8/mocks/VRFCoordinatorV2Mock.sol\":9067:9086  uint24 reqsForTier3 */\n      0x00\n        /* \"@chainlink/contracts/src/v0.8/mocks/VRFCoordinatorV2Mock.sol\":9094:9113  uint24 reqsForTier4 */\n      dup1\n        /* \"@chainlink/contracts/src/v0.8/mocks/VRFCoordinatorV2Mock.sol\":9121:9140  uint24 reqsForTier5 */\n      0x00\n        /* \"@chainlink/contracts/src/v0.8/mocks/VRFCoordinatorV2Mock.sol\":9170:9176  100000 */\n      0x0186a0\n        /* \"@chainlink/contracts/src/v0.8/mocks/VRFCoordinatorV2Mock.sol\":9196:9202  100000 */\n      dup1\n        /* \"@chainlink/contracts/src/v0.8/mocks/VRFCoordinatorV2Mock.sol\":9222:9228  100000 */\n      0x0186a0\n        /* \"@chainlink/contracts/src/v0.8/mocks/VRFCoordinatorV2Mock.sol\":9248:9254  100000 */\n      dup1\n        /* \"@chainlink/contracts/src/v0.8/mocks/VRFCoordinatorV2Mock.sol\":9274:9280  100000 */\n      0x0186a0\n        /* \"@chainlink/contracts/src/v0.8/mocks/VRFCoordinatorV2Mock.sol\":9300:9301  0 */\n      0x00\n        /* \"@chainlink/contracts/src/v0.8/mocks/VRFCoordinatorV2Mock.sol\":9309:9310  0 */\n      dup1\n        /* \"@chainlink/contracts/src/v0.8/mocks/VRFCoordinatorV2Mock.sol\":9318:9319  0 */\n      0x00\n        /* \"@chainlink/contracts/src/v0.8/mocks/VRFCoordinatorV2Mock.sol\":9327:9328  0 */\n      dup1\n        /* \"@chainlink/contracts/src/v0.8/mocks/VRFCoordinatorV2Mock.sol\":9155:9334  return (... */\n      swap9\n      pop\n      swap9\n      pop\n      swap9\n      pop\n      swap9\n      pop\n      swap9\n      pop\n      swap9\n      pop\n      swap9\n      pop\n      swap9\n      pop\n      swap9\n      pop\n        /* \"@chainlink/contracts/src/v0.8/mocks/VRFCoordinatorV2Mock.sol\":8749:9339  function getFeeConfig()... */\n      swap1\n      swap2\n      swap3\n      swap4\n      swap5\n      swap6\n      swap7\n      swap8\n      swap9\n      jump\t// out\n        /* \"@chainlink/contracts/src/v0.8/mocks/VRFCoordinatorV2Mock.sol\":468:511  uint16 public immutable MAX_CONSUMERS = 100 */\n    tag_61:\n      immutable(\"0xe864dc03065e4dfe580e59a415a66186da3a35ff7cde57e5a4d851feef903ceb\")\n      dup2\n      jump\t// out\n        /* \"@chainlink/contracts/src/v0.8/mocks/VRFCoordinatorV2Mock.sol\":7646:7991  function addConsumer(uint64 _subId, address _consumer) external override onlySubOwner(_subId) {... */\n    tag_66:\n        /* \"@chainlink/contracts/src/v0.8/mocks/VRFCoordinatorV2Mock.sol\":7732:7738  _subId */\n      dup2\n        /* \"@chainlink/contracts/src/v0.8/mocks/VRFCoordinatorV2Mock.sol\":7293:7306  address owner */\n      0x00\n        /* \"@chainlink/contracts/src/v0.8/mocks/VRFCoordinatorV2Mock.sol\":7309:7324  s_subscriptions */\n      0x06\n        /* \"@chainlink/contracts/src/v0.8/mocks/VRFCoordinatorV2Mock.sol\":7309:7332  s_subscriptions[_subId] */\n      0x00\n        /* \"@chainlink/contracts/src/v0.8/mocks/VRFCoordinatorV2Mock.sol\":7325:7331  _subId */\n      dup4\n        /* \"@chainlink/contracts/src/v0.8/mocks/VRFCoordinatorV2Mock.sol\":7309:7332  s_subscriptions[_subId] */\n      0xffffffffffffffff\n      and\n      0xffffffffffffffff\n      and\n      dup2\n      mstore\n      0x20\n      add\n      swap1\n      dup2\n      mstore\n      0x20\n      add\n      0x00\n      keccak256\n        /* \"@chainlink/contracts/src/v0.8/mocks/VRFCoordinatorV2Mock.sol\":7309:7338  s_subscriptions[_subId].owner */\n      0x00\n      add\n      0x00\n      swap1\n      sload\n      swap1\n      0x0100\n      exp\n      swap1\n      div\n      0xffffffffffffffffffffffffffffffffffffffff\n      and\n        /* \"@chainlink/contracts/src/v0.8/mocks/VRFCoordinatorV2Mock.sol\":7293:7338  address owner = s_subscriptions[_subId].owner */\n      swap1\n      pop\n        /* \"@chainlink/contracts/src/v0.8/mocks/VRFCoordinatorV2Mock.sol\":7365:7366  0 */\n      0x00\n        /* \"@chainlink/contracts/src/v0.8/mocks/VRFCoordinatorV2Mock.sol\":7348:7367  owner == address(0) */\n      0xffffffffffffffffffffffffffffffffffffffff\n      and\n        /* \"@chainlink/contracts/src/v0.8/mocks/VRFCoordinatorV2Mock.sol\":7348:7353  owner */\n      dup2\n        /* \"@chainlink/contracts/src/v0.8/mocks/VRFCoordinatorV2Mock.sol\":7348:7367  owner == address(0) */\n      0xffffffffffffffffffffffffffffffffffffffff\n      and\n      sub\n        /* \"@chainlink/contracts/src/v0.8/mocks/VRFCoordinatorV2Mock.sol\":7344:7412  if (owner == address(0)) {... */\n      tag_182\n      jumpi\n        /* \"@chainlink/contracts/src/v0.8/mocks/VRFCoordinatorV2Mock.sol\":7384:7405  InvalidSubscription() */\n      mload(0x40)\n      0x1f6a65b600000000000000000000000000000000000000000000000000000000\n      dup2\n      mstore\n      0x04\n      add\n      mload(0x40)\n      dup1\n      swap2\n      sub\n      swap1\n      revert\n        /* \"@chainlink/contracts/src/v0.8/mocks/VRFCoordinatorV2Mock.sol\":7344:7412  if (owner == address(0)) {... */\n    tag_182:\n        /* \"@chainlink/contracts/src/v0.8/mocks/VRFCoordinatorV2Mock.sol\":7435:7440  owner */\n      dup1\n        /* \"@chainlink/contracts/src/v0.8/mocks/VRFCoordinatorV2Mock.sol\":7421:7440  msg.sender != owner */\n      0xffffffffffffffffffffffffffffffffffffffff\n      and\n        /* \"@chainlink/contracts/src/v0.8/mocks/VRFCoordinatorV2Mock.sol\":7421:7431  msg.sender */\n      caller\n        /* \"@chainlink/contracts/src/v0.8/mocks/VRFCoordinatorV2Mock.sol\":7421:7440  msg.sender != owner */\n      0xffffffffffffffffffffffffffffffffffffffff\n      and\n      eq\n        /* \"@chainlink/contracts/src/v0.8/mocks/VRFCoordinatorV2Mock.sol\":7417:7485  if (msg.sender != owner) {... */\n      tag_183\n      jumpi\n        /* \"@chainlink/contracts/src/v0.8/mocks/VRFCoordinatorV2Mock.sol\":7472:7477  owner */\n      dup1\n        /* \"@chainlink/contracts/src/v0.8/mocks/VRFCoordinatorV2Mock.sol\":7457:7478  MustBeSubOwner(owner) */\n      mload(0x40)\n      0xd8a3fb5200000000000000000000000000000000000000000000000000000000\n      dup2\n      mstore\n      0x04\n      add\n      tag_184\n      swap2\n      swap1\n      tag_82\n      jump\t// in\n    tag_184:\n      mload(0x40)\n      dup1\n      swap2\n      sub\n      swap1\n      revert\n        /* \"@chainlink/contracts/src/v0.8/mocks/VRFCoordinatorV2Mock.sol\":7417:7485  if (msg.sender != owner) {... */\n    tag_183:\n        /* \"@chainlink/contracts/src/v0.8/mocks/VRFCoordinatorV2Mock.sol\":7780:7793  MAX_CONSUMERS */\n      immutable(\"0xe864dc03065e4dfe580e59a415a66186da3a35ff7cde57e5a4d851feef903ceb\")\n        /* \"@chainlink/contracts/src/v0.8/mocks/VRFCoordinatorV2Mock.sol\":7750:7793  s_consumers[_subId].length == MAX_CONSUMERS */\n      0xffff\n      and\n        /* \"@chainlink/contracts/src/v0.8/mocks/VRFCoordinatorV2Mock.sol\":7750:7761  s_consumers */\n      0x07\n        /* \"@chainlink/contracts/src/v0.8/mocks/VRFCoordinatorV2Mock.sol\":7750:7769  s_consumers[_subId] */\n      0x00\n        /* \"@chainlink/contracts/src/v0.8/mocks/VRFCoordinatorV2Mock.sol\":7762:7768  _subId */\n      dup7\n        /* \"@chainlink/contracts/src/v0.8/mocks/VRFCoordinatorV2Mock.sol\":7750:7769  s_consumers[_subId] */\n      0xffffffffffffffff\n      and\n      0xffffffffffffffff\n      and\n      dup2\n      mstore\n      0x20\n      add\n      swap1\n      dup2\n      mstore\n      0x20\n      add\n      0x00\n      keccak256\n        /* \"@chainlink/contracts/src/v0.8/mocks/VRFCoordinatorV2Mock.sol\":7750:7776  s_consumers[_subId].length */\n      dup1\n      sload\n      swap1\n      pop\n        /* \"@chainlink/contracts/src/v0.8/mocks/VRFCoordinatorV2Mock.sol\":7750:7793  s_consumers[_subId].length == MAX_CONSUMERS */\n      sub\n        /* \"@chainlink/contracts/src/v0.8/mocks/VRFCoordinatorV2Mock.sol\":7746:7835  if (s_consumers[_subId].length == MAX_CONSUMERS) {... */\n      tag_186\n      jumpi\n        /* \"@chainlink/contracts/src/v0.8/mocks/VRFCoordinatorV2Mock.sol\":7810:7828  TooManyConsumers() */\n      mload(0x40)\n      0x05a48e0f00000000000000000000000000000000000000000000000000000000\n      dup2\n      mstore\n      0x04\n      add\n      mload(0x40)\n      dup1\n      swap2\n      sub\n      swap1\n      revert\n        /* \"@chainlink/contracts/src/v0.8/mocks/VRFCoordinatorV2Mock.sol\":7746:7835  if (s_consumers[_subId].length == MAX_CONSUMERS) {... */\n    tag_186:\n        /* \"@chainlink/contracts/src/v0.8/mocks/VRFCoordinatorV2Mock.sol\":7845:7879  consumerIsAdded(_subId, _consumer) */\n      tag_187\n        /* \"@chainlink/contracts/src/v0.8/mocks/VRFCoordinatorV2Mock.sol\":7861:7867  _subId */\n      dup5\n        /* \"@chainlink/contracts/src/v0.8/mocks/VRFCoordinatorV2Mock.sol\":7869:7878  _consumer */\n      dup5\n        /* \"@chainlink/contracts/src/v0.8/mocks/VRFCoordinatorV2Mock.sol\":7845:7860  consumerIsAdded */\n      tag_116\n        /* \"@chainlink/contracts/src/v0.8/mocks/VRFCoordinatorV2Mock.sol\":7845:7879  consumerIsAdded(_subId, _consumer) */\n      jump\t// in\n    tag_187:\n        /* \"@chainlink/contracts/src/v0.8/mocks/VRFCoordinatorV2Mock.sol\":7889:7896  return; */\n      tag_185\n        /* \"@chainlink/contracts/src/v0.8/mocks/VRFCoordinatorV2Mock.sol\":7841:7902  if (consumerIsAdded(_subId, _consumer)) {... */\n      jumpi\n        /* \"@chainlink/contracts/src/v0.8/mocks/VRFCoordinatorV2Mock.sol\":7908:7919  s_consumers */\n      0x07\n        /* \"@chainlink/contracts/src/v0.8/mocks/VRFCoordinatorV2Mock.sol\":7908:7927  s_consumers[_subId] */\n      0x00\n        /* \"@chainlink/contracts/src/v0.8/mocks/VRFCoordinatorV2Mock.sol\":7920:7926  _subId */\n      dup6\n        /* \"@chainlink/contracts/src/v0.8/mocks/VRFCoordinatorV2Mock.sol\":7908:7927  s_consumers[_subId] */\n      0xffffffffffffffff\n      and\n      0xffffffffffffffff\n      and\n      dup2\n      mstore\n      0x20\n      add\n      swap1\n      dup2\n      mstore\n      0x20\n      add\n      0x00\n      keccak256\n        /* \"@chainlink/contracts/src/v0.8/mocks/VRFCoordinatorV2Mock.sol\":7933:7942  _consumer */\n      dup4\n        /* \"@chainlink/contracts/src/v0.8/mocks/VRFCoordinatorV2Mock.sol\":7908:7943  s_consumers[_subId].push(_consumer) */\n      swap1\n      dup1\n      0x01\n      dup2\n      sload\n      add\n      dup1\n      dup3\n      sstore\n      dup1\n      swap2\n      pop\n      pop\n      0x01\n      swap1\n      sub\n      swap1\n      0x00\n      mstore\n      keccak256(0x00, 0x20)\n      add\n      0x00\n      swap1\n      swap2\n      swap1\n      swap2\n      swap1\n      swap2\n      0x0100\n      exp\n      dup2\n      sload\n      dup2\n      0xffffffffffffffffffffffffffffffffffffffff\n      mul\n      not\n      and\n      swap1\n      dup4\n      0xffffffffffffffffffffffffffffffffffffffff\n      and\n      mul\n      or\n      swap1\n      sstore\n      pop\n        /* \"@chainlink/contracts/src/v0.8/mocks/VRFCoordinatorV2Mock.sol\":7968:7974  _subId */\n      dup4\n        /* \"@chainlink/contracts/src/v0.8/mocks/VRFCoordinatorV2Mock.sol\":7954:7986  ConsumerAdded(_subId, _consumer) */\n      0xffffffffffffffff\n      and\n      0x752ead9f4536ec1319ee3a5a604e1d65eded22e0924251552ba14ae4faa1bbc3\n        /* \"@chainlink/contracts/src/v0.8/mocks/VRFCoordinatorV2Mock.sol\":7976:7985  _consumer */\n      dup5\n        /* \"@chainlink/contracts/src/v0.8/mocks/VRFCoordinatorV2Mock.sol\":7954:7986  ConsumerAdded(_subId, _consumer) */\n      mload(0x40)\n      tag_190\n      swap2\n      swap1\n      tag_82\n      jump\t// in\n    tag_190:\n      mload(0x40)\n      dup1\n      swap2\n      sub\n      swap1\n      log2\n        /* \"@chainlink/contracts/src/v0.8/mocks/VRFCoordinatorV2Mock.sol\":7490:7491  _ */\n    tag_185:\n        /* \"@chainlink/contracts/src/v0.8/mocks/VRFCoordinatorV2Mock.sol\":7287:7496  {... */\n      pop\n        /* \"@chainlink/contracts/src/v0.8/mocks/VRFCoordinatorV2Mock.sol\":7646:7991  function addConsumer(uint64 _subId, address _consumer) external override onlySubOwner(_subId) {... */\n      pop\n      pop\n      pop\n      jump\t// out\n        /* \"@chainlink/contracts/src/v0.8/shared/access/ConfirmedOwnerWithProposal.sol\":1026:1342  function acceptOwnership() external override {... */\n    tag_68:\n        /* \"@chainlink/contracts/src/v0.8/shared/access/ConfirmedOwnerWithProposal.sol\":1150:1164  s_pendingOwner */\n      0x01\n      0x00\n      swap1\n      sload\n      swap1\n      0x0100\n      exp\n      swap1\n      div\n      0xffffffffffffffffffffffffffffffffffffffff\n      and\n        /* \"@chainlink/contracts/src/v0.8/shared/access/ConfirmedOwnerWithProposal.sol\":1136:1164  msg.sender == s_pendingOwner */\n      0xffffffffffffffffffffffffffffffffffffffff\n      and\n        /* \"@chainlink/contracts/src/v0.8/shared/access/ConfirmedOwnerWithProposal.sol\":1136:1146  msg.sender */\n      caller\n        /* \"@chainlink/contracts/src/v0.8/shared/access/ConfirmedOwnerWithProposal.sol\":1136:1164  msg.sender == s_pendingOwner */\n      0xffffffffffffffffffffffffffffffffffffffff\n      and\n      eq\n        /* \"@chainlink/contracts/src/v0.8/shared/access/ConfirmedOwnerWithProposal.sol\":1128:1191  require(msg.sender == s_pendingOwner, \"Must be proposed owner\") */\n      tag_192\n      jumpi\n      mload(0x40)\n      0x08c379a000000000000000000000000000000000000000000000000000000000\n      dup2\n      mstore\n      0x04\n      add\n      tag_193\n      swap1\n      tag_194\n      jump\t// in\n    tag_193:\n      mload(0x40)\n      dup1\n      swap2\n      sub\n      swap1\n      revert\n    tag_192:\n        /* \"@chainlink/contracts/src/v0.8/shared/access/ConfirmedOwnerWithProposal.sol\":1198:1214  address oldOwner */\n      0x00\n        /* \"@chainlink/contracts/src/v0.8/shared/access/ConfirmedOwnerWithProposal.sol\":1217:1224  s_owner */\n      dup1\n      0x00\n      swap1\n      sload\n      swap1\n      0x0100\n      exp\n      swap1\n      div\n      0xffffffffffffffffffffffffffffffffffffffff\n      and\n        /* \"@chainlink/contracts/src/v0.8/shared/access/ConfirmedOwnerWithProposal.sol\":1198:1224  address oldOwner = s_owner */\n      swap1\n      pop\n        /* \"@chainlink/contracts/src/v0.8/shared/access/ConfirmedOwnerWithProposal.sol\":1240:1250  msg.sender */\n      caller\n        /* \"@chainlink/contracts/src/v0.8/shared/access/ConfirmedOwnerWithProposal.sol\":1230:1237  s_owner */\n      0x00\n      dup1\n        /* \"@chainlink/contracts/src/v0.8/shared/access/ConfirmedOwnerWithProposal.sol\":1230:1250  s_owner = msg.sender */\n      0x0100\n      exp\n      dup2\n      sload\n      dup2\n      0xffffffffffffffffffffffffffffffffffffffff\n      mul\n      not\n      and\n      swap1\n      dup4\n      0xffffffffffffffffffffffffffffffffffffffff\n      and\n      mul\n      or\n      swap1\n      sstore\n      pop\n        /* \"@chainlink/contracts/src/v0.8/shared/access/ConfirmedOwnerWithProposal.sol\":1281:1282  0 */\n      0x00\n        /* \"@chainlink/contracts/src/v0.8/shared/access/ConfirmedOwnerWithProposal.sol\":1256:1270  s_pendingOwner */\n      0x01\n      0x00\n        /* \"@chainlink/contracts/src/v0.8/shared/access/ConfirmedOwnerWithProposal.sol\":1256:1283  s_pendingOwner = address(0) */\n      0x0100\n      exp\n      dup2\n      sload\n      dup2\n      0xffffffffffffffffffffffffffffffffffffffff\n      mul\n      not\n      and\n      swap1\n      dup4\n      0xffffffffffffffffffffffffffffffffffffffff\n      and\n      mul\n      or\n      swap1\n      sstore\n      pop\n        /* \"@chainlink/contracts/src/v0.8/shared/access/ConfirmedOwnerWithProposal.sol\":1326:1336  msg.sender */\n      caller\n        /* \"@chainlink/contracts/src/v0.8/shared/access/ConfirmedOwnerWithProposal.sol\":1295:1337  OwnershipTransferred(oldOwner, msg.sender) */\n      0xffffffffffffffffffffffffffffffffffffffff\n      and\n        /* \"@chainlink/contracts/src/v0.8/shared/access/ConfirmedOwnerWithProposal.sol\":1316:1324  oldOwner */\n      dup2\n        /* \"@chainlink/contracts/src/v0.8/shared/access/ConfirmedOwnerWithProposal.sol\":1295:1337  OwnershipTransferred(oldOwner, msg.sender) */\n      0xffffffffffffffffffffffffffffffffffffffff\n      and\n      0x8be0079c531659141344cd1fd0a4f28419497f9722a3daafe3b4186f6b6457e0\n      mload(0x40)\n      mload(0x40)\n      dup1\n      swap2\n      sub\n      swap1\n      log3\n        /* \"@chainlink/contracts/src/v0.8/shared/access/ConfirmedOwnerWithProposal.sol\":1071:1342  {... */\n      pop\n        /* \"@chainlink/contracts/src/v0.8/shared/access/ConfirmedOwnerWithProposal.sol\":1026:1342  function acceptOwnership() external override {... */\n      jump\t// out\n        /* \"@chainlink/contracts/src/v0.8/mocks/VRFCoordinatorV2Mock.sol\":3411:3582  function fulfillRandomWords(uint256 _requestId, address _consumer) external nonReentrant {... */\n    tag_72:\n        /* \"@chainlink/contracts/src/v0.8/mocks/VRFCoordinatorV2Mock.sol\":9377:9385  s_config */\n      0x02\n        /* \"@chainlink/contracts/src/v0.8/mocks/VRFCoordinatorV2Mock.sol\":9377:9400  s_config.reentrancyLock */\n      0x00\n      add\n      0x00\n      swap1\n      sload\n      swap1\n      0x0100\n      exp\n      swap1\n      div\n      0xff\n      and\n        /* \"@chainlink/contracts/src/v0.8/mocks/VRFCoordinatorV2Mock.sol\":9373:9435  if (s_config.reentrancyLock) {... */\n      iszero\n      tag_196\n      jumpi\n        /* \"@chainlink/contracts/src/v0.8/mocks/VRFCoordinatorV2Mock.sol\":9417:9428  Reentrant() */\n      mload(0x40)\n      0xed3ba6a600000000000000000000000000000000000000000000000000000000\n      dup2\n      mstore\n      0x04\n      add\n      mload(0x40)\n      dup1\n      swap2\n      sub\n      swap1\n      revert\n        /* \"@chainlink/contracts/src/v0.8/mocks/VRFCoordinatorV2Mock.sol\":9373:9435  if (s_config.reentrancyLock) {... */\n    tag_196:\n        /* \"@chainlink/contracts/src/v0.8/mocks/VRFCoordinatorV2Mock.sol\":3506:3577  fulfillRandomWordsWithOverride(_requestId, _consumer, new uint256[](0)) */\n      tag_198\n        /* \"@chainlink/contracts/src/v0.8/mocks/VRFCoordinatorV2Mock.sol\":3537:3547  _requestId */\n      dup3\n        /* \"@chainlink/contracts/src/v0.8/mocks/VRFCoordinatorV2Mock.sol\":3549:3558  _consumer */\n      dup3\n        /* \"@chainlink/contracts/src/v0.8/mocks/VRFCoordinatorV2Mock.sol\":3574:3575  0 */\n      0x00\n        /* \"@chainlink/contracts/src/v0.8/mocks/VRFCoordinatorV2Mock.sol\":3560:3576  new uint256[](0) */\n      0xffffffffffffffff\n      dup2\n      gt\n      iszero\n      tag_199\n      jumpi\n      tag_200\n      tag_125\n      jump\t// in\n    tag_200:\n    tag_199:\n      mload(0x40)\n      swap1\n      dup1\n      dup3\n      mstore\n      dup1\n      0x20\n      mul\n      0x20\n      add\n      dup3\n      add\n      0x40\n      mstore\n      dup1\n      iszero\n      tag_201\n      jumpi\n      dup2\n      0x20\n      add\n      0x20\n      dup3\n      mul\n      dup1\n      calldatasize\n      dup4\n      calldatacopy\n      dup1\n      dup3\n      add\n      swap2\n      pop\n      pop\n      swap1\n      pop\n    tag_201:\n      pop\n        /* \"@chainlink/contracts/src/v0.8/mocks/VRFCoordinatorV2Mock.sol\":3506:3536  fulfillRandomWordsWithOverride */\n      tag_41\n        /* \"@chainlink/contracts/src/v0.8/mocks/VRFCoordinatorV2Mock.sol\":3506:3577  fulfillRandomWordsWithOverride(_requestId, _consumer, new uint256[](0)) */\n      jump\t// in\n    tag_198:\n        /* \"@chainlink/contracts/src/v0.8/mocks/VRFCoordinatorV2Mock.sol\":3411:3582  function fulfillRandomWords(uint256 _requestId, address _consumer) external nonReentrant {... */\n      pop\n      pop\n      jump\t// out\n        /* \"@chainlink/contracts/src/v0.8/mocks/VRFCoordinatorV2Mock.sol\":9718:9837  function acceptSubscriptionOwnerTransfer(uint64 /*_subId*/) external pure override {... */\n    tag_76:\n        /* \"@chainlink/contracts/src/v0.8/mocks/VRFCoordinatorV2Mock.sol\":9807:9832  revert(\"not implemented\") */\n      mload(0x40)\n      0x08c379a000000000000000000000000000000000000000000000000000000000\n      dup2\n      mstore\n      0x04\n      add\n      tag_203\n      swap1\n      tag_129\n      jump\t// in\n    tag_203:\n      mload(0x40)\n      dup1\n      swap2\n      sub\n      swap1\n      revert\n        /* \"@chainlink/contracts/src/v0.8/mocks/VRFCoordinatorV2Mock.sol\":2288:2401  function setConfig() public onlyOwner {... */\n    tag_78:\n        /* \"@chainlink/contracts/src/v0.8/shared/access/ConfirmedOwnerWithProposal.sol\":2075:2095  _validateOwnership() */\n      tag_205\n        /* \"@chainlink/contracts/src/v0.8/shared/access/ConfirmedOwnerWithProposal.sol\":2075:2093  _validateOwnership */\n      tag_206\n        /* \"@chainlink/contracts/src/v0.8/shared/access/ConfirmedOwnerWithProposal.sol\":2075:2095  _validateOwnership() */\n      jump\t// in\n    tag_205:\n        /* \"@chainlink/contracts/src/v0.8/mocks/VRFCoordinatorV2Mock.sol\":2343:2374  Config({reentrancyLock: false}) */\n      mload(0x40)\n      dup1\n      0x20\n      add\n      0x40\n      mstore\n      dup1\n        /* \"@chainlink/contracts/src/v0.8/mocks/VRFCoordinatorV2Mock.sol\":2367:2372  false */\n      0x00\n        /* \"@chainlink/contracts/src/v0.8/mocks/VRFCoordinatorV2Mock.sol\":2343:2374  Config({reentrancyLock: false}) */\n      iszero\n      iszero\n      dup2\n      mstore\n      pop\n        /* \"@chainlink/contracts/src/v0.8/mocks/VRFCoordinatorV2Mock.sol\":2332:2340  s_config */\n      0x02\n        /* \"@chainlink/contracts/src/v0.8/mocks/VRFCoordinatorV2Mock.sol\":2332:2374  s_config = Config({reentrancyLock: false}) */\n      0x00\n      dup3\n      add\n      mload\n      dup2\n      0x00\n      add\n      exp(0x0100, 0x00)\n      dup2\n      sload\n      dup2\n      0xff\n      mul\n      not\n      and\n      swap1\n      dup4\n      iszero\n      iszero\n      mul\n      or\n      swap1\n      sstore\n      pop\n      swap1\n      pop\n      pop\n        /* \"@chainlink/contracts/src/v0.8/mocks/VRFCoordinatorV2Mock.sol\":2385:2396  ConfigSet() */\n      0x4b2974a542484cba2783812ff8033f7fc682cac2fe0905c28c5e27869b3155be\n      mload(0x40)\n      mload(0x40)\n      dup1\n      swap2\n      sub\n      swap1\n      log1\n        /* \"@chainlink/contracts/src/v0.8/mocks/VRFCoordinatorV2Mock.sol\":2288:2401  function setConfig() public onlyOwner {... */\n      jump\t// out\n        /* \"@chainlink/contracts/src/v0.8/shared/access/ConfirmedOwnerWithProposal.sol\":1382:1463  function owner() public view override returns (address) {... */\n    tag_80:\n        /* \"@chainlink/contracts/src/v0.8/shared/access/ConfirmedOwnerWithProposal.sol\":1429:1436  address */\n      0x00\n        /* \"@chainlink/contracts/src/v0.8/shared/access/ConfirmedOwnerWithProposal.sol\":1451:1458  s_owner */\n      dup1\n      0x00\n      swap1\n      sload\n      swap1\n      0x0100\n      exp\n      swap1\n      div\n      0xffffffffffffffffffffffffffffffffffffffff\n      and\n        /* \"@chainlink/contracts/src/v0.8/shared/access/ConfirmedOwnerWithProposal.sol\":1444:1458  return s_owner */\n      swap1\n      pop\n        /* \"@chainlink/contracts/src/v0.8/shared/access/ConfirmedOwnerWithProposal.sol\":1382:1463  function owner() public view override returns (address) {... */\n      swap1\n      jump\t// out\n        /* \"@chainlink/contracts/src/v0.8/mocks/VRFCoordinatorV2Mock.sol\":7995:8491  function removeConsumer(... */\n    tag_85:\n        /* \"@chainlink/contracts/src/v0.8/mocks/VRFCoordinatorV2Mock.sol\":8096:8102  _subId */\n      dup2\n        /* \"@chainlink/contracts/src/v0.8/mocks/VRFCoordinatorV2Mock.sol\":7293:7306  address owner */\n      0x00\n        /* \"@chainlink/contracts/src/v0.8/mocks/VRFCoordinatorV2Mock.sol\":7309:7324  s_subscriptions */\n      0x06\n        /* \"@chainlink/contracts/src/v0.8/mocks/VRFCoordinatorV2Mock.sol\":7309:7332  s_subscriptions[_subId] */\n      0x00\n        /* \"@chainlink/contracts/src/v0.8/mocks/VRFCoordinatorV2Mock.sol\":7325:7331  _subId */\n      dup4\n        /* \"@chainlink/contracts/src/v0.8/mocks/VRFCoordinatorV2Mock.sol\":7309:7332  s_subscriptions[_subId] */\n      0xffffffffffffffff\n      and\n      0xffffffffffffffff\n      and\n      dup2\n      mstore\n      0x20\n      add\n      swap1\n      dup2\n      mstore\n      0x20\n      add\n      0x00\n      keccak256\n        /* \"@chainlink/contracts/src/v0.8/mocks/VRFCoordinatorV2Mock.sol\":7309:7338  s_subscriptions[_subId].owner */\n      0x00\n      add\n      0x00\n      swap1\n      sload\n      swap1\n      0x0100\n      exp\n      swap1\n      div\n      0xffffffffffffffffffffffffffffffffffffffff\n      and\n        /* \"@chainlink/contracts/src/v0.8/mocks/VRFCoordinatorV2Mock.sol\":7293:7338  address owner = s_subscriptions[_subId].owner */\n      swap1\n      pop\n        /* \"@chainlink/contracts/src/v0.8/mocks/VRFCoordinatorV2Mock.sol\":7365:7366  0 */\n      0x00\n        /* \"@chainlink/contracts/src/v0.8/mocks/VRFCoordinatorV2Mock.sol\":7348:7367  owner == address(0) */\n      0xffffffffffffffffffffffffffffffffffffffff\n      and\n        /* \"@chainlink/contracts/src/v0.8/mocks/VRFCoordinatorV2Mock.sol\":7348:7353  owner */\n      dup2\n        /* \"@chainlink/contracts/src/v0.8/mocks/VRFCoordinatorV2Mock.sol\":7348:7367  owner == address(0) */\n      0xffffffffffffffffffffffffffffffffffffffff\n      and\n      sub\n        /* \"@chainlink/contracts/src/v0.8/mocks/VRFCoordinatorV2Mock.sol\":7344:7412  if (owner == address(0)) {... */\n      tag_210\n      jumpi\n        /* \"@chainlink/contracts/src/v0.8/mocks/VRFCoordinatorV2Mock.sol\":7384:7405  InvalidSubscription() */\n      mload(0x40)\n      0x1f6a65b600000000000000000000000000000000000000000000000000000000\n      dup2\n      mstore\n      0x04\n      add\n      mload(0x40)\n      dup1\n      swap2\n      sub\n      swap1\n      revert\n        /* \"@chainlink/contracts/src/v0.8/mocks/VRFCoordinatorV2Mock.sol\":7344:7412  if (owner == address(0)) {... */\n    tag_210:\n        /* \"@chainlink/contracts/src/v0.8/mocks/VRFCoordinatorV2Mock.sol\":7435:7440  owner */\n      dup1\n        /* \"@chainlink/contracts/src/v0.8/mocks/VRFCoordinatorV2Mock.sol\":7421:7440  msg.sender != owner */\n      0xffffffffffffffffffffffffffffffffffffffff\n      and\n        /* \"@chainlink/contracts/src/v0.8/mocks/VRFCoordinatorV2Mock.sol\":7421:7431  msg.sender */\n      caller\n        /* \"@chainlink/contracts/src/v0.8/mocks/VRFCoordinatorV2Mock.sol\":7421:7440  msg.sender != owner */\n      0xffffffffffffffffffffffffffffffffffffffff\n      and\n      eq\n        /* \"@chainlink/contracts/src/v0.8/mocks/VRFCoordinatorV2Mock.sol\":7417:7485  if (msg.sender != owner) {... */\n      tag_211\n      jumpi\n        /* \"@chainlink/contracts/src/v0.8/mocks/VRFCoordinatorV2Mock.sol\":7472:7477  owner */\n      dup1\n        /* \"@chainlink/contracts/src/v0.8/mocks/VRFCoordinatorV2Mock.sol\":7457:7478  MustBeSubOwner(owner) */\n      mload(0x40)\n      0xd8a3fb5200000000000000000000000000000000000000000000000000000000\n      dup2\n      mstore\n      0x04\n      add\n      tag_212\n      swap2\n      swap1\n      tag_82\n      jump\t// in\n    tag_212:\n      mload(0x40)\n      dup1\n      swap2\n      sub\n      swap1\n      revert\n        /* \"@chainlink/contracts/src/v0.8/mocks/VRFCoordinatorV2Mock.sol\":7417:7485  if (msg.sender != owner) {... */\n    tag_211:\n        /* \"@chainlink/contracts/src/v0.8/mocks/VRFCoordinatorV2Mock.sol\":8122:8128  _subId */\n      dup4\n        /* \"@chainlink/contracts/src/v0.8/mocks/VRFCoordinatorV2Mock.sol\":8130:8139  _consumer */\n      dup4\n        /* \"@chainlink/contracts/src/v0.8/mocks/VRFCoordinatorV2Mock.sol\":2771:2805  consumerIsAdded(_subId, _consumer) */\n      tag_214\n        /* \"@chainlink/contracts/src/v0.8/mocks/VRFCoordinatorV2Mock.sol\":2787:2793  _subId */\n      dup3\n        /* \"@chainlink/contracts/src/v0.8/mocks/VRFCoordinatorV2Mock.sol\":2795:2804  _consumer */\n      dup3\n        /* \"@chainlink/contracts/src/v0.8/mocks/VRFCoordinatorV2Mock.sol\":2771:2786  consumerIsAdded */\n      tag_116\n        /* \"@chainlink/contracts/src/v0.8/mocks/VRFCoordinatorV2Mock.sol\":2771:2805  consumerIsAdded(_subId, _consumer) */\n      jump\t// in\n    tag_214:\n        /* \"@chainlink/contracts/src/v0.8/mocks/VRFCoordinatorV2Mock.sol\":2766:2846  if (!consumerIsAdded(_subId, _consumer)) {... */\n      tag_215\n      jumpi\n        /* \"@chainlink/contracts/src/v0.8/mocks/VRFCoordinatorV2Mock.sol\":2822:2839  InvalidConsumer() */\n      mload(0x40)\n      0x71e8313700000000000000000000000000000000000000000000000000000000\n      dup2\n      mstore\n      0x04\n      add\n      mload(0x40)\n      dup1\n      swap2\n      sub\n      swap1\n      revert\n        /* \"@chainlink/contracts/src/v0.8/mocks/VRFCoordinatorV2Mock.sol\":2766:2846  if (!consumerIsAdded(_subId, _consumer)) {... */\n    tag_215:\n        /* \"@chainlink/contracts/src/v0.8/mocks/VRFCoordinatorV2Mock.sol\":9377:9385  s_config */\n      0x02\n        /* \"@chainlink/contracts/src/v0.8/mocks/VRFCoordinatorV2Mock.sol\":9377:9400  s_config.reentrancyLock */\n      0x00\n      add\n      0x00\n      swap1\n      sload\n      swap1\n      0x0100\n      exp\n      swap1\n      div\n      0xff\n      and\n        /* \"@chainlink/contracts/src/v0.8/mocks/VRFCoordinatorV2Mock.sol\":9373:9435  if (s_config.reentrancyLock) {... */\n      iszero\n      tag_217\n      jumpi\n        /* \"@chainlink/contracts/src/v0.8/mocks/VRFCoordinatorV2Mock.sol\":9417:9428  Reentrant() */\n      mload(0x40)\n      0xed3ba6a600000000000000000000000000000000000000000000000000000000\n      dup2\n      mstore\n      0x04\n      add\n      mload(0x40)\n      dup1\n      swap2\n      sub\n      swap1\n      revert\n        /* \"@chainlink/contracts/src/v0.8/mocks/VRFCoordinatorV2Mock.sol\":9373:9435  if (s_config.reentrancyLock) {... */\n    tag_217:\n        /* \"@chainlink/contracts/src/v0.8/mocks/VRFCoordinatorV2Mock.sol\":8160:8187  address[] storage consumers */\n      0x00\n        /* \"@chainlink/contracts/src/v0.8/mocks/VRFCoordinatorV2Mock.sol\":8190:8201  s_consumers */\n      0x07\n        /* \"@chainlink/contracts/src/v0.8/mocks/VRFCoordinatorV2Mock.sol\":8190:8209  s_consumers[_subId] */\n      0x00\n        /* \"@chainlink/contracts/src/v0.8/mocks/VRFCoordinatorV2Mock.sol\":8202:8208  _subId */\n      dup9\n        /* \"@chainlink/contracts/src/v0.8/mocks/VRFCoordinatorV2Mock.sol\":8190:8209  s_consumers[_subId] */\n      0xffffffffffffffff\n      and\n      0xffffffffffffffff\n      and\n      dup2\n      mstore\n      0x20\n      add\n      swap1\n      dup2\n      mstore\n      0x20\n      add\n      0x00\n      keccak256\n        /* \"@chainlink/contracts/src/v0.8/mocks/VRFCoordinatorV2Mock.sol\":8160:8209  address[] storage consumers = s_consumers[_subId] */\n      swap1\n      pop\n        /* \"@chainlink/contracts/src/v0.8/mocks/VRFCoordinatorV2Mock.sol\":8220:8229  uint256 i */\n      0x00\n        /* \"@chainlink/contracts/src/v0.8/mocks/VRFCoordinatorV2Mock.sol\":8215:8441  for (uint256 i = 0; i < consumers.length; i++) {... */\n    tag_219:\n        /* \"@chainlink/contracts/src/v0.8/mocks/VRFCoordinatorV2Mock.sol\":8239:8248  consumers */\n      dup2\n        /* \"@chainlink/contracts/src/v0.8/mocks/VRFCoordinatorV2Mock.sol\":8239:8255  consumers.length */\n      dup1\n      sload\n      swap1\n      pop\n        /* \"@chainlink/contracts/src/v0.8/mocks/VRFCoordinatorV2Mock.sol\":8235:8236  i */\n      dup2\n        /* \"@chainlink/contracts/src/v0.8/mocks/VRFCoordinatorV2Mock.sol\":8235:8255  i < consumers.length */\n      lt\n        /* \"@chainlink/contracts/src/v0.8/mocks/VRFCoordinatorV2Mock.sol\":8215:8441  for (uint256 i = 0; i < consumers.length; i++) {... */\n      iszero\n      tag_220\n      jumpi\n        /* \"@chainlink/contracts/src/v0.8/mocks/VRFCoordinatorV2Mock.sol\":8290:8299  _consumer */\n      dup7\n        /* \"@chainlink/contracts/src/v0.8/mocks/VRFCoordinatorV2Mock.sol\":8274:8299  consumers[i] == _consumer */\n      0xffffffffffffffffffffffffffffffffffffffff\n      and\n        /* \"@chainlink/contracts/src/v0.8/mocks/VRFCoordinatorV2Mock.sol\":8274:8283  consumers */\n      dup3\n        /* \"@chainlink/contracts/src/v0.8/mocks/VRFCoordinatorV2Mock.sol\":8284:8285  i */\n      dup3\n        /* \"@chainlink/contracts/src/v0.8/mocks/VRFCoordinatorV2Mock.sol\":8274:8286  consumers[i] */\n      dup2\n      sload\n      dup2\n      lt\n      tag_222\n      jumpi\n      tag_223\n      tag_145\n      jump\t// in\n    tag_223:\n    tag_222:\n      swap1\n      0x00\n      mstore\n      keccak256(0x00, 0x20)\n      add\n      0x00\n      swap1\n      sload\n      swap1\n      0x0100\n      exp\n      swap1\n      div\n      0xffffffffffffffffffffffffffffffffffffffff\n      and\n        /* \"@chainlink/contracts/src/v0.8/mocks/VRFCoordinatorV2Mock.sol\":8274:8299  consumers[i] == _consumer */\n      0xffffffffffffffffffffffffffffffffffffffff\n      and\n      sub\n        /* \"@chainlink/contracts/src/v0.8/mocks/VRFCoordinatorV2Mock.sol\":8270:8435  if (consumers[i] == _consumer) {... */\n      tag_225\n      jumpi\n        /* \"@chainlink/contracts/src/v0.8/mocks/VRFCoordinatorV2Mock.sol\":8311:8323  address last */\n      0x00\n        /* \"@chainlink/contracts/src/v0.8/mocks/VRFCoordinatorV2Mock.sol\":8326:8335  consumers */\n      dup3\n        /* \"@chainlink/contracts/src/v0.8/mocks/VRFCoordinatorV2Mock.sol\":8355:8356  1 */\n      0x01\n        /* \"@chainlink/contracts/src/v0.8/mocks/VRFCoordinatorV2Mock.sol\":8336:8345  consumers */\n      dup5\n        /* \"@chainlink/contracts/src/v0.8/mocks/VRFCoordinatorV2Mock.sol\":8336:8352  consumers.length */\n      dup1\n      sload\n      swap1\n      pop\n        /* \"@chainlink/contracts/src/v0.8/mocks/VRFCoordinatorV2Mock.sol\":8336:8356  consumers.length - 1 */\n      tag_226\n      swap2\n      swap1\n      tag_158\n      jump\t// in\n    tag_226:\n        /* \"@chainlink/contracts/src/v0.8/mocks/VRFCoordinatorV2Mock.sol\":8326:8357  consumers[consumers.length - 1] */\n      dup2\n      sload\n      dup2\n      lt\n      tag_227\n      jumpi\n      tag_228\n      tag_145\n      jump\t// in\n    tag_228:\n    tag_227:\n      swap1\n      0x00\n      mstore\n      keccak256(0x00, 0x20)\n      add\n      0x00\n      swap1\n      sload\n      swap1\n      0x0100\n      exp\n      swap1\n      div\n      0xffffffffffffffffffffffffffffffffffffffff\n      and\n        /* \"@chainlink/contracts/src/v0.8/mocks/VRFCoordinatorV2Mock.sol\":8311:8357  address last = consumers[consumers.length - 1] */\n      swap1\n      pop\n        /* \"@chainlink/contracts/src/v0.8/mocks/VRFCoordinatorV2Mock.sol\":8382:8386  last */\n      dup1\n        /* \"@chainlink/contracts/src/v0.8/mocks/VRFCoordinatorV2Mock.sol\":8367:8376  consumers */\n      dup4\n        /* \"@chainlink/contracts/src/v0.8/mocks/VRFCoordinatorV2Mock.sol\":8377:8378  i */\n      dup4\n        /* \"@chainlink/contracts/src/v0.8/mocks/VRFCoordinatorV2Mock.sol\":8367:8379  consumers[i] */\n      dup2\n      sload\n      dup2\n      lt\n      tag_230\n      jumpi\n      tag_231\n      tag_145\n      jump\t// in\n    tag_231:\n    tag_230:\n      swap1\n      0x00\n      mstore\n      keccak256(0x00, 0x20)\n      add\n      0x00\n        /* \"@chainlink/contracts/src/v0.8/mocks/VRFCoordinatorV2Mock.sol\":8367:8386  consumers[i] = last */\n      0x0100\n      exp\n      dup2\n      sload\n      dup2\n      0xffffffffffffffffffffffffffffffffffffffff\n      mul\n      not\n      and\n      swap1\n      dup4\n      0xffffffffffffffffffffffffffffffffffffffff\n      and\n      mul\n      or\n      swap1\n      sstore\n      pop\n        /* \"@chainlink/contracts/src/v0.8/mocks/VRFCoordinatorV2Mock.sol\":8396:8405  consumers */\n      dup3\n        /* \"@chainlink/contracts/src/v0.8/mocks/VRFCoordinatorV2Mock.sol\":8396:8411  consumers.pop() */\n      dup1\n      sload\n      dup1\n      tag_233\n      jumpi\n      tag_234\n      tag_235\n      jump\t// in\n    tag_234:\n    tag_233:\n      0x01\n      swap1\n      sub\n      dup2\n      dup2\n      swap1\n      0x00\n      mstore\n      keccak256(0x00, 0x20)\n      add\n      exp(0x0100, 0x00)\n      dup2\n      sload\n      swap1\n      0xffffffffffffffffffffffffffffffffffffffff\n      mul\n      not\n      and\n      swap1\n      sstore\n      swap1\n      sstore\n        /* \"@chainlink/contracts/src/v0.8/mocks/VRFCoordinatorV2Mock.sol\":8421:8426  break */\n      pop\n      jump(tag_220)\n        /* \"@chainlink/contracts/src/v0.8/mocks/VRFCoordinatorV2Mock.sol\":8270:8435  if (consumers[i] == _consumer) {... */\n    tag_225:\n        /* \"@chainlink/contracts/src/v0.8/mocks/VRFCoordinatorV2Mock.sol\":8257:8260  i++ */\n      dup1\n      dup1\n      tag_237\n      swap1\n      tag_147\n      jump\t// in\n    tag_237:\n      swap2\n      pop\n      pop\n        /* \"@chainlink/contracts/src/v0.8/mocks/VRFCoordinatorV2Mock.sol\":8215:8441  for (uint256 i = 0; i < consumers.length; i++) {... */\n      jump(tag_219)\n    tag_220:\n      pop\n        /* \"@chainlink/contracts/src/v0.8/mocks/VRFCoordinatorV2Mock.sol\":8468:8474  _subId */\n      dup7\n        /* \"@chainlink/contracts/src/v0.8/mocks/VRFCoordinatorV2Mock.sol\":8452:8486  ConsumerRemoved(_subId, _consumer) */\n      0xffffffffffffffff\n      and\n      0xf9bc9d5b5733d904409def43a5ecc888dbdac9a95687780d8fd489d3bb3813fc\n        /* \"@chainlink/contracts/src/v0.8/mocks/VRFCoordinatorV2Mock.sol\":8476:8485  _consumer */\n      dup8\n        /* \"@chainlink/contracts/src/v0.8/mocks/VRFCoordinatorV2Mock.sol\":8452:8486  ConsumerRemoved(_subId, _consumer) */\n      mload(0x40)\n      tag_238\n      swap2\n      swap1\n      tag_82\n      jump\t// in\n    tag_238:\n      mload(0x40)\n      dup1\n      swap2\n      sub\n      swap1\n      log2\n        /* \"@chainlink/contracts/src/v0.8/mocks/VRFCoordinatorV2Mock.sol\":8154:8491  {... */\n      pop\n        /* \"@chainlink/contracts/src/v0.8/mocks/VRFCoordinatorV2Mock.sol\":7490:7491  _ */\n      pop\n      pop\n        /* \"@chainlink/contracts/src/v0.8/mocks/VRFCoordinatorV2Mock.sol\":7287:7496  {... */\n      pop\n        /* \"@chainlink/contracts/src/v0.8/mocks/VRFCoordinatorV2Mock.sol\":7995:8491  function removeConsumer(... */\n      pop\n      pop\n      pop\n      jump\t// out\n        /* \"@chainlink/contracts/src/v0.8/mocks/VRFCoordinatorV2Mock.sol\":6382:6651  function createSubscription() external override returns (uint64 _subId) {... */\n    tag_87:\n        /* \"@chainlink/contracts/src/v0.8/mocks/VRFCoordinatorV2Mock.sol\":6439:6452  uint64 _subId */\n      0x00\n        /* \"@chainlink/contracts/src/v0.8/mocks/VRFCoordinatorV2Mock.sol\":6460:6474  s_currentSubId */\n      0x03\n      0x00\n        /* \"@chainlink/contracts/src/v0.8/mocks/VRFCoordinatorV2Mock.sol\":6460:6476  s_currentSubId++ */\n      dup2\n      dup2\n      swap1\n      sload\n      swap1\n      0x0100\n      exp\n      swap1\n      div\n      0xffffffffffffffff\n      and\n      dup1\n      swap3\n      swap2\n      swap1\n      tag_240\n      swap1\n      tag_241\n      jump\t// in\n    tag_240:\n      swap2\n      swap1\n      0x0100\n      exp\n      dup2\n      sload\n      dup2\n      0xffffffffffffffff\n      mul\n      not\n      and\n      swap1\n      dup4\n      0xffffffffffffffff\n      and\n      mul\n      or\n      swap1\n      sstore\n      pop\n      pop\n        /* \"@chainlink/contracts/src/v0.8/mocks/VRFCoordinatorV2Mock.sol\":6516:6561  Subscription({owner: msg.sender, balance: 0}) */\n      mload(0x40)\n      dup1\n      0x40\n      add\n      0x40\n      mstore\n      dup1\n        /* \"@chainlink/contracts/src/v0.8/mocks/VRFCoordinatorV2Mock.sol\":6537:6547  msg.sender */\n      caller\n        /* \"@chainlink/contracts/src/v0.8/mocks/VRFCoordinatorV2Mock.sol\":6516:6561  Subscription({owner: msg.sender, balance: 0}) */\n      0xffffffffffffffffffffffffffffffffffffffff\n      and\n      dup2\n      mstore\n      0x20\n      add\n        /* \"@chainlink/contracts/src/v0.8/mocks/VRFCoordinatorV2Mock.sol\":6558:6559  0 */\n      0x00\n        /* \"@chainlink/contracts/src/v0.8/mocks/VRFCoordinatorV2Mock.sol\":6516:6561  Subscription({owner: msg.sender, balance: 0}) */\n      0xffffffffffffffffffffffff\n      and\n      dup2\n      mstore\n      pop\n        /* \"@chainlink/contracts/src/v0.8/mocks/VRFCoordinatorV2Mock.sol\":6482:6497  s_subscriptions */\n      0x06\n        /* \"@chainlink/contracts/src/v0.8/mocks/VRFCoordinatorV2Mock.sol\":6482:6513  s_subscriptions[s_currentSubId] */\n      0x00\n        /* \"@chainlink/contracts/src/v0.8/mocks/VRFCoordinatorV2Mock.sol\":6498:6512  s_currentSubId */\n      0x03\n      0x00\n      swap1\n      sload\n      swap1\n      0x0100\n      exp\n      swap1\n      div\n      0xffffffffffffffff\n      and\n        /* \"@chainlink/contracts/src/v0.8/mocks/VRFCoordinatorV2Mock.sol\":6482:6513  s_subscriptions[s_currentSubId] */\n      0xffffffffffffffff\n      and\n      0xffffffffffffffff\n      and\n      dup2\n      mstore\n      0x20\n      add\n      swap1\n      dup2\n      mstore\n      0x20\n      add\n      0x00\n      keccak256\n        /* \"@chainlink/contracts/src/v0.8/mocks/VRFCoordinatorV2Mock.sol\":6482:6561  s_subscriptions[s_currentSubId] = Subscription({owner: msg.sender, balance: 0}) */\n      0x00\n      dup3\n      add\n      mload\n      dup2\n      0x00\n      add\n      exp(0x0100, 0x00)\n      dup2\n      sload\n      dup2\n      0xffffffffffffffffffffffffffffffffffffffff\n      mul\n      not\n      and\n      swap1\n      dup4\n      0xffffffffffffffffffffffffffffffffffffffff\n      and\n      mul\n      or\n      swap1\n      sstore\n      pop\n      0x20\n      dup3\n      add\n      mload\n      dup2\n      0x00\n      add\n      exp(0x0100, 0x14)\n      dup2\n      sload\n      dup2\n      0xffffffffffffffffffffffff\n      mul\n      not\n      and\n      swap1\n      dup4\n      0xffffffffffffffffffffffff\n      and\n      mul\n      or\n      swap1\n      sstore\n      pop\n      swap1\n      pop\n      pop\n        /* \"@chainlink/contracts/src/v0.8/mocks/VRFCoordinatorV2Mock.sol\":6592:6606  s_currentSubId */\n      0x03\n      0x00\n      swap1\n      sload\n      swap1\n      0x0100\n      exp\n      swap1\n      div\n      0xffffffffffffffff\n      and\n        /* \"@chainlink/contracts/src/v0.8/mocks/VRFCoordinatorV2Mock.sol\":6572:6619  SubscriptionCreated(s_currentSubId, msg.sender) */\n      0xffffffffffffffff\n      and\n      0x464722b4166576d3dcbba877b999bc35cf911f4eaf434b7eba68fa113951d0bf\n        /* \"@chainlink/contracts/src/v0.8/mocks/VRFCoordinatorV2Mock.sol\":6608:6618  msg.sender */\n      caller\n        /* \"@chainlink/contracts/src/v0.8/mocks/VRFCoordinatorV2Mock.sol\":6572:6619  SubscriptionCreated(s_currentSubId, msg.sender) */\n      mload(0x40)\n      tag_242\n      swap2\n      swap1\n      tag_82\n      jump\t// in\n    tag_242:\n      mload(0x40)\n      dup1\n      swap2\n      sub\n      swap1\n      log2\n        /* \"@chainlink/contracts/src/v0.8/mocks/VRFCoordinatorV2Mock.sol\":6632:6646  s_currentSubId */\n      0x03\n      0x00\n      swap1\n      sload\n      swap1\n      0x0100\n      exp\n      swap1\n      div\n      0xffffffffffffffff\n      and\n        /* \"@chainlink/contracts/src/v0.8/mocks/VRFCoordinatorV2Mock.sol\":6625:6646  return s_currentSubId */\n      swap1\n      pop\n        /* \"@chainlink/contracts/src/v0.8/mocks/VRFCoordinatorV2Mock.sol\":6382:6651  function createSubscription() external override returns (uint64 _subId) {... */\n      swap1\n      jump\t// out\n        /* \"@chainlink/contracts/src/v0.8/mocks/VRFCoordinatorV2Mock.sol\":426:464  uint96 public immutable GAS_PRICE_LINK */\n    tag_91:\n      immutable(\"0xb811eb8190fe00dc85563459f7e9e4ba4c2ef31ddac91e9e2d37d1e7e1b1d5bc\")\n      dup2\n      jump\t// out\n        /* \"@chainlink/contracts/src/v0.8/mocks/VRFCoordinatorV2Mock.sol\":6655:7014  function getSubscription(... */\n    tag_95:\n        /* \"@chainlink/contracts/src/v0.8/mocks/VRFCoordinatorV2Mock.sol\":6735:6749  uint96 balance */\n      0x00\n        /* \"@chainlink/contracts/src/v0.8/mocks/VRFCoordinatorV2Mock.sol\":6751:6766  uint64 reqCount */\n      dup1\n        /* \"@chainlink/contracts/src/v0.8/mocks/VRFCoordinatorV2Mock.sol\":6768:6781  address owner */\n      0x00\n        /* \"@chainlink/contracts/src/v0.8/mocks/VRFCoordinatorV2Mock.sol\":6783:6809  address[] memory consumers */\n      0x60\n        /* \"@chainlink/contracts/src/v0.8/mocks/VRFCoordinatorV2Mock.sol\":6862:6863  0 */\n      0x00\n        /* \"@chainlink/contracts/src/v0.8/mocks/VRFCoordinatorV2Mock.sol\":6821:6864  s_subscriptions[_subId].owner == address(0) */\n      0xffffffffffffffffffffffffffffffffffffffff\n      and\n        /* \"@chainlink/contracts/src/v0.8/mocks/VRFCoordinatorV2Mock.sol\":6821:6836  s_subscriptions */\n      0x06\n        /* \"@chainlink/contracts/src/v0.8/mocks/VRFCoordinatorV2Mock.sol\":6821:6844  s_subscriptions[_subId] */\n      0x00\n        /* \"@chainlink/contracts/src/v0.8/mocks/VRFCoordinatorV2Mock.sol\":6837:6843  _subId */\n      dup8\n        /* \"@chainlink/contracts/src/v0.8/mocks/VRFCoordinatorV2Mock.sol\":6821:6844  s_subscriptions[_subId] */\n      0xffffffffffffffff\n      and\n      0xffffffffffffffff\n      and\n      dup2\n      mstore\n      0x20\n      add\n      swap1\n      dup2\n      mstore\n      0x20\n      add\n      0x00\n      keccak256\n        /* \"@chainlink/contracts/src/v0.8/mocks/VRFCoordinatorV2Mock.sol\":6821:6850  s_subscriptions[_subId].owner */\n      0x00\n      add\n      0x00\n      swap1\n      sload\n      swap1\n      0x0100\n      exp\n      swap1\n      div\n      0xffffffffffffffffffffffffffffffffffffffff\n      and\n        /* \"@chainlink/contracts/src/v0.8/mocks/VRFCoordinatorV2Mock.sol\":6821:6864  s_subscriptions[_subId].owner == address(0) */\n      0xffffffffffffffffffffffffffffffffffffffff\n      and\n      sub\n        /* \"@chainlink/contracts/src/v0.8/mocks/VRFCoordinatorV2Mock.sol\":6817:6909  if (s_subscriptions[_subId].owner == address(0)) {... */\n      tag_244\n      jumpi\n        /* \"@chainlink/contracts/src/v0.8/mocks/VRFCoordinatorV2Mock.sol\":6881:6902  InvalidSubscription() */\n      mload(0x40)\n      0x1f6a65b600000000000000000000000000000000000000000000000000000000\n      dup2\n      mstore\n      0x04\n      add\n      mload(0x40)\n      dup1\n      swap2\n      sub\n      swap1\n      revert\n        /* \"@chainlink/contracts/src/v0.8/mocks/VRFCoordinatorV2Mock.sol\":6817:6909  if (s_subscriptions[_subId].owner == address(0)) {... */\n    tag_244:\n        /* \"@chainlink/contracts/src/v0.8/mocks/VRFCoordinatorV2Mock.sol\":6922:6937  s_subscriptions */\n      0x06\n        /* \"@chainlink/contracts/src/v0.8/mocks/VRFCoordinatorV2Mock.sol\":6922:6945  s_subscriptions[_subId] */\n      0x00\n        /* \"@chainlink/contracts/src/v0.8/mocks/VRFCoordinatorV2Mock.sol\":6938:6944  _subId */\n      dup7\n        /* \"@chainlink/contracts/src/v0.8/mocks/VRFCoordinatorV2Mock.sol\":6922:6945  s_subscriptions[_subId] */\n      0xffffffffffffffff\n      and\n      0xffffffffffffffff\n      and\n      dup2\n      mstore\n      0x20\n      add\n      swap1\n      dup2\n      mstore\n      0x20\n      add\n      0x00\n      keccak256\n        /* \"@chainlink/contracts/src/v0.8/mocks/VRFCoordinatorV2Mock.sol\":6922:6953  s_subscriptions[_subId].balance */\n      0x00\n      add\n      0x14\n      swap1\n      sload\n      swap1\n      0x0100\n      exp\n      swap1\n      div\n      0xffffffffffffffffffffffff\n      and\n        /* \"@chainlink/contracts/src/v0.8/mocks/VRFCoordinatorV2Mock.sol\":6955:6956  0 */\n      0x00\n        /* \"@chainlink/contracts/src/v0.8/mocks/VRFCoordinatorV2Mock.sol\":6958:6973  s_subscriptions */\n      0x06\n        /* \"@chainlink/contracts/src/v0.8/mocks/VRFCoordinatorV2Mock.sol\":6958:6981  s_subscriptions[_subId] */\n      0x00\n        /* \"@chainlink/contracts/src/v0.8/mocks/VRFCoordinatorV2Mock.sol\":6974:6980  _subId */\n      dup9\n        /* \"@chainlink/contracts/src/v0.8/mocks/VRFCoordinatorV2Mock.sol\":6958:6981  s_subscriptions[_subId] */\n      0xffffffffffffffff\n      and\n      0xffffffffffffffff\n      and\n      dup2\n      mstore\n      0x20\n      add\n      swap1\n      dup2\n      mstore\n      0x20\n      add\n      0x00\n      keccak256\n        /* \"@chainlink/contracts/src/v0.8/mocks/VRFCoordinatorV2Mock.sol\":6958:6987  s_subscriptions[_subId].owner */\n      0x00\n      add\n      0x00\n      swap1\n      sload\n      swap1\n      0x0100\n      exp\n      swap1\n      div\n      0xffffffffffffffffffffffffffffffffffffffff\n      and\n        /* \"@chainlink/contracts/src/v0.8/mocks/VRFCoordinatorV2Mock.sol\":6989:7000  s_consumers */\n      0x07\n        /* \"@chainlink/contracts/src/v0.8/mocks/VRFCoordinatorV2Mock.sol\":6989:7008  s_consumers[_subId] */\n      0x00\n        /* \"@chainlink/contracts/src/v0.8/mocks/VRFCoordinatorV2Mock.sol\":7001:7007  _subId */\n      dup10\n        /* \"@chainlink/contracts/src/v0.8/mocks/VRFCoordinatorV2Mock.sol\":6989:7008  s_consumers[_subId] */\n      0xffffffffffffffff\n      and\n      0xffffffffffffffff\n      and\n      dup2\n      mstore\n      0x20\n      add\n      swap1\n      dup2\n      mstore\n      0x20\n      add\n      0x00\n      keccak256\n        /* \"@chainlink/contracts/src/v0.8/mocks/VRFCoordinatorV2Mock.sol\":6914:7009  return (s_subscriptions[_subId].balance, 0, s_subscriptions[_subId].owner, s_consumers[_subId]) */\n      dup1\n      dup1\n      sload\n      dup1\n      0x20\n      mul\n      0x20\n      add\n      mload(0x40)\n      swap1\n      dup2\n      add\n      0x40\n      mstore\n      dup1\n      swap3\n      swap2\n      swap1\n      dup2\n      dup2\n      mstore\n      0x20\n      add\n      dup3\n      dup1\n      sload\n      dup1\n      iszero\n      tag_245\n      jumpi\n      0x20\n      mul\n      dup3\n      add\n      swap2\n      swap1\n      0x00\n      mstore\n      keccak256(0x00, 0x20)\n      swap1\n    tag_246:\n      dup2\n      0x00\n      swap1\n      sload\n      swap1\n      0x0100\n      exp\n      swap1\n      div\n      0xffffffffffffffffffffffffffffffffffffffff\n      and\n      0xffffffffffffffffffffffffffffffffffffffff\n      and\n      dup2\n      mstore\n      0x20\n      add\n      swap1\n      0x01\n      add\n      swap1\n      dup1\n      dup4\n      gt\n      tag_246\n      jumpi\n    tag_245:\n      pop\n      pop\n      pop\n      pop\n      pop\n      swap1\n      pop\n      swap4\n      pop\n      swap4\n      pop\n      swap4\n      pop\n      swap4\n      pop\n        /* \"@chainlink/contracts/src/v0.8/mocks/VRFCoordinatorV2Mock.sol\":6655:7014  function getSubscription(... */\n      swap2\n      swap4\n      pop\n      swap2\n      swap4\n      jump\t// out\n        /* \"@chainlink/contracts/src/v0.8/mocks/VRFCoordinatorV2Mock.sol\":5263:5605  function fundSubscription(uint64 _subId, uint96 _amount) public {... */\n    tag_101:\n        /* \"@chainlink/contracts/src/v0.8/mocks/VRFCoordinatorV2Mock.sol\":5378:5379  0 */\n      0x00\n        /* \"@chainlink/contracts/src/v0.8/mocks/VRFCoordinatorV2Mock.sol\":5337:5380  s_subscriptions[_subId].owner == address(0) */\n      0xffffffffffffffffffffffffffffffffffffffff\n      and\n        /* \"@chainlink/contracts/src/v0.8/mocks/VRFCoordinatorV2Mock.sol\":5337:5352  s_subscriptions */\n      0x06\n        /* \"@chainlink/contracts/src/v0.8/mocks/VRFCoordinatorV2Mock.sol\":5337:5360  s_subscriptions[_subId] */\n      0x00\n        /* \"@chainlink/contracts/src/v0.8/mocks/VRFCoordinatorV2Mock.sol\":5353:5359  _subId */\n      dup5\n        /* \"@chainlink/contracts/src/v0.8/mocks/VRFCoordinatorV2Mock.sol\":5337:5360  s_subscriptions[_subId] */\n      0xffffffffffffffff\n      and\n      0xffffffffffffffff\n      and\n      dup2\n      mstore\n      0x20\n      add\n      swap1\n      dup2\n      mstore\n      0x20\n      add\n      0x00\n      keccak256\n        /* \"@chainlink/contracts/src/v0.8/mocks/VRFCoordinatorV2Mock.sol\":5337:5366  s_subscriptions[_subId].owner */\n      0x00\n      add\n      0x00\n      swap1\n      sload\n      swap1\n      0x0100\n      exp\n      swap1\n      div\n      0xffffffffffffffffffffffffffffffffffffffff\n      and\n        /* \"@chainlink/contracts/src/v0.8/mocks/VRFCoordinatorV2Mock.sol\":5337:5380  s_subscriptions[_subId].owner == address(0) */\n      0xffffffffffffffffffffffffffffffffffffffff\n      and\n      sub\n        /* \"@chainlink/contracts/src/v0.8/mocks/VRFCoordinatorV2Mock.sol\":5333:5425  if (s_subscriptions[_subId].owner == address(0)) {... */\n      tag_248\n      jumpi\n        /* \"@chainlink/contracts/src/v0.8/mocks/VRFCoordinatorV2Mock.sol\":5397:5418  InvalidSubscription() */\n      mload(0x40)\n      0x1f6a65b600000000000000000000000000000000000000000000000000000000\n      dup2\n      mstore\n      0x04\n      add\n      mload(0x40)\n      dup1\n      swap2\n      sub\n      swap1\n      revert\n        /* \"@chainlink/contracts/src/v0.8/mocks/VRFCoordinatorV2Mock.sol\":5333:5425  if (s_subscriptions[_subId].owner == address(0)) {... */\n    tag_248:\n        /* \"@chainlink/contracts/src/v0.8/mocks/VRFCoordinatorV2Mock.sol\":5430:5447  uint96 oldBalance */\n      0x00\n        /* \"@chainlink/contracts/src/v0.8/mocks/VRFCoordinatorV2Mock.sol\":5450:5465  s_subscriptions */\n      0x06\n        /* \"@chainlink/contracts/src/v0.8/mocks/VRFCoordinatorV2Mock.sol\":5450:5473  s_subscriptions[_subId] */\n      0x00\n        /* \"@chainlink/contracts/src/v0.8/mocks/VRFCoordinatorV2Mock.sol\":5466:5472  _subId */\n      dup5\n        /* \"@chainlink/contracts/src/v0.8/mocks/VRFCoordinatorV2Mock.sol\":5450:5473  s_subscriptions[_subId] */\n      0xffffffffffffffff\n      and\n      0xffffffffffffffff\n      and\n      dup2\n      mstore\n      0x20\n      add\n      swap1\n      dup2\n      mstore\n      0x20\n      add\n      0x00\n      keccak256\n        /* \"@chainlink/contracts/src/v0.8/mocks/VRFCoordinatorV2Mock.sol\":5450:5481  s_subscriptions[_subId].balance */\n      0x00\n      add\n      0x14\n      swap1\n      sload\n      swap1\n      0x0100\n      exp\n      swap1\n      div\n      0xffffffffffffffffffffffff\n      and\n        /* \"@chainlink/contracts/src/v0.8/mocks/VRFCoordinatorV2Mock.sol\":5430:5481  uint96 oldBalance = s_subscriptions[_subId].balance */\n      swap1\n      pop\n        /* \"@chainlink/contracts/src/v0.8/mocks/VRFCoordinatorV2Mock.sol\":5522:5529  _amount */\n      dup2\n        /* \"@chainlink/contracts/src/v0.8/mocks/VRFCoordinatorV2Mock.sol\":5487:5502  s_subscriptions */\n      0x06\n        /* \"@chainlink/contracts/src/v0.8/mocks/VRFCoordinatorV2Mock.sol\":5487:5510  s_subscriptions[_subId] */\n      0x00\n        /* \"@chainlink/contracts/src/v0.8/mocks/VRFCoordinatorV2Mock.sol\":5503:5509  _subId */\n      dup6\n        /* \"@chainlink/contracts/src/v0.8/mocks/VRFCoordinatorV2Mock.sol\":5487:5510  s_subscriptions[_subId] */\n      0xffffffffffffffff\n      and\n      0xffffffffffffffff\n      and\n      dup2\n      mstore\n      0x20\n      add\n      swap1\n      dup2\n      mstore\n      0x20\n      add\n      0x00\n      keccak256\n        /* \"@chainlink/contracts/src/v0.8/mocks/VRFCoordinatorV2Mock.sol\":5487:5518  s_subscriptions[_subId].balance */\n      0x00\n      add\n      0x14\n        /* \"@chainlink/contracts/src/v0.8/mocks/VRFCoordinatorV2Mock.sol\":5487:5529  s_subscriptions[_subId].balance += _amount */\n      dup3\n      dup3\n      dup3\n      swap1\n      sload\n      swap1\n      0x0100\n      exp\n      swap1\n      div\n      0xffffffffffffffffffffffff\n      and\n      tag_249\n      swap2\n      swap1\n      tag_250\n      jump\t// in\n    tag_249:\n      swap3\n      pop\n      0x0100\n      exp\n      dup2\n      sload\n      dup2\n      0xffffffffffffffffffffffff\n      mul\n      not\n      and\n      swap1\n      dup4\n      0xffffffffffffffffffffffff\n      and\n      mul\n      or\n      swap1\n      sstore\n      pop\n        /* \"@chainlink/contracts/src/v0.8/mocks/VRFCoordinatorV2Mock.sol\":5559:5565  _subId */\n      dup3\n        /* \"@chainlink/contracts/src/v0.8/mocks/VRFCoordinatorV2Mock.sol\":5540:5600  SubscriptionFunded(_subId, oldBalance, oldBalance + _amount) */\n      0xffffffffffffffff\n      and\n      0xd39ec07f4e209f627a4c427971473820dc129761ba28de8906bd56f57101d4f8\n        /* \"@chainlink/contracts/src/v0.8/mocks/VRFCoordinatorV2Mock.sol\":5567:5577  oldBalance */\n      dup3\n        /* \"@chainlink/contracts/src/v0.8/mocks/VRFCoordinatorV2Mock.sol\":5592:5599  _amount */\n      dup5\n        /* \"@chainlink/contracts/src/v0.8/mocks/VRFCoordinatorV2Mock.sol\":5579:5589  oldBalance */\n      dup5\n        /* \"@chainlink/contracts/src/v0.8/mocks/VRFCoordinatorV2Mock.sol\":5579:5599  oldBalance + _amount */\n      tag_251\n      swap2\n      swap1\n      tag_250\n      jump\t// in\n    tag_251:\n        /* \"@chainlink/contracts/src/v0.8/mocks/VRFCoordinatorV2Mock.sol\":5540:5600  SubscriptionFunded(_subId, oldBalance, oldBalance + _amount) */\n      mload(0x40)\n      tag_252\n      swap3\n      swap2\n      swap1\n      tag_253\n      jump\t// in\n    tag_252:\n      mload(0x40)\n      dup1\n      swap2\n      sub\n      swap1\n      log2\n        /* \"@chainlink/contracts/src/v0.8/mocks/VRFCoordinatorV2Mock.sol\":5327:5605  {... */\n      pop\n        /* \"@chainlink/contracts/src/v0.8/mocks/VRFCoordinatorV2Mock.sol\":5263:5605  function fundSubscription(uint64 _subId, uint96 _amount) public {... */\n      pop\n      pop\n      jump\t// out\n        /* \"@chainlink/contracts/src/v0.8/mocks/VRFCoordinatorV2Mock.sol\":8495:8745  function getConfig()... */\n    tag_103:\n        /* \"@chainlink/contracts/src/v0.8/mocks/VRFCoordinatorV2Mock.sol\":8558:8592  uint16 minimumRequestConfirmations */\n      0x00\n        /* \"@chainlink/contracts/src/v0.8/mocks/VRFCoordinatorV2Mock.sol\":8600:8618  uint32 maxGasLimit */\n      dup1\n        /* \"@chainlink/contracts/src/v0.8/mocks/VRFCoordinatorV2Mock.sol\":8626:8649  uint32 stalenessSeconds */\n      0x00\n        /* \"@chainlink/contracts/src/v0.8/mocks/VRFCoordinatorV2Mock.sol\":8657:8690  uint32 gasAfterPaymentCalculation */\n      dup1\n        /* \"@chainlink/contracts/src/v0.8/mocks/VRFCoordinatorV2Mock.sol\":8713:8714  4 */\n      0x04\n        /* \"@chainlink/contracts/src/v0.8/mocks/VRFCoordinatorV2Mock.sol\":8716:8725  2_500_000 */\n      0x2625a0\n        /* \"@chainlink/contracts/src/v0.8/mocks/VRFCoordinatorV2Mock.sol\":8727:8732  2_700 */\n      0x0a8c\n        /* \"@chainlink/contracts/src/v0.8/mocks/VRFCoordinatorV2Mock.sol\":8734:8739  33285 */\n      0x8205\n        /* \"@chainlink/contracts/src/v0.8/mocks/VRFCoordinatorV2Mock.sol\":8705:8740  return (4, 2_500_000, 2_700, 33285) */\n      swap4\n      pop\n      swap4\n      pop\n      swap4\n      pop\n      swap4\n      pop\n        /* \"@chainlink/contracts/src/v0.8/mocks/VRFCoordinatorV2Mock.sol\":8495:8745  function getConfig()... */\n      swap1\n      swap2\n      swap3\n      swap4\n      jump\t// out\n        /* \"@chainlink/contracts/src/v0.8/mocks/VRFCoordinatorV2Mock.sol\":7018:7246  function cancelSubscription(uint64 _subId, address _to) external override onlySubOwner(_subId) nonReentrant {... */\n    tag_108:\n        /* \"@chainlink/contracts/src/v0.8/mocks/VRFCoordinatorV2Mock.sol\":7105:7111  _subId */\n      dup2\n        /* \"@chainlink/contracts/src/v0.8/mocks/VRFCoordinatorV2Mock.sol\":7293:7306  address owner */\n      0x00\n        /* \"@chainlink/contracts/src/v0.8/mocks/VRFCoordinatorV2Mock.sol\":7309:7324  s_subscriptions */\n      0x06\n        /* \"@chainlink/contracts/src/v0.8/mocks/VRFCoordinatorV2Mock.sol\":7309:7332  s_subscriptions[_subId] */\n      0x00\n        /* \"@chainlink/contracts/src/v0.8/mocks/VRFCoordinatorV2Mock.sol\":7325:7331  _subId */\n      dup4\n        /* \"@chainlink/contracts/src/v0.8/mocks/VRFCoordinatorV2Mock.sol\":7309:7332  s_subscriptions[_subId] */\n      0xffffffffffffffff\n      and\n      0xffffffffffffffff\n      and\n      dup2\n      mstore\n      0x20\n      add\n      swap1\n      dup2\n      mstore\n      0x20\n      add\n      0x00\n      keccak256\n        /* \"@chainlink/contracts/src/v0.8/mocks/VRFCoordinatorV2Mock.sol\":7309:7338  s_subscriptions[_subId].owner */\n      0x00\n      add\n      0x00\n      swap1\n      sload\n      swap1\n      0x0100\n      exp\n      swap1\n      div\n      0xffffffffffffffffffffffffffffffffffffffff\n      and\n        /* \"@chainlink/contracts/src/v0.8/mocks/VRFCoordinatorV2Mock.sol\":7293:7338  address owner = s_subscriptions[_subId].owner */\n      swap1\n      pop\n        /* \"@chainlink/contracts/src/v0.8/mocks/VRFCoordinatorV2Mock.sol\":7365:7366  0 */\n      0x00\n        /* \"@chainlink/contracts/src/v0.8/mocks/VRFCoordinatorV2Mock.sol\":7348:7367  owner == address(0) */\n      0xffffffffffffffffffffffffffffffffffffffff\n      and\n        /* \"@chainlink/contracts/src/v0.8/mocks/VRFCoordinatorV2Mock.sol\":7348:7353  owner */\n      dup2\n        /* \"@chainlink/contracts/src/v0.8/mocks/VRFCoordinatorV2Mock.sol\":7348:7367  owner == address(0) */\n      0xffffffffffffffffffffffffffffffffffffffff\n      and\n      sub\n        /* \"@chainlink/contracts/src/v0.8/mocks/VRFCoordinatorV2Mock.sol\":7344:7412  if (owner == address(0)) {... */\n      tag_256\n      jumpi\n        /* \"@chainlink/contracts/src/v0.8/mocks/VRFCoordinatorV2Mock.sol\":7384:7405  InvalidSubscription() */\n      mload(0x40)\n      0x1f6a65b600000000000000000000000000000000000000000000000000000000\n      dup2\n      mstore\n      0x04\n      add\n      mload(0x40)\n      dup1\n      swap2\n      sub\n      swap1\n      revert\n        /* \"@chainlink/contracts/src/v0.8/mocks/VRFCoordinatorV2Mock.sol\":7344:7412  if (owner == address(0)) {... */\n    tag_256:\n        /* \"@chainlink/contracts/src/v0.8/mocks/VRFCoordinatorV2Mock.sol\":7435:7440  owner */\n      dup1\n        /* \"@chainlink/contracts/src/v0.8/mocks/VRFCoordinatorV2Mock.sol\":7421:7440  msg.sender != owner */\n      0xffffffffffffffffffffffffffffffffffffffff\n      and\n        /* \"@chainlink/contracts/src/v0.8/mocks/VRFCoordinatorV2Mock.sol\":7421:7431  msg.sender */\n      caller\n        /* \"@chainlink/contracts/src/v0.8/mocks/VRFCoordinatorV2Mock.sol\":7421:7440  msg.sender != owner */\n      0xffffffffffffffffffffffffffffffffffffffff\n      and\n      eq\n        /* \"@chainlink/contracts/src/v0.8/mocks/VRFCoordinatorV2Mock.sol\":7417:7485  if (msg.sender != owner) {... */\n      tag_257\n      jumpi\n        /* \"@chainlink/contracts/src/v0.8/mocks/VRFCoordinatorV2Mock.sol\":7472:7477  owner */\n      dup1\n        /* \"@chainlink/contracts/src/v0.8/mocks/VRFCoordinatorV2Mock.sol\":7457:7478  MustBeSubOwner(owner) */\n      mload(0x40)\n      0xd8a3fb5200000000000000000000000000000000000000000000000000000000\n      dup2\n      mstore\n      0x04\n      add\n      tag_258\n      swap2\n      swap1\n      tag_82\n      jump\t// in\n    tag_258:\n      mload(0x40)\n      dup1\n      swap2\n      sub\n      swap1\n      revert\n        /* \"@chainlink/contracts/src/v0.8/mocks/VRFCoordinatorV2Mock.sol\":7417:7485  if (msg.sender != owner) {... */\n    tag_257:\n        /* \"@chainlink/contracts/src/v0.8/mocks/VRFCoordinatorV2Mock.sol\":9377:9385  s_config */\n      0x02\n        /* \"@chainlink/contracts/src/v0.8/mocks/VRFCoordinatorV2Mock.sol\":9377:9400  s_config.reentrancyLock */\n      0x00\n      add\n      0x00\n      swap1\n      sload\n      swap1\n      0x0100\n      exp\n      swap1\n      div\n      0xff\n      and\n        /* \"@chainlink/contracts/src/v0.8/mocks/VRFCoordinatorV2Mock.sol\":9373:9435  if (s_config.reentrancyLock) {... */\n      iszero\n      tag_260\n      jumpi\n        /* \"@chainlink/contracts/src/v0.8/mocks/VRFCoordinatorV2Mock.sol\":9417:9428  Reentrant() */\n      mload(0x40)\n      0xed3ba6a600000000000000000000000000000000000000000000000000000000\n      dup2\n      mstore\n      0x04\n      add\n      mload(0x40)\n      dup1\n      swap2\n      sub\n      swap1\n      revert\n        /* \"@chainlink/contracts/src/v0.8/mocks/VRFCoordinatorV2Mock.sol\":9373:9435  if (s_config.reentrancyLock) {... */\n    tag_260:\n        /* \"@chainlink/contracts/src/v0.8/mocks/VRFCoordinatorV2Mock.sol\":7158:7164  _subId */\n      dup4\n        /* \"@chainlink/contracts/src/v0.8/mocks/VRFCoordinatorV2Mock.sol\":7137:7203  SubscriptionCanceled(_subId, _to, s_subscriptions[_subId].balance) */\n      0xffffffffffffffff\n      and\n      0xe8ed5b475a5b5987aa9165e8731bb78043f39eee32ec5a1169a89e27fcd49815\n        /* \"@chainlink/contracts/src/v0.8/mocks/VRFCoordinatorV2Mock.sol\":7166:7169  _to */\n      dup5\n        /* \"@chainlink/contracts/src/v0.8/mocks/VRFCoordinatorV2Mock.sol\":7171:7186  s_subscriptions */\n      0x06\n        /* \"@chainlink/contracts/src/v0.8/mocks/VRFCoordinatorV2Mock.sol\":7171:7194  s_subscriptions[_subId] */\n      0x00\n        /* \"@chainlink/contracts/src/v0.8/mocks/VRFCoordinatorV2Mock.sol\":7187:7193  _subId */\n      dup9\n        /* \"@chainlink/contracts/src/v0.8/mocks/VRFCoordinatorV2Mock.sol\":7171:7194  s_subscriptions[_subId] */\n      0xffffffffffffffff\n      and\n      0xffffffffffffffff\n      and\n      dup2\n      mstore\n      0x20\n      add\n      swap1\n      dup2\n      mstore\n      0x20\n      add\n      0x00\n      keccak256\n        /* \"@chainlink/contracts/src/v0.8/mocks/VRFCoordinatorV2Mock.sol\":7171:7202  s_subscriptions[_subId].balance */\n      0x00\n      add\n      0x14\n      swap1\n      sload\n      swap1\n      0x0100\n      exp\n      swap1\n      div\n      0xffffffffffffffffffffffff\n      and\n        /* \"@chainlink/contracts/src/v0.8/mocks/VRFCoordinatorV2Mock.sol\":7137:7203  SubscriptionCanceled(_subId, _to, s_subscriptions[_subId].balance) */\n      mload(0x40)\n      tag_262\n      swap3\n      swap2\n      swap1\n      tag_263\n      jump\t// in\n    tag_262:\n      mload(0x40)\n      dup1\n      swap2\n      sub\n      swap1\n      log2\n        /* \"@chainlink/contracts/src/v0.8/mocks/VRFCoordinatorV2Mock.sol\":7217:7232  s_subscriptions */\n      0x06\n        /* \"@chainlink/contracts/src/v0.8/mocks/VRFCoordinatorV2Mock.sol\":7217:7240  s_subscriptions[_subId] */\n      0x00\n        /* \"@chainlink/contracts/src/v0.8/mocks/VRFCoordinatorV2Mock.sol\":7233:7239  _subId */\n      dup6\n        /* \"@chainlink/contracts/src/v0.8/mocks/VRFCoordinatorV2Mock.sol\":7217:7240  s_subscriptions[_subId] */\n      0xffffffffffffffff\n      and\n      0xffffffffffffffff\n      and\n      dup2\n      mstore\n      0x20\n      add\n      swap1\n      dup2\n      mstore\n      0x20\n      add\n      0x00\n      keccak256\n      0x00\n        /* \"@chainlink/contracts/src/v0.8/mocks/VRFCoordinatorV2Mock.sol\":7209:7241  delete (s_subscriptions[_subId]) */\n      dup1\n      dup3\n      add\n      exp(0x0100, 0x00)\n      dup2\n      sload\n      swap1\n      0xffffffffffffffffffffffffffffffffffffffff\n      mul\n      not\n      and\n      swap1\n      sstore\n      0x00\n      dup3\n      add\n      exp(0x0100, 0x14)\n      dup2\n      sload\n      swap1\n      0xffffffffffffffffffffffff\n      mul\n      not\n      and\n      swap1\n      sstore\n      pop\n      pop\n        /* \"@chainlink/contracts/src/v0.8/mocks/VRFCoordinatorV2Mock.sol\":7287:7496  {... */\n      pop\n        /* \"@chainlink/contracts/src/v0.8/mocks/VRFCoordinatorV2Mock.sol\":7018:7246  function cancelSubscription(uint64 _subId, address _to) external override onlySubOwner(_subId) nonReentrant {... */\n      pop\n      pop\n      pop\n      jump\t// out\n        /* \"@chainlink/contracts/src/v0.8/mocks/VRFCoordinatorV2Mock.sol\":9841:9961  function pendingRequestExists(uint64 /*subId*/) public pure override returns (bool) {... */\n    tag_111:\n        /* \"@chainlink/contracts/src/v0.8/mocks/VRFCoordinatorV2Mock.sol\":9919:9923  bool */\n      0x00\n        /* \"@chainlink/contracts/src/v0.8/mocks/VRFCoordinatorV2Mock.sol\":9931:9956  revert(\"not implemented\") */\n      mload(0x40)\n      0x08c379a000000000000000000000000000000000000000000000000000000000\n      dup2\n      mstore\n      0x04\n      add\n      tag_265\n      swap1\n      tag_129\n      jump\t// in\n    tag_265:\n      mload(0x40)\n      dup1\n      swap2\n      sub\n      swap1\n      revert\n        /* \"@chainlink/contracts/src/v0.8/mocks/VRFCoordinatorV2Mock.sol\":2405:2695  function consumerIsAdded(uint64 _subId, address _consumer) public view returns (bool) {... */\n    tag_116:\n        /* \"@chainlink/contracts/src/v0.8/mocks/VRFCoordinatorV2Mock.sol\":2485:2489  bool */\n      0x00\n        /* \"@chainlink/contracts/src/v0.8/mocks/VRFCoordinatorV2Mock.sol\":2497:2523  address[] memory consumers */\n      dup1\n        /* \"@chainlink/contracts/src/v0.8/mocks/VRFCoordinatorV2Mock.sol\":2526:2537  s_consumers */\n      0x07\n        /* \"@chainlink/contracts/src/v0.8/mocks/VRFCoordinatorV2Mock.sol\":2526:2545  s_consumers[_subId] */\n      0x00\n        /* \"@chainlink/contracts/src/v0.8/mocks/VRFCoordinatorV2Mock.sol\":2538:2544  _subId */\n      dup6\n        /* \"@chainlink/contracts/src/v0.8/mocks/VRFCoordinatorV2Mock.sol\":2526:2545  s_consumers[_subId] */\n      0xffffffffffffffff\n      and\n      0xffffffffffffffff\n      and\n      dup2\n      mstore\n      0x20\n      add\n      swap1\n      dup2\n      mstore\n      0x20\n      add\n      0x00\n      keccak256\n        /* \"@chainlink/contracts/src/v0.8/mocks/VRFCoordinatorV2Mock.sol\":2497:2545  address[] memory consumers = s_consumers[_subId] */\n      dup1\n      sload\n      dup1\n      0x20\n      mul\n      0x20\n      add\n      mload(0x40)\n      swap1\n      dup2\n      add\n      0x40\n      mstore\n      dup1\n      swap3\n      swap2\n      swap1\n      dup2\n      dup2\n      mstore\n      0x20\n      add\n      dup3\n      dup1\n      sload\n      dup1\n      iszero\n      tag_267\n      jumpi\n      0x20\n      mul\n      dup3\n      add\n      swap2\n      swap1\n      0x00\n      mstore\n      keccak256(0x00, 0x20)\n      swap1\n    tag_268:\n      dup2\n      0x00\n      swap1\n      sload\n      swap1\n      0x0100\n      exp\n      swap1\n      div\n      0xffffffffffffffffffffffffffffffffffffffff\n      and\n      0xffffffffffffffffffffffffffffffffffffffff\n      and\n      dup2\n      mstore\n      0x20\n      add\n      swap1\n      0x01\n      add\n      swap1\n      dup1\n      dup4\n      gt\n      tag_268\n      jumpi\n    tag_267:\n      pop\n      pop\n      pop\n      pop\n      pop\n      swap1\n      pop\n        /* \"@chainlink/contracts/src/v0.8/mocks/VRFCoordinatorV2Mock.sol\":2556:2565  uint256 i */\n      0x00\n        /* \"@chainlink/contracts/src/v0.8/mocks/VRFCoordinatorV2Mock.sol\":2551:2673  for (uint256 i = 0; i < consumers.length; i++) {... */\n    tag_269:\n        /* \"@chainlink/contracts/src/v0.8/mocks/VRFCoordinatorV2Mock.sol\":2575:2584  consumers */\n      dup2\n        /* \"@chainlink/contracts/src/v0.8/mocks/VRFCoordinatorV2Mock.sol\":2575:2591  consumers.length */\n      mload\n        /* \"@chainlink/contracts/src/v0.8/mocks/VRFCoordinatorV2Mock.sol\":2571:2572  i */\n      dup2\n        /* \"@chainlink/contracts/src/v0.8/mocks/VRFCoordinatorV2Mock.sol\":2571:2591  i < consumers.length */\n      lt\n        /* \"@chainlink/contracts/src/v0.8/mocks/VRFCoordinatorV2Mock.sol\":2551:2673  for (uint256 i = 0; i < consumers.length; i++) {... */\n      iszero\n      tag_270\n      jumpi\n        /* \"@chainlink/contracts/src/v0.8/mocks/VRFCoordinatorV2Mock.sol\":2626:2635  _consumer */\n      dup4\n        /* \"@chainlink/contracts/src/v0.8/mocks/VRFCoordinatorV2Mock.sol\":2610:2635  consumers[i] == _consumer */\n      0xffffffffffffffffffffffffffffffffffffffff\n      and\n        /* \"@chainlink/contracts/src/v0.8/mocks/VRFCoordinatorV2Mock.sol\":2610:2619  consumers */\n      dup3\n        /* \"@chainlink/contracts/src/v0.8/mocks/VRFCoordinatorV2Mock.sol\":2620:2621  i */\n      dup3\n        /* \"@chainlink/contracts/src/v0.8/mocks/VRFCoordinatorV2Mock.sol\":2610:2622  consumers[i] */\n      dup2\n      mload\n      dup2\n      lt\n      tag_272\n      jumpi\n      tag_273\n      tag_145\n      jump\t// in\n    tag_273:\n    tag_272:\n      0x20\n      mul\n      0x20\n      add\n      add\n      mload\n        /* \"@chainlink/contracts/src/v0.8/mocks/VRFCoordinatorV2Mock.sol\":2610:2635  consumers[i] == _consumer */\n      0xffffffffffffffffffffffffffffffffffffffff\n      and\n      sub\n        /* \"@chainlink/contracts/src/v0.8/mocks/VRFCoordinatorV2Mock.sol\":2606:2667  if (consumers[i] == _consumer) {... */\n      tag_274\n      jumpi\n        /* \"@chainlink/contracts/src/v0.8/mocks/VRFCoordinatorV2Mock.sol\":2654:2658  true */\n      0x01\n        /* \"@chainlink/contracts/src/v0.8/mocks/VRFCoordinatorV2Mock.sol\":2647:2658  return true */\n      swap3\n      pop\n      pop\n      pop\n      jump(tag_266)\n        /* \"@chainlink/contracts/src/v0.8/mocks/VRFCoordinatorV2Mock.sol\":2606:2667  if (consumers[i] == _consumer) {... */\n    tag_274:\n        /* \"@chainlink/contracts/src/v0.8/mocks/VRFCoordinatorV2Mock.sol\":2593:2596  i++ */\n      dup1\n      dup1\n      tag_275\n      swap1\n      tag_147\n      jump\t// in\n    tag_275:\n      swap2\n      pop\n      pop\n        /* \"@chainlink/contracts/src/v0.8/mocks/VRFCoordinatorV2Mock.sol\":2551:2673  for (uint256 i = 0; i < consumers.length; i++) {... */\n      jump(tag_269)\n    tag_270:\n      pop\n        /* \"@chainlink/contracts/src/v0.8/mocks/VRFCoordinatorV2Mock.sol\":2685:2690  false */\n      0x00\n        /* \"@chainlink/contracts/src/v0.8/mocks/VRFCoordinatorV2Mock.sol\":2678:2690  return false */\n      swap2\n      pop\n      pop\n        /* \"@chainlink/contracts/src/v0.8/mocks/VRFCoordinatorV2Mock.sol\":2405:2695  function consumerIsAdded(uint64 _subId, address _consumer) public view returns (bool) {... */\n    tag_266:\n      swap3\n      swap2\n      pop\n      pop\n      jump\t// out\n        /* \"@chainlink/contracts/src/v0.8/shared/access/ConfirmedOwnerWithProposal.sol\":847:945  function transferOwnership(address to) public override onlyOwner {... */\n    tag_121:\n        /* \"@chainlink/contracts/src/v0.8/shared/access/ConfirmedOwnerWithProposal.sol\":2075:2095  _validateOwnership() */\n      tag_277\n        /* \"@chainlink/contracts/src/v0.8/shared/access/ConfirmedOwnerWithProposal.sol\":2075:2093  _validateOwnership */\n      tag_206\n        /* \"@chainlink/contracts/src/v0.8/shared/access/ConfirmedOwnerWithProposal.sol\":2075:2095  _validateOwnership() */\n      jump\t// in\n    tag_277:\n        /* \"@chainlink/contracts/src/v0.8/shared/access/ConfirmedOwnerWithProposal.sol\":918:940  _transferOwnership(to) */\n      tag_279\n        /* \"@chainlink/contracts/src/v0.8/shared/access/ConfirmedOwnerWithProposal.sol\":937:939  to */\n      dup2\n        /* \"@chainlink/contracts/src/v0.8/shared/access/ConfirmedOwnerWithProposal.sol\":918:936  _transferOwnership */\n      tag_280\n        /* \"@chainlink/contracts/src/v0.8/shared/access/ConfirmedOwnerWithProposal.sol\":918:940  _transferOwnership(to) */\n      jump\t// in\n    tag_279:\n        /* \"@chainlink/contracts/src/v0.8/shared/access/ConfirmedOwnerWithProposal.sol\":847:945  function transferOwnership(address to) public override onlyOwner {... */\n      pop\n      jump\t// out\n        /* \"@chainlink/contracts/src/v0.8/shared/access/ConfirmedOwnerWithProposal.sol\":1809:1971  function _validateOwnership() internal view {... */\n    tag_206:\n        /* \"@chainlink/contracts/src/v0.8/shared/access/ConfirmedOwnerWithProposal.sol\":1932:1939  s_owner */\n      0x00\n      dup1\n      sload\n      swap1\n      0x0100\n      exp\n      swap1\n      div\n      0xffffffffffffffffffffffffffffffffffffffff\n      and\n        /* \"@chainlink/contracts/src/v0.8/shared/access/ConfirmedOwnerWithProposal.sol\":1918:1939  msg.sender == s_owner */\n      0xffffffffffffffffffffffffffffffffffffffff\n      and\n        /* \"@chainlink/contracts/src/v0.8/shared/access/ConfirmedOwnerWithProposal.sol\":1918:1928  msg.sender */\n      caller\n        /* \"@chainlink/contracts/src/v0.8/shared/access/ConfirmedOwnerWithProposal.sol\":1918:1939  msg.sender == s_owner */\n      0xffffffffffffffffffffffffffffffffffffffff\n      and\n      eq\n        /* \"@chainlink/contracts/src/v0.8/shared/access/ConfirmedOwnerWithProposal.sol\":1910:1966  require(msg.sender == s_owner, \"Only callable by owner\") */\n      tag_282\n      jumpi\n      mload(0x40)\n      0x08c379a000000000000000000000000000000000000000000000000000000000\n      dup2\n      mstore\n      0x04\n      add\n      tag_283\n      swap1\n      tag_284\n      jump\t// in\n    tag_283:\n      mload(0x40)\n      dup1\n      swap2\n      sub\n      swap1\n      revert\n    tag_282:\n        /* \"@chainlink/contracts/src/v0.8/shared/access/ConfirmedOwnerWithProposal.sol\":1809:1971  function _validateOwnership() internal view {... */\n      jump\t// out\n        /* \"@chainlink/contracts/src/v0.8/shared/access/ConfirmedOwnerWithProposal.sol\":1536:1775  function _transferOwnership(address to) private {... */\n    tag_280:\n        /* \"@chainlink/contracts/src/v0.8/shared/access/ConfirmedOwnerWithProposal.sol\":1655:1665  msg.sender */\n      caller\n        /* \"@chainlink/contracts/src/v0.8/shared/access/ConfirmedOwnerWithProposal.sol\":1649:1665  to != msg.sender */\n      0xffffffffffffffffffffffffffffffffffffffff\n      and\n        /* \"@chainlink/contracts/src/v0.8/shared/access/ConfirmedOwnerWithProposal.sol\":1649:1651  to */\n      dup2\n        /* \"@chainlink/contracts/src/v0.8/shared/access/ConfirmedOwnerWithProposal.sol\":1649:1665  to != msg.sender */\n      0xffffffffffffffffffffffffffffffffffffffff\n      and\n      sub\n        /* \"@chainlink/contracts/src/v0.8/shared/access/ConfirmedOwnerWithProposal.sol\":1641:1693  require(to != msg.sender, \"Cannot transfer to self\") */\n      tag_286\n      jumpi\n      mload(0x40)\n      0x08c379a000000000000000000000000000000000000000000000000000000000\n      dup2\n      mstore\n      0x04\n      add\n      tag_287\n      swap1\n      tag_288\n      jump\t// in\n    tag_287:\n      mload(0x40)\n      dup1\n      swap2\n      sub\n      swap1\n      revert\n    tag_286:\n        /* \"@chainlink/contracts/src/v0.8/shared/access/ConfirmedOwnerWithProposal.sol\":1717:1719  to */\n      dup1\n        /* \"@chainlink/contracts/src/v0.8/shared/access/ConfirmedOwnerWithProposal.sol\":1700:1714  s_pendingOwner */\n      0x01\n      0x00\n        /* \"@chainlink/contracts/src/v0.8/shared/access/ConfirmedOwnerWithProposal.sol\":1700:1719  s_pendingOwner = to */\n      0x0100\n      exp\n      dup2\n      sload\n      dup2\n      0xffffffffffffffffffffffffffffffffffffffff\n      mul\n      not\n      and\n      swap1\n      dup4\n      0xffffffffffffffffffffffffffffffffffffffff\n      and\n      mul\n      or\n      swap1\n      sstore\n      pop\n        /* \"@chainlink/contracts/src/v0.8/shared/access/ConfirmedOwnerWithProposal.sol\":1767:1769  to */\n      dup1\n        /* \"@chainlink/contracts/src/v0.8/shared/access/ConfirmedOwnerWithProposal.sol\":1731:1770  OwnershipTransferRequested(s_owner, to) */\n      0xffffffffffffffffffffffffffffffffffffffff\n      and\n        /* \"@chainlink/contracts/src/v0.8/shared/access/ConfirmedOwnerWithProposal.sol\":1758:1765  s_owner */\n      0x00\n      dup1\n      sload\n      swap1\n      0x0100\n      exp\n      swap1\n      div\n      0xffffffffffffffffffffffffffffffffffffffff\n      and\n        /* \"@chainlink/contracts/src/v0.8/shared/access/ConfirmedOwnerWithProposal.sol\":1731:1770  OwnershipTransferRequested(s_owner, to) */\n      0xffffffffffffffffffffffffffffffffffffffff\n      and\n      0xed8889f560326eb138920d842192f0eb3dd22b4f139c87a2c57538e05bae1278\n      mload(0x40)\n      mload(0x40)\n      dup1\n      swap2\n      sub\n      swap1\n      log3\n        /* \"@chainlink/contracts/src/v0.8/shared/access/ConfirmedOwnerWithProposal.sol\":1536:1775  function _transferOwnership(address to) private {... */\n      pop\n      jump\t// out\n        /* \"#utility.yul\":7:96   */\n    tag_289:\n        /* \"#utility.yul\":43:50   */\n      0x00\n        /* \"#utility.yul\":83:89   */\n      0xffff\n        /* \"#utility.yul\":76:81   */\n      dup3\n        /* \"#utility.yul\":72:90   */\n      and\n        /* \"#utility.yul\":61:90   */\n      swap1\n      pop\n        /* \"#utility.yul\":7:96   */\n      swap2\n      swap1\n      pop\n      jump\t// out\n        /* \"#utility.yul\":102:217   */\n    tag_290:\n        /* \"#utility.yul\":187:210   */\n      tag_377\n        /* \"#utility.yul\":204:209   */\n      dup2\n        /* \"#utility.yul\":187:210   */\n      tag_289\n      jump\t// in\n    tag_377:\n        /* \"#utility.yul\":182:185   */\n      dup3\n        /* \"#utility.yul\":175:211   */\n      mstore\n        /* \"#utility.yul\":102:217   */\n      pop\n      pop\n      jump\t// out\n        /* \"#utility.yul\":223:316   */\n    tag_291:\n        /* \"#utility.yul\":259:266   */\n      0x00\n        /* \"#utility.yul\":299:309   */\n      0xffffffff\n        /* \"#utility.yul\":292:297   */\n      dup3\n        /* \"#utility.yul\":288:310   */\n      and\n        /* \"#utility.yul\":277:310   */\n      swap1\n      pop\n        /* \"#utility.yul\":223:316   */\n      swap2\n      swap1\n      pop\n      jump\t// out\n        /* \"#utility.yul\":322:437   */\n    tag_292:\n        /* \"#utility.yul\":407:430   */\n      tag_380\n        /* \"#utility.yul\":424:429   */\n      dup2\n        /* \"#utility.yul\":407:430   */\n      tag_291\n      jump\t// in\n    tag_380:\n        /* \"#utility.yul\":402:405   */\n      dup3\n        /* \"#utility.yul\":395:431   */\n      mstore\n        /* \"#utility.yul\":322:437   */\n      pop\n      pop\n      jump\t// out\n        /* \"#utility.yul\":443:557   */\n    tag_293:\n        /* \"#utility.yul\":510:516   */\n      0x00\n        /* \"#utility.yul\":544:549   */\n      dup2\n        /* \"#utility.yul\":538:550   */\n      mload\n        /* \"#utility.yul\":528:550   */\n      swap1\n      pop\n        /* \"#utility.yul\":443:557   */\n      swap2\n      swap1\n      pop\n      jump\t// out\n        /* \"#utility.yul\":563:747   */\n    tag_294:\n        /* \"#utility.yul\":662:673   */\n      0x00\n        /* \"#utility.yul\":696:702   */\n      dup3\n        /* \"#utility.yul\":691:694   */\n      dup3\n        /* \"#utility.yul\":684:703   */\n      mstore\n        /* \"#utility.yul\":736:740   */\n      0x20\n        /* \"#utility.yul\":731:734   */\n      dup3\n        /* \"#utility.yul\":727:741   */\n      add\n        /* \"#utility.yul\":712:741   */\n      swap1\n      pop\n        /* \"#utility.yul\":563:747   */\n      swap3\n      swap2\n      pop\n      pop\n      jump\t// out\n        /* \"#utility.yul\":753:885   */\n    tag_295:\n        /* \"#utility.yul\":820:824   */\n      0x00\n        /* \"#utility.yul\":843:846   */\n      dup2\n        /* \"#utility.yul\":835:846   */\n      swap1\n      pop\n        /* \"#utility.yul\":873:877   */\n      0x20\n        /* \"#utility.yul\":868:871   */\n      dup3\n        /* \"#utility.yul\":864:878   */\n      add\n        /* \"#utility.yul\":856:878   */\n      swap1\n      pop\n        /* \"#utility.yul\":753:885   */\n      swap2\n      swap1\n      pop\n      jump\t// out\n        /* \"#utility.yul\":891:968   */\n    tag_296:\n        /* \"#utility.yul\":928:935   */\n      0x00\n        /* \"#utility.yul\":957:962   */\n      dup2\n        /* \"#utility.yul\":946:962   */\n      swap1\n      pop\n        /* \"#utility.yul\":891:968   */\n      swap2\n      swap1\n      pop\n      jump\t// out\n        /* \"#utility.yul\":974:1082   */\n    tag_297:\n        /* \"#utility.yul\":1051:1075   */\n      tag_386\n        /* \"#utility.yul\":1069:1074   */\n      dup2\n        /* \"#utility.yul\":1051:1075   */\n      tag_296\n      jump\t// in\n    tag_386:\n        /* \"#utility.yul\":1046:1049   */\n      dup3\n        /* \"#utility.yul\":1039:1076   */\n      mstore\n        /* \"#utility.yul\":974:1082   */\n      pop\n      pop\n      jump\t// out\n        /* \"#utility.yul\":1088:1267   */\n    tag_298:\n        /* \"#utility.yul\":1157:1167   */\n      0x00\n        /* \"#utility.yul\":1178:1224   */\n      tag_388\n        /* \"#utility.yul\":1220:1223   */\n      dup4\n        /* \"#utility.yul\":1212:1218   */\n      dup4\n        /* \"#utility.yul\":1178:1224   */\n      tag_297\n      jump\t// in\n    tag_388:\n        /* \"#utility.yul\":1256:1260   */\n      0x20\n        /* \"#utility.yul\":1251:1254   */\n      dup4\n        /* \"#utility.yul\":1247:1261   */\n      add\n        /* \"#utility.yul\":1233:1261   */\n      swap1\n      pop\n        /* \"#utility.yul\":1088:1267   */\n      swap3\n      swap2\n      pop\n      pop\n      jump\t// out\n        /* \"#utility.yul\":1273:1386   */\n    tag_299:\n        /* \"#utility.yul\":1343:1347   */\n      0x00\n        /* \"#utility.yul\":1375:1379   */\n      0x20\n        /* \"#utility.yul\":1370:1373   */\n      dup3\n        /* \"#utility.yul\":1366:1380   */\n      add\n        /* \"#utility.yul\":1358:1380   */\n      swap1\n      pop\n        /* \"#utility.yul\":1273:1386   */\n      swap2\n      swap1\n      pop\n      jump\t// out\n        /* \"#utility.yul\":1422:2154   */\n    tag_300:\n        /* \"#utility.yul\":1541:1544   */\n      0x00\n        /* \"#utility.yul\":1570:1624   */\n      tag_391\n        /* \"#utility.yul\":1618:1623   */\n      dup3\n        /* \"#utility.yul\":1570:1624   */\n      tag_293\n      jump\t// in\n    tag_391:\n        /* \"#utility.yul\":1640:1726   */\n      tag_392\n        /* \"#utility.yul\":1719:1725   */\n      dup2\n        /* \"#utility.yul\":1714:1717   */\n      dup6\n        /* \"#utility.yul\":1640:1726   */\n      tag_294\n      jump\t// in\n    tag_392:\n        /* \"#utility.yul\":1633:1726   */\n      swap4\n      pop\n        /* \"#utility.yul\":1750:1806   */\n      tag_393\n        /* \"#utility.yul\":1800:1805   */\n      dup4\n        /* \"#utility.yul\":1750:1806   */\n      tag_295\n      jump\t// in\n    tag_393:\n        /* \"#utility.yul\":1829:1836   */\n      dup1\n        /* \"#utility.yul\":1860:1861   */\n      0x00\n        /* \"#utility.yul\":1845:2129   */\n    tag_394:\n        /* \"#utility.yul\":1870:1876   */\n      dup4\n        /* \"#utility.yul\":1867:1868   */\n      dup2\n        /* \"#utility.yul\":1864:1877   */\n      lt\n        /* \"#utility.yul\":1845:2129   */\n      iszero\n      tag_396\n      jumpi\n        /* \"#utility.yul\":1946:1952   */\n      dup2\n        /* \"#utility.yul\":1940:1953   */\n      mload\n        /* \"#utility.yul\":1973:2036   */\n      tag_397\n        /* \"#utility.yul\":2032:2035   */\n      dup9\n        /* \"#utility.yul\":2017:2030   */\n      dup3\n        /* \"#utility.yul\":1973:2036   */\n      tag_298\n      jump\t// in\n    tag_397:\n        /* \"#utility.yul\":1966:2036   */\n      swap8\n      pop\n        /* \"#utility.yul\":2059:2119   */\n      tag_398\n        /* \"#utility.yul\":2112:2118   */\n      dup4\n        /* \"#utility.yul\":2059:2119   */\n      tag_299\n      jump\t// in\n    tag_398:\n        /* \"#utility.yul\":2049:2119   */\n      swap3\n      pop\n        /* \"#utility.yul\":1905:2129   */\n      pop\n        /* \"#utility.yul\":1892:1893   */\n      0x01\n        /* \"#utility.yul\":1889:1890   */\n      dup2\n        /* \"#utility.yul\":1885:1894   */\n      add\n        /* \"#utility.yul\":1880:1894   */\n      swap1\n      pop\n        /* \"#utility.yul\":1845:2129   */\n      jump(tag_394)\n    tag_396:\n        /* \"#utility.yul\":1849:1863   */\n      pop\n        /* \"#utility.yul\":2145:2148   */\n      dup6\n        /* \"#utility.yul\":2138:2148   */\n      swap4\n      pop\n        /* \"#utility.yul\":1546:2154   */\n      pop\n      pop\n      pop\n        /* \"#utility.yul\":1422:2154   */\n      swap3\n      swap2\n      pop\n      pop\n      jump\t// out\n        /* \"#utility.yul\":2160:2745   */\n    tag_33:\n        /* \"#utility.yul\":2355:2359   */\n      0x00\n        /* \"#utility.yul\":2393:2395   */\n      0x60\n        /* \"#utility.yul\":2382:2391   */\n      dup3\n        /* \"#utility.yul\":2378:2396   */\n      add\n        /* \"#utility.yul\":2370:2396   */\n      swap1\n      pop\n        /* \"#utility.yul\":2406:2475   */\n      tag_400\n        /* \"#utility.yul\":2472:2473   */\n      0x00\n        /* \"#utility.yul\":2461:2470   */\n      dup4\n        /* \"#utility.yul\":2457:2474   */\n      add\n        /* \"#utility.yul\":2448:2454   */\n      dup7\n        /* \"#utility.yul\":2406:2475   */\n      tag_290\n      jump\t// in\n    tag_400:\n        /* \"#utility.yul\":2485:2555   */\n      tag_401\n        /* \"#utility.yul\":2551:2553   */\n      0x20\n        /* \"#utility.yul\":2540:2549   */\n      dup4\n        /* \"#utility.yul\":2536:2554   */\n      add\n        /* \"#utility.yul\":2527:2533   */\n      dup6\n        /* \"#utility.yul\":2485:2555   */\n      tag_292\n      jump\t// in\n    tag_401:\n        /* \"#utility.yul\":2602:2611   */\n      dup2\n        /* \"#utility.yul\":2596:2600   */\n      dup2\n        /* \"#utility.yul\":2592:2612   */\n      sub\n        /* \"#utility.yul\":2587:2589   */\n      0x40\n        /* \"#utility.yul\":2576:2585   */\n      dup4\n        /* \"#utility.yul\":2572:2590   */\n      add\n        /* \"#utility.yul\":2565:2613   */\n      mstore\n        /* \"#utility.yul\":2630:2738   */\n      tag_402\n        /* \"#utility.yul\":2733:2737   */\n      dup2\n        /* \"#utility.yul\":2724:2730   */\n      dup5\n        /* \"#utility.yul\":2630:2738   */\n      tag_300\n      jump\t// in\n    tag_402:\n        /* \"#utility.yul\":2622:2738   */\n      swap1\n      pop\n        /* \"#utility.yul\":2160:2745   */\n      swap5\n      swap4\n      pop\n      pop\n      pop\n      pop\n      jump\t// out\n        /* \"#utility.yul\":2751:2826   */\n    tag_301:\n        /* \"#utility.yul\":2784:2790   */\n      0x00\n        /* \"#utility.yul\":2817:2819   */\n      0x40\n        /* \"#utility.yul\":2811:2820   */\n      mload\n        /* \"#utility.yul\":2801:2820   */\n      swap1\n      pop\n        /* \"#utility.yul\":2751:2826   */\n      swap1\n      jump\t// out\n        /* \"#utility.yul\":2832:2949   */\n    tag_302:\n        /* \"#utility.yul\":2941:2942   */\n      0x00\n        /* \"#utility.yul\":2938:2939   */\n      dup1\n        /* \"#utility.yul\":2931:2943   */\n      revert\n        /* \"#utility.yul\":2955:3072   */\n    tag_303:\n        /* \"#utility.yul\":3064:3065   */\n      0x00\n        /* \"#utility.yul\":3061:3062   */\n      dup1\n        /* \"#utility.yul\":3054:3066   */\n      revert\n        /* \"#utility.yul\":3078:3179   */\n    tag_304:\n        /* \"#utility.yul\":3114:3121   */\n      0x00\n        /* \"#utility.yul\":3154:3172   */\n      0xffffffffffffffff\n        /* \"#utility.yul\":3147:3152   */\n      dup3\n        /* \"#utility.yul\":3143:3173   */\n      and\n        /* \"#utility.yul\":3132:3173   */\n      swap1\n      pop\n        /* \"#utility.yul\":3078:3179   */\n      swap2\n      swap1\n      pop\n      jump\t// out\n        /* \"#utility.yul\":3185:3305   */\n    tag_305:\n        /* \"#utility.yul\":3257:3280   */\n      tag_408\n        /* \"#utility.yul\":3274:3279   */\n      dup2\n        /* \"#utility.yul\":3257:3280   */\n      tag_304\n      jump\t// in\n    tag_408:\n        /* \"#utility.yul\":3250:3255   */\n      dup2\n        /* \"#utility.yul\":3247:3281   */\n      eq\n        /* \"#utility.yul\":3237:3299   */\n      tag_409\n      jumpi\n        /* \"#utility.yul\":3295:3296   */\n      0x00\n        /* \"#utility.yul\":3292:3293   */\n      dup1\n        /* \"#utility.yul\":3285:3297   */\n      revert\n        /* \"#utility.yul\":3237:3299   */\n    tag_409:\n        /* \"#utility.yul\":3185:3305   */\n      pop\n      jump\t// out\n        /* \"#utility.yul\":3311:3448   */\n    tag_306:\n        /* \"#utility.yul\":3356:3361   */\n      0x00\n        /* \"#utility.yul\":3394:3400   */\n      dup2\n        /* \"#utility.yul\":3381:3401   */\n      calldataload\n        /* \"#utility.yul\":3372:3401   */\n      swap1\n      pop\n        /* \"#utility.yul\":3410:3442   */\n      tag_411\n        /* \"#utility.yul\":3436:3441   */\n      dup2\n        /* \"#utility.yul\":3410:3442   */\n      tag_305\n      jump\t// in\n    tag_411:\n        /* \"#utility.yul\":3311:3448   */\n      swap3\n      swap2\n      pop\n      pop\n      jump\t// out\n        /* \"#utility.yul\":3454:3580   */\n    tag_307:\n        /* \"#utility.yul\":3491:3498   */\n      0x00\n        /* \"#utility.yul\":3531:3573   */\n      0xffffffffffffffffffffffffffffffffffffffff\n        /* \"#utility.yul\":3524:3529   */\n      dup3\n        /* \"#utility.yul\":3520:3574   */\n      and\n        /* \"#utility.yul\":3509:3574   */\n      swap1\n      pop\n        /* \"#utility.yul\":3454:3580   */\n      swap2\n      swap1\n      pop\n      jump\t// out\n        /* \"#utility.yul\":3586:3682   */\n    tag_308:\n        /* \"#utility.yul\":3623:3630   */\n      0x00\n        /* \"#utility.yul\":3652:3676   */\n      tag_414\n        /* \"#utility.yul\":3670:3675   */\n      dup3\n        /* \"#utility.yul\":3652:3676   */\n      tag_307\n      jump\t// in\n    tag_414:\n        /* \"#utility.yul\":3641:3676   */\n      swap1\n      pop\n        /* \"#utility.yul\":3586:3682   */\n      swap2\n      swap1\n      pop\n      jump\t// out\n        /* \"#utility.yul\":3688:3810   */\n    tag_309:\n        /* \"#utility.yul\":3761:3785   */\n      tag_416\n        /* \"#utility.yul\":3779:3784   */\n      dup2\n        /* \"#utility.yul\":3761:3785   */\n      tag_308\n      jump\t// in\n    tag_416:\n        /* \"#utility.yul\":3754:3759   */\n      dup2\n        /* \"#utility.yul\":3751:3786   */\n      eq\n        /* \"#utility.yul\":3741:3804   */\n      tag_417\n      jumpi\n        /* \"#utility.yul\":3800:3801   */\n      0x00\n        /* \"#utility.yul\":3797:3798   */\n      dup1\n        /* \"#utility.yul\":3790:3802   */\n      revert\n        /* \"#utility.yul\":3741:3804   */\n    tag_417:\n        /* \"#utility.yul\":3688:3810   */\n      pop\n      jump\t// out\n        /* \"#utility.yul\":3816:3955   */\n    tag_310:\n        /* \"#utility.yul\":3862:3867   */\n      0x00\n        /* \"#utility.yul\":3900:3906   */\n      dup2\n        /* \"#utility.yul\":3887:3907   */\n      calldataload\n        /* \"#utility.yul\":3878:3907   */\n      swap1\n      pop\n        /* \"#utility.yul\":3916:3949   */\n      tag_419\n        /* \"#utility.yul\":3943:3948   */\n      dup2\n        /* \"#utility.yul\":3916:3949   */\n      tag_309\n      jump\t// in\n    tag_419:\n        /* \"#utility.yul\":3816:3955   */\n      swap3\n      swap2\n      pop\n      pop\n      jump\t// out\n        /* \"#utility.yul\":3961:4433   */\n    tag_36:\n        /* \"#utility.yul\":4028:4034   */\n      0x00\n        /* \"#utility.yul\":4036:4042   */\n      dup1\n        /* \"#utility.yul\":4085:4087   */\n      0x40\n        /* \"#utility.yul\":4073:4082   */\n      dup4\n        /* \"#utility.yul\":4064:4071   */\n      dup6\n        /* \"#utility.yul\":4060:4083   */\n      sub\n        /* \"#utility.yul\":4056:4088   */\n      slt\n        /* \"#utility.yul\":4053:4172   */\n      iszero\n      tag_421\n      jumpi\n        /* \"#utility.yul\":4091:4170   */\n      tag_422\n      tag_302\n      jump\t// in\n    tag_422:\n        /* \"#utility.yul\":4053:4172   */\n    tag_421:\n        /* \"#utility.yul\":4211:4212   */\n      0x00\n        /* \"#utility.yul\":4236:4288   */\n      tag_423\n        /* \"#utility.yul\":4280:4287   */\n      dup6\n        /* \"#utility.yul\":4271:4277   */\n      dup3\n        /* \"#utility.yul\":4260:4269   */\n      dup7\n        /* \"#utility.yul\":4256:4278   */\n      add\n        /* \"#utility.yul\":4236:4288   */\n      tag_306\n      jump\t// in\n    tag_423:\n        /* \"#utility.yul\":4226:4288   */\n      swap3\n      pop\n        /* \"#utility.yul\":4182:4298   */\n      pop\n        /* \"#utility.yul\":4337:4339   */\n      0x20\n        /* \"#utility.yul\":4363:4416   */\n      tag_424\n        /* \"#utility.yul\":4408:4415   */\n      dup6\n        /* \"#utility.yul\":4399:4405   */\n      dup3\n        /* \"#utility.yul\":4388:4397   */\n      dup7\n        /* \"#utility.yul\":4384:4406   */\n      add\n        /* \"#utility.yul\":4363:4416   */\n      tag_310\n      jump\t// in\n    tag_424:\n        /* \"#utility.yul\":4353:4416   */\n      swap2\n      pop\n        /* \"#utility.yul\":4308:4426   */\n      pop\n        /* \"#utility.yul\":3961:4433   */\n      swap3\n      pop\n      swap3\n      swap1\n      pop\n      jump\t// out\n        /* \"#utility.yul\":4439:4516   */\n    tag_311:\n        /* \"#utility.yul\":4476:4483   */\n      0x00\n        /* \"#utility.yul\":4505:4510   */\n      dup2\n        /* \"#utility.yul\":4494:4510   */\n      swap1\n      pop\n        /* \"#utility.yul\":4439:4516   */\n      swap2\n      swap1\n      pop\n      jump\t// out\n        /* \"#utility.yul\":4522:4644   */\n    tag_312:\n        /* \"#utility.yul\":4595:4619   */\n      tag_427\n        /* \"#utility.yul\":4613:4618   */\n      dup2\n        /* \"#utility.yul\":4595:4619   */\n      tag_311\n      jump\t// in\n    tag_427:\n        /* \"#utility.yul\":4588:4593   */\n      dup2\n        /* \"#utility.yul\":4585:4620   */\n      eq\n        /* \"#utility.yul\":4575:4638   */\n      tag_428\n      jumpi\n        /* \"#utility.yul\":4634:4635   */\n      0x00\n        /* \"#utility.yul\":4631:4632   */\n      dup1\n        /* \"#utility.yul\":4624:4636   */\n      revert\n        /* \"#utility.yul\":4575:4638   */\n    tag_428:\n        /* \"#utility.yul\":4522:4644   */\n      pop\n      jump\t// out\n        /* \"#utility.yul\":4650:4789   */\n    tag_313:\n        /* \"#utility.yul\":4696:4701   */\n      0x00\n        /* \"#utility.yul\":4734:4740   */\n      dup2\n        /* \"#utility.yul\":4721:4741   */\n      calldataload\n        /* \"#utility.yul\":4712:4741   */\n      swap1\n      pop\n        /* \"#utility.yul\":4750:4783   */\n      tag_430\n        /* \"#utility.yul\":4777:4782   */\n      dup2\n        /* \"#utility.yul\":4750:4783   */\n      tag_312\n      jump\t// in\n    tag_430:\n        /* \"#utility.yul\":4650:4789   */\n      swap3\n      swap2\n      pop\n      pop\n      jump\t// out\n        /* \"#utility.yul\":4795:4912   */\n    tag_314:\n        /* \"#utility.yul\":4904:4905   */\n      0x00\n        /* \"#utility.yul\":4901:4902   */\n      dup1\n        /* \"#utility.yul\":4894:4906   */\n      revert\n        /* \"#utility.yul\":4918:5020   */\n    tag_315:\n        /* \"#utility.yul\":4959:4965   */\n      0x00\n        /* \"#utility.yul\":5010:5012   */\n      0x1f\n        /* \"#utility.yul\":5006:5013   */\n      not\n        /* \"#utility.yul\":5001:5003   */\n      0x1f\n        /* \"#utility.yul\":4994:4999   */\n      dup4\n        /* \"#utility.yul\":4990:5004   */\n      add\n        /* \"#utility.yul\":4986:5014   */\n      and\n        /* \"#utility.yul\":4976:5014   */\n      swap1\n      pop\n        /* \"#utility.yul\":4918:5020   */\n      swap2\n      swap1\n      pop\n      jump\t// out\n        /* \"#utility.yul\":5026:5206   */\n    tag_125:\n        /* \"#utility.yul\":5074:5151   */\n      0x4e487b7100000000000000000000000000000000000000000000000000000000\n        /* \"#utility.yul\":5071:5072   */\n      0x00\n        /* \"#utility.yul\":5064:5152   */\n      mstore\n        /* \"#utility.yul\":5171:5175   */\n      0x41\n        /* \"#utility.yul\":5168:5169   */\n      0x04\n        /* \"#utility.yul\":5161:5176   */\n      mstore\n        /* \"#utility.yul\":5195:5199   */\n      0x24\n        /* \"#utility.yul\":5192:5193   */\n      0x00\n        /* \"#utility.yul\":5185:5200   */\n      revert\n        /* \"#utility.yul\":5212:5493   */\n    tag_316:\n        /* \"#utility.yul\":5295:5322   */\n      tag_435\n        /* \"#utility.yul\":5317:5321   */\n      dup3\n        /* \"#utility.yul\":5295:5322   */\n      tag_315\n      jump\t// in\n    tag_435:\n        /* \"#utility.yul\":5287:5293   */\n      dup2\n        /* \"#utility.yul\":5283:5323   */\n      add\n        /* \"#utility.yul\":5425:5431   */\n      dup2\n        /* \"#utility.yul\":5413:5423   */\n      dup2\n        /* \"#utility.yul\":5410:5432   */\n      lt\n        /* \"#utility.yul\":5389:5407   */\n      0xffffffffffffffff\n        /* \"#utility.yul\":5377:5387   */\n      dup3\n        /* \"#utility.yul\":5374:5408   */\n      gt\n        /* \"#utility.yul\":5371:5433   */\n      or\n        /* \"#utility.yul\":5368:5456   */\n      iszero\n      tag_436\n      jumpi\n        /* \"#utility.yul\":5436:5454   */\n      tag_437\n      tag_125\n      jump\t// in\n    tag_437:\n        /* \"#utility.yul\":5368:5456   */\n    tag_436:\n        /* \"#utility.yul\":5476:5486   */\n      dup1\n        /* \"#utility.yul\":5472:5474   */\n      0x40\n        /* \"#utility.yul\":5465:5487   */\n      mstore\n        /* \"#utility.yul\":5255:5493   */\n      pop\n        /* \"#utility.yul\":5212:5493   */\n      pop\n      pop\n      jump\t// out\n        /* \"#utility.yul\":5499:5628   */\n    tag_317:\n        /* \"#utility.yul\":5533:5539   */\n      0x00\n        /* \"#utility.yul\":5560:5580   */\n      tag_439\n      tag_301\n      jump\t// in\n    tag_439:\n        /* \"#utility.yul\":5550:5580   */\n      swap1\n      pop\n        /* \"#utility.yul\":5589:5622   */\n      tag_440\n        /* \"#utility.yul\":5617:5621   */\n      dup3\n        /* \"#utility.yul\":5609:5615   */\n      dup3\n        /* \"#utility.yul\":5589:5622   */\n      tag_316\n      jump\t// in\n    tag_440:\n        /* \"#utility.yul\":5499:5628   */\n      swap2\n      swap1\n      pop\n      jump\t// out\n        /* \"#utility.yul\":5634:5945   */\n    tag_318:\n        /* \"#utility.yul\":5711:5715   */\n      0x00\n        /* \"#utility.yul\":5801:5819   */\n      0xffffffffffffffff\n        /* \"#utility.yul\":5793:5799   */\n      dup3\n        /* \"#utility.yul\":5790:5820   */\n      gt\n        /* \"#utility.yul\":5787:5843   */\n      iszero\n      tag_442\n      jumpi\n        /* \"#utility.yul\":5823:5841   */\n      tag_443\n      tag_125\n      jump\t// in\n    tag_443:\n        /* \"#utility.yul\":5787:5843   */\n    tag_442:\n        /* \"#utility.yul\":5873:5877   */\n      0x20\n        /* \"#utility.yul\":5865:5871   */\n      dup3\n        /* \"#utility.yul\":5861:5878   */\n      mul\n        /* \"#utility.yul\":5853:5878   */\n      swap1\n      pop\n        /* \"#utility.yul\":5933:5937   */\n      0x20\n        /* \"#utility.yul\":5927:5931   */\n      dup2\n        /* \"#utility.yul\":5923:5938   */\n      add\n        /* \"#utility.yul\":5915:5938   */\n      swap1\n      pop\n        /* \"#utility.yul\":5634:5945   */\n      swap2\n      swap1\n      pop\n      jump\t// out\n        /* \"#utility.yul\":5951:6068   */\n    tag_319:\n        /* \"#utility.yul\":6060:6061   */\n      0x00\n        /* \"#utility.yul\":6057:6058   */\n      dup1\n        /* \"#utility.yul\":6050:6062   */\n      revert\n        /* \"#utility.yul\":6091:6801   */\n    tag_320:\n        /* \"#utility.yul\":6187:6192   */\n      0x00\n        /* \"#utility.yul\":6212:6293   */\n      tag_446\n        /* \"#utility.yul\":6228:6292   */\n      tag_447\n        /* \"#utility.yul\":6285:6291   */\n      dup5\n        /* \"#utility.yul\":6228:6292   */\n      tag_318\n      jump\t// in\n    tag_447:\n        /* \"#utility.yul\":6212:6293   */\n      tag_317\n      jump\t// in\n    tag_446:\n        /* \"#utility.yul\":6203:6293   */\n      swap1\n      pop\n        /* \"#utility.yul\":6313:6318   */\n      dup1\n        /* \"#utility.yul\":6342:6348   */\n      dup4\n        /* \"#utility.yul\":6335:6340   */\n      dup3\n        /* \"#utility.yul\":6328:6349   */\n      mstore\n        /* \"#utility.yul\":6376:6380   */\n      0x20\n        /* \"#utility.yul\":6369:6374   */\n      dup3\n        /* \"#utility.yul\":6365:6381   */\n      add\n        /* \"#utility.yul\":6358:6381   */\n      swap1\n      pop\n        /* \"#utility.yul\":6429:6433   */\n      0x20\n        /* \"#utility.yul\":6421:6427   */\n      dup5\n        /* \"#utility.yul\":6417:6434   */\n      mul\n        /* \"#utility.yul\":6409:6415   */\n      dup4\n        /* \"#utility.yul\":6405:6435   */\n      add\n        /* \"#utility.yul\":6458:6461   */\n      dup6\n        /* \"#utility.yul\":6450:6456   */\n      dup2\n        /* \"#utility.yul\":6447:6462   */\n      gt\n        /* \"#utility.yul\":6444:6566   */\n      iszero\n      tag_448\n      jumpi\n        /* \"#utility.yul\":6477:6556   */\n      tag_449\n      tag_319\n      jump\t// in\n    tag_449:\n        /* \"#utility.yul\":6444:6566   */\n    tag_448:\n        /* \"#utility.yul\":6592:6598   */\n      dup4\n        /* \"#utility.yul\":6575:6795   */\n    tag_450:\n        /* \"#utility.yul\":6609:6615   */\n      dup2\n        /* \"#utility.yul\":6604:6607   */\n      dup2\n        /* \"#utility.yul\":6601:6616   */\n      lt\n        /* \"#utility.yul\":6575:6795   */\n      iszero\n      tag_452\n      jumpi\n        /* \"#utility.yul\":6684:6687   */\n      dup1\n        /* \"#utility.yul\":6713:6750   */\n      tag_453\n        /* \"#utility.yul\":6746:6749   */\n      dup9\n        /* \"#utility.yul\":6734:6744   */\n      dup3\n        /* \"#utility.yul\":6713:6750   */\n      tag_313\n      jump\t// in\n    tag_453:\n        /* \"#utility.yul\":6708:6711   */\n      dup5\n        /* \"#utility.yul\":6701:6751   */\n      mstore\n        /* \"#utility.yul\":6780:6784   */\n      0x20\n        /* \"#utility.yul\":6775:6778   */\n      dup5\n        /* \"#utility.yul\":6771:6785   */\n      add\n        /* \"#utility.yul\":6764:6785   */\n      swap4\n      pop\n        /* \"#utility.yul\":6651:6795   */\n      pop\n        /* \"#utility.yul\":6635:6639   */\n      0x20\n        /* \"#utility.yul\":6630:6633   */\n      dup2\n        /* \"#utility.yul\":6626:6640   */\n      add\n        /* \"#utility.yul\":6619:6640   */\n      swap1\n      pop\n        /* \"#utility.yul\":6575:6795   */\n      jump(tag_450)\n    tag_452:\n        /* \"#utility.yul\":6579:6600   */\n      pop\n        /* \"#utility.yul\":6193:6801   */\n      pop\n      pop\n        /* \"#utility.yul\":6091:6801   */\n      swap4\n      swap3\n      pop\n      pop\n      pop\n      jump\t// out\n        /* \"#utility.yul\":6824:7194   */\n    tag_321:\n        /* \"#utility.yul\":6895:6900   */\n      0x00\n        /* \"#utility.yul\":6944:6947   */\n      dup3\n        /* \"#utility.yul\":6937:6941   */\n      0x1f\n        /* \"#utility.yul\":6929:6935   */\n      dup4\n        /* \"#utility.yul\":6925:6942   */\n      add\n        /* \"#utility.yul\":6921:6948   */\n      slt\n        /* \"#utility.yul\":6911:7033   */\n      tag_455\n      jumpi\n        /* \"#utility.yul\":6952:7031   */\n      tag_456\n      tag_314\n      jump\t// in\n    tag_456:\n        /* \"#utility.yul\":6911:7033   */\n    tag_455:\n        /* \"#utility.yul\":7069:7075   */\n      dup2\n        /* \"#utility.yul\":7056:7076   */\n      calldataload\n        /* \"#utility.yul\":7094:7188   */\n      tag_457\n        /* \"#utility.yul\":7184:7187   */\n      dup5\n        /* \"#utility.yul\":7176:7182   */\n      dup3\n        /* \"#utility.yul\":7169:7173   */\n      0x20\n        /* \"#utility.yul\":7161:7167   */\n      dup7\n        /* \"#utility.yul\":7157:7174   */\n      add\n        /* \"#utility.yul\":7094:7188   */\n      tag_320\n      jump\t// in\n    tag_457:\n        /* \"#utility.yul\":7085:7188   */\n      swap2\n      pop\n        /* \"#utility.yul\":6901:7194   */\n      pop\n        /* \"#utility.yul\":6824:7194   */\n      swap3\n      swap2\n      pop\n      pop\n      jump\t// out\n        /* \"#utility.yul\":7200:8029   */\n    tag_40:\n        /* \"#utility.yul\":7302:7308   */\n      0x00\n        /* \"#utility.yul\":7310:7316   */\n      dup1\n        /* \"#utility.yul\":7318:7324   */\n      0x00\n        /* \"#utility.yul\":7367:7369   */\n      0x60\n        /* \"#utility.yul\":7355:7364   */\n      dup5\n        /* \"#utility.yul\":7346:7353   */\n      dup7\n        /* \"#utility.yul\":7342:7365   */\n      sub\n        /* \"#utility.yul\":7338:7370   */\n      slt\n        /* \"#utility.yul\":7335:7454   */\n      iszero\n      tag_459\n      jumpi\n        /* \"#utility.yul\":7373:7452   */\n      tag_460\n      tag_302\n      jump\t// in\n    tag_460:\n        /* \"#utility.yul\":7335:7454   */\n    tag_459:\n        /* \"#utility.yul\":7493:7494   */\n      0x00\n        /* \"#utility.yul\":7518:7571   */\n      tag_461\n        /* \"#utility.yul\":7563:7570   */\n      dup7\n        /* \"#utility.yul\":7554:7560   */\n      dup3\n        /* \"#utility.yul\":7543:7552   */\n      dup8\n        /* \"#utility.yul\":7539:7561   */\n      add\n        /* \"#utility.yul\":7518:7571   */\n      tag_313\n      jump\t// in\n    tag_461:\n        /* \"#utility.yul\":7508:7571   */\n      swap4\n      pop\n        /* \"#utility.yul\":7464:7581   */\n      pop\n        /* \"#utility.yul\":7620:7622   */\n      0x20\n        /* \"#utility.yul\":7646:7699   */\n      tag_462\n        /* \"#utility.yul\":7691:7698   */\n      dup7\n        /* \"#utility.yul\":7682:7688   */\n      dup3\n        /* \"#utility.yul\":7671:7680   */\n      dup8\n        /* \"#utility.yul\":7667:7689   */\n      add\n        /* \"#utility.yul\":7646:7699   */\n      tag_310\n      jump\t// in\n    tag_462:\n        /* \"#utility.yul\":7636:7699   */\n      swap3\n      pop\n        /* \"#utility.yul\":7591:7709   */\n      pop\n        /* \"#utility.yul\":7776:7778   */\n      0x40\n        /* \"#utility.yul\":7765:7774   */\n      dup5\n        /* \"#utility.yul\":7761:7779   */\n      add\n        /* \"#utility.yul\":7748:7780   */\n      calldataload\n        /* \"#utility.yul\":7807:7825   */\n      0xffffffffffffffff\n        /* \"#utility.yul\":7799:7805   */\n      dup2\n        /* \"#utility.yul\":7796:7826   */\n      gt\n        /* \"#utility.yul\":7793:7910   */\n      iszero\n      tag_463\n      jumpi\n        /* \"#utility.yul\":7829:7908   */\n      tag_464\n      tag_303\n      jump\t// in\n    tag_464:\n        /* \"#utility.yul\":7793:7910   */\n    tag_463:\n        /* \"#utility.yul\":7934:8012   */\n      tag_465\n        /* \"#utility.yul\":8004:8011   */\n      dup7\n        /* \"#utility.yul\":7995:8001   */\n      dup3\n        /* \"#utility.yul\":7984:7993   */\n      dup8\n        /* \"#utility.yul\":7980:8002   */\n      add\n        /* \"#utility.yul\":7934:8012   */\n      tag_321\n      jump\t// in\n    tag_465:\n        /* \"#utility.yul\":7924:8012   */\n      swap2\n      pop\n        /* \"#utility.yul\":7719:8022   */\n      pop\n        /* \"#utility.yul\":7200:8029   */\n      swap3\n      pop\n      swap3\n      pop\n      swap3\n      jump\t// out\n        /* \"#utility.yul\":8035:8111   */\n    tag_322:\n        /* \"#utility.yul\":8071:8078   */\n      0x00\n        /* \"#utility.yul\":8100:8105   */\n      dup2\n        /* \"#utility.yul\":8089:8105   */\n      swap1\n      pop\n        /* \"#utility.yul\":8035:8111   */\n      swap2\n      swap1\n      pop\n      jump\t// out\n        /* \"#utility.yul\":8117:8232   */\n    tag_323:\n        /* \"#utility.yul\":8202:8225   */\n      tag_468\n        /* \"#utility.yul\":8219:8224   */\n      dup2\n        /* \"#utility.yul\":8202:8225   */\n      tag_322\n      jump\t// in\n    tag_468:\n        /* \"#utility.yul\":8197:8200   */\n      dup3\n        /* \"#utility.yul\":8190:8226   */\n      mstore\n        /* \"#utility.yul\":8117:8232   */\n      pop\n      pop\n      jump\t// out\n        /* \"#utility.yul\":8238:8456   */\n    tag_45:\n        /* \"#utility.yul\":8329:8333   */\n      0x00\n        /* \"#utility.yul\":8367:8369   */\n      0x20\n        /* \"#utility.yul\":8356:8365   */\n      dup3\n        /* \"#utility.yul\":8352:8370   */\n      add\n        /* \"#utility.yul\":8344:8370   */\n      swap1\n      pop\n        /* \"#utility.yul\":8380:8449   */\n      tag_470\n        /* \"#utility.yul\":8446:8447   */\n      0x00\n        /* \"#utility.yul\":8435:8444   */\n      dup4\n        /* \"#utility.yul\":8431:8448   */\n      add\n        /* \"#utility.yul\":8422:8428   */\n      dup5\n        /* \"#utility.yul\":8380:8449   */\n      tag_323\n      jump\t// in\n    tag_470:\n        /* \"#utility.yul\":8238:8456   */\n      swap3\n      swap2\n      pop\n      pop\n      jump\t// out\n        /* \"#utility.yul\":8462:8571   */\n    tag_324:\n        /* \"#utility.yul\":8498:8505   */\n      0x00\n        /* \"#utility.yul\":8538:8564   */\n      0xffffffffffffffffffffffff\n        /* \"#utility.yul\":8531:8536   */\n      dup3\n        /* \"#utility.yul\":8527:8565   */\n      and\n        /* \"#utility.yul\":8516:8565   */\n      swap1\n      pop\n        /* \"#utility.yul\":8462:8571   */\n      swap2\n      swap1\n      pop\n      jump\t// out\n        /* \"#utility.yul\":8577:8692   */\n    tag_325:\n        /* \"#utility.yul\":8662:8685   */\n      tag_473\n        /* \"#utility.yul\":8679:8684   */\n      dup2\n        /* \"#utility.yul\":8662:8685   */\n      tag_324\n      jump\t// in\n    tag_473:\n        /* \"#utility.yul\":8657:8660   */\n      dup3\n        /* \"#utility.yul\":8650:8686   */\n      mstore\n        /* \"#utility.yul\":8577:8692   */\n      pop\n      pop\n      jump\t// out\n        /* \"#utility.yul\":8698:8916   */\n    tag_49:\n        /* \"#utility.yul\":8789:8793   */\n      0x00\n        /* \"#utility.yul\":8827:8829   */\n      0x20\n        /* \"#utility.yul\":8816:8825   */\n      dup3\n        /* \"#utility.yul\":8812:8830   */\n      add\n        /* \"#utility.yul\":8804:8830   */\n      swap1\n      pop\n        /* \"#utility.yul\":8840:8909   */\n      tag_475\n        /* \"#utility.yul\":8906:8907   */\n      0x00\n        /* \"#utility.yul\":8895:8904   */\n      dup4\n        /* \"#utility.yul\":8891:8908   */\n      add\n        /* \"#utility.yul\":8882:8888   */\n      dup5\n        /* \"#utility.yul\":8840:8909   */\n      tag_325\n      jump\t// in\n    tag_475:\n        /* \"#utility.yul\":8698:8916   */\n      swap3\n      swap2\n      pop\n      pop\n      jump\t// out\n        /* \"#utility.yul\":8922:9044   */\n    tag_326:\n        /* \"#utility.yul\":8995:9019   */\n      tag_477\n        /* \"#utility.yul\":9013:9018   */\n      dup2\n        /* \"#utility.yul\":8995:9019   */\n      tag_296\n      jump\t// in\n    tag_477:\n        /* \"#utility.yul\":8988:8993   */\n      dup2\n        /* \"#utility.yul\":8985:9020   */\n      eq\n        /* \"#utility.yul\":8975:9038   */\n      tag_478\n      jumpi\n        /* \"#utility.yul\":9034:9035   */\n      0x00\n        /* \"#utility.yul\":9031:9032   */\n      dup1\n        /* \"#utility.yul\":9024:9036   */\n      revert\n        /* \"#utility.yul\":8975:9038   */\n    tag_478:\n        /* \"#utility.yul\":8922:9044   */\n      pop\n      jump\t// out\n        /* \"#utility.yul\":9050:9189   */\n    tag_327:\n        /* \"#utility.yul\":9096:9101   */\n      0x00\n        /* \"#utility.yul\":9134:9140   */\n      dup2\n        /* \"#utility.yul\":9121:9141   */\n      calldataload\n        /* \"#utility.yul\":9112:9141   */\n      swap1\n      pop\n        /* \"#utility.yul\":9150:9183   */\n      tag_480\n        /* \"#utility.yul\":9177:9182   */\n      dup2\n        /* \"#utility.yul\":9150:9183   */\n      tag_326\n      jump\t// in\n    tag_480:\n        /* \"#utility.yul\":9050:9189   */\n      swap3\n      swap2\n      pop\n      pop\n      jump\t// out\n        /* \"#utility.yul\":9195:9315   */\n    tag_328:\n        /* \"#utility.yul\":9267:9290   */\n      tag_482\n        /* \"#utility.yul\":9284:9289   */\n      dup2\n        /* \"#utility.yul\":9267:9290   */\n      tag_289\n      jump\t// in\n    tag_482:\n        /* \"#utility.yul\":9260:9265   */\n      dup2\n        /* \"#utility.yul\":9257:9291   */\n      eq\n        /* \"#utility.yul\":9247:9309   */\n      tag_483\n      jumpi\n        /* \"#utility.yul\":9305:9306   */\n      0x00\n        /* \"#utility.yul\":9302:9303   */\n      dup1\n        /* \"#utility.yul\":9295:9307   */\n      revert\n        /* \"#utility.yul\":9247:9309   */\n    tag_483:\n        /* \"#utility.yul\":9195:9315   */\n      pop\n      jump\t// out\n        /* \"#utility.yul\":9321:9458   */\n    tag_329:\n        /* \"#utility.yul\":9366:9371   */\n      0x00\n        /* \"#utility.yul\":9404:9410   */\n      dup2\n        /* \"#utility.yul\":9391:9411   */\n      calldataload\n        /* \"#utility.yul\":9382:9411   */\n      swap1\n      pop\n        /* \"#utility.yul\":9420:9452   */\n      tag_485\n        /* \"#utility.yul\":9446:9451   */\n      dup2\n        /* \"#utility.yul\":9420:9452   */\n      tag_328\n      jump\t// in\n    tag_485:\n        /* \"#utility.yul\":9321:9458   */\n      swap3\n      swap2\n      pop\n      pop\n      jump\t// out\n        /* \"#utility.yul\":9464:9584   */\n    tag_330:\n        /* \"#utility.yul\":9536:9559   */\n      tag_487\n        /* \"#utility.yul\":9553:9558   */\n      dup2\n        /* \"#utility.yul\":9536:9559   */\n      tag_291\n      jump\t// in\n    tag_487:\n        /* \"#utility.yul\":9529:9534   */\n      dup2\n        /* \"#utility.yul\":9526:9560   */\n      eq\n        /* \"#utility.yul\":9516:9578   */\n      tag_488\n      jumpi\n        /* \"#utility.yul\":9574:9575   */\n      0x00\n        /* \"#utility.yul\":9571:9572   */\n      dup1\n        /* \"#utility.yul\":9564:9576   */\n      revert\n        /* \"#utility.yul\":9516:9578   */\n    tag_488:\n        /* \"#utility.yul\":9464:9584   */\n      pop\n      jump\t// out\n        /* \"#utility.yul\":9590:9727   */\n    tag_331:\n        /* \"#utility.yul\":9635:9640   */\n      0x00\n        /* \"#utility.yul\":9673:9679   */\n      dup2\n        /* \"#utility.yul\":9660:9680   */\n      calldataload\n        /* \"#utility.yul\":9651:9680   */\n      swap1\n      pop\n        /* \"#utility.yul\":9689:9721   */\n      tag_490\n        /* \"#utility.yul\":9715:9720   */\n      dup2\n        /* \"#utility.yul\":9689:9721   */\n      tag_330\n      jump\t// in\n    tag_490:\n        /* \"#utility.yul\":9590:9727   */\n      swap3\n      swap2\n      pop\n      pop\n      jump\t// out\n        /* \"#utility.yul\":9733:10636   */\n    tag_52:\n        /* \"#utility.yul\":9824:9830   */\n      0x00\n        /* \"#utility.yul\":9832:9838   */\n      dup1\n        /* \"#utility.yul\":9840:9846   */\n      0x00\n        /* \"#utility.yul\":9848:9854   */\n      dup1\n        /* \"#utility.yul\":9856:9862   */\n      0x00\n        /* \"#utility.yul\":9905:9908   */\n      0xa0\n        /* \"#utility.yul\":9893:9902   */\n      dup7\n        /* \"#utility.yul\":9884:9891   */\n      dup9\n        /* \"#utility.yul\":9880:9903   */\n      sub\n        /* \"#utility.yul\":9876:9909   */\n      slt\n        /* \"#utility.yul\":9873:9993   */\n      iszero\n      tag_492\n      jumpi\n        /* \"#utility.yul\":9912:9991   */\n      tag_493\n      tag_302\n      jump\t// in\n    tag_493:\n        /* \"#utility.yul\":9873:9993   */\n    tag_492:\n        /* \"#utility.yul\":10032:10033   */\n      0x00\n        /* \"#utility.yul\":10057:10110   */\n      tag_494\n        /* \"#utility.yul\":10102:10109   */\n      dup9\n        /* \"#utility.yul\":10093:10099   */\n      dup3\n        /* \"#utility.yul\":10082:10091   */\n      dup10\n        /* \"#utility.yul\":10078:10100   */\n      add\n        /* \"#utility.yul\":10057:10110   */\n      tag_327\n      jump\t// in\n    tag_494:\n        /* \"#utility.yul\":10047:10110   */\n      swap6\n      pop\n        /* \"#utility.yul\":10003:10120   */\n      pop\n        /* \"#utility.yul\":10159:10161   */\n      0x20\n        /* \"#utility.yul\":10185:10237   */\n      tag_495\n        /* \"#utility.yul\":10229:10236   */\n      dup9\n        /* \"#utility.yul\":10220:10226   */\n      dup3\n        /* \"#utility.yul\":10209:10218   */\n      dup10\n        /* \"#utility.yul\":10205:10227   */\n      add\n        /* \"#utility.yul\":10185:10237   */\n      tag_306\n      jump\t// in\n    tag_495:\n        /* \"#utility.yul\":10175:10237   */\n      swap5\n      pop\n        /* \"#utility.yul\":10130:10247   */\n      pop\n        /* \"#utility.yul\":10286:10288   */\n      0x40\n        /* \"#utility.yul\":10312:10364   */\n      tag_496\n        /* \"#utility.yul\":10356:10363   */\n      dup9\n        /* \"#utility.yul\":10347:10353   */\n      dup3\n        /* \"#utility.yul\":10336:10345   */\n      dup10\n        /* \"#utility.yul\":10332:10354   */\n      add\n        /* \"#utility.yul\":10312:10364   */\n      tag_329\n      jump\t// in\n    tag_496:\n        /* \"#utility.yul\":10302:10364   */\n      swap4\n      pop\n        /* \"#utility.yul\":10257:10374   */\n      pop\n        /* \"#utility.yul\":10413:10415   */\n      0x60\n        /* \"#utility.yul\":10439:10491   */\n      tag_497\n        /* \"#utility.yul\":10483:10490   */\n      dup9\n        /* \"#utility.yul\":10474:10480   */\n      dup3\n        /* \"#utility.yul\":10463:10472   */\n      dup10\n        /* \"#utility.yul\":10459:10481   */\n      add\n        /* \"#utility.yul\":10439:10491   */\n      tag_331\n      jump\t// in\n    tag_497:\n        /* \"#utility.yul\":10429:10491   */\n      swap3\n      pop\n        /* \"#utility.yul\":10384:10501   */\n      pop\n        /* \"#utility.yul\":10540:10543   */\n      0x80\n        /* \"#utility.yul\":10567:10619   */\n      tag_498\n        /* \"#utility.yul\":10611:10618   */\n      dup9\n        /* \"#utility.yul\":10602:10608   */\n      dup3\n        /* \"#utility.yul\":10591:10600   */\n      dup10\n        /* \"#utility.yul\":10587:10609   */\n      add\n        /* \"#utility.yul\":10567:10619   */\n      tag_331\n      jump\t// in\n    tag_498:\n        /* \"#utility.yul\":10557:10619   */\n      swap2\n      pop\n        /* \"#utility.yul\":10511:10629   */\n      pop\n        /* \"#utility.yul\":9733:10636   */\n      swap3\n      swap6\n      pop\n      swap3\n      swap6\n      swap1\n      swap4\n      pop\n      jump\t// out\n        /* \"#utility.yul\":10642:10760   */\n    tag_332:\n        /* \"#utility.yul\":10729:10753   */\n      tag_500\n        /* \"#utility.yul\":10747:10752   */\n      dup2\n        /* \"#utility.yul\":10729:10753   */\n      tag_311\n      jump\t// in\n    tag_500:\n        /* \"#utility.yul\":10724:10727   */\n      dup3\n        /* \"#utility.yul\":10717:10754   */\n      mstore\n        /* \"#utility.yul\":10642:10760   */\n      pop\n      pop\n      jump\t// out\n        /* \"#utility.yul\":10766:10988   */\n    tag_55:\n        /* \"#utility.yul\":10859:10863   */\n      0x00\n        /* \"#utility.yul\":10897:10899   */\n      0x20\n        /* \"#utility.yul\":10886:10895   */\n      dup3\n        /* \"#utility.yul\":10882:10900   */\n      add\n        /* \"#utility.yul\":10874:10900   */\n      swap1\n      pop\n        /* \"#utility.yul\":10910:10981   */\n      tag_502\n        /* \"#utility.yul\":10978:10979   */\n      0x00\n        /* \"#utility.yul\":10967:10976   */\n      dup4\n        /* \"#utility.yul\":10963:10980   */\n      add\n        /* \"#utility.yul\":10954:10960   */\n      dup5\n        /* \"#utility.yul\":10910:10981   */\n      tag_332\n      jump\t// in\n    tag_502:\n        /* \"#utility.yul\":10766:10988   */\n      swap3\n      swap2\n      pop\n      pop\n      jump\t// out\n        /* \"#utility.yul\":10994:11085   */\n    tag_333:\n        /* \"#utility.yul\":11030:11037   */\n      0x00\n        /* \"#utility.yul\":11070:11078   */\n      0xffffff\n        /* \"#utility.yul\":11063:11068   */\n      dup3\n        /* \"#utility.yul\":11059:11079   */\n      and\n        /* \"#utility.yul\":11048:11079   */\n      swap1\n      pop\n        /* \"#utility.yul\":10994:11085   */\n      swap2\n      swap1\n      pop\n      jump\t// out\n        /* \"#utility.yul\":11091:11206   */\n    tag_334:\n        /* \"#utility.yul\":11176:11199   */\n      tag_505\n        /* \"#utility.yul\":11193:11198   */\n      dup2\n        /* \"#utility.yul\":11176:11199   */\n      tag_333\n      jump\t// in\n    tag_505:\n        /* \"#utility.yul\":11171:11174   */\n      dup3\n        /* \"#utility.yul\":11164:11200   */\n      mstore\n        /* \"#utility.yul\":11091:11206   */\n      pop\n      pop\n      jump\t// out\n        /* \"#utility.yul\":11212:12284   */\n    tag_59:\n        /* \"#utility.yul\":11511:11515   */\n      0x00\n        /* \"#utility.yul\":11549:11552   */\n      0x0120\n        /* \"#utility.yul\":11538:11547   */\n      dup3\n        /* \"#utility.yul\":11534:11553   */\n      add\n        /* \"#utility.yul\":11526:11553   */\n      swap1\n      pop\n        /* \"#utility.yul\":11563:11632   */\n      tag_507\n        /* \"#utility.yul\":11629:11630   */\n      0x00\n        /* \"#utility.yul\":11618:11627   */\n      dup4\n        /* \"#utility.yul\":11614:11631   */\n      add\n        /* \"#utility.yul\":11605:11611   */\n      dup13\n        /* \"#utility.yul\":11563:11632   */\n      tag_292\n      jump\t// in\n    tag_507:\n        /* \"#utility.yul\":11642:11712   */\n      tag_508\n        /* \"#utility.yul\":11708:11710   */\n      0x20\n        /* \"#utility.yul\":11697:11706   */\n      dup4\n        /* \"#utility.yul\":11693:11711   */\n      add\n        /* \"#utility.yul\":11684:11690   */\n      dup12\n        /* \"#utility.yul\":11642:11712   */\n      tag_292\n      jump\t// in\n    tag_508:\n        /* \"#utility.yul\":11722:11792   */\n      tag_509\n        /* \"#utility.yul\":11788:11790   */\n      0x40\n        /* \"#utility.yul\":11777:11786   */\n      dup4\n        /* \"#utility.yul\":11773:11791   */\n      add\n        /* \"#utility.yul\":11764:11770   */\n      dup11\n        /* \"#utility.yul\":11722:11792   */\n      tag_292\n      jump\t// in\n    tag_509:\n        /* \"#utility.yul\":11802:11872   */\n      tag_510\n        /* \"#utility.yul\":11868:11870   */\n      0x60\n        /* \"#utility.yul\":11857:11866   */\n      dup4\n        /* \"#utility.yul\":11853:11871   */\n      add\n        /* \"#utility.yul\":11844:11850   */\n      dup10\n        /* \"#utility.yul\":11802:11872   */\n      tag_292\n      jump\t// in\n    tag_510:\n        /* \"#utility.yul\":11882:11953   */\n      tag_511\n        /* \"#utility.yul\":11948:11951   */\n      0x80\n        /* \"#utility.yul\":11937:11946   */\n      dup4\n        /* \"#utility.yul\":11933:11952   */\n      add\n        /* \"#utility.yul\":11924:11930   */\n      dup9\n        /* \"#utility.yul\":11882:11953   */\n      tag_292\n      jump\t// in\n    tag_511:\n        /* \"#utility.yul\":11963:12034   */\n      tag_512\n        /* \"#utility.yul\":12029:12032   */\n      0xa0\n        /* \"#utility.yul\":12018:12027   */\n      dup4\n        /* \"#utility.yul\":12014:12033   */\n      add\n        /* \"#utility.yul\":12005:12011   */\n      dup8\n        /* \"#utility.yul\":11963:12034   */\n      tag_334\n      jump\t// in\n    tag_512:\n        /* \"#utility.yul\":12044:12115   */\n      tag_513\n        /* \"#utility.yul\":12110:12113   */\n      0xc0\n        /* \"#utility.yul\":12099:12108   */\n      dup4\n        /* \"#utility.yul\":12095:12114   */\n      add\n        /* \"#utility.yul\":12086:12092   */\n      dup7\n        /* \"#utility.yul\":12044:12115   */\n      tag_334\n      jump\t// in\n    tag_513:\n        /* \"#utility.yul\":12125:12196   */\n      tag_514\n        /* \"#utility.yul\":12191:12194   */\n      0xe0\n        /* \"#utility.yul\":12180:12189   */\n      dup4\n        /* \"#utility.yul\":12176:12195   */\n      add\n        /* \"#utility.yul\":12167:12173   */\n      dup6\n        /* \"#utility.yul\":12125:12196   */\n      tag_334\n      jump\t// in\n    tag_514:\n        /* \"#utility.yul\":12206:12277   */\n      tag_515\n        /* \"#utility.yul\":12272:12275   */\n      0x0100\n        /* \"#utility.yul\":12261:12270   */\n      dup4\n        /* \"#utility.yul\":12257:12276   */\n      add\n        /* \"#utility.yul\":12248:12254   */\n      dup5\n        /* \"#utility.yul\":12206:12277   */\n      tag_334\n      jump\t// in\n    tag_515:\n        /* \"#utility.yul\":11212:12284   */\n      swap11\n      swap10\n      pop\n      pop\n      pop\n      pop\n      pop\n      pop\n      pop\n      pop\n      pop\n      pop\n      jump\t// out\n        /* \"#utility.yul\":12290:12508   */\n    tag_63:\n        /* \"#utility.yul\":12381:12385   */\n      0x00\n        /* \"#utility.yul\":12419:12421   */\n      0x20\n        /* \"#utility.yul\":12408:12417   */\n      dup3\n        /* \"#utility.yul\":12404:12422   */\n      add\n        /* \"#utility.yul\":12396:12422   */\n      swap1\n      pop\n        /* \"#utility.yul\":12432:12501   */\n      tag_517\n        /* \"#utility.yul\":12498:12499   */\n      0x00\n        /* \"#utility.yul\":12487:12496   */\n      dup4\n        /* \"#utility.yul\":12483:12500   */\n      add\n        /* \"#utility.yul\":12474:12480   */\n      dup5\n        /* \"#utility.yul\":12432:12501   */\n      tag_290\n      jump\t// in\n    tag_517:\n        /* \"#utility.yul\":12290:12508   */\n      swap3\n      swap2\n      pop\n      pop\n      jump\t// out\n        /* \"#utility.yul\":12514:12988   */\n    tag_71:\n        /* \"#utility.yul\":12582:12588   */\n      0x00\n        /* \"#utility.yul\":12590:12596   */\n      dup1\n        /* \"#utility.yul\":12639:12641   */\n      0x40\n        /* \"#utility.yul\":12627:12636   */\n      dup4\n        /* \"#utility.yul\":12618:12625   */\n      dup6\n        /* \"#utility.yul\":12614:12637   */\n      sub\n        /* \"#utility.yul\":12610:12642   */\n      slt\n        /* \"#utility.yul\":12607:12726   */\n      iszero\n      tag_519\n      jumpi\n        /* \"#utility.yul\":12645:12724   */\n      tag_520\n      tag_302\n      jump\t// in\n    tag_520:\n        /* \"#utility.yul\":12607:12726   */\n    tag_519:\n        /* \"#utility.yul\":12765:12766   */\n      0x00\n        /* \"#utility.yul\":12790:12843   */\n      tag_521\n        /* \"#utility.yul\":12835:12842   */\n      dup6\n        /* \"#utility.yul\":12826:12832   */\n      dup3\n        /* \"#utility.yul\":12815:12824   */\n      dup7\n        /* \"#utility.yul\":12811:12833   */\n      add\n        /* \"#utility.yul\":12790:12843   */\n      tag_313\n      jump\t// in\n    tag_521:\n        /* \"#utility.yul\":12780:12843   */\n      swap3\n      pop\n        /* \"#utility.yul\":12736:12853   */\n      pop\n        /* \"#utility.yul\":12892:12894   */\n      0x20\n        /* \"#utility.yul\":12918:12971   */\n      tag_522\n        /* \"#utility.yul\":12963:12970   */\n      dup6\n        /* \"#utility.yul\":12954:12960   */\n      dup3\n        /* \"#utility.yul\":12943:12952   */\n      dup7\n        /* \"#utility.yul\":12939:12961   */\n      add\n        /* \"#utility.yul\":12918:12971   */\n      tag_310\n      jump\t// in\n    tag_522:\n        /* \"#utility.yul\":12908:12971   */\n      swap2\n      pop\n        /* \"#utility.yul\":12863:12981   */\n      pop\n        /* \"#utility.yul\":12514:12988   */\n      swap3\n      pop\n      swap3\n      swap1\n      pop\n      jump\t// out\n        /* \"#utility.yul\":12994:13321   */\n    tag_75:\n        /* \"#utility.yul\":13052:13058   */\n      0x00\n        /* \"#utility.yul\":13101:13103   */\n      0x20\n        /* \"#utility.yul\":13089:13098   */\n      dup3\n        /* \"#utility.yul\":13080:13087   */\n      dup5\n        /* \"#utility.yul\":13076:13099   */\n      sub\n        /* \"#utility.yul\":13072:13104   */\n      slt\n        /* \"#utility.yul\":13069:13188   */\n      iszero\n      tag_524\n      jumpi\n        /* \"#utility.yul\":13107:13186   */\n      tag_525\n      tag_302\n      jump\t// in\n    tag_525:\n        /* \"#utility.yul\":13069:13188   */\n    tag_524:\n        /* \"#utility.yul\":13227:13228   */\n      0x00\n        /* \"#utility.yul\":13252:13304   */\n      tag_526\n        /* \"#utility.yul\":13296:13303   */\n      dup5\n        /* \"#utility.yul\":13287:13293   */\n      dup3\n        /* \"#utility.yul\":13276:13285   */\n      dup6\n        /* \"#utility.yul\":13272:13294   */\n      add\n        /* \"#utility.yul\":13252:13304   */\n      tag_306\n      jump\t// in\n    tag_526:\n        /* \"#utility.yul\":13242:13304   */\n      swap2\n      pop\n        /* \"#utility.yul\":13198:13314   */\n      pop\n        /* \"#utility.yul\":12994:13321   */\n      swap3\n      swap2\n      pop\n      pop\n      jump\t// out\n        /* \"#utility.yul\":13327:13445   */\n    tag_335:\n        /* \"#utility.yul\":13414:13438   */\n      tag_528\n        /* \"#utility.yul\":13432:13437   */\n      dup2\n        /* \"#utility.yul\":13414:13438   */\n      tag_308\n      jump\t// in\n    tag_528:\n        /* \"#utility.yul\":13409:13412   */\n      dup3\n        /* \"#utility.yul\":13402:13439   */\n      mstore\n        /* \"#utility.yul\":13327:13445   */\n      pop\n      pop\n      jump\t// out\n        /* \"#utility.yul\":13451:13673   */\n    tag_82:\n        /* \"#utility.yul\":13544:13548   */\n      0x00\n        /* \"#utility.yul\":13582:13584   */\n      0x20\n        /* \"#utility.yul\":13571:13580   */\n      dup3\n        /* \"#utility.yul\":13567:13585   */\n      add\n        /* \"#utility.yul\":13559:13585   */\n      swap1\n      pop\n        /* \"#utility.yul\":13595:13666   */\n      tag_530\n        /* \"#utility.yul\":13663:13664   */\n      0x00\n        /* \"#utility.yul\":13652:13661   */\n      dup4\n        /* \"#utility.yul\":13648:13665   */\n      add\n        /* \"#utility.yul\":13639:13645   */\n      dup5\n        /* \"#utility.yul\":13595:13666   */\n      tag_335\n      jump\t// in\n    tag_530:\n        /* \"#utility.yul\":13451:13673   */\n      swap3\n      swap2\n      pop\n      pop\n      jump\t// out\n        /* \"#utility.yul\":13679:13794   */\n    tag_336:\n        /* \"#utility.yul\":13764:13787   */\n      tag_532\n        /* \"#utility.yul\":13781:13786   */\n      dup2\n        /* \"#utility.yul\":13764:13787   */\n      tag_304\n      jump\t// in\n    tag_532:\n        /* \"#utility.yul\":13759:13762   */\n      dup3\n        /* \"#utility.yul\":13752:13788   */\n      mstore\n        /* \"#utility.yul\":13679:13794   */\n      pop\n      pop\n      jump\t// out\n        /* \"#utility.yul\":13800:14018   */\n    tag_89:\n        /* \"#utility.yul\":13891:13895   */\n      0x00\n        /* \"#utility.yul\":13929:13931   */\n      0x20\n        /* \"#utility.yul\":13918:13927   */\n      dup3\n        /* \"#utility.yul\":13914:13932   */\n      add\n        /* \"#utility.yul\":13906:13932   */\n      swap1\n      pop\n        /* \"#utility.yul\":13942:14011   */\n      tag_534\n        /* \"#utility.yul\":14008:14009   */\n      0x00\n        /* \"#utility.yul\":13997:14006   */\n      dup4\n        /* \"#utility.yul\":13993:14010   */\n      add\n        /* \"#utility.yul\":13984:13990   */\n      dup5\n        /* \"#utility.yul\":13942:14011   */\n      tag_336\n      jump\t// in\n    tag_534:\n        /* \"#utility.yul\":13800:14018   */\n      swap3\n      swap2\n      pop\n      pop\n      jump\t// out\n        /* \"#utility.yul\":14024:14138   */\n    tag_337:\n        /* \"#utility.yul\":14091:14097   */\n      0x00\n        /* \"#utility.yul\":14125:14130   */\n      dup2\n        /* \"#utility.yul\":14119:14131   */\n      mload\n        /* \"#utility.yul\":14109:14131   */\n      swap1\n      pop\n        /* \"#utility.yul\":14024:14138   */\n      swap2\n      swap1\n      pop\n      jump\t// out\n        /* \"#utility.yul\":14144:14328   */\n    tag_338:\n        /* \"#utility.yul\":14243:14254   */\n      0x00\n        /* \"#utility.yul\":14277:14283   */\n      dup3\n        /* \"#utility.yul\":14272:14275   */\n      dup3\n        /* \"#utility.yul\":14265:14284   */\n      mstore\n        /* \"#utility.yul\":14317:14321   */\n      0x20\n        /* \"#utility.yul\":14312:14315   */\n      dup3\n        /* \"#utility.yul\":14308:14322   */\n      add\n        /* \"#utility.yul\":14293:14322   */\n      swap1\n      pop\n        /* \"#utility.yul\":14144:14328   */\n      swap3\n      swap2\n      pop\n      pop\n      jump\t// out\n        /* \"#utility.yul\":14334:14466   */\n    tag_339:\n        /* \"#utility.yul\":14401:14405   */\n      0x00\n        /* \"#utility.yul\":14424:14427   */\n      dup2\n        /* \"#utility.yul\":14416:14427   */\n      swap1\n      pop\n        /* \"#utility.yul\":14454:14458   */\n      0x20\n        /* \"#utility.yul\":14449:14452   */\n      dup3\n        /* \"#utility.yul\":14445:14459   */\n      add\n        /* \"#utility.yul\":14437:14459   */\n      swap1\n      pop\n        /* \"#utility.yul\":14334:14466   */\n      swap2\n      swap1\n      pop\n      jump\t// out\n        /* \"#utility.yul\":14472:14580   */\n    tag_340:\n        /* \"#utility.yul\":14549:14573   */\n      tag_539\n        /* \"#utility.yul\":14567:14572   */\n      dup2\n        /* \"#utility.yul\":14549:14573   */\n      tag_308\n      jump\t// in\n    tag_539:\n        /* \"#utility.yul\":14544:14547   */\n      dup3\n        /* \"#utility.yul\":14537:14574   */\n      mstore\n        /* \"#utility.yul\":14472:14580   */\n      pop\n      pop\n      jump\t// out\n        /* \"#utility.yul\":14586:14765   */\n    tag_341:\n        /* \"#utility.yul\":14655:14665   */\n      0x00\n        /* \"#utility.yul\":14676:14722   */\n      tag_541\n        /* \"#utility.yul\":14718:14721   */\n      dup4\n        /* \"#utility.yul\":14710:14716   */\n      dup4\n        /* \"#utility.yul\":14676:14722   */\n      tag_340\n      jump\t// in\n    tag_541:\n        /* \"#utility.yul\":14754:14758   */\n      0x20\n        /* \"#utility.yul\":14749:14752   */\n      dup4\n        /* \"#utility.yul\":14745:14759   */\n      add\n        /* \"#utility.yul\":14731:14759   */\n      swap1\n      pop\n        /* \"#utility.yul\":14586:14765   */\n      swap3\n      swap2\n      pop\n      pop\n      jump\t// out\n        /* \"#utility.yul\":14771:14884   */\n    tag_342:\n        /* \"#utility.yul\":14841:14845   */\n      0x00\n        /* \"#utility.yul\":14873:14877   */\n      0x20\n        /* \"#utility.yul\":14868:14871   */\n      dup3\n        /* \"#utility.yul\":14864:14878   */\n      add\n        /* \"#utility.yul\":14856:14878   */\n      swap1\n      pop\n        /* \"#utility.yul\":14771:14884   */\n      swap2\n      swap1\n      pop\n      jump\t// out\n        /* \"#utility.yul\":14920:15652   */\n    tag_343:\n        /* \"#utility.yul\":15039:15042   */\n      0x00\n        /* \"#utility.yul\":15068:15122   */\n      tag_544\n        /* \"#utility.yul\":15116:15121   */\n      dup3\n        /* \"#utility.yul\":15068:15122   */\n      tag_337\n      jump\t// in\n    tag_544:\n        /* \"#utility.yul\":15138:15224   */\n      tag_545\n        /* \"#utility.yul\":15217:15223   */\n      dup2\n        /* \"#utility.yul\":15212:15215   */\n      dup6\n        /* \"#utility.yul\":15138:15224   */\n      tag_338\n      jump\t// in\n    tag_545:\n        /* \"#utility.yul\":15131:15224   */\n      swap4\n      pop\n        /* \"#utility.yul\":15248:15304   */\n      tag_546\n        /* \"#utility.yul\":15298:15303   */\n      dup4\n        /* \"#utility.yul\":15248:15304   */\n      tag_339\n      jump\t// in\n    tag_546:\n        /* \"#utility.yul\":15327:15334   */\n      dup1\n        /* \"#utility.yul\":15358:15359   */\n      0x00\n        /* \"#utility.yul\":15343:15627   */\n    tag_547:\n        /* \"#utility.yul\":15368:15374   */\n      dup4\n        /* \"#utility.yul\":15365:15366   */\n      dup2\n        /* \"#utility.yul\":15362:15375   */\n      lt\n        /* \"#utility.yul\":15343:15627   */\n      iszero\n      tag_549\n      jumpi\n        /* \"#utility.yul\":15444:15450   */\n      dup2\n        /* \"#utility.yul\":15438:15451   */\n      mload\n        /* \"#utility.yul\":15471:15534   */\n      tag_550\n        /* \"#utility.yul\":15530:15533   */\n      dup9\n        /* \"#utility.yul\":15515:15528   */\n      dup3\n        /* \"#utility.yul\":15471:15534   */\n      tag_341\n      jump\t// in\n    tag_550:\n        /* \"#utility.yul\":15464:15534   */\n      swap8\n      pop\n        /* \"#utility.yul\":15557:15617   */\n      tag_551\n        /* \"#utility.yul\":15610:15616   */\n      dup4\n        /* \"#utility.yul\":15557:15617   */\n      tag_342\n      jump\t// in\n    tag_551:\n        /* \"#utility.yul\":15547:15617   */\n      swap3\n      pop\n        /* \"#utility.yul\":15403:15627   */\n      pop\n        /* \"#utility.yul\":15390:15391   */\n      0x01\n        /* \"#utility.yul\":15387:15388   */\n      dup2\n        /* \"#utility.yul\":15383:15392   */\n      add\n        /* \"#utility.yul\":15378:15392   */\n      swap1\n      pop\n        /* \"#utility.yul\":15343:15627   */\n      jump(tag_547)\n    tag_549:\n        /* \"#utility.yul\":15347:15361   */\n      pop\n        /* \"#utility.yul\":15643:15646   */\n      dup6\n        /* \"#utility.yul\":15636:15646   */\n      swap4\n      pop\n        /* \"#utility.yul\":15044:15652   */\n      pop\n      pop\n      pop\n        /* \"#utility.yul\":14920:15652   */\n      swap3\n      swap2\n      pop\n      pop\n      jump\t// out\n        /* \"#utility.yul\":15658:16354   */\n    tag_97:\n        /* \"#utility.yul\":15881:15885   */\n      0x00\n        /* \"#utility.yul\":15919:15922   */\n      0x80\n        /* \"#utility.yul\":15908:15917   */\n      dup3\n        /* \"#utility.yul\":15904:15923   */\n      add\n        /* \"#utility.yul\":15896:15923   */\n      swap1\n      pop\n        /* \"#utility.yul\":15933:16002   */\n      tag_553\n        /* \"#utility.yul\":15999:16000   */\n      0x00\n        /* \"#utility.yul\":15988:15997   */\n      dup4\n        /* \"#utility.yul\":15984:16001   */\n      add\n        /* \"#utility.yul\":15975:15981   */\n      dup8\n        /* \"#utility.yul\":15933:16002   */\n      tag_325\n      jump\t// in\n    tag_553:\n        /* \"#utility.yul\":16012:16082   */\n      tag_554\n        /* \"#utility.yul\":16078:16080   */\n      0x20\n        /* \"#utility.yul\":16067:16076   */\n      dup4\n        /* \"#utility.yul\":16063:16081   */\n      add\n        /* \"#utility.yul\":16054:16060   */\n      dup7\n        /* \"#utility.yul\":16012:16082   */\n      tag_336\n      jump\t// in\n    tag_554:\n        /* \"#utility.yul\":16092:16164   */\n      tag_555\n        /* \"#utility.yul\":16160:16162   */\n      0x40\n        /* \"#utility.yul\":16149:16158   */\n      dup4\n        /* \"#utility.yul\":16145:16163   */\n      add\n        /* \"#utility.yul\":16136:16142   */\n      dup6\n        /* \"#utility.yul\":16092:16164   */\n      tag_335\n      jump\t// in\n    tag_555:\n        /* \"#utility.yul\":16211:16220   */\n      dup2\n        /* \"#utility.yul\":16205:16209   */\n      dup2\n        /* \"#utility.yul\":16201:16221   */\n      sub\n        /* \"#utility.yul\":16196:16198   */\n      0x60\n        /* \"#utility.yul\":16185:16194   */\n      dup4\n        /* \"#utility.yul\":16181:16199   */\n      add\n        /* \"#utility.yul\":16174:16222   */\n      mstore\n        /* \"#utility.yul\":16239:16347   */\n      tag_556\n        /* \"#utility.yul\":16342:16346   */\n      dup2\n        /* \"#utility.yul\":16333:16339   */\n      dup5\n        /* \"#utility.yul\":16239:16347   */\n      tag_343\n      jump\t// in\n    tag_556:\n        /* \"#utility.yul\":16231:16347   */\n      swap1\n      pop\n        /* \"#utility.yul\":15658:16354   */\n      swap6\n      swap5\n      pop\n      pop\n      pop\n      pop\n      pop\n      jump\t// out\n        /* \"#utility.yul\":16360:16480   */\n    tag_344:\n        /* \"#utility.yul\":16432:16455   */\n      tag_558\n        /* \"#utility.yul\":16449:16454   */\n      dup2\n        /* \"#utility.yul\":16432:16455   */\n      tag_324\n      jump\t// in\n    tag_558:\n        /* \"#utility.yul\":16425:16430   */\n      dup2\n        /* \"#utility.yul\":16422:16456   */\n      eq\n        /* \"#utility.yul\":16412:16474   */\n      tag_559\n      jumpi\n        /* \"#utility.yul\":16470:16471   */\n      0x00\n        /* \"#utility.yul\":16467:16468   */\n      dup1\n        /* \"#utility.yul\":16460:16472   */\n      revert\n        /* \"#utility.yul\":16412:16474   */\n    tag_559:\n        /* \"#utility.yul\":16360:16480   */\n      pop\n      jump\t// out\n        /* \"#utility.yul\":16486:16623   */\n    tag_345:\n        /* \"#utility.yul\":16531:16536   */\n      0x00\n        /* \"#utility.yul\":16569:16575   */\n      dup2\n        /* \"#utility.yul\":16556:16576   */\n      calldataload\n        /* \"#utility.yul\":16547:16576   */\n      swap1\n      pop\n        /* \"#utility.yul\":16585:16617   */\n      tag_561\n        /* \"#utility.yul\":16611:16616   */\n      dup2\n        /* \"#utility.yul\":16585:16617   */\n      tag_344\n      jump\t// in\n    tag_561:\n        /* \"#utility.yul\":16486:16623   */\n      swap3\n      swap2\n      pop\n      pop\n      jump\t// out\n        /* \"#utility.yul\":16629:17099   */\n    tag_100:\n        /* \"#utility.yul\":16695:16701   */\n      0x00\n        /* \"#utility.yul\":16703:16709   */\n      dup1\n        /* \"#utility.yul\":16752:16754   */\n      0x40\n        /* \"#utility.yul\":16740:16749   */\n      dup4\n        /* \"#utility.yul\":16731:16738   */\n      dup6\n        /* \"#utility.yul\":16727:16750   */\n      sub\n        /* \"#utility.yul\":16723:16755   */\n      slt\n        /* \"#utility.yul\":16720:16839   */\n      iszero\n      tag_563\n      jumpi\n        /* \"#utility.yul\":16758:16837   */\n      tag_564\n      tag_302\n      jump\t// in\n    tag_564:\n        /* \"#utility.yul\":16720:16839   */\n    tag_563:\n        /* \"#utility.yul\":16878:16879   */\n      0x00\n        /* \"#utility.yul\":16903:16955   */\n      tag_565\n        /* \"#utility.yul\":16947:16954   */\n      dup6\n        /* \"#utility.yul\":16938:16944   */\n      dup3\n        /* \"#utility.yul\":16927:16936   */\n      dup7\n        /* \"#utility.yul\":16923:16945   */\n      add\n        /* \"#utility.yul\":16903:16955   */\n      tag_306\n      jump\t// in\n    tag_565:\n        /* \"#utility.yul\":16893:16955   */\n      swap3\n      pop\n        /* \"#utility.yul\":16849:16965   */\n      pop\n        /* \"#utility.yul\":17004:17006   */\n      0x20\n        /* \"#utility.yul\":17030:17082   */\n      tag_566\n        /* \"#utility.yul\":17074:17081   */\n      dup6\n        /* \"#utility.yul\":17065:17071   */\n      dup3\n        /* \"#utility.yul\":17054:17063   */\n      dup7\n        /* \"#utility.yul\":17050:17072   */\n      add\n        /* \"#utility.yul\":17030:17082   */\n      tag_345\n      jump\t// in\n    tag_566:\n        /* \"#utility.yul\":17020:17082   */\n      swap2\n      pop\n        /* \"#utility.yul\":16975:17092   */\n      pop\n        /* \"#utility.yul\":16629:17099   */\n      swap3\n      pop\n      swap3\n      swap1\n      pop\n      jump\t// out\n        /* \"#utility.yul\":17105:17642   */\n    tag_105:\n        /* \"#utility.yul\":17274:17278   */\n      0x00\n        /* \"#utility.yul\":17312:17315   */\n      0x80\n        /* \"#utility.yul\":17301:17310   */\n      dup3\n        /* \"#utility.yul\":17297:17316   */\n      add\n        /* \"#utility.yul\":17289:17316   */\n      swap1\n      pop\n        /* \"#utility.yul\":17326:17395   */\n      tag_568\n        /* \"#utility.yul\":17392:17393   */\n      0x00\n        /* \"#utility.yul\":17381:17390   */\n      dup4\n        /* \"#utility.yul\":17377:17394   */\n      add\n        /* \"#utility.yul\":17368:17374   */\n      dup8\n        /* \"#utility.yul\":17326:17395   */\n      tag_290\n      jump\t// in\n    tag_568:\n        /* \"#utility.yul\":17405:17475   */\n      tag_569\n        /* \"#utility.yul\":17471:17473   */\n      0x20\n        /* \"#utility.yul\":17460:17469   */\n      dup4\n        /* \"#utility.yul\":17456:17474   */\n      add\n        /* \"#utility.yul\":17447:17453   */\n      dup7\n        /* \"#utility.yul\":17405:17475   */\n      tag_292\n      jump\t// in\n    tag_569:\n        /* \"#utility.yul\":17485:17555   */\n      tag_570\n        /* \"#utility.yul\":17551:17553   */\n      0x40\n        /* \"#utility.yul\":17540:17549   */\n      dup4\n        /* \"#utility.yul\":17536:17554   */\n      add\n        /* \"#utility.yul\":17527:17533   */\n      dup6\n        /* \"#utility.yul\":17485:17555   */\n      tag_292\n      jump\t// in\n    tag_570:\n        /* \"#utility.yul\":17565:17635   */\n      tag_571\n        /* \"#utility.yul\":17631:17633   */\n      0x60\n        /* \"#utility.yul\":17620:17629   */\n      dup4\n        /* \"#utility.yul\":17616:17634   */\n      add\n        /* \"#utility.yul\":17607:17613   */\n      dup5\n        /* \"#utility.yul\":17565:17635   */\n      tag_292\n      jump\t// in\n    tag_571:\n        /* \"#utility.yul\":17105:17642   */\n      swap6\n      swap5\n      pop\n      pop\n      pop\n      pop\n      pop\n      jump\t// out\n        /* \"#utility.yul\":17648:17738   */\n    tag_346:\n        /* \"#utility.yul\":17682:17689   */\n      0x00\n        /* \"#utility.yul\":17725:17730   */\n      dup2\n        /* \"#utility.yul\":17718:17731   */\n      iszero\n        /* \"#utility.yul\":17711:17732   */\n      iszero\n        /* \"#utility.yul\":17700:17732   */\n      swap1\n      pop\n        /* \"#utility.yul\":17648:17738   */\n      swap2\n      swap1\n      pop\n      jump\t// out\n        /* \"#utility.yul\":17744:17853   */\n    tag_347:\n        /* \"#utility.yul\":17825:17846   */\n      tag_574\n        /* \"#utility.yul\":17840:17845   */\n      dup2\n        /* \"#utility.yul\":17825:17846   */\n      tag_346\n      jump\t// in\n    tag_574:\n        /* \"#utility.yul\":17820:17823   */\n      dup3\n        /* \"#utility.yul\":17813:17847   */\n      mstore\n        /* \"#utility.yul\":17744:17853   */\n      pop\n      pop\n      jump\t// out\n        /* \"#utility.yul\":17859:18069   */\n    tag_113:\n        /* \"#utility.yul\":17946:17950   */\n      0x00\n        /* \"#utility.yul\":17984:17986   */\n      0x20\n        /* \"#utility.yul\":17973:17982   */\n      dup3\n        /* \"#utility.yul\":17969:17987   */\n      add\n        /* \"#utility.yul\":17961:17987   */\n      swap1\n      pop\n        /* \"#utility.yul\":17997:18062   */\n      tag_576\n        /* \"#utility.yul\":18059:18060   */\n      0x00\n        /* \"#utility.yul\":18048:18057   */\n      dup4\n        /* \"#utility.yul\":18044:18061   */\n      add\n        /* \"#utility.yul\":18035:18041   */\n      dup5\n        /* \"#utility.yul\":17997:18062   */\n      tag_347\n      jump\t// in\n    tag_576:\n        /* \"#utility.yul\":17859:18069   */\n      swap3\n      swap2\n      pop\n      pop\n      jump\t// out\n        /* \"#utility.yul\":18075:18404   */\n    tag_120:\n        /* \"#utility.yul\":18134:18140   */\n      0x00\n        /* \"#utility.yul\":18183:18185   */\n      0x20\n        /* \"#utility.yul\":18171:18180   */\n      dup3\n        /* \"#utility.yul\":18162:18169   */\n      dup5\n        /* \"#utility.yul\":18158:18181   */\n      sub\n        /* \"#utility.yul\":18154:18186   */\n      slt\n        /* \"#utility.yul\":18151:18270   */\n      iszero\n      tag_578\n      jumpi\n        /* \"#utility.yul\":18189:18268   */\n      tag_579\n      tag_302\n      jump\t// in\n    tag_579:\n        /* \"#utility.yul\":18151:18270   */\n    tag_578:\n        /* \"#utility.yul\":18309:18310   */\n      0x00\n        /* \"#utility.yul\":18334:18387   */\n      tag_580\n        /* \"#utility.yul\":18379:18386   */\n      dup5\n        /* \"#utility.yul\":18370:18376   */\n      dup3\n        /* \"#utility.yul\":18359:18368   */\n      dup6\n        /* \"#utility.yul\":18355:18377   */\n      add\n        /* \"#utility.yul\":18334:18387   */\n      tag_310\n      jump\t// in\n    tag_580:\n        /* \"#utility.yul\":18324:18387   */\n      swap2\n      pop\n        /* \"#utility.yul\":18280:18397   */\n      pop\n        /* \"#utility.yul\":18075:18404   */\n      swap3\n      swap2\n      pop\n      pop\n      jump\t// out\n        /* \"#utility.yul\":18410:18579   */\n    tag_348:\n        /* \"#utility.yul\":18494:18505   */\n      0x00\n        /* \"#utility.yul\":18528:18534   */\n      dup3\n        /* \"#utility.yul\":18523:18526   */\n      dup3\n        /* \"#utility.yul\":18516:18535   */\n      mstore\n        /* \"#utility.yul\":18568:18572   */\n      0x20\n        /* \"#utility.yul\":18563:18566   */\n      dup3\n        /* \"#utility.yul\":18559:18573   */\n      add\n        /* \"#utility.yul\":18544:18573   */\n      swap1\n      pop\n        /* \"#utility.yul\":18410:18579   */\n      swap3\n      swap2\n      pop\n      pop\n      jump\t// out\n        /* \"#utility.yul\":18585:18750   */\n    tag_349:\n        /* \"#utility.yul\":18725:18742   */\n      0x6e6f7420696d706c656d656e7465640000000000000000000000000000000000\n        /* \"#utility.yul\":18721:18722   */\n      0x00\n        /* \"#utility.yul\":18713:18719   */\n      dup3\n        /* \"#utility.yul\":18709:18723   */\n      add\n        /* \"#utility.yul\":18702:18743   */\n      mstore\n        /* \"#utility.yul\":18585:18750   */\n      pop\n      jump\t// out\n        /* \"#utility.yul\":18756:19122   */\n    tag_350:\n        /* \"#utility.yul\":18898:18901   */\n      0x00\n        /* \"#utility.yul\":18919:18986   */\n      tag_584\n        /* \"#utility.yul\":18983:18985   */\n      0x0f\n        /* \"#utility.yul\":18978:18981   */\n      dup4\n        /* \"#utility.yul\":18919:18986   */\n      tag_348\n      jump\t// in\n    tag_584:\n        /* \"#utility.yul\":18912:18986   */\n      swap2\n      pop\n        /* \"#utility.yul\":18995:19088   */\n      tag_585\n        /* \"#utility.yul\":19084:19087   */\n      dup3\n        /* \"#utility.yul\":18995:19088   */\n      tag_349\n      jump\t// in\n    tag_585:\n        /* \"#utility.yul\":19113:19115   */\n      0x20\n        /* \"#utility.yul\":19108:19111   */\n      dup3\n        /* \"#utility.yul\":19104:19116   */\n      add\n        /* \"#utility.yul\":19097:19116   */\n      swap1\n      pop\n        /* \"#utility.yul\":18756:19122   */\n      swap2\n      swap1\n      pop\n      jump\t// out\n        /* \"#utility.yul\":19128:19547   */\n    tag_129:\n        /* \"#utility.yul\":19294:19298   */\n      0x00\n        /* \"#utility.yul\":19332:19334   */\n      0x20\n        /* \"#utility.yul\":19321:19330   */\n      dup3\n        /* \"#utility.yul\":19317:19335   */\n      add\n        /* \"#utility.yul\":19309:19335   */\n      swap1\n      pop\n        /* \"#utility.yul\":19381:19390   */\n      dup2\n        /* \"#utility.yul\":19375:19379   */\n      dup2\n        /* \"#utility.yul\":19371:19391   */\n      sub\n        /* \"#utility.yul\":19367:19368   */\n      0x00\n        /* \"#utility.yul\":19356:19365   */\n      dup4\n        /* \"#utility.yul\":19352:19369   */\n      add\n        /* \"#utility.yul\":19345:19392   */\n      mstore\n        /* \"#utility.yul\":19409:19540   */\n      tag_587\n        /* \"#utility.yul\":19535:19539   */\n      dup2\n        /* \"#utility.yul\":19409:19540   */\n      tag_350\n      jump\t// in\n    tag_587:\n        /* \"#utility.yul\":19401:19540   */\n      swap1\n      pop\n        /* \"#utility.yul\":19128:19547   */\n      swap2\n      swap1\n      pop\n      jump\t// out\n        /* \"#utility.yul\":19553:19722   */\n    tag_351:\n        /* \"#utility.yul\":19693:19714   */\n      0x6e6f6e6578697374656e74207265717565737400000000000000000000000000\n        /* \"#utility.yul\":19689:19690   */\n      0x00\n        /* \"#utility.yul\":19681:19687   */\n      dup3\n        /* \"#utility.yul\":19677:19691   */\n      add\n        /* \"#utility.yul\":19670:19715   */\n      mstore\n        /* \"#utility.yul\":19553:19722   */\n      pop\n      jump\t// out\n        /* \"#utility.yul\":19728:20094   */\n    tag_352:\n        /* \"#utility.yul\":19870:19873   */\n      0x00\n        /* \"#utility.yul\":19891:19958   */\n      tag_590\n        /* \"#utility.yul\":19955:19957   */\n      0x13\n        /* \"#utility.yul\":19950:19953   */\n      dup4\n        /* \"#utility.yul\":19891:19958   */\n      tag_348\n      jump\t// in\n    tag_590:\n        /* \"#utility.yul\":19884:19958   */\n      swap2\n      pop\n        /* \"#utility.yul\":19967:20060   */\n      tag_591\n        /* \"#utility.yul\":20056:20059   */\n      dup3\n        /* \"#utility.yul\":19967:20060   */\n      tag_351\n      jump\t// in\n    tag_591:\n        /* \"#utility.yul\":20085:20087   */\n      0x20\n        /* \"#utility.yul\":20080:20083   */\n      dup3\n        /* \"#utility.yul\":20076:20088   */\n      add\n        /* \"#utility.yul\":20069:20088   */\n      swap1\n      pop\n        /* \"#utility.yul\":19728:20094   */\n      swap2\n      swap1\n      pop\n      jump\t// out\n        /* \"#utility.yul\":20100:20519   */\n    tag_133:\n        /* \"#utility.yul\":20266:20270   */\n      0x00\n        /* \"#utility.yul\":20304:20306   */\n      0x20\n        /* \"#utility.yul\":20293:20302   */\n      dup3\n        /* \"#utility.yul\":20289:20307   */\n      add\n        /* \"#utility.yul\":20281:20307   */\n      swap1\n      pop\n        /* \"#utility.yul\":20353:20362   */\n      dup2\n        /* \"#utility.yul\":20347:20351   */\n      dup2\n        /* \"#utility.yul\":20343:20363   */\n      sub\n        /* \"#utility.yul\":20339:20340   */\n      0x00\n        /* \"#utility.yul\":20328:20337   */\n      dup4\n        /* \"#utility.yul\":20324:20341   */\n      add\n        /* \"#utility.yul\":20317:20364   */\n      mstore\n        /* \"#utility.yul\":20381:20512   */\n      tag_593\n        /* \"#utility.yul\":20507:20511   */\n      dup2\n        /* \"#utility.yul\":20381:20512   */\n      tag_352\n      jump\t// in\n    tag_593:\n        /* \"#utility.yul\":20373:20512   */\n      swap1\n      pop\n        /* \"#utility.yul\":20100:20519   */\n      swap2\n      swap1\n      pop\n      jump\t// out\n        /* \"#utility.yul\":20525:20857   */\n    tag_142:\n        /* \"#utility.yul\":20646:20650   */\n      0x00\n        /* \"#utility.yul\":20684:20686   */\n      0x40\n        /* \"#utility.yul\":20673:20682   */\n      dup3\n        /* \"#utility.yul\":20669:20687   */\n      add\n        /* \"#utility.yul\":20661:20687   */\n      swap1\n      pop\n        /* \"#utility.yul\":20697:20768   */\n      tag_595\n        /* \"#utility.yul\":20765:20766   */\n      0x00\n        /* \"#utility.yul\":20754:20763   */\n      dup4\n        /* \"#utility.yul\":20750:20767   */\n      add\n        /* \"#utility.yul\":20741:20747   */\n      dup6\n        /* \"#utility.yul\":20697:20768   */\n      tag_332\n      jump\t// in\n    tag_595:\n        /* \"#utility.yul\":20778:20850   */\n      tag_596\n        /* \"#utility.yul\":20846:20848   */\n      0x20\n        /* \"#utility.yul\":20835:20844   */\n      dup4\n        /* \"#utility.yul\":20831:20849   */\n      add\n        /* \"#utility.yul\":20822:20828   */\n      dup5\n        /* \"#utility.yul\":20778:20850   */\n      tag_332\n      jump\t// in\n    tag_596:\n        /* \"#utility.yul\":20525:20857   */\n      swap4\n      swap3\n      pop\n      pop\n      pop\n      jump\t// out\n        /* \"#utility.yul\":20863:21043   */\n    tag_145:\n        /* \"#utility.yul\":20911:20988   */\n      0x4e487b7100000000000000000000000000000000000000000000000000000000\n        /* \"#utility.yul\":20908:20909   */\n      0x00\n        /* \"#utility.yul\":20901:20989   */\n      mstore\n        /* \"#utility.yul\":21008:21012   */\n      0x32\n        /* \"#utility.yul\":21005:21006   */\n      0x04\n        /* \"#utility.yul\":20998:21013   */\n      mstore\n        /* \"#utility.yul\":21032:21036   */\n      0x24\n        /* \"#utility.yul\":21029:21030   */\n      0x00\n        /* \"#utility.yul\":21022:21037   */\n      revert\n        /* \"#utility.yul\":21049:21229   */\n    tag_353:\n        /* \"#utility.yul\":21097:21174   */\n      0x4e487b7100000000000000000000000000000000000000000000000000000000\n        /* \"#utility.yul\":21094:21095   */\n      0x00\n        /* \"#utility.yul\":21087:21175   */\n      mstore\n        /* \"#utility.yul\":21194:21198   */\n      0x11\n        /* \"#utility.yul\":21191:21192   */\n      0x04\n        /* \"#utility.yul\":21184:21199   */\n      mstore\n        /* \"#utility.yul\":21218:21222   */\n      0x24\n        /* \"#utility.yul\":21215:21216   */\n      0x00\n        /* \"#utility.yul\":21208:21223   */\n      revert\n        /* \"#utility.yul\":21235:21468   */\n    tag_147:\n        /* \"#utility.yul\":21274:21277   */\n      0x00\n        /* \"#utility.yul\":21297:21321   */\n      tag_600\n        /* \"#utility.yul\":21315:21320   */\n      dup3\n        /* \"#utility.yul\":21297:21321   */\n      tag_311\n      jump\t// in\n    tag_600:\n        /* \"#utility.yul\":21288:21321   */\n      swap2\n      pop\n        /* \"#utility.yul\":21343:21409   */\n      0xffffffffffffffffffffffffffffffffffffffffffffffffffffffffffffffff\n        /* \"#utility.yul\":21336:21341   */\n      dup3\n        /* \"#utility.yul\":21333:21410   */\n      sub\n        /* \"#utility.yul\":21330:21433   */\n      tag_601\n      jumpi\n        /* \"#utility.yul\":21413:21431   */\n      tag_602\n      tag_353\n      jump\t// in\n    tag_602:\n        /* \"#utility.yul\":21330:21433   */\n    tag_601:\n        /* \"#utility.yul\":21460:21461   */\n      0x01\n        /* \"#utility.yul\":21453:21458   */\n      dup3\n        /* \"#utility.yul\":21449:21462   */\n      add\n        /* \"#utility.yul\":21442:21462   */\n      swap1\n      pop\n        /* \"#utility.yul\":21235:21468   */\n      swap2\n      swap1\n      pop\n      jump\t// out\n        /* \"#utility.yul\":21474:21588   */\n    tag_354:\n        /* \"#utility.yul\":21541:21547   */\n      0x00\n        /* \"#utility.yul\":21575:21580   */\n      dup2\n        /* \"#utility.yul\":21569:21581   */\n      mload\n        /* \"#utility.yul\":21559:21581   */\n      swap1\n      pop\n        /* \"#utility.yul\":21474:21588   */\n      swap2\n      swap1\n      pop\n      jump\t// out\n        /* \"#utility.yul\":21594:21778   */\n    tag_355:\n        /* \"#utility.yul\":21693:21704   */\n      0x00\n        /* \"#utility.yul\":21727:21733   */\n      dup3\n        /* \"#utility.yul\":21722:21725   */\n      dup3\n        /* \"#utility.yul\":21715:21734   */\n      mstore\n        /* \"#utility.yul\":21767:21771   */\n      0x20\n        /* \"#utility.yul\":21762:21765   */\n      dup3\n        /* \"#utility.yul\":21758:21772   */\n      add\n        /* \"#utility.yul\":21743:21772   */\n      swap1\n      pop\n        /* \"#utility.yul\":21594:21778   */\n      swap3\n      swap2\n      pop\n      pop\n      jump\t// out\n        /* \"#utility.yul\":21784:21916   */\n    tag_356:\n        /* \"#utility.yul\":21851:21855   */\n      0x00\n        /* \"#utility.yul\":21874:21877   */\n      dup2\n        /* \"#utility.yul\":21866:21877   */\n      swap1\n      pop\n        /* \"#utility.yul\":21904:21908   */\n      0x20\n        /* \"#utility.yul\":21899:21902   */\n      dup3\n        /* \"#utility.yul\":21895:21909   */\n      add\n        /* \"#utility.yul\":21887:21909   */\n      swap1\n      pop\n        /* \"#utility.yul\":21784:21916   */\n      swap2\n      swap1\n      pop\n      jump\t// out\n        /* \"#utility.yul\":21922:22030   */\n    tag_357:\n        /* \"#utility.yul\":21999:22023   */\n      tag_607\n        /* \"#utility.yul\":22017:22022   */\n      dup2\n        /* \"#utility.yul\":21999:22023   */\n      tag_311\n      jump\t// in\n    tag_607:\n        /* \"#utility.yul\":21994:21997   */\n      dup3\n        /* \"#utility.yul\":21987:22024   */\n      mstore\n        /* \"#utility.yul\":21922:22030   */\n      pop\n      pop\n      jump\t// out\n        /* \"#utility.yul\":22036:22215   */\n    tag_358:\n        /* \"#utility.yul\":22105:22115   */\n      0x00\n        /* \"#utility.yul\":22126:22172   */\n      tag_609\n        /* \"#utility.yul\":22168:22171   */\n      dup4\n        /* \"#utility.yul\":22160:22166   */\n      dup4\n        /* \"#utility.yul\":22126:22172   */\n      tag_357\n      jump\t// in\n    tag_609:\n        /* \"#utility.yul\":22204:22208   */\n      0x20\n        /* \"#utility.yul\":22199:22202   */\n      dup4\n        /* \"#utility.yul\":22195:22209   */\n      add\n        /* \"#utility.yul\":22181:22209   */\n      swap1\n      pop\n        /* \"#utility.yul\":22036:22215   */\n      swap3\n      swap2\n      pop\n      pop\n      jump\t// out\n        /* \"#utility.yul\":22221:22334   */\n    tag_359:\n        /* \"#utility.yul\":22291:22295   */\n      0x00\n        /* \"#utility.yul\":22323:22327   */\n      0x20\n        /* \"#utility.yul\":22318:22321   */\n      dup3\n        /* \"#utility.yul\":22314:22328   */\n      add\n        /* \"#utility.yul\":22306:22328   */\n      swap1\n      pop\n        /* \"#utility.yul\":22221:22334   */\n      swap2\n      swap1\n      pop\n      jump\t// out\n        /* \"#utility.yul\":22370:23102   */\n    tag_360:\n        /* \"#utility.yul\":22489:22492   */\n      0x00\n        /* \"#utility.yul\":22518:22572   */\n      tag_612\n        /* \"#utility.yul\":22566:22571   */\n      dup3\n        /* \"#utility.yul\":22518:22572   */\n      tag_354\n      jump\t// in\n    tag_612:\n        /* \"#utility.yul\":22588:22674   */\n      tag_613\n        /* \"#utility.yul\":22667:22673   */\n      dup2\n        /* \"#utility.yul\":22662:22665   */\n      dup6\n        /* \"#utility.yul\":22588:22674   */\n      tag_355\n      jump\t// in\n    tag_613:\n        /* \"#utility.yul\":22581:22674   */\n      swap4\n      pop\n        /* \"#utility.yul\":22698:22754   */\n      tag_614\n        /* \"#utility.yul\":22748:22753   */\n      dup4\n        /* \"#utility.yul\":22698:22754   */\n      tag_356\n      jump\t// in\n    tag_614:\n        /* \"#utility.yul\":22777:22784   */\n      dup1\n        /* \"#utility.yul\":22808:22809   */\n      0x00\n        /* \"#utility.yul\":22793:23077   */\n    tag_615:\n        /* \"#utility.yul\":22818:22824   */\n      dup4\n        /* \"#utility.yul\":22815:22816   */\n      dup2\n        /* \"#utility.yul\":22812:22825   */\n      lt\n        /* \"#utility.yul\":22793:23077   */\n      iszero\n      tag_617\n      jumpi\n        /* \"#utility.yul\":22894:22900   */\n      dup2\n        /* \"#utility.yul\":22888:22901   */\n      mload\n        /* \"#utility.yul\":22921:22984   */\n      tag_618\n        /* \"#utility.yul\":22980:22983   */\n      dup9\n        /* \"#utility.yul\":22965:22978   */\n      dup3\n        /* \"#utility.yul\":22921:22984   */\n      tag_358\n      jump\t// in\n    tag_618:\n        /* \"#utility.yul\":22914:22984   */\n      swap8\n      pop\n        /* \"#utility.yul\":23007:23067   */\n      tag_619\n        /* \"#utility.yul\":23060:23066   */\n      dup4\n        /* \"#utility.yul\":23007:23067   */\n      tag_359\n      jump\t// in\n    tag_619:\n        /* \"#utility.yul\":22997:23067   */\n      swap3\n      pop\n        /* \"#utility.yul\":22853:23077   */\n      pop\n        /* \"#utility.yul\":22840:22841   */\n      0x01\n        /* \"#utility.yul\":22837:22838   */\n      dup2\n        /* \"#utility.yul\":22833:22842   */\n      add\n        /* \"#utility.yul\":22828:22842   */\n      swap1\n      pop\n        /* \"#utility.yul\":22793:23077   */\n      jump(tag_615)\n    tag_617:\n        /* \"#utility.yul\":22797:22811   */\n      pop\n        /* \"#utility.yul\":23093:23096   */\n      dup6\n        /* \"#utility.yul\":23086:23096   */\n      swap4\n      pop\n        /* \"#utility.yul\":22494:23102   */\n      pop\n      pop\n      pop\n        /* \"#utility.yul\":22370:23102   */\n      swap3\n      swap2\n      pop\n      pop\n      jump\t// out\n        /* \"#utility.yul\":23108:23591   */\n    tag_151:\n        /* \"#utility.yul\":23279:23283   */\n      0x00\n        /* \"#utility.yul\":23317:23319   */\n      0x40\n        /* \"#utility.yul\":23306:23315   */\n      dup3\n        /* \"#utility.yul\":23302:23320   */\n      add\n        /* \"#utility.yul\":23294:23320   */\n      swap1\n      pop\n        /* \"#utility.yul\":23330:23401   */\n      tag_621\n        /* \"#utility.yul\":23398:23399   */\n      0x00\n        /* \"#utility.yul\":23387:23396   */\n      dup4\n        /* \"#utility.yul\":23383:23400   */\n      add\n        /* \"#utility.yul\":23374:23380   */\n      dup6\n        /* \"#utility.yul\":23330:23401   */\n      tag_332\n      jump\t// in\n    tag_621:\n        /* \"#utility.yul\":23448:23457   */\n      dup2\n        /* \"#utility.yul\":23442:23446   */\n      dup2\n        /* \"#utility.yul\":23438:23458   */\n      sub\n        /* \"#utility.yul\":23433:23435   */\n      0x20\n        /* \"#utility.yul\":23422:23431   */\n      dup4\n        /* \"#utility.yul\":23418:23436   */\n      add\n        /* \"#utility.yul\":23411:23459   */\n      mstore\n        /* \"#utility.yul\":23476:23584   */\n      tag_622\n        /* \"#utility.yul\":23579:23583   */\n      dup2\n        /* \"#utility.yul\":23570:23576   */\n      dup5\n        /* \"#utility.yul\":23476:23584   */\n      tag_360\n      jump\t// in\n    tag_622:\n        /* \"#utility.yul\":23468:23584   */\n      swap1\n      pop\n        /* \"#utility.yul\":23108:23591   */\n      swap4\n      swap3\n      pop\n      pop\n      pop\n      jump\t// out\n        /* \"#utility.yul\":23597:23695   */\n    tag_361:\n        /* \"#utility.yul\":23648:23654   */\n      0x00\n        /* \"#utility.yul\":23682:23687   */\n      dup2\n        /* \"#utility.yul\":23676:23688   */\n      mload\n        /* \"#utility.yul\":23666:23688   */\n      swap1\n      pop\n        /* \"#utility.yul\":23597:23695   */\n      swap2\n      swap1\n      pop\n      jump\t// out\n        /* \"#utility.yul\":23701:23848   */\n    tag_362:\n        /* \"#utility.yul\":23802:23813   */\n      0x00\n        /* \"#utility.yul\":23839:23842   */\n      dup2\n        /* \"#utility.yul\":23824:23842   */\n      swap1\n      pop\n        /* \"#utility.yul\":23701:23848   */\n      swap3\n      swap2\n      pop\n      pop\n      jump\t// out\n        /* \"#utility.yul\":23854:24100   */\n    tag_363:\n        /* \"#utility.yul\":23935:23936   */\n      0x00\n        /* \"#utility.yul\":23945:24058   */\n    tag_626:\n        /* \"#utility.yul\":23959:23965   */\n      dup4\n        /* \"#utility.yul\":23956:23957   */\n      dup2\n        /* \"#utility.yul\":23953:23966   */\n      lt\n        /* \"#utility.yul\":23945:24058   */\n      iszero\n      tag_628\n      jumpi\n        /* \"#utility.yul\":24044:24045   */\n      dup1\n        /* \"#utility.yul\":24039:24042   */\n      dup3\n        /* \"#utility.yul\":24035:24046   */\n      add\n        /* \"#utility.yul\":24029:24047   */\n      mload\n        /* \"#utility.yul\":24025:24026   */\n      dup2\n        /* \"#utility.yul\":24020:24023   */\n      dup5\n        /* \"#utility.yul\":24016:24027   */\n      add\n        /* \"#utility.yul\":24009:24048   */\n      mstore\n        /* \"#utility.yul\":23981:23983   */\n      0x20\n        /* \"#utility.yul\":23978:23979   */\n      dup2\n        /* \"#utility.yul\":23974:23984   */\n      add\n        /* \"#utility.yul\":23969:23984   */\n      swap1\n      pop\n        /* \"#utility.yul\":23945:24058   */\n      jump(tag_626)\n    tag_628:\n        /* \"#utility.yul\":24092:24093   */\n      0x00\n        /* \"#utility.yul\":24083:24089   */\n      dup5\n        /* \"#utility.yul\":24078:24081   */\n      dup5\n        /* \"#utility.yul\":24074:24090   */\n      add\n        /* \"#utility.yul\":24067:24094   */\n      mstore\n        /* \"#utility.yul\":23916:24100   */\n      pop\n        /* \"#utility.yul\":23854:24100   */\n      pop\n      pop\n      pop\n      jump\t// out\n        /* \"#utility.yul\":24106:24492   */\n    tag_364:\n        /* \"#utility.yul\":24210:24213   */\n      0x00\n        /* \"#utility.yul\":24238:24276   */\n      tag_630\n        /* \"#utility.yul\":24270:24275   */\n      dup3\n        /* \"#utility.yul\":24238:24276   */\n      tag_361\n      jump\t// in\n    tag_630:\n        /* \"#utility.yul\":24292:24380   */\n      tag_631\n        /* \"#utility.yul\":24373:24379   */\n      dup2\n        /* \"#utility.yul\":24368:24371   */\n      dup6\n        /* \"#utility.yul\":24292:24380   */\n      tag_362\n      jump\t// in\n    tag_631:\n        /* \"#utility.yul\":24285:24380   */\n      swap4\n      pop\n        /* \"#utility.yul\":24389:24454   */\n      tag_632\n        /* \"#utility.yul\":24447:24453   */\n      dup2\n        /* \"#utility.yul\":24442:24445   */\n      dup6\n        /* \"#utility.yul\":24435:24439   */\n      0x20\n        /* \"#utility.yul\":24428:24433   */\n      dup7\n        /* \"#utility.yul\":24424:24440   */\n      add\n        /* \"#utility.yul\":24389:24454   */\n      tag_363\n      jump\t// in\n    tag_632:\n        /* \"#utility.yul\":24479:24485   */\n      dup1\n        /* \"#utility.yul\":24474:24477   */\n      dup5\n        /* \"#utility.yul\":24470:24486   */\n      add\n        /* \"#utility.yul\":24463:24486   */\n      swap2\n      pop\n        /* \"#utility.yul\":24214:24492   */\n      pop\n        /* \"#utility.yul\":24106:24492   */\n      swap3\n      swap2\n      pop\n      pop\n      jump\t// out\n        /* \"#utility.yul\":24498:24769   */\n    tag_153:\n        /* \"#utility.yul\":24628:24631   */\n      0x00\n        /* \"#utility.yul\":24650:24743   */\n      tag_634\n        /* \"#utility.yul\":24739:24742   */\n      dup3\n        /* \"#utility.yul\":24730:24736   */\n      dup5\n        /* \"#utility.yul\":24650:24743   */\n      tag_364\n      jump\t// in\n    tag_634:\n        /* \"#utility.yul\":24643:24743   */\n      swap2\n      pop\n        /* \"#utility.yul\":24760:24763   */\n      dup2\n        /* \"#utility.yul\":24753:24763   */\n      swap1\n      pop\n        /* \"#utility.yul\":24498:24769   */\n      swap3\n      swap2\n      pop\n      pop\n      jump\t// out\n        /* \"#utility.yul\":24775:24969   */\n    tag_158:\n        /* \"#utility.yul\":24815:24819   */\n      0x00\n        /* \"#utility.yul\":24835:24855   */\n      tag_636\n        /* \"#utility.yul\":24853:24854   */\n      dup3\n        /* \"#utility.yul\":24835:24855   */\n      tag_311\n      jump\t// in\n    tag_636:\n        /* \"#utility.yul\":24830:24855   */\n      swap2\n      pop\n        /* \"#utility.yul\":24869:24889   */\n      tag_637\n        /* \"#utility.yul\":24887:24888   */\n      dup4\n        /* \"#utility.yul\":24869:24889   */\n      tag_311\n      jump\t// in\n    tag_637:\n        /* \"#utility.yul\":24864:24889   */\n      swap3\n      pop\n        /* \"#utility.yul\":24913:24914   */\n      dup3\n        /* \"#utility.yul\":24910:24911   */\n      dup3\n        /* \"#utility.yul\":24906:24915   */\n      sub\n        /* \"#utility.yul\":24898:24915   */\n      swap1\n      pop\n        /* \"#utility.yul\":24937:24938   */\n      dup2\n        /* \"#utility.yul\":24931:24935   */\n      dup2\n        /* \"#utility.yul\":24928:24939   */\n      gt\n        /* \"#utility.yul\":24925:24962   */\n      iszero\n      tag_638\n      jumpi\n        /* \"#utility.yul\":24942:24960   */\n      tag_639\n      tag_353\n      jump\t// in\n    tag_639:\n        /* \"#utility.yul\":24925:24962   */\n    tag_638:\n        /* \"#utility.yul\":24775:24969   */\n      swap3\n      swap2\n      pop\n      pop\n      jump\t// out\n        /* \"#utility.yul\":24975:25385   */\n    tag_160:\n        /* \"#utility.yul\":25015:25022   */\n      0x00\n        /* \"#utility.yul\":25038:25058   */\n      tag_641\n        /* \"#utility.yul\":25056:25057   */\n      dup3\n        /* \"#utility.yul\":25038:25058   */\n      tag_311\n      jump\t// in\n    tag_641:\n        /* \"#utility.yul\":25033:25058   */\n      swap2\n      pop\n        /* \"#utility.yul\":25072:25092   */\n      tag_642\n        /* \"#utility.yul\":25090:25091   */\n      dup4\n        /* \"#utility.yul\":25072:25092   */\n      tag_311\n      jump\t// in\n    tag_642:\n        /* \"#utility.yul\":25067:25092   */\n      swap3\n      pop\n        /* \"#utility.yul\":25127:25128   */\n      dup3\n        /* \"#utility.yul\":25124:25125   */\n      dup3\n        /* \"#utility.yul\":25120:25129   */\n      mul\n        /* \"#utility.yul\":25149:25179   */\n      tag_643\n        /* \"#utility.yul\":25167:25178   */\n      dup2\n        /* \"#utility.yul\":25149:25179   */\n      tag_311\n      jump\t// in\n    tag_643:\n        /* \"#utility.yul\":25138:25179   */\n      swap2\n      pop\n        /* \"#utility.yul\":25328:25329   */\n      dup3\n        /* \"#utility.yul\":25319:25326   */\n      dup3\n        /* \"#utility.yul\":25315:25330   */\n      div\n        /* \"#utility.yul\":25312:25313   */\n      dup5\n        /* \"#utility.yul\":25309:25331   */\n      eq\n        /* \"#utility.yul\":25289:25290   */\n      dup4\n        /* \"#utility.yul\":25282:25291   */\n      iszero\n        /* \"#utility.yul\":25262:25345   */\n      or\n        /* \"#utility.yul\":25239:25378   */\n      tag_644\n      jumpi\n        /* \"#utility.yul\":25358:25376   */\n      tag_645\n      tag_353\n      jump\t// in\n    tag_645:\n        /* \"#utility.yul\":25239:25378   */\n    tag_644:\n        /* \"#utility.yul\":25023:25385   */\n      pop\n        /* \"#utility.yul\":24975:25385   */\n      swap3\n      swap2\n      pop\n      pop\n      jump\t// out\n        /* \"#utility.yul\":25391:25582   */\n    tag_162:\n        /* \"#utility.yul\":25431:25434   */\n      0x00\n        /* \"#utility.yul\":25450:25470   */\n      tag_647\n        /* \"#utility.yul\":25468:25469   */\n      dup3\n        /* \"#utility.yul\":25450:25470   */\n      tag_311\n      jump\t// in\n    tag_647:\n        /* \"#utility.yul\":25445:25470   */\n      swap2\n      pop\n        /* \"#utility.yul\":25484:25504   */\n      tag_648\n        /* \"#utility.yul\":25502:25503   */\n      dup4\n        /* \"#utility.yul\":25484:25504   */\n      tag_311\n      jump\t// in\n    tag_648:\n        /* \"#utility.yul\":25479:25504   */\n      swap3\n      pop\n        /* \"#utility.yul\":25527:25528   */\n      dup3\n        /* \"#utility.yul\":25524:25525   */\n      dup3\n        /* \"#utility.yul\":25520:25529   */\n      add\n        /* \"#utility.yul\":25513:25529   */\n      swap1\n      pop\n        /* \"#utility.yul\":25548:25551   */\n      dup1\n        /* \"#utility.yul\":25545:25546   */\n      dup3\n        /* \"#utility.yul\":25542:25552   */\n      gt\n        /* \"#utility.yul\":25539:25575   */\n      iszero\n      tag_649\n      jumpi\n        /* \"#utility.yul\":25555:25573   */\n      tag_650\n      tag_353\n      jump\t// in\n    tag_650:\n        /* \"#utility.yul\":25539:25575   */\n    tag_649:\n        /* \"#utility.yul\":25391:25582   */\n      swap3\n      swap2\n      pop\n      pop\n      jump\t// out\n        /* \"#utility.yul\":25588:25804   */\n    tag_165:\n        /* \"#utility.yul\":25627:25631   */\n      0x00\n        /* \"#utility.yul\":25647:25666   */\n      tag_652\n        /* \"#utility.yul\":25664:25665   */\n      dup3\n        /* \"#utility.yul\":25647:25666   */\n      tag_324\n      jump\t// in\n    tag_652:\n        /* \"#utility.yul\":25642:25666   */\n      swap2\n      pop\n        /* \"#utility.yul\":25680:25699   */\n      tag_653\n        /* \"#utility.yul\":25697:25698   */\n      dup4\n        /* \"#utility.yul\":25680:25699   */\n      tag_324\n      jump\t// in\n    tag_653:\n        /* \"#utility.yul\":25675:25699   */\n      swap3\n      pop\n        /* \"#utility.yul\":25723:25724   */\n      dup3\n        /* \"#utility.yul\":25720:25721   */\n      dup3\n        /* \"#utility.yul\":25716:25725   */\n      sub\n        /* \"#utility.yul\":25708:25725   */\n      swap1\n      pop\n        /* \"#utility.yul\":25747:25773   */\n      0xffffffffffffffffffffffff\n        /* \"#utility.yul\":25741:25745   */\n      dup2\n        /* \"#utility.yul\":25738:25774   */\n      gt\n        /* \"#utility.yul\":25735:25797   */\n      iszero\n      tag_654\n      jumpi\n        /* \"#utility.yul\":25777:25795   */\n      tag_655\n      tag_353\n      jump\t// in\n    tag_655:\n        /* \"#utility.yul\":25735:25797   */\n    tag_654:\n        /* \"#utility.yul\":25588:25804   */\n      swap3\n      swap2\n      pop\n      pop\n      jump\t// out\n        /* \"#utility.yul\":25810:26236   */\n    tag_167:\n        /* \"#utility.yul\":25951:25955   */\n      0x00\n        /* \"#utility.yul\":25989:25991   */\n      0x60\n        /* \"#utility.yul\":25978:25987   */\n      dup3\n        /* \"#utility.yul\":25974:25992   */\n      add\n        /* \"#utility.yul\":25966:25992   */\n      swap1\n      pop\n        /* \"#utility.yul\":26002:26073   */\n      tag_657\n        /* \"#utility.yul\":26070:26071   */\n      0x00\n        /* \"#utility.yul\":26059:26068   */\n      dup4\n        /* \"#utility.yul\":26055:26072   */\n      add\n        /* \"#utility.yul\":26046:26052   */\n      dup7\n        /* \"#utility.yul\":26002:26073   */\n      tag_332\n      jump\t// in\n    tag_657:\n        /* \"#utility.yul\":26083:26153   */\n      tag_658\n        /* \"#utility.yul\":26149:26151   */\n      0x20\n        /* \"#utility.yul\":26138:26147   */\n      dup4\n        /* \"#utility.yul\":26134:26152   */\n      add\n        /* \"#utility.yul\":26125:26131   */\n      dup6\n        /* \"#utility.yul\":26083:26153   */\n      tag_325\n      jump\t// in\n    tag_658:\n        /* \"#utility.yul\":26163:26229   */\n      tag_659\n        /* \"#utility.yul\":26225:26227   */\n      0x40\n        /* \"#utility.yul\":26214:26223   */\n      dup4\n        /* \"#utility.yul\":26210:26228   */\n      add\n        /* \"#utility.yul\":26201:26207   */\n      dup5\n        /* \"#utility.yul\":26163:26229   */\n      tag_347\n      jump\t// in\n    tag_659:\n        /* \"#utility.yul\":25810:26236   */\n      swap5\n      swap4\n      pop\n      pop\n      pop\n      pop\n      jump\t// out\n        /* \"#utility.yul\":26242:26894   */\n    tag_179:\n        /* \"#utility.yul\":26441:26445   */\n      0x00\n        /* \"#utility.yul\":26479:26482   */\n      0xa0\n        /* \"#utility.yul\":26468:26477   */\n      dup3\n        /* \"#utility.yul\":26464:26483   */\n      add\n        /* \"#utility.yul\":26456:26483   */\n      swap1\n      pop\n        /* \"#utility.yul\":26493:26564   */\n      tag_661\n        /* \"#utility.yul\":26561:26562   */\n      0x00\n        /* \"#utility.yul\":26550:26559   */\n      dup4\n        /* \"#utility.yul\":26546:26563   */\n      add\n        /* \"#utility.yul\":26537:26543   */\n      dup9\n        /* \"#utility.yul\":26493:26564   */\n      tag_332\n      jump\t// in\n    tag_661:\n        /* \"#utility.yul\":26574:26646   */\n      tag_662\n        /* \"#utility.yul\":26642:26644   */\n      0x20\n        /* \"#utility.yul\":26631:26640   */\n      dup4\n        /* \"#utility.yul\":26627:26645   */\n      add\n        /* \"#utility.yul\":26618:26624   */\n      dup8\n        /* \"#utility.yul\":26574:26646   */\n      tag_332\n      jump\t// in\n    tag_662:\n        /* \"#utility.yul\":26656:26726   */\n      tag_663\n        /* \"#utility.yul\":26722:26724   */\n      0x40\n        /* \"#utility.yul\":26711:26720   */\n      dup4\n        /* \"#utility.yul\":26707:26725   */\n      add\n        /* \"#utility.yul\":26698:26704   */\n      dup7\n        /* \"#utility.yul\":26656:26726   */\n      tag_290\n      jump\t// in\n    tag_663:\n        /* \"#utility.yul\":26736:26806   */\n      tag_664\n        /* \"#utility.yul\":26802:26804   */\n      0x60\n        /* \"#utility.yul\":26791:26800   */\n      dup4\n        /* \"#utility.yul\":26787:26805   */\n      add\n        /* \"#utility.yul\":26778:26784   */\n      dup6\n        /* \"#utility.yul\":26736:26806   */\n      tag_292\n      jump\t// in\n    tag_664:\n        /* \"#utility.yul\":26816:26887   */\n      tag_665\n        /* \"#utility.yul\":26882:26885   */\n      0x80\n        /* \"#utility.yul\":26871:26880   */\n      dup4\n        /* \"#utility.yul\":26867:26886   */\n      add\n        /* \"#utility.yul\":26858:26864   */\n      dup5\n        /* \"#utility.yul\":26816:26887   */\n      tag_292\n      jump\t// in\n    tag_665:\n        /* \"#utility.yul\":26242:26894   */\n      swap7\n      swap6\n      pop\n      pop\n      pop\n      pop\n      pop\n      pop\n      jump\t// out\n        /* \"#utility.yul\":26900:27072   */\n    tag_365:\n        /* \"#utility.yul\":27040:27064   */\n      0x4d7573742062652070726f706f736564206f776e657200000000000000000000\n        /* \"#utility.yul\":27036:27037   */\n      0x00\n        /* \"#utility.yul\":27028:27034   */\n      dup3\n        /* \"#utility.yul\":27024:27038   */\n      add\n        /* \"#utility.yul\":27017:27065   */\n      mstore\n        /* \"#utility.yul\":26900:27072   */\n      pop\n      jump\t// out\n        /* \"#utility.yul\":27078:27444   */\n    tag_366:\n        /* \"#utility.yul\":27220:27223   */\n      0x00\n        /* \"#utility.yul\":27241:27308   */\n      tag_668\n        /* \"#utility.yul\":27305:27307   */\n      0x16\n        /* \"#utility.yul\":27300:27303   */\n      dup4\n        /* \"#utility.yul\":27241:27308   */\n      tag_348\n      jump\t// in\n    tag_668:\n        /* \"#utility.yul\":27234:27308   */\n      swap2\n      pop\n        /* \"#utility.yul\":27317:27410   */\n      tag_669\n        /* \"#utility.yul\":27406:27409   */\n      dup3\n        /* \"#utility.yul\":27317:27410   */\n      tag_365\n      jump\t// in\n    tag_669:\n        /* \"#utility.yul\":27435:27437   */\n      0x20\n        /* \"#utility.yul\":27430:27433   */\n      dup3\n        /* \"#utility.yul\":27426:27438   */\n      add\n        /* \"#utility.yul\":27419:27438   */\n      swap1\n      pop\n        /* \"#utility.yul\":27078:27444   */\n      swap2\n      swap1\n      pop\n      jump\t// out\n        /* \"#utility.yul\":27450:27869   */\n    tag_194:\n        /* \"#utility.yul\":27616:27620   */\n      0x00\n        /* \"#utility.yul\":27654:27656   */\n      0x20\n        /* \"#utility.yul\":27643:27652   */\n      dup3\n        /* \"#utility.yul\":27639:27657   */\n      add\n        /* \"#utility.yul\":27631:27657   */\n      swap1\n      pop\n        /* \"#utility.yul\":27703:27712   */\n      dup2\n        /* \"#utility.yul\":27697:27701   */\n      dup2\n        /* \"#utility.yul\":27693:27713   */\n      sub\n        /* \"#utility.yul\":27689:27690   */\n      0x00\n        /* \"#utility.yul\":27678:27687   */\n      dup4\n        /* \"#utility.yul\":27674:27691   */\n      add\n        /* \"#utility.yul\":27667:27714   */\n      mstore\n        /* \"#utility.yul\":27731:27862   */\n      tag_671\n        /* \"#utility.yul\":27857:27861   */\n      dup2\n        /* \"#utility.yul\":27731:27862   */\n      tag_366\n      jump\t// in\n    tag_671:\n        /* \"#utility.yul\":27723:27862   */\n      swap1\n      pop\n        /* \"#utility.yul\":27450:27869   */\n      swap2\n      swap1\n      pop\n      jump\t// out\n        /* \"#utility.yul\":27875:28055   */\n    tag_235:\n        /* \"#utility.yul\":27923:28000   */\n      0x4e487b7100000000000000000000000000000000000000000000000000000000\n        /* \"#utility.yul\":27920:27921   */\n      0x00\n        /* \"#utility.yul\":27913:28001   */\n      mstore\n        /* \"#utility.yul\":28020:28024   */\n      0x31\n        /* \"#utility.yul\":28017:28018   */\n      0x04\n        /* \"#utility.yul\":28010:28025   */\n      mstore\n        /* \"#utility.yul\":28044:28048   */\n      0x24\n        /* \"#utility.yul\":28041:28042   */\n      0x00\n        /* \"#utility.yul\":28034:28049   */\n      revert\n        /* \"#utility.yul\":28061:28244   */\n    tag_241:\n        /* \"#utility.yul\":28099:28102   */\n      0x00\n        /* \"#utility.yul\":28122:28145   */\n      tag_674\n        /* \"#utility.yul\":28139:28144   */\n      dup3\n        /* \"#utility.yul\":28122:28145   */\n      tag_304\n      jump\t// in\n    tag_674:\n        /* \"#utility.yul\":28113:28145   */\n      swap2\n      pop\n        /* \"#utility.yul\":28167:28185   */\n      0xffffffffffffffff\n        /* \"#utility.yul\":28160:28165   */\n      dup3\n        /* \"#utility.yul\":28157:28186   */\n      sub\n        /* \"#utility.yul\":28154:28209   */\n      tag_675\n      jumpi\n        /* \"#utility.yul\":28189:28207   */\n      tag_676\n      tag_353\n      jump\t// in\n    tag_676:\n        /* \"#utility.yul\":28154:28209   */\n    tag_675:\n        /* \"#utility.yul\":28236:28237   */\n      0x01\n        /* \"#utility.yul\":28229:28234   */\n      dup3\n        /* \"#utility.yul\":28225:28238   */\n      add\n        /* \"#utility.yul\":28218:28238   */\n      swap1\n      pop\n        /* \"#utility.yul\":28061:28244   */\n      swap2\n      swap1\n      pop\n      jump\t// out\n        /* \"#utility.yul\":28250:28463   */\n    tag_250:\n        /* \"#utility.yul\":28289:28292   */\n      0x00\n        /* \"#utility.yul\":28308:28327   */\n      tag_678\n        /* \"#utility.yul\":28325:28326   */\n      dup3\n        /* \"#utility.yul\":28308:28327   */\n      tag_324\n      jump\t// in\n    tag_678:\n        /* \"#utility.yul\":28303:28327   */\n      swap2\n      pop\n        /* \"#utility.yul\":28341:28360   */\n      tag_679\n        /* \"#utility.yul\":28358:28359   */\n      dup4\n        /* \"#utility.yul\":28341:28360   */\n      tag_324\n      jump\t// in\n    tag_679:\n        /* \"#utility.yul\":28336:28360   */\n      swap3\n      pop\n        /* \"#utility.yul\":28383:28384   */\n      dup3\n        /* \"#utility.yul\":28380:28381   */\n      dup3\n        /* \"#utility.yul\":28376:28385   */\n      add\n        /* \"#utility.yul\":28369:28385   */\n      swap1\n      pop\n        /* \"#utility.yul\":28406:28432   */\n      0xffffffffffffffffffffffff\n        /* \"#utility.yul\":28401:28404   */\n      dup2\n        /* \"#utility.yul\":28398:28433   */\n      gt\n        /* \"#utility.yul\":28395:28456   */\n      iszero\n      tag_680\n      jumpi\n        /* \"#utility.yul\":28436:28454   */\n      tag_681\n      tag_353\n      jump\t// in\n    tag_681:\n        /* \"#utility.yul\":28395:28456   */\n    tag_680:\n        /* \"#utility.yul\":28250:28463   */\n      swap3\n      swap2\n      pop\n      pop\n      jump\t// out\n        /* \"#utility.yul\":28469:28529   */\n    tag_367:\n        /* \"#utility.yul\":28497:28500   */\n      0x00\n        /* \"#utility.yul\":28518:28523   */\n      dup2\n        /* \"#utility.yul\":28511:28523   */\n      swap1\n      pop\n        /* \"#utility.yul\":28469:28529   */\n      swap2\n      swap1\n      pop\n      jump\t// out\n        /* \"#utility.yul\":28535:28675   */\n    tag_368:\n        /* \"#utility.yul\":28584:28593   */\n      0x00\n        /* \"#utility.yul\":28617:28669   */\n      tag_684\n        /* \"#utility.yul\":28635:28668   */\n      tag_685\n        /* \"#utility.yul\":28644:28667   */\n      tag_686\n        /* \"#utility.yul\":28661:28666   */\n      dup5\n        /* \"#utility.yul\":28644:28667   */\n      tag_324\n      jump\t// in\n    tag_686:\n        /* \"#utility.yul\":28635:28668   */\n      tag_367\n      jump\t// in\n    tag_685:\n        /* \"#utility.yul\":28617:28669   */\n      tag_311\n      jump\t// in\n    tag_684:\n        /* \"#utility.yul\":28604:28669   */\n      swap1\n      pop\n        /* \"#utility.yul\":28535:28675   */\n      swap2\n      swap1\n      pop\n      jump\t// out\n        /* \"#utility.yul\":28681:28810   */\n    tag_369:\n        /* \"#utility.yul\":28767:28803   */\n      tag_688\n        /* \"#utility.yul\":28797:28802   */\n      dup2\n        /* \"#utility.yul\":28767:28803   */\n      tag_368\n      jump\t// in\n    tag_688:\n        /* \"#utility.yul\":28762:28765   */\n      dup3\n        /* \"#utility.yul\":28755:28804   */\n      mstore\n        /* \"#utility.yul\":28681:28810   */\n      pop\n      pop\n      jump\t// out\n        /* \"#utility.yul\":28816:29144   */\n    tag_253:\n        /* \"#utility.yul\":28935:28939   */\n      0x00\n        /* \"#utility.yul\":28973:28975   */\n      0x40\n        /* \"#utility.yul\":28962:28971   */\n      dup3\n        /* \"#utility.yul\":28958:28976   */\n      add\n        /* \"#utility.yul\":28950:28976   */\n      swap1\n      pop\n        /* \"#utility.yul\":28986:29056   */\n      tag_690\n        /* \"#utility.yul\":29053:29054   */\n      0x00\n        /* \"#utility.yul\":29042:29051   */\n      dup4\n        /* \"#utility.yul\":29038:29055   */\n      add\n        /* \"#utility.yul\":29029:29035   */\n      dup6\n        /* \"#utility.yul\":28986:29056   */\n      tag_369\n      jump\t// in\n    tag_690:\n        /* \"#utility.yul\":29066:29137   */\n      tag_691\n        /* \"#utility.yul\":29133:29135   */\n      0x20\n        /* \"#utility.yul\":29122:29131   */\n      dup4\n        /* \"#utility.yul\":29118:29136   */\n      add\n        /* \"#utility.yul\":29109:29115   */\n      dup5\n        /* \"#utility.yul\":29066:29137   */\n      tag_369\n      jump\t// in\n    tag_691:\n        /* \"#utility.yul\":28816:29144   */\n      swap4\n      swap3\n      pop\n      pop\n      pop\n      jump\t// out\n        /* \"#utility.yul\":29150:29480   */\n    tag_263:\n        /* \"#utility.yul\":29270:29274   */\n      0x00\n        /* \"#utility.yul\":29308:29310   */\n      0x40\n        /* \"#utility.yul\":29297:29306   */\n      dup3\n        /* \"#utility.yul\":29293:29311   */\n      add\n        /* \"#utility.yul\":29285:29311   */\n      swap1\n      pop\n        /* \"#utility.yul\":29321:29392   */\n      tag_693\n        /* \"#utility.yul\":29389:29390   */\n      0x00\n        /* \"#utility.yul\":29378:29387   */\n      dup4\n        /* \"#utility.yul\":29374:29391   */\n      add\n        /* \"#utility.yul\":29365:29371   */\n      dup6\n        /* \"#utility.yul\":29321:29392   */\n      tag_335\n      jump\t// in\n    tag_693:\n        /* \"#utility.yul\":29402:29473   */\n      tag_694\n        /* \"#utility.yul\":29469:29471   */\n      0x20\n        /* \"#utility.yul\":29458:29467   */\n      dup4\n        /* \"#utility.yul\":29454:29472   */\n      add\n        /* \"#utility.yul\":29445:29451   */\n      dup5\n        /* \"#utility.yul\":29402:29473   */\n      tag_369\n      jump\t// in\n    tag_694:\n        /* \"#utility.yul\":29150:29480   */\n      swap4\n      swap3\n      pop\n      pop\n      pop\n      jump\t// out\n        /* \"#utility.yul\":29486:29658   */\n    tag_370:\n        /* \"#utility.yul\":29626:29650   */\n      0x4f6e6c792063616c6c61626c65206279206f776e657200000000000000000000\n        /* \"#utility.yul\":29622:29623   */\n      0x00\n        /* \"#utility.yul\":29614:29620   */\n      dup3\n        /* \"#utility.yul\":29610:29624   */\n      add\n        /* \"#utility.yul\":29603:29651   */\n      mstore\n        /* \"#utility.yul\":29486:29658   */\n      pop\n      jump\t// out\n        /* \"#utility.yul\":29664:30030   */\n    tag_371:\n        /* \"#utility.yul\":29806:29809   */\n      0x00\n        /* \"#utility.yul\":29827:29894   */\n      tag_697\n        /* \"#utility.yul\":29891:29893   */\n      0x16\n        /* \"#utility.yul\":29886:29889   */\n      dup4\n        /* \"#utility.yul\":29827:29894   */\n      tag_348\n      jump\t// in\n    tag_697:\n        /* \"#utility.yul\":29820:29894   */\n      swap2\n      pop\n        /* \"#utility.yul\":29903:29996   */\n      tag_698\n        /* \"#utility.yul\":29992:29995   */\n      dup3\n        /* \"#utility.yul\":29903:29996   */\n      tag_370\n      jump\t// in\n    tag_698:\n        /* \"#utility.yul\":30021:30023   */\n      0x20\n        /* \"#utility.yul\":30016:30019   */\n      dup3\n        /* \"#utility.yul\":30012:30024   */\n      add\n        /* \"#utility.yul\":30005:30024   */\n      swap1\n      pop\n        /* \"#utility.yul\":29664:30030   */\n      swap2\n      swap1\n      pop\n      jump\t// out\n        /* \"#utility.yul\":30036:30455   */\n    tag_284:\n        /* \"#utility.yul\":30202:30206   */\n      0x00\n        /* \"#utility.yul\":30240:30242   */\n      0x20\n        /* \"#utility.yul\":30229:30238   */\n      dup3\n        /* \"#utility.yul\":30225:30243   */\n      add\n        /* \"#utility.yul\":30217:30243   */\n      swap1\n      pop\n        /* \"#utility.yul\":30289:30298   */\n      dup2\n        /* \"#utility.yul\":30283:30287   */\n      dup2\n        /* \"#utility.yul\":30279:30299   */\n      sub\n        /* \"#utility.yul\":30275:30276   */\n      0x00\n        /* \"#utility.yul\":30264:30273   */\n      dup4\n        /* \"#utility.yul\":30260:30277   */\n      add\n        /* \"#utility.yul\":30253:30300   */\n      mstore\n        /* \"#utility.yul\":30317:30448   */\n      tag_700\n        /* \"#utility.yul\":30443:30447   */\n      dup2\n        /* \"#utility.yul\":30317:30448   */\n      tag_371\n      jump\t// in\n    tag_700:\n        /* \"#utility.yul\":30309:30448   */\n      swap1\n      pop\n        /* \"#utility.yul\":30036:30455   */\n      swap2\n      swap1\n      pop\n      jump\t// out\n        /* \"#utility.yul\":30461:30634   */\n    tag_372:\n        /* \"#utility.yul\":30601:30626   */\n      0x43616e6e6f74207472616e7366657220746f2073656c66000000000000000000\n        /* \"#utility.yul\":30597:30598   */\n      0x00\n        /* \"#utility.yul\":30589:30595   */\n      dup3\n        /* \"#utility.yul\":30585:30599   */\n      add\n        /* \"#utility.yul\":30578:30627   */\n      mstore\n        /* \"#utility.yul\":30461:30634   */\n      pop\n      jump\t// out\n        /* \"#utility.yul\":30640:31006   */\n    tag_373:\n        /* \"#utility.yul\":30782:30785   */\n      0x00\n        /* \"#utility.yul\":30803:30870   */\n      tag_703\n        /* \"#utility.yul\":30867:30869   */\n      0x17\n        /* \"#utility.yul\":30862:30865   */\n      dup4\n        /* \"#utility.yul\":30803:30870   */\n      tag_348\n      jump\t// in\n    tag_703:\n        /* \"#utility.yul\":30796:30870   */\n      swap2\n      pop\n        /* \"#utility.yul\":30879:30972   */\n      tag_704\n        /* \"#utility.yul\":30968:30971   */\n      dup3\n        /* \"#utility.yul\":30879:30972   */\n      tag_372\n      jump\t// in\n    tag_704:\n        /* \"#utility.yul\":30997:30999   */\n      0x20\n        /* \"#utility.yul\":30992:30995   */\n      dup3\n        /* \"#utility.yul\":30988:31000   */\n      add\n        /* \"#utility.yul\":30981:31000   */\n      swap1\n      pop\n        /* \"#utility.yul\":30640:31006   */\n      swap2\n      swap1\n      pop\n      jump\t// out\n        /* \"#utility.yul\":31012:31431   */\n    tag_288:\n        /* \"#utility.yul\":31178:31182   */\n      0x00\n        /* \"#utility.yul\":31216:31218   */\n      0x20\n        /* \"#utility.yul\":31205:31214   */\n      dup3\n        /* \"#utility.yul\":31201:31219   */\n      add\n        /* \"#utility.yul\":31193:31219   */\n      swap1\n      pop\n        /* \"#utility.yul\":31265:31274   */\n      dup2\n        /* \"#utility.yul\":31259:31263   */\n      dup2\n        /* \"#utility.yul\":31255:31275   */\n      sub\n        /* \"#utility.yul\":31251:31252   */\n      0x00\n        /* \"#utility.yul\":31240:31249   */\n      dup4\n        /* \"#utility.yul\":31236:31253   */\n      add\n        /* \"#utility.yul\":31229:31276   */\n      mstore\n        /* \"#utility.yul\":31293:31424   */\n      tag_706\n        /* \"#utility.yul\":31419:31423   */\n      dup2\n        /* \"#utility.yul\":31293:31424   */\n      tag_373\n      jump\t// in\n    tag_706:\n        /* \"#utility.yul\":31285:31424   */\n      swap1\n      pop\n        /* \"#utility.yul\":31012:31431   */\n      swap2\n      swap1\n      pop\n      jump\t// out\n\n    auxdata: 0xa2646970667358221220099844908efcf978919f7b91aabc6b8fe99025e643358ca494ecde599064e11a64736f6c63430008140033\n}\n",
				"bytecode": {
					"linkReferences": {},
					"object": "60e0604052606461ffff1660c09061ffff16815250600160045560646005553480156200002a575f80fd5b50604051620037fe380380620037fe833981810160405281019062000050919062000426565b33805f8073ffffffffffffffffffffffffffffffffffffffff168273ffffffffffffffffffffffffffffffffffffffff1603620000c4576040517f08c379a0000000000000000000000000000000000000000000000000000000008152600401620000bb90620004c9565b60405180910390fd5b815f806101000a81548173ffffffffffffffffffffffffffffffffffffffff021916908373ffffffffffffffffffffffffffffffffffffffff1602179055505f73ffffffffffffffffffffffffffffffffffffffff168173ffffffffffffffffffffffffffffffffffffffff161462000149576200014881620001ac60201b60201c565b5b505050816bffffffffffffffffffffffff166080816bffffffffffffffffffffffff1681525050806bffffffffffffffffffffffff1660a0816bffffffffffffffffffffffff1681525050620001a4620002d960201b60201c565b5050620005c5565b3373ffffffffffffffffffffffffffffffffffffffff168173ffffffffffffffffffffffffffffffffffffffff16036200021d576040517f08c379a0000000000000000000000000000000000000000000000000000000008152600401620002149062000537565b60405180910390fd5b8060015f6101000a81548173ffffffffffffffffffffffffffffffffffffffff021916908373ffffffffffffffffffffffffffffffffffffffff1602179055508073ffffffffffffffffffffffffffffffffffffffff165f8054906101000a900473ffffffffffffffffffffffffffffffffffffffff1673ffffffffffffffffffffffffffffffffffffffff167fed8889f560326eb138920d842192f0eb3dd22b4f139c87a2c57538e05bae127860405160405180910390a350565b620002e96200034a60201b60201c565b60405180602001604052805f151581525060025f820151815f015f6101000a81548160ff0219169083151502179055509050507f4b2974a542484cba2783812ff8033f7fc682cac2fe0905c28c5e27869b3155be60405160405180910390a1565b5f8054906101000a900473ffffffffffffffffffffffffffffffffffffffff1673ffffffffffffffffffffffffffffffffffffffff163373ffffffffffffffffffffffffffffffffffffffff1614620003da576040517f08c379a0000000000000000000000000000000000000000000000000000000008152600401620003d190620005a5565b60405180910390fd5b565b5f80fd5b5f6bffffffffffffffffffffffff82169050919050565b6200040281620003e0565b81146200040d575f80fd5b50565b5f815190506200042081620003f7565b92915050565b5f80604083850312156200043f576200043e620003dc565b5b5f6200044e8582860162000410565b9250506020620004618582860162000410565b9150509250929050565b5f82825260208201905092915050565b7f43616e6e6f7420736574206f776e657220746f207a65726f00000000000000005f82015250565b5f620004b16018836200046b565b9150620004be826200047b565b602082019050919050565b5f6020820190508181035f830152620004e281620004a3565b9050919050565b7f43616e6e6f74207472616e7366657220746f2073656c660000000000000000005f82015250565b5f6200051f6017836200046b565b91506200052c82620004e9565b602082019050919050565b5f6020820190508181035f830152620005508162000511565b9050919050565b7f4f6e6c792063616c6c61626c65206279206f776e6572000000000000000000005f82015250565b5f6200058d6016836200046b565b91506200059a8262000557565b602082019050919050565b5f6020820190508181035f830152620005be816200057f565b9050919050565b60805160a05160c0516131f9620006055f395f8181610d6a0152610eae01525f8181610832015261185101525f81816108770152610a7701526131f95ff3fe608060405234801561000f575f80fd5b5060043610610155575f3560e01c80638b673e7a116100c1578063afc69b531161007a578063afc69b5314610372578063c3f909d41461038e578063d7ae1d30146103af578063e82ad7d4146103cb578063ed5eb06d146103fb578063f2fde38b1461042b57610155565b80638b673e7a146102bf5780638da5cb5b146102c95780639f87fad7146102e7578063a21a23e414610303578063a410347f14610321578063a47c76961461033f57610155565b80635fbbc0d2116101135780635fbbc0d21461021d57806364d51a2a146102435780637341c10c1461026157806379ba50971461027d578063808974ff1461028757806382359740146102a357610155565b80620122911461015957806304c357cb1461017957806308e3898e14610195578063356dac71146101b15780633d18651e146101cf5780635d3b1d30146101ed575b5f80fd5b610161610447565b604051610170939291906122cc565b60405180910390f35b610193600480360381019061018e91906123b0565b6104a5565b005b6101af60048036038101906101aa9190612571565b6104e0565b005b6101b9610a67565b6040516101c691906125f5565b60405180910390f35b6101d7610a75565b6040516101e49190612634565b60405180910390f35b610207600480360381019061020291906126cb565b610a99565b6040516102149190612751565b60405180910390f35b610225610d30565b60405161023a99989796959493929190612787565b60405180910390f35b61024b610d68565b6040516102589190612812565b60405180910390f35b61027b600480360381019061027691906123b0565b610d8c565b005b61028561100b565b005b6102a1600480360381019061029c919061282b565b61119a565b005b6102bd60048036038101906102b89190612869565b611239565b005b6102c7611274565b005b6102d16112dd565b6040516102de91906128a3565b60405180910390f35b61030160048036038101906102fc91906123b0565b611304565b005b61030b6116a0565b60405161031891906128cb565b60405180910390f35b61032961184f565b6040516103369190612634565b60405180910390f35b61035960048036038101906103549190612869565b611873565b604051610369949392919061299b565b60405180910390f35b61038c60048036038101906103879190612a0f565b611a64565b005b610396611c22565b6040516103a69493929190612a4d565b60405180910390f35b6103c960048036038101906103c491906123b0565b611c40565b005b6103e560048036038101906103e09190612869565b611e9c565b6040516103f29190612aaa565b60405180910390f35b610415600480360381019061041091906123b0565b611ed8565b6040516104229190612aaa565b60405180910390f35b61044560048036038101906104409190612ac3565b612005565b005b5f8060606003621e84805f67ffffffffffffffff81111561046b5761046a612435565b5b6040519080825280602002602001820160405280156104995781602001602082028036833780820191505090505b50925092509250909192565b6040517f08c379a00000000000000000000000000000000000000000000000000000000081526004016104d790612b48565b60405180910390fd5b5f5a90505f60085f8681526020019081526020015f205f015f9054906101000a900467ffffffffffffffff1667ffffffffffffffff1603610556576040517f08c379a000000000000000000000000000000000000000000000000000000000815260040161054d90612bb0565b60405180910390fd5b5f60085f8681526020019081526020015f206040518060600160405290815f82015f9054906101000a900467ffffffffffffffff1667ffffffffffffffff1667ffffffffffffffff1681526020015f820160089054906101000a900463ffffffff1663ffffffff1663ffffffff1681526020015f8201600c9054906101000a900463ffffffff1663ffffffff1663ffffffff168152505090505f8351036106c357806040015163ffffffff1667ffffffffffffffff81111561061b5761061a612435565b5b6040519080825280602002602001820160405280156106495781602001602082028036833780820191505090505b5092505f5b816040015163ffffffff168110156106bd578581604051602001610673929190612bce565b604051602081830303815290604052805190602001205f1c84828151811061069e5761069d612bf5565b5b60200260200101818152505080806106b590612c4f565b91505061064e565b50610708565b806040015163ffffffff16835114610707576040517f3f3df5b600000000000000000000000000000000000000000000000000000000815260040160405180910390fd5b5b5f80631fe543e360e01b8786604051602401610725929190612d4d565b604051602081830303815290604052907bffffffffffffffffffffffffffffffffffffffffffffffffffffffff19166020820180517bffffffffffffffffffffffffffffffffffffffffffffffffffffffff83818316178352505050509050600160025f015f6101000a81548160ff0219169083151502179055505f8673ffffffffffffffffffffffffffffffffffffffff16846020015163ffffffff16836040516107d19190612de7565b5f604051808303815f8787f1925050503d805f811461080b576040519150601f19603f3d011682016040523d82523d5f602084013e610810565b606091505b505090505f60025f015f6101000a81548160ff0219169083151502179055505f7f00000000000000000000000000000000000000000000000000000000000000006bffffffffffffffffffffffff165a8761086b9190612dfd565b6108759190612e30565b7f00000000000000000000000000000000000000000000000000000000000000006bffffffffffffffffffffffff166108ae9190612e71565b9050806bffffffffffffffffffffffff1660065f875f015167ffffffffffffffff1667ffffffffffffffff1681526020019081526020015f205f0160149054906101000a90046bffffffffffffffffffffffff166bffffffffffffffffffffffff161015610948576040517ff4d678b800000000000000000000000000000000000000000000000000000000815260040160405180910390fd5b8060065f875f015167ffffffffffffffff1667ffffffffffffffff1681526020019081526020015f205f0160148282829054906101000a90046bffffffffffffffffffffffff166109999190612ea4565b92506101000a8154816bffffffffffffffffffffffff02191690836bffffffffffffffffffffffff16021790555060085f8a81526020019081526020015f205f8082015f6101000a81549067ffffffffffffffff02191690555f820160086101000a81549063ffffffff02191690555f8201600c6101000a81549063ffffffff02191690555050887f7dffc5ae5ee4e2e4df1651cf6ad329a73cebdb728f37ea0187b9b17e036756e48a8385604051610a5493929190612ee3565b60405180910390a2505050505050505050565b5f660e35fa931a0000905090565b7f000000000000000000000000000000000000000000000000000000000000000081565b5f60025f015f9054906101000a900460ff1615610ae2576040517fed3ba6a600000000000000000000000000000000000000000000000000000000815260040160405180910390fd5b8433610aee8282611ed8565b610b24576040517f71e8313700000000000000000000000000000000000000000000000000000000815260040160405180910390fd5b5f73ffffffffffffffffffffffffffffffffffffffff1660065f8967ffffffffffffffff1667ffffffffffffffff1681526020019081526020015f205f015f9054906101000a900473ffffffffffffffffffffffffffffffffffffffff1673ffffffffffffffffffffffffffffffffffffffff1603610bcf576040517f1f6a65b600000000000000000000000000000000000000000000000000000000815260040160405180910390fd5b5f60045f815480929190610be290612c4f565b9190505590505f60055f815480929190610bfb90612c4f565b91905055905060405180606001604052808a67ffffffffffffffff1681526020018863ffffffff1681526020018763ffffffff1681525060085f8481526020019081526020015f205f820151815f015f6101000a81548167ffffffffffffffff021916908367ffffffffffffffff1602179055506020820151815f0160086101000a81548163ffffffff021916908363ffffffff1602179055506040820151815f01600c6101000a81548163ffffffff021916908363ffffffff1602179055509050503373ffffffffffffffffffffffffffffffffffffffff168967ffffffffffffffff168b7f63373d1c4696214b898952999c9aaec57dac1ee2723cec59bea6888f489a977285858d8d8d604051610d18959493929190612f18565b60405180910390a48194505050505095945050505050565b5f805f805f805f805f620186a080620186a080620186a05f805f80985098509850985098509850985098509850909192939495969798565b7f000000000000000000000000000000000000000000000000000000000000000081565b815f60065f8367ffffffffffffffff1667ffffffffffffffff1681526020019081526020015f205f015f9054906101000a900473ffffffffffffffffffffffffffffffffffffffff1690505f73ffffffffffffffffffffffffffffffffffffffff168173ffffffffffffffffffffffffffffffffffffffff1603610e3c576040517f1f6a65b600000000000000000000000000000000000000000000000000000000815260040160405180910390fd5b8073ffffffffffffffffffffffffffffffffffffffff163373ffffffffffffffffffffffffffffffffffffffff1614610eac57806040517fd8a3fb52000000000000000000000000000000000000000000000000000000008152600401610ea391906128a3565b60405180910390fd5b7f000000000000000000000000000000000000000000000000000000000000000061ffff1660075f8667ffffffffffffffff1667ffffffffffffffff1681526020019081526020015f208054905003610f31576040517f05a48e0f00000000000000000000000000000000000000000000000000000000815260040160405180910390fd5b610f3b8484611ed8565b6110055760075f8567ffffffffffffffff1667ffffffffffffffff1681526020019081526020015f2083908060018154018082558091505060019003905f5260205f20015f9091909190916101000a81548173ffffffffffffffffffffffffffffffffffffffff021916908373ffffffffffffffffffffffffffffffffffffffff1602179055508367ffffffffffffffff167f752ead9f4536ec1319ee3a5a604e1d65eded22e0924251552ba14ae4faa1bbc384604051610ffc91906128a3565b60405180910390a25b50505050565b60015f9054906101000a900473ffffffffffffffffffffffffffffffffffffffff1673ffffffffffffffffffffffffffffffffffffffff163373ffffffffffffffffffffffffffffffffffffffff161461109a576040517f08c379a000000000000000000000000000000000000000000000000000000000815260040161109190612fb3565b60405180910390fd5b5f805f9054906101000a900473ffffffffffffffffffffffffffffffffffffffff169050335f806101000a81548173ffffffffffffffffffffffffffffffffffffffff021916908373ffffffffffffffffffffffffffffffffffffffff1602179055505f60015f6101000a81548173ffffffffffffffffffffffffffffffffffffffff021916908373ffffffffffffffffffffffffffffffffffffffff1602179055503373ffffffffffffffffffffffffffffffffffffffff168173ffffffffffffffffffffffffffffffffffffffff167f8be0079c531659141344cd1fd0a4f28419497f9722a3daafe3b4186f6b6457e060405160405180910390a350565b60025f015f9054906101000a900460ff16156111e2576040517fed3ba6a600000000000000000000000000000000000000000000000000000000815260040160405180910390fd5b61123582825f67ffffffffffffffff81111561120157611200612435565b5b60405190808252806020026020018201604052801561122f5781602001602082028036833780820191505090505b506104e0565b5050565b6040517f08c379a000000000000000000000000000000000000000000000000000000000815260040161126b90612b48565b60405180910390fd5b61127c612019565b60405180602001604052805f151581525060025f820151815f015f6101000a81548160ff0219169083151502179055509050507f4b2974a542484cba2783812ff8033f7fc682cac2fe0905c28c5e27869b3155be60405160405180910390a1565b5f805f9054906101000a900473ffffffffffffffffffffffffffffffffffffffff16905090565b815f60065f8367ffffffffffffffff1667ffffffffffffffff1681526020019081526020015f205f015f9054906101000a900473ffffffffffffffffffffffffffffffffffffffff1690505f73ffffffffffffffffffffffffffffffffffffffff168173ffffffffffffffffffffffffffffffffffffffff16036113b4576040517f1f6a65b600000000000000000000000000000000000000000000000000000000815260040160405180910390fd5b8073ffffffffffffffffffffffffffffffffffffffff163373ffffffffffffffffffffffffffffffffffffffff161461142457806040517fd8a3fb5200000000000000000000000000000000000000000000000000000000815260040161141b91906128a3565b60405180910390fd5b83836114308282611ed8565b611466576040517f71e8313700000000000000000000000000000000000000000000000000000000815260040160405180910390fd5b60025f015f9054906101000a900460ff16156114ae576040517fed3ba6a600000000000000000000000000000000000000000000000000000000815260040160405180910390fd5b5f60075f8867ffffffffffffffff1667ffffffffffffffff1681526020019081526020015f2090505f5b8180549050811015611654578673ffffffffffffffffffffffffffffffffffffffff1682828154811061150e5761150d612bf5565b5b905f5260205f20015f9054906101000a900473ffffffffffffffffffffffffffffffffffffffff1673ffffffffffffffffffffffffffffffffffffffff1603611641575f82600184805490506115649190612dfd565b8154811061157557611574612bf5565b5b905f5260205f20015f9054906101000a900473ffffffffffffffffffffffffffffffffffffffff169050808383815481106115b3576115b2612bf5565b5b905f5260205f20015f6101000a81548173ffffffffffffffffffffffffffffffffffffffff021916908373ffffffffffffffffffffffffffffffffffffffff1602179055508280548061160957611608612fd1565b5b600190038181905f5260205f20015f6101000a81549073ffffffffffffffffffffffffffffffffffffffff0219169055905550611654565b808061164c90612c4f565b9150506114d8565b508667ffffffffffffffff167ff9bc9d5b5733d904409def43a5ecc888dbdac9a95687780d8fd489d3bb3813fc8760405161168f91906128a3565b60405180910390a250505050505050565b5f60035f81819054906101000a900467ffffffffffffffff16809291906116c690612ffe565b91906101000a81548167ffffffffffffffff021916908367ffffffffffffffff1602179055505060405180604001604052803373ffffffffffffffffffffffffffffffffffffffff1681526020015f6bffffffffffffffffffffffff1681525060065f60035f9054906101000a900467ffffffffffffffff1667ffffffffffffffff1667ffffffffffffffff1681526020019081526020015f205f820151815f015f6101000a81548173ffffffffffffffffffffffffffffffffffffffff021916908373ffffffffffffffffffffffffffffffffffffffff1602179055506020820151815f0160146101000a8154816bffffffffffffffffffffffff02191690836bffffffffffffffffffffffff16021790555090505060035f9054906101000a900467ffffffffffffffff1667ffffffffffffffff167f464722b4166576d3dcbba877b999bc35cf911f4eaf434b7eba68fa113951d0bf3360405161182c91906128a3565b60405180910390a260035f9054906101000a900467ffffffffffffffff16905090565b7f000000000000000000000000000000000000000000000000000000000000000081565b5f805f60605f73ffffffffffffffffffffffffffffffffffffffff1660065f8767ffffffffffffffff1667ffffffffffffffff1681526020019081526020015f205f015f9054906101000a900473ffffffffffffffffffffffffffffffffffffffff1673ffffffffffffffffffffffffffffffffffffffff1603611923576040517f1f6a65b600000000000000000000000000000000000000000000000000000000815260040160405180910390fd5b60065f8667ffffffffffffffff1667ffffffffffffffff1681526020019081526020015f205f0160149054906101000a90046bffffffffffffffffffffffff165f60065f8867ffffffffffffffff1667ffffffffffffffff1681526020019081526020015f205f015f9054906101000a900473ffffffffffffffffffffffffffffffffffffffff1660075f8967ffffffffffffffff1667ffffffffffffffff1681526020019081526020015f2080805480602002602001604051908101604052809291908181526020018280548015611a4e57602002820191905f5260205f20905b815f9054906101000a900473ffffffffffffffffffffffffffffffffffffffff1673ffffffffffffffffffffffffffffffffffffffff1681526020019060010190808311611a05575b5050505050905093509350935093509193509193565b5f73ffffffffffffffffffffffffffffffffffffffff1660065f8467ffffffffffffffff1667ffffffffffffffff1681526020019081526020015f205f015f9054906101000a900473ffffffffffffffffffffffffffffffffffffffff1673ffffffffffffffffffffffffffffffffffffffff1603611b0f576040517f1f6a65b600000000000000000000000000000000000000000000000000000000815260040160405180910390fd5b5f60065f8467ffffffffffffffff1667ffffffffffffffff1681526020019081526020015f205f0160149054906101000a90046bffffffffffffffffffffffff1690508160065f8567ffffffffffffffff1667ffffffffffffffff1681526020019081526020015f205f0160148282829054906101000a90046bffffffffffffffffffffffff16611ba0919061302d565b92506101000a8154816bffffffffffffffffffffffff02191690836bffffffffffffffffffffffff1602179055508267ffffffffffffffff167fd39ec07f4e209f627a4c427971473820dc129761ba28de8906bd56f57101d4f8828484611c07919061302d565b604051611c159291906130a5565b60405180910390a2505050565b5f805f806004622625a0610a8c618205935093509350935090919293565b815f60065f8367ffffffffffffffff1667ffffffffffffffff1681526020019081526020015f205f015f9054906101000a900473ffffffffffffffffffffffffffffffffffffffff1690505f73ffffffffffffffffffffffffffffffffffffffff168173ffffffffffffffffffffffffffffffffffffffff1603611cf0576040517f1f6a65b600000000000000000000000000000000000000000000000000000000815260040160405180910390fd5b8073ffffffffffffffffffffffffffffffffffffffff163373ffffffffffffffffffffffffffffffffffffffff1614611d6057806040517fd8a3fb52000000000000000000000000000000000000000000000000000000008152600401611d5791906128a3565b60405180910390fd5b60025f015f9054906101000a900460ff1615611da8576040517fed3ba6a600000000000000000000000000000000000000000000000000000000815260040160405180910390fd5b8367ffffffffffffffff167fe8ed5b475a5b5987aa9165e8731bb78043f39eee32ec5a1169a89e27fcd498158460065f8867ffffffffffffffff1667ffffffffffffffff1681526020019081526020015f205f0160149054906101000a90046bffffffffffffffffffffffff16604051611e239291906130cc565b60405180910390a260065f8567ffffffffffffffff1667ffffffffffffffff1681526020019081526020015f205f8082015f6101000a81549073ffffffffffffffffffffffffffffffffffffffff02191690555f820160146101000a8154906bffffffffffffffffffffffff0219169055505050505050565b5f6040517f08c379a0000000000000000000000000000000000000000000000000000000008152600401611ecf90612b48565b60405180910390fd5b5f8060075f8567ffffffffffffffff1667ffffffffffffffff1681526020019081526020015f20805480602002602001604051908101604052809291908181526020018280548015611f7c57602002820191905f5260205f20905b815f9054906101000a900473ffffffffffffffffffffffffffffffffffffffff1673ffffffffffffffffffffffffffffffffffffffff1681526020019060010190808311611f33575b505050505090505f5b8151811015611ff9578373ffffffffffffffffffffffffffffffffffffffff16828281518110611fb857611fb7612bf5565b5b602002602001015173ffffffffffffffffffffffffffffffffffffffff1603611fe657600192505050611fff565b8080611ff190612c4f565b915050611f85565b505f9150505b92915050565b61200d612019565b612016816120a8565b50565b5f8054906101000a900473ffffffffffffffffffffffffffffffffffffffff1673ffffffffffffffffffffffffffffffffffffffff163373ffffffffffffffffffffffffffffffffffffffff16146120a6576040517f08c379a000000000000000000000000000000000000000000000000000000000815260040161209d9061313d565b60405180910390fd5b565b3373ffffffffffffffffffffffffffffffffffffffff168173ffffffffffffffffffffffffffffffffffffffff1603612116576040517f08c379a000000000000000000000000000000000000000000000000000000000815260040161210d906131a5565b60405180910390fd5b8060015f6101000a81548173ffffffffffffffffffffffffffffffffffffffff021916908373ffffffffffffffffffffffffffffffffffffffff1602179055508073ffffffffffffffffffffffffffffffffffffffff165f8054906101000a900473ffffffffffffffffffffffffffffffffffffffff1673ffffffffffffffffffffffffffffffffffffffff167fed8889f560326eb138920d842192f0eb3dd22b4f139c87a2c57538e05bae127860405160405180910390a350565b5f61ffff82169050919050565b6121e8816121d2565b82525050565b5f63ffffffff82169050919050565b612206816121ee565b82525050565b5f81519050919050565b5f82825260208201905092915050565b5f819050602082019050919050565b5f819050919050565b61224781612235565b82525050565b5f612258838361223e565b60208301905092915050565b5f602082019050919050565b5f61227a8261220c565b6122848185612216565b935061228f83612226565b805f5b838110156122bf5781516122a6888261224d565b97506122b183612264565b925050600181019050612292565b5085935050505092915050565b5f6060820190506122df5f8301866121df565b6122ec60208301856121fd565b81810360408301526122fe8184612270565b9050949350505050565b5f604051905090565b5f80fd5b5f80fd5b5f67ffffffffffffffff82169050919050565b61233581612319565b811461233f575f80fd5b50565b5f813590506123508161232c565b92915050565b5f73ffffffffffffffffffffffffffffffffffffffff82169050919050565b5f61237f82612356565b9050919050565b61238f81612375565b8114612399575f80fd5b50565b5f813590506123aa81612386565b92915050565b5f80604083850312156123c6576123c5612311565b5b5f6123d385828601612342565b92505060206123e48582860161239c565b9150509250929050565b5f819050919050565b612400816123ee565b811461240a575f80fd5b50565b5f8135905061241b816123f7565b92915050565b5f80fd5b5f601f19601f8301169050919050565b7f4e487b71000000000000000000000000000000000000000000000000000000005f52604160045260245ffd5b61246b82612425565b810181811067ffffffffffffffff8211171561248a57612489612435565b5b80604052505050565b5f61249c612308565b90506124a88282612462565b919050565b5f67ffffffffffffffff8211156124c7576124c6612435565b5b602082029050602081019050919050565b5f80fd5b5f6124ee6124e9846124ad565b612493565b90508083825260208201905060208402830185811115612511576125106124d8565b5b835b8181101561253a5780612526888261240d565b845260208401935050602081019050612513565b5050509392505050565b5f82601f83011261255857612557612421565b5b81356125688482602086016124dc565b91505092915050565b5f805f6060848603121561258857612587612311565b5b5f6125958682870161240d565b93505060206125a68682870161239c565b925050604084013567ffffffffffffffff8111156125c7576125c6612315565b5b6125d386828701612544565b9150509250925092565b5f819050919050565b6125ef816125dd565b82525050565b5f6020820190506126085f8301846125e6565b92915050565b5f6bffffffffffffffffffffffff82169050919050565b61262e8161260e565b82525050565b5f6020820190506126475f830184612625565b92915050565b61265681612235565b8114612660575f80fd5b50565b5f813590506126718161264d565b92915050565b612680816121d2565b811461268a575f80fd5b50565b5f8135905061269b81612677565b92915050565b6126aa816121ee565b81146126b4575f80fd5b50565b5f813590506126c5816126a1565b92915050565b5f805f805f60a086880312156126e4576126e3612311565b5b5f6126f188828901612663565b955050602061270288828901612342565b94505060406127138882890161268d565b9350506060612724888289016126b7565b9250506080612735888289016126b7565b9150509295509295909350565b61274b816123ee565b82525050565b5f6020820190506127645f830184612742565b92915050565b5f62ffffff82169050919050565b6127818161276a565b82525050565b5f6101208201905061279b5f83018c6121fd565b6127a8602083018b6121fd565b6127b5604083018a6121fd565b6127c260608301896121fd565b6127cf60808301886121fd565b6127dc60a0830187612778565b6127e960c0830186612778565b6127f660e0830185612778565b612804610100830184612778565b9a9950505050505050505050565b5f6020820190506128255f8301846121df565b92915050565b5f806040838503121561284157612840612311565b5b5f61284e8582860161240d565b925050602061285f8582860161239c565b9150509250929050565b5f6020828403121561287e5761287d612311565b5b5f61288b84828501612342565b91505092915050565b61289d81612375565b82525050565b5f6020820190506128b65f830184612894565b92915050565b6128c581612319565b82525050565b5f6020820190506128de5f8301846128bc565b92915050565b5f81519050919050565b5f82825260208201905092915050565b5f819050602082019050919050565b61291681612375565b82525050565b5f612927838361290d565b60208301905092915050565b5f602082019050919050565b5f612949826128e4565b61295381856128ee565b935061295e836128fe565b805f5b8381101561298e578151612975888261291c565b975061298083612933565b925050600181019050612961565b5085935050505092915050565b5f6080820190506129ae5f830187612625565b6129bb60208301866128bc565b6129c86040830185612894565b81810360608301526129da818461293f565b905095945050505050565b6129ee8161260e565b81146129f8575f80fd5b50565b5f81359050612a09816129e5565b92915050565b5f8060408385031215612a2557612a24612311565b5b5f612a3285828601612342565b9250506020612a43858286016129fb565b9150509250929050565b5f608082019050612a605f8301876121df565b612a6d60208301866121fd565b612a7a60408301856121fd565b612a8760608301846121fd565b95945050505050565b5f8115159050919050565b612aa481612a90565b82525050565b5f602082019050612abd5f830184612a9b565b92915050565b5f60208284031215612ad857612ad7612311565b5b5f612ae58482850161239c565b91505092915050565b5f82825260208201905092915050565b7f6e6f7420696d706c656d656e74656400000000000000000000000000000000005f82015250565b5f612b32600f83612aee565b9150612b3d82612afe565b602082019050919050565b5f6020820190508181035f830152612b5f81612b26565b9050919050565b7f6e6f6e6578697374656e742072657175657374000000000000000000000000005f82015250565b5f612b9a601383612aee565b9150612ba582612b66565b602082019050919050565b5f6020820190508181035f830152612bc781612b8e565b9050919050565b5f604082019050612be15f830185612742565b612bee6020830184612742565b9392505050565b7f4e487b71000000000000000000000000000000000000000000000000000000005f52603260045260245ffd5b7f4e487b71000000000000000000000000000000000000000000000000000000005f52601160045260245ffd5b5f612c59826123ee565b91507fffffffffffffffffffffffffffffffffffffffffffffffffffffffffffffffff8203612c8b57612c8a612c22565b5b600182019050919050565b5f81519050919050565b5f82825260208201905092915050565b5f819050602082019050919050565b612cc8816123ee565b82525050565b5f612cd98383612cbf565b60208301905092915050565b5f602082019050919050565b5f612cfb82612c96565b612d058185612ca0565b9350612d1083612cb0565b805f5b83811015612d40578151612d278882612cce565b9750612d3283612ce5565b925050600181019050612d13565b5085935050505092915050565b5f604082019050612d605f830185612742565b8181036020830152612d728184612cf1565b90509392505050565b5f81519050919050565b5f81905092915050565b5f5b83811015612dac578082015181840152602081019050612d91565b5f8484015250505050565b5f612dc182612d7b565b612dcb8185612d85565b9350612ddb818560208601612d8f565b80840191505092915050565b5f612df28284612db7565b915081905092915050565b5f612e07826123ee565b9150612e12836123ee565b9250828203905081811115612e2a57612e29612c22565b5b92915050565b5f612e3a826123ee565b9150612e45836123ee565b9250828202612e53816123ee565b91508282048414831517612e6a57612e69612c22565b5b5092915050565b5f612e7b826123ee565b9150612e86836123ee565b9250828201905080821115612e9e57612e9d612c22565b5b92915050565b5f612eae8261260e565b9150612eb98361260e565b925082820390506bffffffffffffffffffffffff811115612edd57612edc612c22565b5b92915050565b5f606082019050612ef65f830186612742565b612f036020830185612625565b612f106040830184612a9b565b949350505050565b5f60a082019050612f2b5f830188612742565b612f386020830187612742565b612f4560408301866121df565b612f5260608301856121fd565b612f5f60808301846121fd565b9695505050505050565b7f4d7573742062652070726f706f736564206f776e6572000000000000000000005f82015250565b5f612f9d601683612aee565b9150612fa882612f69565b602082019050919050565b5f6020820190508181035f830152612fca81612f91565b9050919050565b7f4e487b71000000000000000000000000000000000000000000000000000000005f52603160045260245ffd5b5f61300882612319565b915067ffffffffffffffff820361302257613021612c22565b5b600182019050919050565b5f6130378261260e565b91506130428361260e565b925082820190506bffffffffffffffffffffffff81111561306657613065612c22565b5b92915050565b5f819050919050565b5f61308f61308a6130858461260e565b61306c565b6123ee565b9050919050565b61309f81613075565b82525050565b5f6040820190506130b85f830185613096565b6130c56020830184613096565b9392505050565b5f6040820190506130df5f830185612894565b6130ec6020830184613096565b9392505050565b7f4f6e6c792063616c6c61626c65206279206f776e6572000000000000000000005f82015250565b5f613127601683612aee565b9150613132826130f3565b602082019050919050565b5f6020820190508181035f8301526131548161311b565b9050919050565b7f43616e6e6f74207472616e7366657220746f2073656c660000000000000000005f82015250565b5f61318f601783612aee565b915061319a8261315b565b602082019050919050565b5f6020820190508181035f8301526131bc81613183565b905091905056fea2646970667358221220099844908efcf978919f7b91aabc6b8fe99025e643358ca494ecde599064e11a64736f6c63430008140033",
					"opcodes": "PUSH1 0xE0 PUSH1 0x40 MSTORE PUSH1 0x64 PUSH2 0xFFFF AND PUSH1 0xC0 SWAP1 PUSH2 0xFFFF AND DUP2 MSTORE POP PUSH1 0x1 PUSH1 0x4 SSTORE PUSH1 0x64 PUSH1 0x5 SSTORE CALLVALUE DUP1 ISZERO PUSH3 0x2A JUMPI PUSH0 DUP1 REVERT JUMPDEST POP PUSH1 0x40 MLOAD PUSH3 0x37FE CODESIZE SUB DUP1 PUSH3 0x37FE DUP4 CODECOPY DUP2 DUP2 ADD PUSH1 0x40 MSTORE DUP2 ADD SWAP1 PUSH3 0x50 SWAP2 SWAP1 PUSH3 0x426 JUMP JUMPDEST CALLER DUP1 PUSH0 DUP1 PUSH20 0xFFFFFFFFFFFFFFFFFFFFFFFFFFFFFFFFFFFFFFFF AND DUP3 PUSH20 0xFFFFFFFFFFFFFFFFFFFFFFFFFFFFFFFFFFFFFFFF AND SUB PUSH3 0xC4 JUMPI PUSH1 0x40 MLOAD PUSH32 0x8C379A000000000000000000000000000000000000000000000000000000000 DUP2 MSTORE PUSH1 0x4 ADD PUSH3 0xBB SWAP1 PUSH3 0x4C9 JUMP JUMPDEST PUSH1 0x40 MLOAD DUP1 SWAP2 SUB SWAP1 REVERT JUMPDEST DUP2 PUSH0 DUP1 PUSH2 0x100 EXP DUP2 SLOAD DUP2 PUSH20 0xFFFFFFFFFFFFFFFFFFFFFFFFFFFFFFFFFFFFFFFF MUL NOT AND SWAP1 DUP4 PUSH20 0xFFFFFFFFFFFFFFFFFFFFFFFFFFFFFFFFFFFFFFFF AND MUL OR SWAP1 SSTORE POP PUSH0 PUSH20 0xFFFFFFFFFFFFFFFFFFFFFFFFFFFFFFFFFFFFFFFF AND DUP2 PUSH20 0xFFFFFFFFFFFFFFFFFFFFFFFFFFFFFFFFFFFFFFFF AND EQ PUSH3 0x149 JUMPI PUSH3 0x148 DUP2 PUSH3 0x1AC PUSH1 0x20 SHL PUSH1 0x20 SHR JUMP JUMPDEST JUMPDEST POP POP POP DUP2 PUSH12 0xFFFFFFFFFFFFFFFFFFFFFFFF AND PUSH1 0x80 DUP2 PUSH12 0xFFFFFFFFFFFFFFFFFFFFFFFF AND DUP2 MSTORE POP POP DUP1 PUSH12 0xFFFFFFFFFFFFFFFFFFFFFFFF AND PUSH1 0xA0 DUP2 PUSH12 0xFFFFFFFFFFFFFFFFFFFFFFFF AND DUP2 MSTORE POP POP PUSH3 0x1A4 PUSH3 0x2D9 PUSH1 0x20 SHL PUSH1 0x20 SHR JUMP JUMPDEST POP POP PUSH3 0x5C5 JUMP JUMPDEST CALLER PUSH20 0xFFFFFFFFFFFFFFFFFFFFFFFFFFFFFFFFFFFFFFFF AND DUP2 PUSH20 0xFFFFFFFFFFFFFFFFFFFFFFFFFFFFFFFFFFFFFFFF AND SUB PUSH3 0x21D JUMPI PUSH1 0x40 MLOAD PUSH32 0x8C379A000000000000000000000000000000000000000000000000000000000 DUP2 MSTORE PUSH1 0x4 ADD PUSH3 0x214 SWAP1 PUSH3 0x537 JUMP JUMPDEST PUSH1 0x40 MLOAD DUP1 SWAP2 SUB SWAP1 REVERT JUMPDEST DUP1 PUSH1 0x1 PUSH0 PUSH2 0x100 EXP DUP2 SLOAD DUP2 PUSH20 0xFFFFFFFFFFFFFFFFFFFFFFFFFFFFFFFFFFFFFFFF MUL NOT AND SWAP1 DUP4 PUSH20 0xFFFFFFFFFFFFFFFFFFFFFFFFFFFFFFFFFFFFFFFF AND MUL OR SWAP1 SSTORE POP DUP1 PUSH20 0xFFFFFFFFFFFFFFFFFFFFFFFFFFFFFFFFFFFFFFFF AND PUSH0 DUP1 SLOAD SWAP1 PUSH2 0x100 EXP SWAP1 DIV PUSH20 0xFFFFFFFFFFFFFFFFFFFFFFFFFFFFFFFFFFFFFFFF AND PUSH20 0xFFFFFFFFFFFFFFFFFFFFFFFFFFFFFFFFFFFFFFFF AND PUSH32 0xED8889F560326EB138920D842192F0EB3DD22B4F139C87A2C57538E05BAE1278 PUSH1 0x40 MLOAD PUSH1 0x40 MLOAD DUP1 SWAP2 SUB SWAP1 LOG3 POP JUMP JUMPDEST PUSH3 0x2E9 PUSH3 0x34A PUSH1 0x20 SHL PUSH1 0x20 SHR JUMP JUMPDEST PUSH1 0x40 MLOAD DUP1 PUSH1 0x20 ADD PUSH1 0x40 MSTORE DUP1 PUSH0 ISZERO ISZERO DUP2 MSTORE POP PUSH1 0x2 PUSH0 DUP3 ADD MLOAD DUP2 PUSH0 ADD PUSH0 PUSH2 0x100 EXP DUP2 SLOAD DUP2 PUSH1 0xFF MUL NOT AND SWAP1 DUP4 ISZERO ISZERO MUL OR SWAP1 SSTORE POP SWAP1 POP POP PUSH32 0x4B2974A542484CBA2783812FF8033F7FC682CAC2FE0905C28C5E27869B3155BE PUSH1 0x40 MLOAD PUSH1 0x40 MLOAD DUP1 SWAP2 SUB SWAP1 LOG1 JUMP JUMPDEST PUSH0 DUP1 SLOAD SWAP1 PUSH2 0x100 EXP SWAP1 DIV PUSH20 0xFFFFFFFFFFFFFFFFFFFFFFFFFFFFFFFFFFFFFFFF AND PUSH20 0xFFFFFFFFFFFFFFFFFFFFFFFFFFFFFFFFFFFFFFFF AND CALLER PUSH20 0xFFFFFFFFFFFFFFFFFFFFFFFFFFFFFFFFFFFFFFFF AND EQ PUSH3 0x3DA JUMPI PUSH1 0x40 MLOAD PUSH32 0x8C379A000000000000000000000000000000000000000000000000000000000 DUP2 MSTORE PUSH1 0x4 ADD PUSH3 0x3D1 SWAP1 PUSH3 0x5A5 JUMP JUMPDEST PUSH1 0x40 MLOAD DUP1 SWAP2 SUB SWAP1 REVERT JUMPDEST JUMP JUMPDEST PUSH0 DUP1 REVERT JUMPDEST PUSH0 PUSH12 0xFFFFFFFFFFFFFFFFFFFFFFFF DUP3 AND SWAP1 POP SWAP2 SWAP1 POP JUMP JUMPDEST PUSH3 0x402 DUP2 PUSH3 0x3E0 JUMP JUMPDEST DUP2 EQ PUSH3 0x40D JUMPI PUSH0 DUP1 REVERT JUMPDEST POP JUMP JUMPDEST PUSH0 DUP2 MLOAD SWAP1 POP PUSH3 0x420 DUP2 PUSH3 0x3F7 JUMP JUMPDEST SWAP3 SWAP2 POP POP JUMP JUMPDEST PUSH0 DUP1 PUSH1 0x40 DUP4 DUP6 SUB SLT ISZERO PUSH3 0x43F JUMPI PUSH3 0x43E PUSH3 0x3DC JUMP JUMPDEST JUMPDEST PUSH0 PUSH3 0x44E DUP6 DUP3 DUP7 ADD PUSH3 0x410 JUMP JUMPDEST SWAP3 POP POP PUSH1 0x20 PUSH3 0x461 DUP6 DUP3 DUP7 ADD PUSH3 0x410 JUMP JUMPDEST SWAP2 POP POP SWAP3 POP SWAP3 SWAP1 POP JUMP JUMPDEST PUSH0 DUP3 DUP3 MSTORE PUSH1 0x20 DUP3 ADD SWAP1 POP SWAP3 SWAP2 POP POP JUMP JUMPDEST PUSH32 0x43616E6E6F7420736574206F776E657220746F207A65726F0000000000000000 PUSH0 DUP3 ADD MSTORE POP JUMP JUMPDEST PUSH0 PUSH3 0x4B1 PUSH1 0x18 DUP4 PUSH3 0x46B JUMP JUMPDEST SWAP2 POP PUSH3 0x4BE DUP3 PUSH3 0x47B JUMP JUMPDEST PUSH1 0x20 DUP3 ADD SWAP1 POP SWAP2 SWAP1 POP JUMP JUMPDEST PUSH0 PUSH1 0x20 DUP3 ADD SWAP1 POP DUP2 DUP2 SUB PUSH0 DUP4 ADD MSTORE PUSH3 0x4E2 DUP2 PUSH3 0x4A3 JUMP JUMPDEST SWAP1 POP SWAP2 SWAP1 POP JUMP JUMPDEST PUSH32 0x43616E6E6F74207472616E7366657220746F2073656C66000000000000000000 PUSH0 DUP3 ADD MSTORE POP JUMP JUMPDEST PUSH0 PUSH3 0x51F PUSH1 0x17 DUP4 PUSH3 0x46B JUMP JUMPDEST SWAP2 POP PUSH3 0x52C DUP3 PUSH3 0x4E9 JUMP JUMPDEST PUSH1 0x20 DUP3 ADD SWAP1 POP SWAP2 SWAP1 POP JUMP JUMPDEST PUSH0 PUSH1 0x20 DUP3 ADD SWAP1 POP DUP2 DUP2 SUB PUSH0 DUP4 ADD MSTORE PUSH3 0x550 DUP2 PUSH3 0x511 JUMP JUMPDEST SWAP1 POP SWAP2 SWAP1 POP JUMP JUMPDEST PUSH32 0x4F6E6C792063616C6C61626C65206279206F776E657200000000000000000000 PUSH0 DUP3 ADD MSTORE POP JUMP JUMPDEST PUSH0 PUSH3 0x58D PUSH1 0x16 DUP4 PUSH3 0x46B JUMP JUMPDEST SWAP2 POP PUSH3 0x59A DUP3 PUSH3 0x557 JUMP JUMPDEST PUSH1 0x20 DUP3 ADD SWAP1 POP SWAP2 SWAP1 POP JUMP JUMPDEST PUSH0 PUSH1 0x20 DUP3 ADD SWAP1 POP DUP2 DUP2 SUB PUSH0 DUP4 ADD MSTORE PUSH3 0x5BE DUP2 PUSH3 0x57F JUMP JUMPDEST SWAP1 POP SWAP2 SWAP1 POP JUMP JUMPDEST PUSH1 0x80 MLOAD PUSH1 0xA0 MLOAD PUSH1 0xC0 MLOAD PUSH2 0x31F9 PUSH3 0x605 PUSH0 CODECOPY PUSH0 DUP2 DUP2 PUSH2 0xD6A ADD MSTORE PUSH2 0xEAE ADD MSTORE PUSH0 DUP2 DUP2 PUSH2 0x832 ADD MSTORE PUSH2 0x1851 ADD MSTORE PUSH0 DUP2 DUP2 PUSH2 0x877 ADD MSTORE PUSH2 0xA77 ADD MSTORE PUSH2 0x31F9 PUSH0 RETURN INVALID PUSH1 0x80 PUSH1 0x40 MSTORE CALLVALUE DUP1 ISZERO PUSH2 0xF JUMPI PUSH0 DUP1 REVERT JUMPDEST POP PUSH1 0x4 CALLDATASIZE LT PUSH2 0x155 JUMPI PUSH0 CALLDATALOAD PUSH1 0xE0 SHR DUP1 PUSH4 0x8B673E7A GT PUSH2 0xC1 JUMPI DUP1 PUSH4 0xAFC69B53 GT PUSH2 0x7A JUMPI DUP1 PUSH4 0xAFC69B53 EQ PUSH2 0x372 JUMPI DUP1 PUSH4 0xC3F909D4 EQ PUSH2 0x38E JUMPI DUP1 PUSH4 0xD7AE1D30 EQ PUSH2 0x3AF JUMPI DUP1 PUSH4 0xE82AD7D4 EQ PUSH2 0x3CB JUMPI DUP1 PUSH4 0xED5EB06D EQ PUSH2 0x3FB JUMPI DUP1 PUSH4 0xF2FDE38B EQ PUSH2 0x42B JUMPI PUSH2 0x155 JUMP JUMPDEST DUP1 PUSH4 0x8B673E7A EQ PUSH2 0x2BF JUMPI DUP1 PUSH4 0x8DA5CB5B EQ PUSH2 0x2C9 JUMPI DUP1 PUSH4 0x9F87FAD7 EQ PUSH2 0x2E7 JUMPI DUP1 PUSH4 0xA21A23E4 EQ PUSH2 0x303 JUMPI DUP1 PUSH4 0xA410347F EQ PUSH2 0x321 JUMPI DUP1 PUSH4 0xA47C7696 EQ PUSH2 0x33F JUMPI PUSH2 0x155 JUMP JUMPDEST DUP1 PUSH4 0x5FBBC0D2 GT PUSH2 0x113 JUMPI DUP1 PUSH4 0x5FBBC0D2 EQ PUSH2 0x21D JUMPI DUP1 PUSH4 0x64D51A2A EQ PUSH2 0x243 JUMPI DUP1 PUSH4 0x7341C10C EQ PUSH2 0x261 JUMPI DUP1 PUSH4 0x79BA5097 EQ PUSH2 0x27D JUMPI DUP1 PUSH4 0x808974FF EQ PUSH2 0x287 JUMPI DUP1 PUSH4 0x82359740 EQ PUSH2 0x2A3 JUMPI PUSH2 0x155 JUMP JUMPDEST DUP1 PUSH3 0x12291 EQ PUSH2 0x159 JUMPI DUP1 PUSH4 0x4C357CB EQ PUSH2 0x179 JUMPI DUP1 PUSH4 0x8E3898E EQ PUSH2 0x195 JUMPI DUP1 PUSH4 0x356DAC71 EQ PUSH2 0x1B1 JUMPI DUP1 PUSH4 0x3D18651E EQ PUSH2 0x1CF JUMPI DUP1 PUSH4 0x5D3B1D30 EQ PUSH2 0x1ED JUMPI JUMPDEST PUSH0 DUP1 REVERT JUMPDEST PUSH2 0x161 PUSH2 0x447 JUMP JUMPDEST PUSH1 0x40 MLOAD PUSH2 0x170 SWAP4 SWAP3 SWAP2 SWAP1 PUSH2 0x22CC JUMP JUMPDEST PUSH1 0x40 MLOAD DUP1 SWAP2 SUB SWAP1 RETURN JUMPDEST PUSH2 0x193 PUSH1 0x4 DUP1 CALLDATASIZE SUB DUP2 ADD SWAP1 PUSH2 0x18E SWAP2 SWAP1 PUSH2 0x23B0 JUMP JUMPDEST PUSH2 0x4A5 JUMP JUMPDEST STOP JUMPDEST PUSH2 0x1AF PUSH1 0x4 DUP1 CALLDATASIZE SUB DUP2 ADD SWAP1 PUSH2 0x1AA SWAP2 SWAP1 PUSH2 0x2571 JUMP JUMPDEST PUSH2 0x4E0 JUMP JUMPDEST STOP JUMPDEST PUSH2 0x1B9 PUSH2 0xA67 JUMP JUMPDEST PUSH1 0x40 MLOAD PUSH2 0x1C6 SWAP2 SWAP1 PUSH2 0x25F5 JUMP JUMPDEST PUSH1 0x40 MLOAD DUP1 SWAP2 SUB SWAP1 RETURN JUMPDEST PUSH2 0x1D7 PUSH2 0xA75 JUMP JUMPDEST PUSH1 0x40 MLOAD PUSH2 0x1E4 SWAP2 SWAP1 PUSH2 0x2634 JUMP JUMPDEST PUSH1 0x40 MLOAD DUP1 SWAP2 SUB SWAP1 RETURN JUMPDEST PUSH2 0x207 PUSH1 0x4 DUP1 CALLDATASIZE SUB DUP2 ADD SWAP1 PUSH2 0x202 SWAP2 SWAP1 PUSH2 0x26CB JUMP JUMPDEST PUSH2 0xA99 JUMP JUMPDEST PUSH1 0x40 MLOAD PUSH2 0x214 SWAP2 SWAP1 PUSH2 0x2751 JUMP JUMPDEST PUSH1 0x40 MLOAD DUP1 SWAP2 SUB SWAP1 RETURN JUMPDEST PUSH2 0x225 PUSH2 0xD30 JUMP JUMPDEST PUSH1 0x40 MLOAD PUSH2 0x23A SWAP10 SWAP9 SWAP8 SWAP7 SWAP6 SWAP5 SWAP4 SWAP3 SWAP2 SWAP1 PUSH2 0x2787 JUMP JUMPDEST PUSH1 0x40 MLOAD DUP1 SWAP2 SUB SWAP1 RETURN JUMPDEST PUSH2 0x24B PUSH2 0xD68 JUMP JUMPDEST PUSH1 0x40 MLOAD PUSH2 0x258 SWAP2 SWAP1 PUSH2 0x2812 JUMP JUMPDEST PUSH1 0x40 MLOAD DUP1 SWAP2 SUB SWAP1 RETURN JUMPDEST PUSH2 0x27B PUSH1 0x4 DUP1 CALLDATASIZE SUB DUP2 ADD SWAP1 PUSH2 0x276 SWAP2 SWAP1 PUSH2 0x23B0 JUMP JUMPDEST PUSH2 0xD8C JUMP JUMPDEST STOP JUMPDEST PUSH2 0x285 PUSH2 0x100B JUMP JUMPDEST STOP JUMPDEST PUSH2 0x2A1 PUSH1 0x4 DUP1 CALLDATASIZE SUB DUP2 ADD SWAP1 PUSH2 0x29C SWAP2 SWAP1 PUSH2 0x282B JUMP JUMPDEST PUSH2 0x119A JUMP JUMPDEST STOP JUMPDEST PUSH2 0x2BD PUSH1 0x4 DUP1 CALLDATASIZE SUB DUP2 ADD SWAP1 PUSH2 0x2B8 SWAP2 SWAP1 PUSH2 0x2869 JUMP JUMPDEST PUSH2 0x1239 JUMP JUMPDEST STOP JUMPDEST PUSH2 0x2C7 PUSH2 0x1274 JUMP JUMPDEST STOP JUMPDEST PUSH2 0x2D1 PUSH2 0x12DD JUMP JUMPDEST PUSH1 0x40 MLOAD PUSH2 0x2DE SWAP2 SWAP1 PUSH2 0x28A3 JUMP JUMPDEST PUSH1 0x40 MLOAD DUP1 SWAP2 SUB SWAP1 RETURN JUMPDEST PUSH2 0x301 PUSH1 0x4 DUP1 CALLDATASIZE SUB DUP2 ADD SWAP1 PUSH2 0x2FC SWAP2 SWAP1 PUSH2 0x23B0 JUMP JUMPDEST PUSH2 0x1304 JUMP JUMPDEST STOP JUMPDEST PUSH2 0x30B PUSH2 0x16A0 JUMP JUMPDEST PUSH1 0x40 MLOAD PUSH2 0x318 SWAP2 SWAP1 PUSH2 0x28CB JUMP JUMPDEST PUSH1 0x40 MLOAD DUP1 SWAP2 SUB SWAP1 RETURN JUMPDEST PUSH2 0x329 PUSH2 0x184F JUMP JUMPDEST PUSH1 0x40 MLOAD PUSH2 0x336 SWAP2 SWAP1 PUSH2 0x2634 JUMP JUMPDEST PUSH1 0x40 MLOAD DUP1 SWAP2 SUB SWAP1 RETURN JUMPDEST PUSH2 0x359 PUSH1 0x4 DUP1 CALLDATASIZE SUB DUP2 ADD SWAP1 PUSH2 0x354 SWAP2 SWAP1 PUSH2 0x2869 JUMP JUMPDEST PUSH2 0x1873 JUMP JUMPDEST PUSH1 0x40 MLOAD PUSH2 0x369 SWAP5 SWAP4 SWAP3 SWAP2 SWAP1 PUSH2 0x299B JUMP JUMPDEST PUSH1 0x40 MLOAD DUP1 SWAP2 SUB SWAP1 RETURN JUMPDEST PUSH2 0x38C PUSH1 0x4 DUP1 CALLDATASIZE SUB DUP2 ADD SWAP1 PUSH2 0x387 SWAP2 SWAP1 PUSH2 0x2A0F JUMP JUMPDEST PUSH2 0x1A64 JUMP JUMPDEST STOP JUMPDEST PUSH2 0x396 PUSH2 0x1C22 JUMP JUMPDEST PUSH1 0x40 MLOAD PUSH2 0x3A6 SWAP5 SWAP4 SWAP3 SWAP2 SWAP1 PUSH2 0x2A4D JUMP JUMPDEST PUSH1 0x40 MLOAD DUP1 SWAP2 SUB SWAP1 RETURN JUMPDEST PUSH2 0x3C9 PUSH1 0x4 DUP1 CALLDATASIZE SUB DUP2 ADD SWAP1 PUSH2 0x3C4 SWAP2 SWAP1 PUSH2 0x23B0 JUMP JUMPDEST PUSH2 0x1C40 JUMP JUMPDEST STOP JUMPDEST PUSH2 0x3E5 PUSH1 0x4 DUP1 CALLDATASIZE SUB DUP2 ADD SWAP1 PUSH2 0x3E0 SWAP2 SWAP1 PUSH2 0x2869 JUMP JUMPDEST PUSH2 0x1E9C JUMP JUMPDEST PUSH1 0x40 MLOAD PUSH2 0x3F2 SWAP2 SWAP1 PUSH2 0x2AAA JUMP JUMPDEST PUSH1 0x40 MLOAD DUP1 SWAP2 SUB SWAP1 RETURN JUMPDEST PUSH2 0x415 PUSH1 0x4 DUP1 CALLDATASIZE SUB DUP2 ADD SWAP1 PUSH2 0x410 SWAP2 SWAP1 PUSH2 0x23B0 JUMP JUMPDEST PUSH2 0x1ED8 JUMP JUMPDEST PUSH1 0x40 MLOAD PUSH2 0x422 SWAP2 SWAP1 PUSH2 0x2AAA JUMP JUMPDEST PUSH1 0x40 MLOAD DUP1 SWAP2 SUB SWAP1 RETURN JUMPDEST PUSH2 0x445 PUSH1 0x4 DUP1 CALLDATASIZE SUB DUP2 ADD SWAP1 PUSH2 0x440 SWAP2 SWAP1 PUSH2 0x2AC3 JUMP JUMPDEST PUSH2 0x2005 JUMP JUMPDEST STOP JUMPDEST PUSH0 DUP1 PUSH1 0x60 PUSH1 0x3 PUSH3 0x1E8480 PUSH0 PUSH8 0xFFFFFFFFFFFFFFFF DUP2 GT ISZERO PUSH2 0x46B JUMPI PUSH2 0x46A PUSH2 0x2435 JUMP JUMPDEST JUMPDEST PUSH1 0x40 MLOAD SWAP1 DUP1 DUP3 MSTORE DUP1 PUSH1 0x20 MUL PUSH1 0x20 ADD DUP3 ADD PUSH1 0x40 MSTORE DUP1 ISZERO PUSH2 0x499 JUMPI DUP2 PUSH1 0x20 ADD PUSH1 0x20 DUP3 MUL DUP1 CALLDATASIZE DUP4 CALLDATACOPY DUP1 DUP3 ADD SWAP2 POP POP SWAP1 POP JUMPDEST POP SWAP3 POP SWAP3 POP SWAP3 POP SWAP1 SWAP2 SWAP3 JUMP JUMPDEST PUSH1 0x40 MLOAD PUSH32 0x8C379A000000000000000000000000000000000000000000000000000000000 DUP2 MSTORE PUSH1 0x4 ADD PUSH2 0x4D7 SWAP1 PUSH2 0x2B48 JUMP JUMPDEST PUSH1 0x40 MLOAD DUP1 SWAP2 SUB SWAP1 REVERT JUMPDEST PUSH0 GAS SWAP1 POP PUSH0 PUSH1 0x8 PUSH0 DUP7 DUP2 MSTORE PUSH1 0x20 ADD SWAP1 DUP2 MSTORE PUSH1 0x20 ADD PUSH0 KECCAK256 PUSH0 ADD PUSH0 SWAP1 SLOAD SWAP1 PUSH2 0x100 EXP SWAP1 DIV PUSH8 0xFFFFFFFFFFFFFFFF AND PUSH8 0xFFFFFFFFFFFFFFFF AND SUB PUSH2 0x556 JUMPI PUSH1 0x40 MLOAD PUSH32 0x8C379A000000000000000000000000000000000000000000000000000000000 DUP2 MSTORE PUSH1 0x4 ADD PUSH2 0x54D SWAP1 PUSH2 0x2BB0 JUMP JUMPDEST PUSH1 0x40 MLOAD DUP1 SWAP2 SUB SWAP1 REVERT JUMPDEST PUSH0 PUSH1 0x8 PUSH0 DUP7 DUP2 MSTORE PUSH1 0x20 ADD SWAP1 DUP2 MSTORE PUSH1 0x20 ADD PUSH0 KECCAK256 PUSH1 0x40 MLOAD DUP1 PUSH1 0x60 ADD PUSH1 0x40 MSTORE SWAP1 DUP2 PUSH0 DUP3 ADD PUSH0 SWAP1 SLOAD SWAP1 PUSH2 0x100 EXP SWAP1 DIV PUSH8 0xFFFFFFFFFFFFFFFF AND PUSH8 0xFFFFFFFFFFFFFFFF AND PUSH8 0xFFFFFFFFFFFFFFFF AND DUP2 MSTORE PUSH1 0x20 ADD PUSH0 DUP3 ADD PUSH1 0x8 SWAP1 SLOAD SWAP1 PUSH2 0x100 EXP SWAP1 DIV PUSH4 0xFFFFFFFF AND PUSH4 0xFFFFFFFF AND PUSH4 0xFFFFFFFF AND DUP2 MSTORE PUSH1 0x20 ADD PUSH0 DUP3 ADD PUSH1 0xC SWAP1 SLOAD SWAP1 PUSH2 0x100 EXP SWAP1 DIV PUSH4 0xFFFFFFFF AND PUSH4 0xFFFFFFFF AND PUSH4 0xFFFFFFFF AND DUP2 MSTORE POP POP SWAP1 POP PUSH0 DUP4 MLOAD SUB PUSH2 0x6C3 JUMPI DUP1 PUSH1 0x40 ADD MLOAD PUSH4 0xFFFFFFFF AND PUSH8 0xFFFFFFFFFFFFFFFF DUP2 GT ISZERO PUSH2 0x61B JUMPI PUSH2 0x61A PUSH2 0x2435 JUMP JUMPDEST JUMPDEST PUSH1 0x40 MLOAD SWAP1 DUP1 DUP3 MSTORE DUP1 PUSH1 0x20 MUL PUSH1 0x20 ADD DUP3 ADD PUSH1 0x40 MSTORE DUP1 ISZERO PUSH2 0x649 JUMPI DUP2 PUSH1 0x20 ADD PUSH1 0x20 DUP3 MUL DUP1 CALLDATASIZE DUP4 CALLDATACOPY DUP1 DUP3 ADD SWAP2 POP POP SWAP1 POP JUMPDEST POP SWAP3 POP PUSH0 JUMPDEST DUP2 PUSH1 0x40 ADD MLOAD PUSH4 0xFFFFFFFF AND DUP2 LT ISZERO PUSH2 0x6BD JUMPI DUP6 DUP2 PUSH1 0x40 MLOAD PUSH1 0x20 ADD PUSH2 0x673 SWAP3 SWAP2 SWAP1 PUSH2 0x2BCE JUMP JUMPDEST PUSH1 0x40 MLOAD PUSH1 0x20 DUP2 DUP4 SUB SUB DUP2 MSTORE SWAP1 PUSH1 0x40 MSTORE DUP1 MLOAD SWAP1 PUSH1 0x20 ADD KECCAK256 PUSH0 SHR DUP5 DUP3 DUP2 MLOAD DUP2 LT PUSH2 0x69E JUMPI PUSH2 0x69D PUSH2 0x2BF5 JUMP JUMPDEST JUMPDEST PUSH1 0x20 MUL PUSH1 0x20 ADD ADD DUP2 DUP2 MSTORE POP POP DUP1 DUP1 PUSH2 0x6B5 SWAP1 PUSH2 0x2C4F JUMP JUMPDEST SWAP2 POP POP PUSH2 0x64E JUMP JUMPDEST POP PUSH2 0x708 JUMP JUMPDEST DUP1 PUSH1 0x40 ADD MLOAD PUSH4 0xFFFFFFFF AND DUP4 MLOAD EQ PUSH2 0x707 JUMPI PUSH1 0x40 MLOAD PUSH32 0x3F3DF5B600000000000000000000000000000000000000000000000000000000 DUP2 MSTORE PUSH1 0x4 ADD PUSH1 0x40 MLOAD DUP1 SWAP2 SUB SWAP1 REVERT JUMPDEST JUMPDEST PUSH0 DUP1 PUSH4 0x1FE543E3 PUSH1 0xE0 SHL DUP8 DUP7 PUSH1 0x40 MLOAD PUSH1 0x24 ADD PUSH2 0x725 SWAP3 SWAP2 SWAP1 PUSH2 0x2D4D JUMP JUMPDEST PUSH1 0x40 MLOAD PUSH1 0x20 DUP2 DUP4 SUB SUB DUP2 MSTORE SWAP1 PUSH1 0x40 MSTORE SWAP1 PUSH28 0xFFFFFFFFFFFFFFFFFFFFFFFFFFFFFFFFFFFFFFFFFFFFFFFFFFFFFFFF NOT AND PUSH1 0x20 DUP3 ADD DUP1 MLOAD PUSH28 0xFFFFFFFFFFFFFFFFFFFFFFFFFFFFFFFFFFFFFFFFFFFFFFFFFFFFFFFF DUP4 DUP2 DUP4 AND OR DUP4 MSTORE POP POP POP POP SWAP1 POP PUSH1 0x1 PUSH1 0x2 PUSH0 ADD PUSH0 PUSH2 0x100 EXP DUP2 SLOAD DUP2 PUSH1 0xFF MUL NOT AND SWAP1 DUP4 ISZERO ISZERO MUL OR SWAP1 SSTORE POP PUSH0 DUP7 PUSH20 0xFFFFFFFFFFFFFFFFFFFFFFFFFFFFFFFFFFFFFFFF AND DUP5 PUSH1 0x20 ADD MLOAD PUSH4 0xFFFFFFFF AND DUP4 PUSH1 0x40 MLOAD PUSH2 0x7D1 SWAP2 SWAP1 PUSH2 0x2DE7 JUMP JUMPDEST PUSH0 PUSH1 0x40 MLOAD DUP1 DUP4 SUB DUP2 PUSH0 DUP8 DUP8 CALL SWAP3 POP POP POP RETURNDATASIZE DUP1 PUSH0 DUP2 EQ PUSH2 0x80B JUMPI PUSH1 0x40 MLOAD SWAP2 POP PUSH1 0x1F NOT PUSH1 0x3F RETURNDATASIZE ADD AND DUP3 ADD PUSH1 0x40 MSTORE RETURNDATASIZE DUP3 MSTORE RETURNDATASIZE PUSH0 PUSH1 0x20 DUP5 ADD RETURNDATACOPY PUSH2 0x810 JUMP JUMPDEST PUSH1 0x60 SWAP2 POP JUMPDEST POP POP SWAP1 POP PUSH0 PUSH1 0x2 PUSH0 ADD PUSH0 PUSH2 0x100 EXP DUP2 SLOAD DUP2 PUSH1 0xFF MUL NOT AND SWAP1 DUP4 ISZERO ISZERO MUL OR SWAP1 SSTORE POP PUSH0 PUSH32 0x0 PUSH12 0xFFFFFFFFFFFFFFFFFFFFFFFF AND GAS DUP8 PUSH2 0x86B SWAP2 SWAP1 PUSH2 0x2DFD JUMP JUMPDEST PUSH2 0x875 SWAP2 SWAP1 PUSH2 0x2E30 JUMP JUMPDEST PUSH32 0x0 PUSH12 0xFFFFFFFFFFFFFFFFFFFFFFFF AND PUSH2 0x8AE SWAP2 SWAP1 PUSH2 0x2E71 JUMP JUMPDEST SWAP1 POP DUP1 PUSH12 0xFFFFFFFFFFFFFFFFFFFFFFFF AND PUSH1 0x6 PUSH0 DUP8 PUSH0 ADD MLOAD PUSH8 0xFFFFFFFFFFFFFFFF AND PUSH8 0xFFFFFFFFFFFFFFFF AND DUP2 MSTORE PUSH1 0x20 ADD SWAP1 DUP2 MSTORE PUSH1 0x20 ADD PUSH0 KECCAK256 PUSH0 ADD PUSH1 0x14 SWAP1 SLOAD SWAP1 PUSH2 0x100 EXP SWAP1 DIV PUSH12 0xFFFFFFFFFFFFFFFFFFFFFFFF AND PUSH12 0xFFFFFFFFFFFFFFFFFFFFFFFF AND LT ISZERO PUSH2 0x948 JUMPI PUSH1 0x40 MLOAD PUSH32 0xF4D678B800000000000000000000000000000000000000000000000000000000 DUP2 MSTORE PUSH1 0x4 ADD PUSH1 0x40 MLOAD DUP1 SWAP2 SUB SWAP1 REVERT JUMPDEST DUP1 PUSH1 0x6 PUSH0 DUP8 PUSH0 ADD MLOAD PUSH8 0xFFFFFFFFFFFFFFFF AND PUSH8 0xFFFFFFFFFFFFFFFF AND DUP2 MSTORE PUSH1 0x20 ADD SWAP1 DUP2 MSTORE PUSH1 0x20 ADD PUSH0 KECCAK256 PUSH0 ADD PUSH1 0x14 DUP3 DUP3 DUP3 SWAP1 SLOAD SWAP1 PUSH2 0x100 EXP SWAP1 DIV PUSH12 0xFFFFFFFFFFFFFFFFFFFFFFFF AND PUSH2 0x999 SWAP2 SWAP1 PUSH2 0x2EA4 JUMP JUMPDEST SWAP3 POP PUSH2 0x100 EXP DUP2 SLOAD DUP2 PUSH12 0xFFFFFFFFFFFFFFFFFFFFFFFF MUL NOT AND SWAP1 DUP4 PUSH12 0xFFFFFFFFFFFFFFFFFFFFFFFF AND MUL OR SWAP1 SSTORE POP PUSH1 0x8 PUSH0 DUP11 DUP2 MSTORE PUSH1 0x20 ADD SWAP1 DUP2 MSTORE PUSH1 0x20 ADD PUSH0 KECCAK256 PUSH0 DUP1 DUP3 ADD PUSH0 PUSH2 0x100 EXP DUP2 SLOAD SWAP1 PUSH8 0xFFFFFFFFFFFFFFFF MUL NOT AND SWAP1 SSTORE PUSH0 DUP3 ADD PUSH1 0x8 PUSH2 0x100 EXP DUP2 SLOAD SWAP1 PUSH4 0xFFFFFFFF MUL NOT AND SWAP1 SSTORE PUSH0 DUP3 ADD PUSH1 0xC PUSH2 0x100 EXP DUP2 SLOAD SWAP1 PUSH4 0xFFFFFFFF MUL NOT AND SWAP1 SSTORE POP POP DUP9 PUSH32 0x7DFFC5AE5EE4E2E4DF1651CF6AD329A73CEBDB728F37EA0187B9B17E036756E4 DUP11 DUP4 DUP6 PUSH1 0x40 MLOAD PUSH2 0xA54 SWAP4 SWAP3 SWAP2 SWAP1 PUSH2 0x2EE3 JUMP JUMPDEST PUSH1 0x40 MLOAD DUP1 SWAP2 SUB SWAP1 LOG2 POP POP POP POP POP POP POP POP POP JUMP JUMPDEST PUSH0 PUSH7 0xE35FA931A0000 SWAP1 POP SWAP1 JUMP JUMPDEST PUSH32 0x0 DUP2 JUMP JUMPDEST PUSH0 PUSH1 0x2 PUSH0 ADD PUSH0 SWAP1 SLOAD SWAP1 PUSH2 0x100 EXP SWAP1 DIV PUSH1 0xFF AND ISZERO PUSH2 0xAE2 JUMPI PUSH1 0x40 MLOAD PUSH32 0xED3BA6A600000000000000000000000000000000000000000000000000000000 DUP2 MSTORE PUSH1 0x4 ADD PUSH1 0x40 MLOAD DUP1 SWAP2 SUB SWAP1 REVERT JUMPDEST DUP5 CALLER PUSH2 0xAEE DUP3 DUP3 PUSH2 0x1ED8 JUMP JUMPDEST PUSH2 0xB24 JUMPI PUSH1 0x40 MLOAD PUSH32 0x71E8313700000000000000000000000000000000000000000000000000000000 DUP2 MSTORE PUSH1 0x4 ADD PUSH1 0x40 MLOAD DUP1 SWAP2 SUB SWAP1 REVERT JUMPDEST PUSH0 PUSH20 0xFFFFFFFFFFFFFFFFFFFFFFFFFFFFFFFFFFFFFFFF AND PUSH1 0x6 PUSH0 DUP10 PUSH8 0xFFFFFFFFFFFFFFFF AND PUSH8 0xFFFFFFFFFFFFFFFF AND DUP2 MSTORE PUSH1 0x20 ADD SWAP1 DUP2 MSTORE PUSH1 0x20 ADD PUSH0 KECCAK256 PUSH0 ADD PUSH0 SWAP1 SLOAD SWAP1 PUSH2 0x100 EXP SWAP1 DIV PUSH20 0xFFFFFFFFFFFFFFFFFFFFFFFFFFFFFFFFFFFFFFFF AND PUSH20 0xFFFFFFFFFFFFFFFFFFFFFFFFFFFFFFFFFFFFFFFF AND SUB PUSH2 0xBCF JUMPI PUSH1 0x40 MLOAD PUSH32 0x1F6A65B600000000000000000000000000000000000000000000000000000000 DUP2 MSTORE PUSH1 0x4 ADD PUSH1 0x40 MLOAD DUP1 SWAP2 SUB SWAP1 REVERT JUMPDEST PUSH0 PUSH1 0x4 PUSH0 DUP2 SLOAD DUP1 SWAP3 SWAP2 SWAP1 PUSH2 0xBE2 SWAP1 PUSH2 0x2C4F JUMP JUMPDEST SWAP2 SWAP1 POP SSTORE SWAP1 POP PUSH0 PUSH1 0x5 PUSH0 DUP2 SLOAD DUP1 SWAP3 SWAP2 SWAP1 PUSH2 0xBFB SWAP1 PUSH2 0x2C4F JUMP JUMPDEST SWAP2 SWAP1 POP SSTORE SWAP1 POP PUSH1 0x40 MLOAD DUP1 PUSH1 0x60 ADD PUSH1 0x40 MSTORE DUP1 DUP11 PUSH8 0xFFFFFFFFFFFFFFFF AND DUP2 MSTORE PUSH1 0x20 ADD DUP9 PUSH4 0xFFFFFFFF AND DUP2 MSTORE PUSH1 0x20 ADD DUP8 PUSH4 0xFFFFFFFF AND DUP2 MSTORE POP PUSH1 0x8 PUSH0 DUP5 DUP2 MSTORE PUSH1 0x20 ADD SWAP1 DUP2 MSTORE PUSH1 0x20 ADD PUSH0 KECCAK256 PUSH0 DUP3 ADD MLOAD DUP2 PUSH0 ADD PUSH0 PUSH2 0x100 EXP DUP2 SLOAD DUP2 PUSH8 0xFFFFFFFFFFFFFFFF MUL NOT AND SWAP1 DUP4 PUSH8 0xFFFFFFFFFFFFFFFF AND MUL OR SWAP1 SSTORE POP PUSH1 0x20 DUP3 ADD MLOAD DUP2 PUSH0 ADD PUSH1 0x8 PUSH2 0x100 EXP DUP2 SLOAD DUP2 PUSH4 0xFFFFFFFF MUL NOT AND SWAP1 DUP4 PUSH4 0xFFFFFFFF AND MUL OR SWAP1 SSTORE POP PUSH1 0x40 DUP3 ADD MLOAD DUP2 PUSH0 ADD PUSH1 0xC PUSH2 0x100 EXP DUP2 SLOAD DUP2 PUSH4 0xFFFFFFFF MUL NOT AND SWAP1 DUP4 PUSH4 0xFFFFFFFF AND MUL OR SWAP1 SSTORE POP SWAP1 POP POP CALLER PUSH20 0xFFFFFFFFFFFFFFFFFFFFFFFFFFFFFFFFFFFFFFFF AND DUP10 PUSH8 0xFFFFFFFFFFFFFFFF AND DUP12 PUSH32 0x63373D1C4696214B898952999C9AAEC57DAC1EE2723CEC59BEA6888F489A9772 DUP6 DUP6 DUP14 DUP14 DUP14 PUSH1 0x40 MLOAD PUSH2 0xD18 SWAP6 SWAP5 SWAP4 SWAP3 SWAP2 SWAP1 PUSH2 0x2F18 JUMP JUMPDEST PUSH1 0x40 MLOAD DUP1 SWAP2 SUB SWAP1 LOG4 DUP2 SWAP5 POP POP POP POP POP SWAP6 SWAP5 POP POP POP POP POP JUMP JUMPDEST PUSH0 DUP1 PUSH0 DUP1 PUSH0 DUP1 PUSH0 DUP1 PUSH0 PUSH3 0x186A0 DUP1 PUSH3 0x186A0 DUP1 PUSH3 0x186A0 PUSH0 DUP1 PUSH0 DUP1 SWAP9 POP SWAP9 POP SWAP9 POP SWAP9 POP SWAP9 POP SWAP9 POP SWAP9 POP SWAP9 POP SWAP9 POP SWAP1 SWAP2 SWAP3 SWAP4 SWAP5 SWAP6 SWAP7 SWAP8 SWAP9 JUMP JUMPDEST PUSH32 0x0 DUP2 JUMP JUMPDEST DUP2 PUSH0 PUSH1 0x6 PUSH0 DUP4 PUSH8 0xFFFFFFFFFFFFFFFF AND PUSH8 0xFFFFFFFFFFFFFFFF AND DUP2 MSTORE PUSH1 0x20 ADD SWAP1 DUP2 MSTORE PUSH1 0x20 ADD PUSH0 KECCAK256 PUSH0 ADD PUSH0 SWAP1 SLOAD SWAP1 PUSH2 0x100 EXP SWAP1 DIV PUSH20 0xFFFFFFFFFFFFFFFFFFFFFFFFFFFFFFFFFFFFFFFF AND SWAP1 POP PUSH0 PUSH20 0xFFFFFFFFFFFFFFFFFFFFFFFFFFFFFFFFFFFFFFFF AND DUP2 PUSH20 0xFFFFFFFFFFFFFFFFFFFFFFFFFFFFFFFFFFFFFFFF AND SUB PUSH2 0xE3C JUMPI PUSH1 0x40 MLOAD PUSH32 0x1F6A65B600000000000000000000000000000000000000000000000000000000 DUP2 MSTORE PUSH1 0x4 ADD PUSH1 0x40 MLOAD DUP1 SWAP2 SUB SWAP1 REVERT JUMPDEST DUP1 PUSH20 0xFFFFFFFFFFFFFFFFFFFFFFFFFFFFFFFFFFFFFFFF AND CALLER PUSH20 0xFFFFFFFFFFFFFFFFFFFFFFFFFFFFFFFFFFFFFFFF AND EQ PUSH2 0xEAC JUMPI DUP1 PUSH1 0x40 MLOAD PUSH32 0xD8A3FB5200000000000000000000000000000000000000000000000000000000 DUP2 MSTORE PUSH1 0x4 ADD PUSH2 0xEA3 SWAP2 SWAP1 PUSH2 0x28A3 JUMP JUMPDEST PUSH1 0x40 MLOAD DUP1 SWAP2 SUB SWAP1 REVERT JUMPDEST PUSH32 0x0 PUSH2 0xFFFF AND PUSH1 0x7 PUSH0 DUP7 PUSH8 0xFFFFFFFFFFFFFFFF AND PUSH8 0xFFFFFFFFFFFFFFFF AND DUP2 MSTORE PUSH1 0x20 ADD SWAP1 DUP2 MSTORE PUSH1 0x20 ADD PUSH0 KECCAK256 DUP1 SLOAD SWAP1 POP SUB PUSH2 0xF31 JUMPI PUSH1 0x40 MLOAD PUSH32 0x5A48E0F00000000000000000000000000000000000000000000000000000000 DUP2 MSTORE PUSH1 0x4 ADD PUSH1 0x40 MLOAD DUP1 SWAP2 SUB SWAP1 REVERT JUMPDEST PUSH2 0xF3B DUP5 DUP5 PUSH2 0x1ED8 JUMP JUMPDEST PUSH2 0x1005 JUMPI PUSH1 0x7 PUSH0 DUP6 PUSH8 0xFFFFFFFFFFFFFFFF AND PUSH8 0xFFFFFFFFFFFFFFFF AND DUP2 MSTORE PUSH1 0x20 ADD SWAP1 DUP2 MSTORE PUSH1 0x20 ADD PUSH0 KECCAK256 DUP4 SWAP1 DUP1 PUSH1 0x1 DUP2 SLOAD ADD DUP1 DUP3 SSTORE DUP1 SWAP2 POP POP PUSH1 0x1 SWAP1 SUB SWAP1 PUSH0 MSTORE PUSH1 0x20 PUSH0 KECCAK256 ADD PUSH0 SWAP1 SWAP2 SWAP1 SWAP2 SWAP1 SWAP2 PUSH2 0x100 EXP DUP2 SLOAD DUP2 PUSH20 0xFFFFFFFFFFFFFFFFFFFFFFFFFFFFFFFFFFFFFFFF MUL NOT AND SWAP1 DUP4 PUSH20 0xFFFFFFFFFFFFFFFFFFFFFFFFFFFFFFFFFFFFFFFF AND MUL OR SWAP1 SSTORE POP DUP4 PUSH8 0xFFFFFFFFFFFFFFFF AND PUSH32 0x752EAD9F4536EC1319EE3A5A604E1D65EDED22E0924251552BA14AE4FAA1BBC3 DUP5 PUSH1 0x40 MLOAD PUSH2 0xFFC SWAP2 SWAP1 PUSH2 0x28A3 JUMP JUMPDEST PUSH1 0x40 MLOAD DUP1 SWAP2 SUB SWAP1 LOG2 JUMPDEST POP POP POP POP JUMP JUMPDEST PUSH1 0x1 PUSH0 SWAP1 SLOAD SWAP1 PUSH2 0x100 EXP SWAP1 DIV PUSH20 0xFFFFFFFFFFFFFFFFFFFFFFFFFFFFFFFFFFFFFFFF AND PUSH20 0xFFFFFFFFFFFFFFFFFFFFFFFFFFFFFFFFFFFFFFFF AND CALLER PUSH20 0xFFFFFFFFFFFFFFFFFFFFFFFFFFFFFFFFFFFFFFFF AND EQ PUSH2 0x109A JUMPI PUSH1 0x40 MLOAD PUSH32 0x8C379A000000000000000000000000000000000000000000000000000000000 DUP2 MSTORE PUSH1 0x4 ADD PUSH2 0x1091 SWAP1 PUSH2 0x2FB3 JUMP JUMPDEST PUSH1 0x40 MLOAD DUP1 SWAP2 SUB SWAP1 REVERT JUMPDEST PUSH0 DUP1 PUSH0 SWAP1 SLOAD SWAP1 PUSH2 0x100 EXP SWAP1 DIV PUSH20 0xFFFFFFFFFFFFFFFFFFFFFFFFFFFFFFFFFFFFFFFF AND SWAP1 POP CALLER PUSH0 DUP1 PUSH2 0x100 EXP DUP2 SLOAD DUP2 PUSH20 0xFFFFFFFFFFFFFFFFFFFFFFFFFFFFFFFFFFFFFFFF MUL NOT AND SWAP1 DUP4 PUSH20 0xFFFFFFFFFFFFFFFFFFFFFFFFFFFFFFFFFFFFFFFF AND MUL OR SWAP1 SSTORE POP PUSH0 PUSH1 0x1 PUSH0 PUSH2 0x100 EXP DUP2 SLOAD DUP2 PUSH20 0xFFFFFFFFFFFFFFFFFFFFFFFFFFFFFFFFFFFFFFFF MUL NOT AND SWAP1 DUP4 PUSH20 0xFFFFFFFFFFFFFFFFFFFFFFFFFFFFFFFFFFFFFFFF AND MUL OR SWAP1 SSTORE POP CALLER PUSH20 0xFFFFFFFFFFFFFFFFFFFFFFFFFFFFFFFFFFFFFFFF AND DUP2 PUSH20 0xFFFFFFFFFFFFFFFFFFFFFFFFFFFFFFFFFFFFFFFF AND PUSH32 0x8BE0079C531659141344CD1FD0A4F28419497F9722A3DAAFE3B4186F6B6457E0 PUSH1 0x40 MLOAD PUSH1 0x40 MLOAD DUP1 SWAP2 SUB SWAP1 LOG3 POP JUMP JUMPDEST PUSH1 0x2 PUSH0 ADD PUSH0 SWAP1 SLOAD SWAP1 PUSH2 0x100 EXP SWAP1 DIV PUSH1 0xFF AND ISZERO PUSH2 0x11E2 JUMPI PUSH1 0x40 MLOAD PUSH32 0xED3BA6A600000000000000000000000000000000000000000000000000000000 DUP2 MSTORE PUSH1 0x4 ADD PUSH1 0x40 MLOAD DUP1 SWAP2 SUB SWAP1 REVERT JUMPDEST PUSH2 0x1235 DUP3 DUP3 PUSH0 PUSH8 0xFFFFFFFFFFFFFFFF DUP2 GT ISZERO PUSH2 0x1201 JUMPI PUSH2 0x1200 PUSH2 0x2435 JUMP JUMPDEST JUMPDEST PUSH1 0x40 MLOAD SWAP1 DUP1 DUP3 MSTORE DUP1 PUSH1 0x20 MUL PUSH1 0x20 ADD DUP3 ADD PUSH1 0x40 MSTORE DUP1 ISZERO PUSH2 0x122F JUMPI DUP2 PUSH1 0x20 ADD PUSH1 0x20 DUP3 MUL DUP1 CALLDATASIZE DUP4 CALLDATACOPY DUP1 DUP3 ADD SWAP2 POP POP SWAP1 POP JUMPDEST POP PUSH2 0x4E0 JUMP JUMPDEST POP POP JUMP JUMPDEST PUSH1 0x40 MLOAD PUSH32 0x8C379A000000000000000000000000000000000000000000000000000000000 DUP2 MSTORE PUSH1 0x4 ADD PUSH2 0x126B SWAP1 PUSH2 0x2B48 JUMP JUMPDEST PUSH1 0x40 MLOAD DUP1 SWAP2 SUB SWAP1 REVERT JUMPDEST PUSH2 0x127C PUSH2 0x2019 JUMP JUMPDEST PUSH1 0x40 MLOAD DUP1 PUSH1 0x20 ADD PUSH1 0x40 MSTORE DUP1 PUSH0 ISZERO ISZERO DUP2 MSTORE POP PUSH1 0x2 PUSH0 DUP3 ADD MLOAD DUP2 PUSH0 ADD PUSH0 PUSH2 0x100 EXP DUP2 SLOAD DUP2 PUSH1 0xFF MUL NOT AND SWAP1 DUP4 ISZERO ISZERO MUL OR SWAP1 SSTORE POP SWAP1 POP POP PUSH32 0x4B2974A542484CBA2783812FF8033F7FC682CAC2FE0905C28C5E27869B3155BE PUSH1 0x40 MLOAD PUSH1 0x40 MLOAD DUP1 SWAP2 SUB SWAP1 LOG1 JUMP JUMPDEST PUSH0 DUP1 PUSH0 SWAP1 SLOAD SWAP1 PUSH2 0x100 EXP SWAP1 DIV PUSH20 0xFFFFFFFFFFFFFFFFFFFFFFFFFFFFFFFFFFFFFFFF AND SWAP1 POP SWAP1 JUMP JUMPDEST DUP2 PUSH0 PUSH1 0x6 PUSH0 DUP4 PUSH8 0xFFFFFFFFFFFFFFFF AND PUSH8 0xFFFFFFFFFFFFFFFF AND DUP2 MSTORE PUSH1 0x20 ADD SWAP1 DUP2 MSTORE PUSH1 0x20 ADD PUSH0 KECCAK256 PUSH0 ADD PUSH0 SWAP1 SLOAD SWAP1 PUSH2 0x100 EXP SWAP1 DIV PUSH20 0xFFFFFFFFFFFFFFFFFFFFFFFFFFFFFFFFFFFFFFFF AND SWAP1 POP PUSH0 PUSH20 0xFFFFFFFFFFFFFFFFFFFFFFFFFFFFFFFFFFFFFFFF AND DUP2 PUSH20 0xFFFFFFFFFFFFFFFFFFFFFFFFFFFFFFFFFFFFFFFF AND SUB PUSH2 0x13B4 JUMPI PUSH1 0x40 MLOAD PUSH32 0x1F6A65B600000000000000000000000000000000000000000000000000000000 DUP2 MSTORE PUSH1 0x4 ADD PUSH1 0x40 MLOAD DUP1 SWAP2 SUB SWAP1 REVERT JUMPDEST DUP1 PUSH20 0xFFFFFFFFFFFFFFFFFFFFFFFFFFFFFFFFFFFFFFFF AND CALLER PUSH20 0xFFFFFFFFFFFFFFFFFFFFFFFFFFFFFFFFFFFFFFFF AND EQ PUSH2 0x1424 JUMPI DUP1 PUSH1 0x40 MLOAD PUSH32 0xD8A3FB5200000000000000000000000000000000000000000000000000000000 DUP2 MSTORE PUSH1 0x4 ADD PUSH2 0x141B SWAP2 SWAP1 PUSH2 0x28A3 JUMP JUMPDEST PUSH1 0x40 MLOAD DUP1 SWAP2 SUB SWAP1 REVERT JUMPDEST DUP4 DUP4 PUSH2 0x1430 DUP3 DUP3 PUSH2 0x1ED8 JUMP JUMPDEST PUSH2 0x1466 JUMPI PUSH1 0x40 MLOAD PUSH32 0x71E8313700000000000000000000000000000000000000000000000000000000 DUP2 MSTORE PUSH1 0x4 ADD PUSH1 0x40 MLOAD DUP1 SWAP2 SUB SWAP1 REVERT JUMPDEST PUSH1 0x2 PUSH0 ADD PUSH0 SWAP1 SLOAD SWAP1 PUSH2 0x100 EXP SWAP1 DIV PUSH1 0xFF AND ISZERO PUSH2 0x14AE JUMPI PUSH1 0x40 MLOAD PUSH32 0xED3BA6A600000000000000000000000000000000000000000000000000000000 DUP2 MSTORE PUSH1 0x4 ADD PUSH1 0x40 MLOAD DUP1 SWAP2 SUB SWAP1 REVERT JUMPDEST PUSH0 PUSH1 0x7 PUSH0 DUP9 PUSH8 0xFFFFFFFFFFFFFFFF AND PUSH8 0xFFFFFFFFFFFFFFFF AND DUP2 MSTORE PUSH1 0x20 ADD SWAP1 DUP2 MSTORE PUSH1 0x20 ADD PUSH0 KECCAK256 SWAP1 POP PUSH0 JUMPDEST DUP2 DUP1 SLOAD SWAP1 POP DUP2 LT ISZERO PUSH2 0x1654 JUMPI DUP7 PUSH20 0xFFFFFFFFFFFFFFFFFFFFFFFFFFFFFFFFFFFFFFFF AND DUP3 DUP3 DUP2 SLOAD DUP2 LT PUSH2 0x150E JUMPI PUSH2 0x150D PUSH2 0x2BF5 JUMP JUMPDEST JUMPDEST SWAP1 PUSH0 MSTORE PUSH1 0x20 PUSH0 KECCAK256 ADD PUSH0 SWAP1 SLOAD SWAP1 PUSH2 0x100 EXP SWAP1 DIV PUSH20 0xFFFFFFFFFFFFFFFFFFFFFFFFFFFFFFFFFFFFFFFF AND PUSH20 0xFFFFFFFFFFFFFFFFFFFFFFFFFFFFFFFFFFFFFFFF AND SUB PUSH2 0x1641 JUMPI PUSH0 DUP3 PUSH1 0x1 DUP5 DUP1 SLOAD SWAP1 POP PUSH2 0x1564 SWAP2 SWAP1 PUSH2 0x2DFD JUMP JUMPDEST DUP2 SLOAD DUP2 LT PUSH2 0x1575 JUMPI PUSH2 0x1574 PUSH2 0x2BF5 JUMP JUMPDEST JUMPDEST SWAP1 PUSH0 MSTORE PUSH1 0x20 PUSH0 KECCAK256 ADD PUSH0 SWAP1 SLOAD SWAP1 PUSH2 0x100 EXP SWAP1 DIV PUSH20 0xFFFFFFFFFFFFFFFFFFFFFFFFFFFFFFFFFFFFFFFF AND SWAP1 POP DUP1 DUP4 DUP4 DUP2 SLOAD DUP2 LT PUSH2 0x15B3 JUMPI PUSH2 0x15B2 PUSH2 0x2BF5 JUMP JUMPDEST JUMPDEST SWAP1 PUSH0 MSTORE PUSH1 0x20 PUSH0 KECCAK256 ADD PUSH0 PUSH2 0x100 EXP DUP2 SLOAD DUP2 PUSH20 0xFFFFFFFFFFFFFFFFFFFFFFFFFFFFFFFFFFFFFFFF MUL NOT AND SWAP1 DUP4 PUSH20 0xFFFFFFFFFFFFFFFFFFFFFFFFFFFFFFFFFFFFFFFF AND MUL OR SWAP1 SSTORE POP DUP3 DUP1 SLOAD DUP1 PUSH2 0x1609 JUMPI PUSH2 0x1608 PUSH2 0x2FD1 JUMP JUMPDEST JUMPDEST PUSH1 0x1 SWAP1 SUB DUP2 DUP2 SWAP1 PUSH0 MSTORE PUSH1 0x20 PUSH0 KECCAK256 ADD PUSH0 PUSH2 0x100 EXP DUP2 SLOAD SWAP1 PUSH20 0xFFFFFFFFFFFFFFFFFFFFFFFFFFFFFFFFFFFFFFFF MUL NOT AND SWAP1 SSTORE SWAP1 SSTORE POP PUSH2 0x1654 JUMP JUMPDEST DUP1 DUP1 PUSH2 0x164C SWAP1 PUSH2 0x2C4F JUMP JUMPDEST SWAP2 POP POP PUSH2 0x14D8 JUMP JUMPDEST POP DUP7 PUSH8 0xFFFFFFFFFFFFFFFF AND PUSH32 0xF9BC9D5B5733D904409DEF43A5ECC888DBDAC9A95687780D8FD489D3BB3813FC DUP8 PUSH1 0x40 MLOAD PUSH2 0x168F SWAP2 SWAP1 PUSH2 0x28A3 JUMP JUMPDEST PUSH1 0x40 MLOAD DUP1 SWAP2 SUB SWAP1 LOG2 POP POP POP POP POP POP POP JUMP JUMPDEST PUSH0 PUSH1 0x3 PUSH0 DUP2 DUP2 SWAP1 SLOAD SWAP1 PUSH2 0x100 EXP SWAP1 DIV PUSH8 0xFFFFFFFFFFFFFFFF AND DUP1 SWAP3 SWAP2 SWAP1 PUSH2 0x16C6 SWAP1 PUSH2 0x2FFE JUMP JUMPDEST SWAP2 SWAP1 PUSH2 0x100 EXP DUP2 SLOAD DUP2 PUSH8 0xFFFFFFFFFFFFFFFF MUL NOT AND SWAP1 DUP4 PUSH8 0xFFFFFFFFFFFFFFFF AND MUL OR SWAP1 SSTORE POP POP PUSH1 0x40 MLOAD DUP1 PUSH1 0x40 ADD PUSH1 0x40 MSTORE DUP1 CALLER PUSH20 0xFFFFFFFFFFFFFFFFFFFFFFFFFFFFFFFFFFFFFFFF AND DUP2 MSTORE PUSH1 0x20 ADD PUSH0 PUSH12 0xFFFFFFFFFFFFFFFFFFFFFFFF AND DUP2 MSTORE POP PUSH1 0x6 PUSH0 PUSH1 0x3 PUSH0 SWAP1 SLOAD SWAP1 PUSH2 0x100 EXP SWAP1 DIV PUSH8 0xFFFFFFFFFFFFFFFF AND PUSH8 0xFFFFFFFFFFFFFFFF AND PUSH8 0xFFFFFFFFFFFFFFFF AND DUP2 MSTORE PUSH1 0x20 ADD SWAP1 DUP2 MSTORE PUSH1 0x20 ADD PUSH0 KECCAK256 PUSH0 DUP3 ADD MLOAD DUP2 PUSH0 ADD PUSH0 PUSH2 0x100 EXP DUP2 SLOAD DUP2 PUSH20 0xFFFFFFFFFFFFFFFFFFFFFFFFFFFFFFFFFFFFFFFF MUL NOT AND SWAP1 DUP4 PUSH20 0xFFFFFFFFFFFFFFFFFFFFFFFFFFFFFFFFFFFFFFFF AND MUL OR SWAP1 SSTORE POP PUSH1 0x20 DUP3 ADD MLOAD DUP2 PUSH0 ADD PUSH1 0x14 PUSH2 0x100 EXP DUP2 SLOAD DUP2 PUSH12 0xFFFFFFFFFFFFFFFFFFFFFFFF MUL NOT AND SWAP1 DUP4 PUSH12 0xFFFFFFFFFFFFFFFFFFFFFFFF AND MUL OR SWAP1 SSTORE POP SWAP1 POP POP PUSH1 0x3 PUSH0 SWAP1 SLOAD SWAP1 PUSH2 0x100 EXP SWAP1 DIV PUSH8 0xFFFFFFFFFFFFFFFF AND PUSH8 0xFFFFFFFFFFFFFFFF AND PUSH32 0x464722B4166576D3DCBBA877B999BC35CF911F4EAF434B7EBA68FA113951D0BF CALLER PUSH1 0x40 MLOAD PUSH2 0x182C SWAP2 SWAP1 PUSH2 0x28A3 JUMP JUMPDEST PUSH1 0x40 MLOAD DUP1 SWAP2 SUB SWAP1 LOG2 PUSH1 0x3 PUSH0 SWAP1 SLOAD SWAP1 PUSH2 0x100 EXP SWAP1 DIV PUSH8 0xFFFFFFFFFFFFFFFF AND SWAP1 POP SWAP1 JUMP JUMPDEST PUSH32 0x0 DUP2 JUMP JUMPDEST PUSH0 DUP1 PUSH0 PUSH1 0x60 PUSH0 PUSH20 0xFFFFFFFFFFFFFFFFFFFFFFFFFFFFFFFFFFFFFFFF AND PUSH1 0x6 PUSH0 DUP8 PUSH8 0xFFFFFFFFFFFFFFFF AND PUSH8 0xFFFFFFFFFFFFFFFF AND DUP2 MSTORE PUSH1 0x20 ADD SWAP1 DUP2 MSTORE PUSH1 0x20 ADD PUSH0 KECCAK256 PUSH0 ADD PUSH0 SWAP1 SLOAD SWAP1 PUSH2 0x100 EXP SWAP1 DIV PUSH20 0xFFFFFFFFFFFFFFFFFFFFFFFFFFFFFFFFFFFFFFFF AND PUSH20 0xFFFFFFFFFFFFFFFFFFFFFFFFFFFFFFFFFFFFFFFF AND SUB PUSH2 0x1923 JUMPI PUSH1 0x40 MLOAD PUSH32 0x1F6A65B600000000000000000000000000000000000000000000000000000000 DUP2 MSTORE PUSH1 0x4 ADD PUSH1 0x40 MLOAD DUP1 SWAP2 SUB SWAP1 REVERT JUMPDEST PUSH1 0x6 PUSH0 DUP7 PUSH8 0xFFFFFFFFFFFFFFFF AND PUSH8 0xFFFFFFFFFFFFFFFF AND DUP2 MSTORE PUSH1 0x20 ADD SWAP1 DUP2 MSTORE PUSH1 0x20 ADD PUSH0 KECCAK256 PUSH0 ADD PUSH1 0x14 SWAP1 SLOAD SWAP1 PUSH2 0x100 EXP SWAP1 DIV PUSH12 0xFFFFFFFFFFFFFFFFFFFFFFFF AND PUSH0 PUSH1 0x6 PUSH0 DUP9 PUSH8 0xFFFFFFFFFFFFFFFF AND PUSH8 0xFFFFFFFFFFFFFFFF AND DUP2 MSTORE PUSH1 0x20 ADD SWAP1 DUP2 MSTORE PUSH1 0x20 ADD PUSH0 KECCAK256 PUSH0 ADD PUSH0 SWAP1 SLOAD SWAP1 PUSH2 0x100 EXP SWAP1 DIV PUSH20 0xFFFFFFFFFFFFFFFFFFFFFFFFFFFFFFFFFFFFFFFF AND PUSH1 0x7 PUSH0 DUP10 PUSH8 0xFFFFFFFFFFFFFFFF AND PUSH8 0xFFFFFFFFFFFFFFFF AND DUP2 MSTORE PUSH1 0x20 ADD SWAP1 DUP2 MSTORE PUSH1 0x20 ADD PUSH0 KECCAK256 DUP1 DUP1 SLOAD DUP1 PUSH1 0x20 MUL PUSH1 0x20 ADD PUSH1 0x40 MLOAD SWAP1 DUP2 ADD PUSH1 0x40 MSTORE DUP1 SWAP3 SWAP2 SWAP1 DUP2 DUP2 MSTORE PUSH1 0x20 ADD DUP3 DUP1 SLOAD DUP1 ISZERO PUSH2 0x1A4E JUMPI PUSH1 0x20 MUL DUP3 ADD SWAP2 SWAP1 PUSH0 MSTORE PUSH1 0x20 PUSH0 KECCAK256 SWAP1 JUMPDEST DUP2 PUSH0 SWAP1 SLOAD SWAP1 PUSH2 0x100 EXP SWAP1 DIV PUSH20 0xFFFFFFFFFFFFFFFFFFFFFFFFFFFFFFFFFFFFFFFF AND PUSH20 0xFFFFFFFFFFFFFFFFFFFFFFFFFFFFFFFFFFFFFFFF AND DUP2 MSTORE PUSH1 0x20 ADD SWAP1 PUSH1 0x1 ADD SWAP1 DUP1 DUP4 GT PUSH2 0x1A05 JUMPI JUMPDEST POP POP POP POP POP SWAP1 POP SWAP4 POP SWAP4 POP SWAP4 POP SWAP4 POP SWAP2 SWAP4 POP SWAP2 SWAP4 JUMP JUMPDEST PUSH0 PUSH20 0xFFFFFFFFFFFFFFFFFFFFFFFFFFFFFFFFFFFFFFFF AND PUSH1 0x6 PUSH0 DUP5 PUSH8 0xFFFFFFFFFFFFFFFF AND PUSH8 0xFFFFFFFFFFFFFFFF AND DUP2 MSTORE PUSH1 0x20 ADD SWAP1 DUP2 MSTORE PUSH1 0x20 ADD PUSH0 KECCAK256 PUSH0 ADD PUSH0 SWAP1 SLOAD SWAP1 PUSH2 0x100 EXP SWAP1 DIV PUSH20 0xFFFFFFFFFFFFFFFFFFFFFFFFFFFFFFFFFFFFFFFF AND PUSH20 0xFFFFFFFFFFFFFFFFFFFFFFFFFFFFFFFFFFFFFFFF AND SUB PUSH2 0x1B0F JUMPI PUSH1 0x40 MLOAD PUSH32 0x1F6A65B600000000000000000000000000000000000000000000000000000000 DUP2 MSTORE PUSH1 0x4 ADD PUSH1 0x40 MLOAD DUP1 SWAP2 SUB SWAP1 REVERT JUMPDEST PUSH0 PUSH1 0x6 PUSH0 DUP5 PUSH8 0xFFFFFFFFFFFFFFFF AND PUSH8 0xFFFFFFFFFFFFFFFF AND DUP2 MSTORE PUSH1 0x20 ADD SWAP1 DUP2 MSTORE PUSH1 0x20 ADD PUSH0 KECCAK256 PUSH0 ADD PUSH1 0x14 SWAP1 SLOAD SWAP1 PUSH2 0x100 EXP SWAP1 DIV PUSH12 0xFFFFFFFFFFFFFFFFFFFFFFFF AND SWAP1 POP DUP2 PUSH1 0x6 PUSH0 DUP6 PUSH8 0xFFFFFFFFFFFFFFFF AND PUSH8 0xFFFFFFFFFFFFFFFF AND DUP2 MSTORE PUSH1 0x20 ADD SWAP1 DUP2 MSTORE PUSH1 0x20 ADD PUSH0 KECCAK256 PUSH0 ADD PUSH1 0x14 DUP3 DUP3 DUP3 SWAP1 SLOAD SWAP1 PUSH2 0x100 EXP SWAP1 DIV PUSH12 0xFFFFFFFFFFFFFFFFFFFFFFFF AND PUSH2 0x1BA0 SWAP2 SWAP1 PUSH2 0x302D JUMP JUMPDEST SWAP3 POP PUSH2 0x100 EXP DUP2 SLOAD DUP2 PUSH12 0xFFFFFFFFFFFFFFFFFFFFFFFF MUL NOT AND SWAP1 DUP4 PUSH12 0xFFFFFFFFFFFFFFFFFFFFFFFF AND MUL OR SWAP1 SSTORE POP DUP3 PUSH8 0xFFFFFFFFFFFFFFFF AND PUSH32 0xD39EC07F4E209F627A4C427971473820DC129761BA28DE8906BD56F57101D4F8 DUP3 DUP5 DUP5 PUSH2 0x1C07 SWAP2 SWAP1 PUSH2 0x302D JUMP JUMPDEST PUSH1 0x40 MLOAD PUSH2 0x1C15 SWAP3 SWAP2 SWAP1 PUSH2 0x30A5 JUMP JUMPDEST PUSH1 0x40 MLOAD DUP1 SWAP2 SUB SWAP1 LOG2 POP POP POP JUMP JUMPDEST PUSH0 DUP1 PUSH0 DUP1 PUSH1 0x4 PUSH3 0x2625A0 PUSH2 0xA8C PUSH2 0x8205 SWAP4 POP SWAP4 POP SWAP4 POP SWAP4 POP SWAP1 SWAP2 SWAP3 SWAP4 JUMP JUMPDEST DUP2 PUSH0 PUSH1 0x6 PUSH0 DUP4 PUSH8 0xFFFFFFFFFFFFFFFF AND PUSH8 0xFFFFFFFFFFFFFFFF AND DUP2 MSTORE PUSH1 0x20 ADD SWAP1 DUP2 MSTORE PUSH1 0x20 ADD PUSH0 KECCAK256 PUSH0 ADD PUSH0 SWAP1 SLOAD SWAP1 PUSH2 0x100 EXP SWAP1 DIV PUSH20 0xFFFFFFFFFFFFFFFFFFFFFFFFFFFFFFFFFFFFFFFF AND SWAP1 POP PUSH0 PUSH20 0xFFFFFFFFFFFFFFFFFFFFFFFFFFFFFFFFFFFFFFFF AND DUP2 PUSH20 0xFFFFFFFFFFFFFFFFFFFFFFFFFFFFFFFFFFFFFFFF AND SUB PUSH2 0x1CF0 JUMPI PUSH1 0x40 MLOAD PUSH32 0x1F6A65B600000000000000000000000000000000000000000000000000000000 DUP2 MSTORE PUSH1 0x4 ADD PUSH1 0x40 MLOAD DUP1 SWAP2 SUB SWAP1 REVERT JUMPDEST DUP1 PUSH20 0xFFFFFFFFFFFFFFFFFFFFFFFFFFFFFFFFFFFFFFFF AND CALLER PUSH20 0xFFFFFFFFFFFFFFFFFFFFFFFFFFFFFFFFFFFFFFFF AND EQ PUSH2 0x1D60 JUMPI DUP1 PUSH1 0x40 MLOAD PUSH32 0xD8A3FB5200000000000000000000000000000000000000000000000000000000 DUP2 MSTORE PUSH1 0x4 ADD PUSH2 0x1D57 SWAP2 SWAP1 PUSH2 0x28A3 JUMP JUMPDEST PUSH1 0x40 MLOAD DUP1 SWAP2 SUB SWAP1 REVERT JUMPDEST PUSH1 0x2 PUSH0 ADD PUSH0 SWAP1 SLOAD SWAP1 PUSH2 0x100 EXP SWAP1 DIV PUSH1 0xFF AND ISZERO PUSH2 0x1DA8 JUMPI PUSH1 0x40 MLOAD PUSH32 0xED3BA6A600000000000000000000000000000000000000000000000000000000 DUP2 MSTORE PUSH1 0x4 ADD PUSH1 0x40 MLOAD DUP1 SWAP2 SUB SWAP1 REVERT JUMPDEST DUP4 PUSH8 0xFFFFFFFFFFFFFFFF AND PUSH32 0xE8ED5B475A5B5987AA9165E8731BB78043F39EEE32EC5A1169A89E27FCD49815 DUP5 PUSH1 0x6 PUSH0 DUP9 PUSH8 0xFFFFFFFFFFFFFFFF AND PUSH8 0xFFFFFFFFFFFFFFFF AND DUP2 MSTORE PUSH1 0x20 ADD SWAP1 DUP2 MSTORE PUSH1 0x20 ADD PUSH0 KECCAK256 PUSH0 ADD PUSH1 0x14 SWAP1 SLOAD SWAP1 PUSH2 0x100 EXP SWAP1 DIV PUSH12 0xFFFFFFFFFFFFFFFFFFFFFFFF AND PUSH1 0x40 MLOAD PUSH2 0x1E23 SWAP3 SWAP2 SWAP1 PUSH2 0x30CC JUMP JUMPDEST PUSH1 0x40 MLOAD DUP1 SWAP2 SUB SWAP1 LOG2 PUSH1 0x6 PUSH0 DUP6 PUSH8 0xFFFFFFFFFFFFFFFF AND PUSH8 0xFFFFFFFFFFFFFFFF AND DUP2 MSTORE PUSH1 0x20 ADD SWAP1 DUP2 MSTORE PUSH1 0x20 ADD PUSH0 KECCAK256 PUSH0 DUP1 DUP3 ADD PUSH0 PUSH2 0x100 EXP DUP2 SLOAD SWAP1 PUSH20 0xFFFFFFFFFFFFFFFFFFFFFFFFFFFFFFFFFFFFFFFF MUL NOT AND SWAP1 SSTORE PUSH0 DUP3 ADD PUSH1 0x14 PUSH2 0x100 EXP DUP2 SLOAD SWAP1 PUSH12 0xFFFFFFFFFFFFFFFFFFFFFFFF MUL NOT AND SWAP1 SSTORE POP POP POP POP POP POP JUMP JUMPDEST PUSH0 PUSH1 0x40 MLOAD PUSH32 0x8C379A000000000000000000000000000000000000000000000000000000000 DUP2 MSTORE PUSH1 0x4 ADD PUSH2 0x1ECF SWAP1 PUSH2 0x2B48 JUMP JUMPDEST PUSH1 0x40 MLOAD DUP1 SWAP2 SUB SWAP1 REVERT JUMPDEST PUSH0 DUP1 PUSH1 0x7 PUSH0 DUP6 PUSH8 0xFFFFFFFFFFFFFFFF AND PUSH8 0xFFFFFFFFFFFFFFFF AND DUP2 MSTORE PUSH1 0x20 ADD SWAP1 DUP2 MSTORE PUSH1 0x20 ADD PUSH0 KECCAK256 DUP1 SLOAD DUP1 PUSH1 0x20 MUL PUSH1 0x20 ADD PUSH1 0x40 MLOAD SWAP1 DUP2 ADD PUSH1 0x40 MSTORE DUP1 SWAP3 SWAP2 SWAP1 DUP2 DUP2 MSTORE PUSH1 0x20 ADD DUP3 DUP1 SLOAD DUP1 ISZERO PUSH2 0x1F7C JUMPI PUSH1 0x20 MUL DUP3 ADD SWAP2 SWAP1 PUSH0 MSTORE PUSH1 0x20 PUSH0 KECCAK256 SWAP1 JUMPDEST DUP2 PUSH0 SWAP1 SLOAD SWAP1 PUSH2 0x100 EXP SWAP1 DIV PUSH20 0xFFFFFFFFFFFFFFFFFFFFFFFFFFFFFFFFFFFFFFFF AND PUSH20 0xFFFFFFFFFFFFFFFFFFFFFFFFFFFFFFFFFFFFFFFF AND DUP2 MSTORE PUSH1 0x20 ADD SWAP1 PUSH1 0x1 ADD SWAP1 DUP1 DUP4 GT PUSH2 0x1F33 JUMPI JUMPDEST POP POP POP POP POP SWAP1 POP PUSH0 JUMPDEST DUP2 MLOAD DUP2 LT ISZERO PUSH2 0x1FF9 JUMPI DUP4 PUSH20 0xFFFFFFFFFFFFFFFFFFFFFFFFFFFFFFFFFFFFFFFF AND DUP3 DUP3 DUP2 MLOAD DUP2 LT PUSH2 0x1FB8 JUMPI PUSH2 0x1FB7 PUSH2 0x2BF5 JUMP JUMPDEST JUMPDEST PUSH1 0x20 MUL PUSH1 0x20 ADD ADD MLOAD PUSH20 0xFFFFFFFFFFFFFFFFFFFFFFFFFFFFFFFFFFFFFFFF AND SUB PUSH2 0x1FE6 JUMPI PUSH1 0x1 SWAP3 POP POP POP PUSH2 0x1FFF JUMP JUMPDEST DUP1 DUP1 PUSH2 0x1FF1 SWAP1 PUSH2 0x2C4F JUMP JUMPDEST SWAP2 POP POP PUSH2 0x1F85 JUMP JUMPDEST POP PUSH0 SWAP2 POP POP JUMPDEST SWAP3 SWAP2 POP POP JUMP JUMPDEST PUSH2 0x200D PUSH2 0x2019 JUMP JUMPDEST PUSH2 0x2016 DUP2 PUSH2 0x20A8 JUMP JUMPDEST POP JUMP JUMPDEST PUSH0 DUP1 SLOAD SWAP1 PUSH2 0x100 EXP SWAP1 DIV PUSH20 0xFFFFFFFFFFFFFFFFFFFFFFFFFFFFFFFFFFFFFFFF AND PUSH20 0xFFFFFFFFFFFFFFFFFFFFFFFFFFFFFFFFFFFFFFFF AND CALLER PUSH20 0xFFFFFFFFFFFFFFFFFFFFFFFFFFFFFFFFFFFFFFFF AND EQ PUSH2 0x20A6 JUMPI PUSH1 0x40 MLOAD PUSH32 0x8C379A000000000000000000000000000000000000000000000000000000000 DUP2 MSTORE PUSH1 0x4 ADD PUSH2 0x209D SWAP1 PUSH2 0x313D JUMP JUMPDEST PUSH1 0x40 MLOAD DUP1 SWAP2 SUB SWAP1 REVERT JUMPDEST JUMP JUMPDEST CALLER PUSH20 0xFFFFFFFFFFFFFFFFFFFFFFFFFFFFFFFFFFFFFFFF AND DUP2 PUSH20 0xFFFFFFFFFFFFFFFFFFFFFFFFFFFFFFFFFFFFFFFF AND SUB PUSH2 0x2116 JUMPI PUSH1 0x40 MLOAD PUSH32 0x8C379A000000000000000000000000000000000000000000000000000000000 DUP2 MSTORE PUSH1 0x4 ADD PUSH2 0x210D SWAP1 PUSH2 0x31A5 JUMP JUMPDEST PUSH1 0x40 MLOAD DUP1 SWAP2 SUB SWAP1 REVERT JUMPDEST DUP1 PUSH1 0x1 PUSH0 PUSH2 0x100 EXP DUP2 SLOAD DUP2 PUSH20 0xFFFFFFFFFFFFFFFFFFFFFFFFFFFFFFFFFFFFFFFF MUL NOT AND SWAP1 DUP4 PUSH20 0xFFFFFFFFFFFFFFFFFFFFFFFFFFFFFFFFFFFFFFFF AND MUL OR SWAP1 SSTORE POP DUP1 PUSH20 0xFFFFFFFFFFFFFFFFFFFFFFFFFFFFFFFFFFFFFFFF AND PUSH0 DUP1 SLOAD SWAP1 PUSH2 0x100 EXP SWAP1 DIV PUSH20 0xFFFFFFFFFFFFFFFFFFFFFFFFFFFFFFFFFFFFFFFF AND PUSH20 0xFFFFFFFFFFFFFFFFFFFFFFFFFFFFFFFFFFFFFFFF AND PUSH32 0xED8889F560326EB138920D842192F0EB3DD22B4F139C87A2C57538E05BAE1278 PUSH1 0x40 MLOAD PUSH1 0x40 MLOAD DUP1 SWAP2 SUB SWAP1 LOG3 POP JUMP JUMPDEST PUSH0 PUSH2 0xFFFF DUP3 AND SWAP1 POP SWAP2 SWAP1 POP JUMP JUMPDEST PUSH2 0x21E8 DUP2 PUSH2 0x21D2 JUMP JUMPDEST DUP3 MSTORE POP POP JUMP JUMPDEST PUSH0 PUSH4 0xFFFFFFFF DUP3 AND SWAP1 POP SWAP2 SWAP1 POP JUMP JUMPDEST PUSH2 0x2206 DUP2 PUSH2 0x21EE JUMP JUMPDEST DUP3 MSTORE POP POP JUMP JUMPDEST PUSH0 DUP2 MLOAD SWAP1 POP SWAP2 SWAP1 POP JUMP JUMPDEST PUSH0 DUP3 DUP3 MSTORE PUSH1 0x20 DUP3 ADD SWAP1 POP SWAP3 SWAP2 POP POP JUMP JUMPDEST PUSH0 DUP2 SWAP1 POP PUSH1 0x20 DUP3 ADD SWAP1 POP SWAP2 SWAP1 POP JUMP JUMPDEST PUSH0 DUP2 SWAP1 POP SWAP2 SWAP1 POP JUMP JUMPDEST PUSH2 0x2247 DUP2 PUSH2 0x2235 JUMP JUMPDEST DUP3 MSTORE POP POP JUMP JUMPDEST PUSH0 PUSH2 0x2258 DUP4 DUP4 PUSH2 0x223E JUMP JUMPDEST PUSH1 0x20 DUP4 ADD SWAP1 POP SWAP3 SWAP2 POP POP JUMP JUMPDEST PUSH0 PUSH1 0x20 DUP3 ADD SWAP1 POP SWAP2 SWAP1 POP JUMP JUMPDEST PUSH0 PUSH2 0x227A DUP3 PUSH2 0x220C JUMP JUMPDEST PUSH2 0x2284 DUP2 DUP6 PUSH2 0x2216 JUMP JUMPDEST SWAP4 POP PUSH2 0x228F DUP4 PUSH2 0x2226 JUMP JUMPDEST DUP1 PUSH0 JUMPDEST DUP4 DUP2 LT ISZERO PUSH2 0x22BF JUMPI DUP2 MLOAD PUSH2 0x22A6 DUP9 DUP3 PUSH2 0x224D JUMP JUMPDEST SWAP8 POP PUSH2 0x22B1 DUP4 PUSH2 0x2264 JUMP JUMPDEST SWAP3 POP POP PUSH1 0x1 DUP2 ADD SWAP1 POP PUSH2 0x2292 JUMP JUMPDEST POP DUP6 SWAP4 POP POP POP POP SWAP3 SWAP2 POP POP JUMP JUMPDEST PUSH0 PUSH1 0x60 DUP3 ADD SWAP1 POP PUSH2 0x22DF PUSH0 DUP4 ADD DUP7 PUSH2 0x21DF JUMP JUMPDEST PUSH2 0x22EC PUSH1 0x20 DUP4 ADD DUP6 PUSH2 0x21FD JUMP JUMPDEST DUP2 DUP2 SUB PUSH1 0x40 DUP4 ADD MSTORE PUSH2 0x22FE DUP2 DUP5 PUSH2 0x2270 JUMP JUMPDEST SWAP1 POP SWAP5 SWAP4 POP POP POP POP JUMP JUMPDEST PUSH0 PUSH1 0x40 MLOAD SWAP1 POP SWAP1 JUMP JUMPDEST PUSH0 DUP1 REVERT JUMPDEST PUSH0 DUP1 REVERT JUMPDEST PUSH0 PUSH8 0xFFFFFFFFFFFFFFFF DUP3 AND SWAP1 POP SWAP2 SWAP1 POP JUMP JUMPDEST PUSH2 0x2335 DUP2 PUSH2 0x2319 JUMP JUMPDEST DUP2 EQ PUSH2 0x233F JUMPI PUSH0 DUP1 REVERT JUMPDEST POP JUMP JUMPDEST PUSH0 DUP2 CALLDATALOAD SWAP1 POP PUSH2 0x2350 DUP2 PUSH2 0x232C JUMP JUMPDEST SWAP3 SWAP2 POP POP JUMP JUMPDEST PUSH0 PUSH20 0xFFFFFFFFFFFFFFFFFFFFFFFFFFFFFFFFFFFFFFFF DUP3 AND SWAP1 POP SWAP2 SWAP1 POP JUMP JUMPDEST PUSH0 PUSH2 0x237F DUP3 PUSH2 0x2356 JUMP JUMPDEST SWAP1 POP SWAP2 SWAP1 POP JUMP JUMPDEST PUSH2 0x238F DUP2 PUSH2 0x2375 JUMP JUMPDEST DUP2 EQ PUSH2 0x2399 JUMPI PUSH0 DUP1 REVERT JUMPDEST POP JUMP JUMPDEST PUSH0 DUP2 CALLDATALOAD SWAP1 POP PUSH2 0x23AA DUP2 PUSH2 0x2386 JUMP JUMPDEST SWAP3 SWAP2 POP POP JUMP JUMPDEST PUSH0 DUP1 PUSH1 0x40 DUP4 DUP6 SUB SLT ISZERO PUSH2 0x23C6 JUMPI PUSH2 0x23C5 PUSH2 0x2311 JUMP JUMPDEST JUMPDEST PUSH0 PUSH2 0x23D3 DUP6 DUP3 DUP7 ADD PUSH2 0x2342 JUMP JUMPDEST SWAP3 POP POP PUSH1 0x20 PUSH2 0x23E4 DUP6 DUP3 DUP7 ADD PUSH2 0x239C JUMP JUMPDEST SWAP2 POP POP SWAP3 POP SWAP3 SWAP1 POP JUMP JUMPDEST PUSH0 DUP2 SWAP1 POP SWAP2 SWAP1 POP JUMP JUMPDEST PUSH2 0x2400 DUP2 PUSH2 0x23EE JUMP JUMPDEST DUP2 EQ PUSH2 0x240A JUMPI PUSH0 DUP1 REVERT JUMPDEST POP JUMP JUMPDEST PUSH0 DUP2 CALLDATALOAD SWAP1 POP PUSH2 0x241B DUP2 PUSH2 0x23F7 JUMP JUMPDEST SWAP3 SWAP2 POP POP JUMP JUMPDEST PUSH0 DUP1 REVERT JUMPDEST PUSH0 PUSH1 0x1F NOT PUSH1 0x1F DUP4 ADD AND SWAP1 POP SWAP2 SWAP1 POP JUMP JUMPDEST PUSH32 0x4E487B7100000000000000000000000000000000000000000000000000000000 PUSH0 MSTORE PUSH1 0x41 PUSH1 0x4 MSTORE PUSH1 0x24 PUSH0 REVERT JUMPDEST PUSH2 0x246B DUP3 PUSH2 0x2425 JUMP JUMPDEST DUP2 ADD DUP2 DUP2 LT PUSH8 0xFFFFFFFFFFFFFFFF DUP3 GT OR ISZERO PUSH2 0x248A JUMPI PUSH2 0x2489 PUSH2 0x2435 JUMP JUMPDEST JUMPDEST DUP1 PUSH1 0x40 MSTORE POP POP POP JUMP JUMPDEST PUSH0 PUSH2 0x249C PUSH2 0x2308 JUMP JUMPDEST SWAP1 POP PUSH2 0x24A8 DUP3 DUP3 PUSH2 0x2462 JUMP JUMPDEST SWAP2 SWAP1 POP JUMP JUMPDEST PUSH0 PUSH8 0xFFFFFFFFFFFFFFFF DUP3 GT ISZERO PUSH2 0x24C7 JUMPI PUSH2 0x24C6 PUSH2 0x2435 JUMP JUMPDEST JUMPDEST PUSH1 0x20 DUP3 MUL SWAP1 POP PUSH1 0x20 DUP2 ADD SWAP1 POP SWAP2 SWAP1 POP JUMP JUMPDEST PUSH0 DUP1 REVERT JUMPDEST PUSH0 PUSH2 0x24EE PUSH2 0x24E9 DUP5 PUSH2 0x24AD JUMP JUMPDEST PUSH2 0x2493 JUMP JUMPDEST SWAP1 POP DUP1 DUP4 DUP3 MSTORE PUSH1 0x20 DUP3 ADD SWAP1 POP PUSH1 0x20 DUP5 MUL DUP4 ADD DUP6 DUP2 GT ISZERO PUSH2 0x2511 JUMPI PUSH2 0x2510 PUSH2 0x24D8 JUMP JUMPDEST JUMPDEST DUP4 JUMPDEST DUP2 DUP2 LT ISZERO PUSH2 0x253A JUMPI DUP1 PUSH2 0x2526 DUP9 DUP3 PUSH2 0x240D JUMP JUMPDEST DUP5 MSTORE PUSH1 0x20 DUP5 ADD SWAP4 POP POP PUSH1 0x20 DUP2 ADD SWAP1 POP PUSH2 0x2513 JUMP JUMPDEST POP POP POP SWAP4 SWAP3 POP POP POP JUMP JUMPDEST PUSH0 DUP3 PUSH1 0x1F DUP4 ADD SLT PUSH2 0x2558 JUMPI PUSH2 0x2557 PUSH2 0x2421 JUMP JUMPDEST JUMPDEST DUP2 CALLDATALOAD PUSH2 0x2568 DUP5 DUP3 PUSH1 0x20 DUP7 ADD PUSH2 0x24DC JUMP JUMPDEST SWAP2 POP POP SWAP3 SWAP2 POP POP JUMP JUMPDEST PUSH0 DUP1 PUSH0 PUSH1 0x60 DUP5 DUP7 SUB SLT ISZERO PUSH2 0x2588 JUMPI PUSH2 0x2587 PUSH2 0x2311 JUMP JUMPDEST JUMPDEST PUSH0 PUSH2 0x2595 DUP7 DUP3 DUP8 ADD PUSH2 0x240D JUMP JUMPDEST SWAP4 POP POP PUSH1 0x20 PUSH2 0x25A6 DUP7 DUP3 DUP8 ADD PUSH2 0x239C JUMP JUMPDEST SWAP3 POP POP PUSH1 0x40 DUP5 ADD CALLDATALOAD PUSH8 0xFFFFFFFFFFFFFFFF DUP2 GT ISZERO PUSH2 0x25C7 JUMPI PUSH2 0x25C6 PUSH2 0x2315 JUMP JUMPDEST JUMPDEST PUSH2 0x25D3 DUP7 DUP3 DUP8 ADD PUSH2 0x2544 JUMP JUMPDEST SWAP2 POP POP SWAP3 POP SWAP3 POP SWAP3 JUMP JUMPDEST PUSH0 DUP2 SWAP1 POP SWAP2 SWAP1 POP JUMP JUMPDEST PUSH2 0x25EF DUP2 PUSH2 0x25DD JUMP JUMPDEST DUP3 MSTORE POP POP JUMP JUMPDEST PUSH0 PUSH1 0x20 DUP3 ADD SWAP1 POP PUSH2 0x2608 PUSH0 DUP4 ADD DUP5 PUSH2 0x25E6 JUMP JUMPDEST SWAP3 SWAP2 POP POP JUMP JUMPDEST PUSH0 PUSH12 0xFFFFFFFFFFFFFFFFFFFFFFFF DUP3 AND SWAP1 POP SWAP2 SWAP1 POP JUMP JUMPDEST PUSH2 0x262E DUP2 PUSH2 0x260E JUMP JUMPDEST DUP3 MSTORE POP POP JUMP JUMPDEST PUSH0 PUSH1 0x20 DUP3 ADD SWAP1 POP PUSH2 0x2647 PUSH0 DUP4 ADD DUP5 PUSH2 0x2625 JUMP JUMPDEST SWAP3 SWAP2 POP POP JUMP JUMPDEST PUSH2 0x2656 DUP2 PUSH2 0x2235 JUMP JUMPDEST DUP2 EQ PUSH2 0x2660 JUMPI PUSH0 DUP1 REVERT JUMPDEST POP JUMP JUMPDEST PUSH0 DUP2 CALLDATALOAD SWAP1 POP PUSH2 0x2671 DUP2 PUSH2 0x264D JUMP JUMPDEST SWAP3 SWAP2 POP POP JUMP JUMPDEST PUSH2 0x2680 DUP2 PUSH2 0x21D2 JUMP JUMPDEST DUP2 EQ PUSH2 0x268A JUMPI PUSH0 DUP1 REVERT JUMPDEST POP JUMP JUMPDEST PUSH0 DUP2 CALLDATALOAD SWAP1 POP PUSH2 0x269B DUP2 PUSH2 0x2677 JUMP JUMPDEST SWAP3 SWAP2 POP POP JUMP JUMPDEST PUSH2 0x26AA DUP2 PUSH2 0x21EE JUMP JUMPDEST DUP2 EQ PUSH2 0x26B4 JUMPI PUSH0 DUP1 REVERT JUMPDEST POP JUMP JUMPDEST PUSH0 DUP2 CALLDATALOAD SWAP1 POP PUSH2 0x26C5 DUP2 PUSH2 0x26A1 JUMP JUMPDEST SWAP3 SWAP2 POP POP JUMP JUMPDEST PUSH0 DUP1 PUSH0 DUP1 PUSH0 PUSH1 0xA0 DUP7 DUP9 SUB SLT ISZERO PUSH2 0x26E4 JUMPI PUSH2 0x26E3 PUSH2 0x2311 JUMP JUMPDEST JUMPDEST PUSH0 PUSH2 0x26F1 DUP9 DUP3 DUP10 ADD PUSH2 0x2663 JUMP JUMPDEST SWAP6 POP POP PUSH1 0x20 PUSH2 0x2702 DUP9 DUP3 DUP10 ADD PUSH2 0x2342 JUMP JUMPDEST SWAP5 POP POP PUSH1 0x40 PUSH2 0x2713 DUP9 DUP3 DUP10 ADD PUSH2 0x268D JUMP JUMPDEST SWAP4 POP POP PUSH1 0x60 PUSH2 0x2724 DUP9 DUP3 DUP10 ADD PUSH2 0x26B7 JUMP JUMPDEST SWAP3 POP POP PUSH1 0x80 PUSH2 0x2735 DUP9 DUP3 DUP10 ADD PUSH2 0x26B7 JUMP JUMPDEST SWAP2 POP POP SWAP3 SWAP6 POP SWAP3 SWAP6 SWAP1 SWAP4 POP JUMP JUMPDEST PUSH2 0x274B DUP2 PUSH2 0x23EE JUMP JUMPDEST DUP3 MSTORE POP POP JUMP JUMPDEST PUSH0 PUSH1 0x20 DUP3 ADD SWAP1 POP PUSH2 0x2764 PUSH0 DUP4 ADD DUP5 PUSH2 0x2742 JUMP JUMPDEST SWAP3 SWAP2 POP POP JUMP JUMPDEST PUSH0 PUSH3 0xFFFFFF DUP3 AND SWAP1 POP SWAP2 SWAP1 POP JUMP JUMPDEST PUSH2 0x2781 DUP2 PUSH2 0x276A JUMP JUMPDEST DUP3 MSTORE POP POP JUMP JUMPDEST PUSH0 PUSH2 0x120 DUP3 ADD SWAP1 POP PUSH2 0x279B PUSH0 DUP4 ADD DUP13 PUSH2 0x21FD JUMP JUMPDEST PUSH2 0x27A8 PUSH1 0x20 DUP4 ADD DUP12 PUSH2 0x21FD JUMP JUMPDEST PUSH2 0x27B5 PUSH1 0x40 DUP4 ADD DUP11 PUSH2 0x21FD JUMP JUMPDEST PUSH2 0x27C2 PUSH1 0x60 DUP4 ADD DUP10 PUSH2 0x21FD JUMP JUMPDEST PUSH2 0x27CF PUSH1 0x80 DUP4 ADD DUP9 PUSH2 0x21FD JUMP JUMPDEST PUSH2 0x27DC PUSH1 0xA0 DUP4 ADD DUP8 PUSH2 0x2778 JUMP JUMPDEST PUSH2 0x27E9 PUSH1 0xC0 DUP4 ADD DUP7 PUSH2 0x2778 JUMP JUMPDEST PUSH2 0x27F6 PUSH1 0xE0 DUP4 ADD DUP6 PUSH2 0x2778 JUMP JUMPDEST PUSH2 0x2804 PUSH2 0x100 DUP4 ADD DUP5 PUSH2 0x2778 JUMP JUMPDEST SWAP11 SWAP10 POP POP POP POP POP POP POP POP POP POP JUMP JUMPDEST PUSH0 PUSH1 0x20 DUP3 ADD SWAP1 POP PUSH2 0x2825 PUSH0 DUP4 ADD DUP5 PUSH2 0x21DF JUMP JUMPDEST SWAP3 SWAP2 POP POP JUMP JUMPDEST PUSH0 DUP1 PUSH1 0x40 DUP4 DUP6 SUB SLT ISZERO PUSH2 0x2841 JUMPI PUSH2 0x2840 PUSH2 0x2311 JUMP JUMPDEST JUMPDEST PUSH0 PUSH2 0x284E DUP6 DUP3 DUP7 ADD PUSH2 0x240D JUMP JUMPDEST SWAP3 POP POP PUSH1 0x20 PUSH2 0x285F DUP6 DUP3 DUP7 ADD PUSH2 0x239C JUMP JUMPDEST SWAP2 POP POP SWAP3 POP SWAP3 SWAP1 POP JUMP JUMPDEST PUSH0 PUSH1 0x20 DUP3 DUP5 SUB SLT ISZERO PUSH2 0x287E JUMPI PUSH2 0x287D PUSH2 0x2311 JUMP JUMPDEST JUMPDEST PUSH0 PUSH2 0x288B DUP5 DUP3 DUP6 ADD PUSH2 0x2342 JUMP JUMPDEST SWAP2 POP POP SWAP3 SWAP2 POP POP JUMP JUMPDEST PUSH2 0x289D DUP2 PUSH2 0x2375 JUMP JUMPDEST DUP3 MSTORE POP POP JUMP JUMPDEST PUSH0 PUSH1 0x20 DUP3 ADD SWAP1 POP PUSH2 0x28B6 PUSH0 DUP4 ADD DUP5 PUSH2 0x2894 JUMP JUMPDEST SWAP3 SWAP2 POP POP JUMP JUMPDEST PUSH2 0x28C5 DUP2 PUSH2 0x2319 JUMP JUMPDEST DUP3 MSTORE POP POP JUMP JUMPDEST PUSH0 PUSH1 0x20 DUP3 ADD SWAP1 POP PUSH2 0x28DE PUSH0 DUP4 ADD DUP5 PUSH2 0x28BC JUMP JUMPDEST SWAP3 SWAP2 POP POP JUMP JUMPDEST PUSH0 DUP2 MLOAD SWAP1 POP SWAP2 SWAP1 POP JUMP JUMPDEST PUSH0 DUP3 DUP3 MSTORE PUSH1 0x20 DUP3 ADD SWAP1 POP SWAP3 SWAP2 POP POP JUMP JUMPDEST PUSH0 DUP2 SWAP1 POP PUSH1 0x20 DUP3 ADD SWAP1 POP SWAP2 SWAP1 POP JUMP JUMPDEST PUSH2 0x2916 DUP2 PUSH2 0x2375 JUMP JUMPDEST DUP3 MSTORE POP POP JUMP JUMPDEST PUSH0 PUSH2 0x2927 DUP4 DUP4 PUSH2 0x290D JUMP JUMPDEST PUSH1 0x20 DUP4 ADD SWAP1 POP SWAP3 SWAP2 POP POP JUMP JUMPDEST PUSH0 PUSH1 0x20 DUP3 ADD SWAP1 POP SWAP2 SWAP1 POP JUMP JUMPDEST PUSH0 PUSH2 0x2949 DUP3 PUSH2 0x28E4 JUMP JUMPDEST PUSH2 0x2953 DUP2 DUP6 PUSH2 0x28EE JUMP JUMPDEST SWAP4 POP PUSH2 0x295E DUP4 PUSH2 0x28FE JUMP JUMPDEST DUP1 PUSH0 JUMPDEST DUP4 DUP2 LT ISZERO PUSH2 0x298E JUMPI DUP2 MLOAD PUSH2 0x2975 DUP9 DUP3 PUSH2 0x291C JUMP JUMPDEST SWAP8 POP PUSH2 0x2980 DUP4 PUSH2 0x2933 JUMP JUMPDEST SWAP3 POP POP PUSH1 0x1 DUP2 ADD SWAP1 POP PUSH2 0x2961 JUMP JUMPDEST POP DUP6 SWAP4 POP POP POP POP SWAP3 SWAP2 POP POP JUMP JUMPDEST PUSH0 PUSH1 0x80 DUP3 ADD SWAP1 POP PUSH2 0x29AE PUSH0 DUP4 ADD DUP8 PUSH2 0x2625 JUMP JUMPDEST PUSH2 0x29BB PUSH1 0x20 DUP4 ADD DUP7 PUSH2 0x28BC JUMP JUMPDEST PUSH2 0x29C8 PUSH1 0x40 DUP4 ADD DUP6 PUSH2 0x2894 JUMP JUMPDEST DUP2 DUP2 SUB PUSH1 0x60 DUP4 ADD MSTORE PUSH2 0x29DA DUP2 DUP5 PUSH2 0x293F JUMP JUMPDEST SWAP1 POP SWAP6 SWAP5 POP POP POP POP POP JUMP JUMPDEST PUSH2 0x29EE DUP2 PUSH2 0x260E JUMP JUMPDEST DUP2 EQ PUSH2 0x29F8 JUMPI PUSH0 DUP1 REVERT JUMPDEST POP JUMP JUMPDEST PUSH0 DUP2 CALLDATALOAD SWAP1 POP PUSH2 0x2A09 DUP2 PUSH2 0x29E5 JUMP JUMPDEST SWAP3 SWAP2 POP POP JUMP JUMPDEST PUSH0 DUP1 PUSH1 0x40 DUP4 DUP6 SUB SLT ISZERO PUSH2 0x2A25 JUMPI PUSH2 0x2A24 PUSH2 0x2311 JUMP JUMPDEST JUMPDEST PUSH0 PUSH2 0x2A32 DUP6 DUP3 DUP7 ADD PUSH2 0x2342 JUMP JUMPDEST SWAP3 POP POP PUSH1 0x20 PUSH2 0x2A43 DUP6 DUP3 DUP7 ADD PUSH2 0x29FB JUMP JUMPDEST SWAP2 POP POP SWAP3 POP SWAP3 SWAP1 POP JUMP JUMPDEST PUSH0 PUSH1 0x80 DUP3 ADD SWAP1 POP PUSH2 0x2A60 PUSH0 DUP4 ADD DUP8 PUSH2 0x21DF JUMP JUMPDEST PUSH2 0x2A6D PUSH1 0x20 DUP4 ADD DUP7 PUSH2 0x21FD JUMP JUMPDEST PUSH2 0x2A7A PUSH1 0x40 DUP4 ADD DUP6 PUSH2 0x21FD JUMP JUMPDEST PUSH2 0x2A87 PUSH1 0x60 DUP4 ADD DUP5 PUSH2 0x21FD JUMP JUMPDEST SWAP6 SWAP5 POP POP POP POP POP JUMP JUMPDEST PUSH0 DUP2 ISZERO ISZERO SWAP1 POP SWAP2 SWAP1 POP JUMP JUMPDEST PUSH2 0x2AA4 DUP2 PUSH2 0x2A90 JUMP JUMPDEST DUP3 MSTORE POP POP JUMP JUMPDEST PUSH0 PUSH1 0x20 DUP3 ADD SWAP1 POP PUSH2 0x2ABD PUSH0 DUP4 ADD DUP5 PUSH2 0x2A9B JUMP JUMPDEST SWAP3 SWAP2 POP POP JUMP JUMPDEST PUSH0 PUSH1 0x20 DUP3 DUP5 SUB SLT ISZERO PUSH2 0x2AD8 JUMPI PUSH2 0x2AD7 PUSH2 0x2311 JUMP JUMPDEST JUMPDEST PUSH0 PUSH2 0x2AE5 DUP5 DUP3 DUP6 ADD PUSH2 0x239C JUMP JUMPDEST SWAP2 POP POP SWAP3 SWAP2 POP POP JUMP JUMPDEST PUSH0 DUP3 DUP3 MSTORE PUSH1 0x20 DUP3 ADD SWAP1 POP SWAP3 SWAP2 POP POP JUMP JUMPDEST PUSH32 0x6E6F7420696D706C656D656E7465640000000000000000000000000000000000 PUSH0 DUP3 ADD MSTORE POP JUMP JUMPDEST PUSH0 PUSH2 0x2B32 PUSH1 0xF DUP4 PUSH2 0x2AEE JUMP JUMPDEST SWAP2 POP PUSH2 0x2B3D DUP3 PUSH2 0x2AFE JUMP JUMPDEST PUSH1 0x20 DUP3 ADD SWAP1 POP SWAP2 SWAP1 POP JUMP JUMPDEST PUSH0 PUSH1 0x20 DUP3 ADD SWAP1 POP DUP2 DUP2 SUB PUSH0 DUP4 ADD MSTORE PUSH2 0x2B5F DUP2 PUSH2 0x2B26 JUMP JUMPDEST SWAP1 POP SWAP2 SWAP1 POP JUMP JUMPDEST PUSH32 0x6E6F6E6578697374656E74207265717565737400000000000000000000000000 PUSH0 DUP3 ADD MSTORE POP JUMP JUMPDEST PUSH0 PUSH2 0x2B9A PUSH1 0x13 DUP4 PUSH2 0x2AEE JUMP JUMPDEST SWAP2 POP PUSH2 0x2BA5 DUP3 PUSH2 0x2B66 JUMP JUMPDEST PUSH1 0x20 DUP3 ADD SWAP1 POP SWAP2 SWAP1 POP JUMP JUMPDEST PUSH0 PUSH1 0x20 DUP3 ADD SWAP1 POP DUP2 DUP2 SUB PUSH0 DUP4 ADD MSTORE PUSH2 0x2BC7 DUP2 PUSH2 0x2B8E JUMP JUMPDEST SWAP1 POP SWAP2 SWAP1 POP JUMP JUMPDEST PUSH0 PUSH1 0x40 DUP3 ADD SWAP1 POP PUSH2 0x2BE1 PUSH0 DUP4 ADD DUP6 PUSH2 0x2742 JUMP JUMPDEST PUSH2 0x2BEE PUSH1 0x20 DUP4 ADD DUP5 PUSH2 0x2742 JUMP JUMPDEST SWAP4 SWAP3 POP POP POP JUMP JUMPDEST PUSH32 0x4E487B7100000000000000000000000000000000000000000000000000000000 PUSH0 MSTORE PUSH1 0x32 PUSH1 0x4 MSTORE PUSH1 0x24 PUSH0 REVERT JUMPDEST PUSH32 0x4E487B7100000000000000000000000000000000000000000000000000000000 PUSH0 MSTORE PUSH1 0x11 PUSH1 0x4 MSTORE PUSH1 0x24 PUSH0 REVERT JUMPDEST PUSH0 PUSH2 0x2C59 DUP3 PUSH2 0x23EE JUMP JUMPDEST SWAP2 POP PUSH32 0xFFFFFFFFFFFFFFFFFFFFFFFFFFFFFFFFFFFFFFFFFFFFFFFFFFFFFFFFFFFFFFFF DUP3 SUB PUSH2 0x2C8B JUMPI PUSH2 0x2C8A PUSH2 0x2C22 JUMP JUMPDEST JUMPDEST PUSH1 0x1 DUP3 ADD SWAP1 POP SWAP2 SWAP1 POP JUMP JUMPDEST PUSH0 DUP2 MLOAD SWAP1 POP SWAP2 SWAP1 POP JUMP JUMPDEST PUSH0 DUP3 DUP3 MSTORE PUSH1 0x20 DUP3 ADD SWAP1 POP SWAP3 SWAP2 POP POP JUMP JUMPDEST PUSH0 DUP2 SWAP1 POP PUSH1 0x20 DUP3 ADD SWAP1 POP SWAP2 SWAP1 POP JUMP JUMPDEST PUSH2 0x2CC8 DUP2 PUSH2 0x23EE JUMP JUMPDEST DUP3 MSTORE POP POP JUMP JUMPDEST PUSH0 PUSH2 0x2CD9 DUP4 DUP4 PUSH2 0x2CBF JUMP JUMPDEST PUSH1 0x20 DUP4 ADD SWAP1 POP SWAP3 SWAP2 POP POP JUMP JUMPDEST PUSH0 PUSH1 0x20 DUP3 ADD SWAP1 POP SWAP2 SWAP1 POP JUMP JUMPDEST PUSH0 PUSH2 0x2CFB DUP3 PUSH2 0x2C96 JUMP JUMPDEST PUSH2 0x2D05 DUP2 DUP6 PUSH2 0x2CA0 JUMP JUMPDEST SWAP4 POP PUSH2 0x2D10 DUP4 PUSH2 0x2CB0 JUMP JUMPDEST DUP1 PUSH0 JUMPDEST DUP4 DUP2 LT ISZERO PUSH2 0x2D40 JUMPI DUP2 MLOAD PUSH2 0x2D27 DUP9 DUP3 PUSH2 0x2CCE JUMP JUMPDEST SWAP8 POP PUSH2 0x2D32 DUP4 PUSH2 0x2CE5 JUMP JUMPDEST SWAP3 POP POP PUSH1 0x1 DUP2 ADD SWAP1 POP PUSH2 0x2D13 JUMP JUMPDEST POP DUP6 SWAP4 POP POP POP POP SWAP3 SWAP2 POP POP JUMP JUMPDEST PUSH0 PUSH1 0x40 DUP3 ADD SWAP1 POP PUSH2 0x2D60 PUSH0 DUP4 ADD DUP6 PUSH2 0x2742 JUMP JUMPDEST DUP2 DUP2 SUB PUSH1 0x20 DUP4 ADD MSTORE PUSH2 0x2D72 DUP2 DUP5 PUSH2 0x2CF1 JUMP JUMPDEST SWAP1 POP SWAP4 SWAP3 POP POP POP JUMP JUMPDEST PUSH0 DUP2 MLOAD SWAP1 POP SWAP2 SWAP1 POP JUMP JUMPDEST PUSH0 DUP2 SWAP1 POP SWAP3 SWAP2 POP POP JUMP JUMPDEST PUSH0 JUMPDEST DUP4 DUP2 LT ISZERO PUSH2 0x2DAC JUMPI DUP1 DUP3 ADD MLOAD DUP2 DUP5 ADD MSTORE PUSH1 0x20 DUP2 ADD SWAP1 POP PUSH2 0x2D91 JUMP JUMPDEST PUSH0 DUP5 DUP5 ADD MSTORE POP POP POP POP JUMP JUMPDEST PUSH0 PUSH2 0x2DC1 DUP3 PUSH2 0x2D7B JUMP JUMPDEST PUSH2 0x2DCB DUP2 DUP6 PUSH2 0x2D85 JUMP JUMPDEST SWAP4 POP PUSH2 0x2DDB DUP2 DUP6 PUSH1 0x20 DUP7 ADD PUSH2 0x2D8F JUMP JUMPDEST DUP1 DUP5 ADD SWAP2 POP POP SWAP3 SWAP2 POP POP JUMP JUMPDEST PUSH0 PUSH2 0x2DF2 DUP3 DUP5 PUSH2 0x2DB7 JUMP JUMPDEST SWAP2 POP DUP2 SWAP1 POP SWAP3 SWAP2 POP POP JUMP JUMPDEST PUSH0 PUSH2 0x2E07 DUP3 PUSH2 0x23EE JUMP JUMPDEST SWAP2 POP PUSH2 0x2E12 DUP4 PUSH2 0x23EE JUMP JUMPDEST SWAP3 POP DUP3 DUP3 SUB SWAP1 POP DUP2 DUP2 GT ISZERO PUSH2 0x2E2A JUMPI PUSH2 0x2E29 PUSH2 0x2C22 JUMP JUMPDEST JUMPDEST SWAP3 SWAP2 POP POP JUMP JUMPDEST PUSH0 PUSH2 0x2E3A DUP3 PUSH2 0x23EE JUMP JUMPDEST SWAP2 POP PUSH2 0x2E45 DUP4 PUSH2 0x23EE JUMP JUMPDEST SWAP3 POP DUP3 DUP3 MUL PUSH2 0x2E53 DUP2 PUSH2 0x23EE JUMP JUMPDEST SWAP2 POP DUP3 DUP3 DIV DUP5 EQ DUP4 ISZERO OR PUSH2 0x2E6A JUMPI PUSH2 0x2E69 PUSH2 0x2C22 JUMP JUMPDEST JUMPDEST POP SWAP3 SWAP2 POP POP JUMP JUMPDEST PUSH0 PUSH2 0x2E7B DUP3 PUSH2 0x23EE JUMP JUMPDEST SWAP2 POP PUSH2 0x2E86 DUP4 PUSH2 0x23EE JUMP JUMPDEST SWAP3 POP DUP3 DUP3 ADD SWAP1 POP DUP1 DUP3 GT ISZERO PUSH2 0x2E9E JUMPI PUSH2 0x2E9D PUSH2 0x2C22 JUMP JUMPDEST JUMPDEST SWAP3 SWAP2 POP POP JUMP JUMPDEST PUSH0 PUSH2 0x2EAE DUP3 PUSH2 0x260E JUMP JUMPDEST SWAP2 POP PUSH2 0x2EB9 DUP4 PUSH2 0x260E JUMP JUMPDEST SWAP3 POP DUP3 DUP3 SUB SWAP1 POP PUSH12 0xFFFFFFFFFFFFFFFFFFFFFFFF DUP2 GT ISZERO PUSH2 0x2EDD JUMPI PUSH2 0x2EDC PUSH2 0x2C22 JUMP JUMPDEST JUMPDEST SWAP3 SWAP2 POP POP JUMP JUMPDEST PUSH0 PUSH1 0x60 DUP3 ADD SWAP1 POP PUSH2 0x2EF6 PUSH0 DUP4 ADD DUP7 PUSH2 0x2742 JUMP JUMPDEST PUSH2 0x2F03 PUSH1 0x20 DUP4 ADD DUP6 PUSH2 0x2625 JUMP JUMPDEST PUSH2 0x2F10 PUSH1 0x40 DUP4 ADD DUP5 PUSH2 0x2A9B JUMP JUMPDEST SWAP5 SWAP4 POP POP POP POP JUMP JUMPDEST PUSH0 PUSH1 0xA0 DUP3 ADD SWAP1 POP PUSH2 0x2F2B PUSH0 DUP4 ADD DUP9 PUSH2 0x2742 JUMP JUMPDEST PUSH2 0x2F38 PUSH1 0x20 DUP4 ADD DUP8 PUSH2 0x2742 JUMP JUMPDEST PUSH2 0x2F45 PUSH1 0x40 DUP4 ADD DUP7 PUSH2 0x21DF JUMP JUMPDEST PUSH2 0x2F52 PUSH1 0x60 DUP4 ADD DUP6 PUSH2 0x21FD JUMP JUMPDEST PUSH2 0x2F5F PUSH1 0x80 DUP4 ADD DUP5 PUSH2 0x21FD JUMP JUMPDEST SWAP7 SWAP6 POP POP POP POP POP POP JUMP JUMPDEST PUSH32 0x4D7573742062652070726F706F736564206F776E657200000000000000000000 PUSH0 DUP3 ADD MSTORE POP JUMP JUMPDEST PUSH0 PUSH2 0x2F9D PUSH1 0x16 DUP4 PUSH2 0x2AEE JUMP JUMPDEST SWAP2 POP PUSH2 0x2FA8 DUP3 PUSH2 0x2F69 JUMP JUMPDEST PUSH1 0x20 DUP3 ADD SWAP1 POP SWAP2 SWAP1 POP JUMP JUMPDEST PUSH0 PUSH1 0x20 DUP3 ADD SWAP1 POP DUP2 DUP2 SUB PUSH0 DUP4 ADD MSTORE PUSH2 0x2FCA DUP2 PUSH2 0x2F91 JUMP JUMPDEST SWAP1 POP SWAP2 SWAP1 POP JUMP JUMPDEST PUSH32 0x4E487B7100000000000000000000000000000000000000000000000000000000 PUSH0 MSTORE PUSH1 0x31 PUSH1 0x4 MSTORE PUSH1 0x24 PUSH0 REVERT JUMPDEST PUSH0 PUSH2 0x3008 DUP3 PUSH2 0x2319 JUMP JUMPDEST SWAP2 POP PUSH8 0xFFFFFFFFFFFFFFFF DUP3 SUB PUSH2 0x3022 JUMPI PUSH2 0x3021 PUSH2 0x2C22 JUMP JUMPDEST JUMPDEST PUSH1 0x1 DUP3 ADD SWAP1 POP SWAP2 SWAP1 POP JUMP JUMPDEST PUSH0 PUSH2 0x3037 DUP3 PUSH2 0x260E JUMP JUMPDEST SWAP2 POP PUSH2 0x3042 DUP4 PUSH2 0x260E JUMP JUMPDEST SWAP3 POP DUP3 DUP3 ADD SWAP1 POP PUSH12 0xFFFFFFFFFFFFFFFFFFFFFFFF DUP2 GT ISZERO PUSH2 0x3066 JUMPI PUSH2 0x3065 PUSH2 0x2C22 JUMP JUMPDEST JUMPDEST SWAP3 SWAP2 POP POP JUMP JUMPDEST PUSH0 DUP2 SWAP1 POP SWAP2 SWAP1 POP JUMP JUMPDEST PUSH0 PUSH2 0x308F PUSH2 0x308A PUSH2 0x3085 DUP5 PUSH2 0x260E JUMP JUMPDEST PUSH2 0x306C JUMP JUMPDEST PUSH2 0x23EE JUMP JUMPDEST SWAP1 POP SWAP2 SWAP1 POP JUMP JUMPDEST PUSH2 0x309F DUP2 PUSH2 0x3075 JUMP JUMPDEST DUP3 MSTORE POP POP JUMP JUMPDEST PUSH0 PUSH1 0x40 DUP3 ADD SWAP1 POP PUSH2 0x30B8 PUSH0 DUP4 ADD DUP6 PUSH2 0x3096 JUMP JUMPDEST PUSH2 0x30C5 PUSH1 0x20 DUP4 ADD DUP5 PUSH2 0x3096 JUMP JUMPDEST SWAP4 SWAP3 POP POP POP JUMP JUMPDEST PUSH0 PUSH1 0x40 DUP3 ADD SWAP1 POP PUSH2 0x30DF PUSH0 DUP4 ADD DUP6 PUSH2 0x2894 JUMP JUMPDEST PUSH2 0x30EC PUSH1 0x20 DUP4 ADD DUP5 PUSH2 0x3096 JUMP JUMPDEST SWAP4 SWAP3 POP POP POP JUMP JUMPDEST PUSH32 0x4F6E6C792063616C6C61626C65206279206F776E657200000000000000000000 PUSH0 DUP3 ADD MSTORE POP JUMP JUMPDEST PUSH0 PUSH2 0x3127 PUSH1 0x16 DUP4 PUSH2 0x2AEE JUMP JUMPDEST SWAP2 POP PUSH2 0x3132 DUP3 PUSH2 0x30F3 JUMP JUMPDEST PUSH1 0x20 DUP3 ADD SWAP1 POP SWAP2 SWAP1 POP JUMP JUMPDEST PUSH0 PUSH1 0x20 DUP3 ADD SWAP1 POP DUP2 DUP2 SUB PUSH0 DUP4 ADD MSTORE PUSH2 0x3154 DUP2 PUSH2 0x311B JUMP JUMPDEST SWAP1 POP SWAP2 SWAP1 POP JUMP JUMPDEST PUSH32 0x43616E6E6F74207472616E7366657220746F2073656C66000000000000000000 PUSH0 DUP3 ADD MSTORE POP JUMP JUMPDEST PUSH0 PUSH2 0x318F PUSH1 0x17 DUP4 PUSH2 0x2AEE JUMP JUMPDEST SWAP2 POP PUSH2 0x319A DUP3 PUSH2 0x315B JUMP JUMPDEST PUSH1 0x20 DUP3 ADD SWAP1 POP SWAP2 SWAP1 POP JUMP JUMPDEST PUSH0 PUSH1 0x20 DUP3 ADD SWAP1 POP DUP2 DUP2 SUB PUSH0 DUP4 ADD MSTORE PUSH2 0x31BC DUP2 PUSH2 0x3183 JUMP JUMPDEST SWAP1 POP SWAP2 SWAP1 POP JUMP INVALID LOG2 PUSH5 0x6970667358 0x22 SLT KECCAK256 MULMOD SWAP9 PREVRANDAO SWAP1 DUP15 0xFC 0xF9 PUSH25 0x919F7B91AABC6B8FE99025E643358CA494ECDE599064E11A64 PUSH20 0x6F6C634300081400330000000000000000000000 "
				},
				"gasEstimates": {
					"creation": {
						"codeDepositCost": "2558600",
						"executionCost": "infinite",
						"totalCost": "infinite"
					},
					"external": {
						"BASE_FEE()": "infinite",
						"GAS_PRICE_LINK()": "infinite",
						"MAX_CONSUMERS()": "infinite",
						"acceptOwnership()": "54622",
						"acceptSubscriptionOwnerTransfer(uint64)": "823",
						"addConsumer(uint64,address)": "infinite",
						"cancelSubscription(uint64,address)": "infinite",
						"consumerIsAdded(uint64,address)": "infinite",
						"createSubscription()": "infinite",
						"fulfillRandomWords(uint256,address)": "infinite",
						"fulfillRandomWordsWithOverride(uint256,address,uint256[])": "infinite",
						"fundSubscription(uint64,uint96)": "infinite",
						"getConfig()": "infinite",
						"getFallbackWeiPerUnitLink()": "422",
						"getFeeConfig()": "infinite",
						"getRequestConfig()": "896",
						"getSubscription(uint64)": "infinite",
						"owner()": "2560",
						"pendingRequestExists(uint64)": "780",
						"removeConsumer(uint64,address)": "infinite",
						"requestRandomWords(bytes32,uint64,uint16,uint32,uint32)": "infinite",
						"requestSubscriptionOwnerTransfer(uint64,address)": "953",
						"setConfig()": "27468",
						"transferOwnership(address)": "30777"
					}
				},
				"methodIdentifiers": {
					"BASE_FEE()": "3d18651e",
					"GAS_PRICE_LINK()": "a410347f",
					"MAX_CONSUMERS()": "64d51a2a",
					"acceptOwnership()": "79ba5097",
					"acceptSubscriptionOwnerTransfer(uint64)": "82359740",
					"addConsumer(uint64,address)": "7341c10c",
					"cancelSubscription(uint64,address)": "d7ae1d30",
					"consumerIsAdded(uint64,address)": "ed5eb06d",
					"createSubscription()": "a21a23e4",
					"fulfillRandomWords(uint256,address)": "808974ff",
					"fulfillRandomWordsWithOverride(uint256,address,uint256[])": "08e3898e",
					"fundSubscription(uint64,uint96)": "afc69b53",
					"getConfig()": "c3f909d4",
					"getFallbackWeiPerUnitLink()": "356dac71",
					"getFeeConfig()": "5fbbc0d2",
					"getRequestConfig()": "00012291",
					"getSubscription(uint64)": "a47c7696",
					"owner()": "8da5cb5b",
					"pendingRequestExists(uint64)": "e82ad7d4",
					"removeConsumer(uint64,address)": "9f87fad7",
					"requestRandomWords(bytes32,uint64,uint16,uint32,uint32)": "5d3b1d30",
					"requestSubscriptionOwnerTransfer(uint64,address)": "04c357cb",
					"setConfig()": "8b673e7a",
					"transferOwnership(address)": "f2fde38b"
				}
			},
			"storageLayout": {
				"storage": [
					{
						"astId": 1055,
						"contract": "@chainlink/contracts/src/v0.8/mocks/VRFCoordinatorV2Mock.sol:VRFCoordinatorV2Mock",
						"label": "s_owner",
						"offset": 0,
						"slot": "0",
						"type": "t_address"
					},
					{
						"astId": 1057,
						"contract": "@chainlink/contracts/src/v0.8/mocks/VRFCoordinatorV2Mock.sol:VRFCoordinatorV2Mock",
						"label": "s_pendingOwner",
						"offset": 0,
						"slot": "1",
						"type": "t_address"
					},
					{
						"astId": 198,
						"contract": "@chainlink/contracts/src/v0.8/mocks/VRFCoordinatorV2Mock.sol:VRFCoordinatorV2Mock",
						"label": "s_config",
						"offset": 0,
						"slot": "2",
						"type": "t_struct(Config)195_storage"
					},
					{
						"astId": 200,
						"contract": "@chainlink/contracts/src/v0.8/mocks/VRFCoordinatorV2Mock.sol:VRFCoordinatorV2Mock",
						"label": "s_currentSubId",
						"offset": 0,
						"slot": "3",
						"type": "t_uint64"
					},
					{
						"astId": 203,
						"contract": "@chainlink/contracts/src/v0.8/mocks/VRFCoordinatorV2Mock.sol:VRFCoordinatorV2Mock",
						"label": "s_nextRequestId",
						"offset": 0,
						"slot": "4",
						"type": "t_uint256"
					},
					{
						"astId": 206,
						"contract": "@chainlink/contracts/src/v0.8/mocks/VRFCoordinatorV2Mock.sol:VRFCoordinatorV2Mock",
						"label": "s_nextPreSeed",
						"offset": 0,
						"slot": "5",
						"type": "t_uint256"
					},
					{
						"astId": 216,
						"contract": "@chainlink/contracts/src/v0.8/mocks/VRFCoordinatorV2Mock.sol:VRFCoordinatorV2Mock",
						"label": "s_subscriptions",
						"offset": 0,
						"slot": "6",
						"type": "t_mapping(t_uint64,t_struct(Subscription)211_storage)"
					},
					{
						"astId": 221,
						"contract": "@chainlink/contracts/src/v0.8/mocks/VRFCoordinatorV2Mock.sol:VRFCoordinatorV2Mock",
						"label": "s_consumers",
						"offset": 0,
						"slot": "7",
						"type": "t_mapping(t_uint64,t_array(t_address)dyn_storage)"
					},
					{
						"astId": 233,
						"contract": "@chainlink/contracts/src/v0.8/mocks/VRFCoordinatorV2Mock.sol:VRFCoordinatorV2Mock",
						"label": "s_requests",
						"offset": 0,
						"slot": "8",
						"type": "t_mapping(t_uint256,t_struct(Request)228_storage)"
					}
				],
				"types": {
					"t_address": {
						"encoding": "inplace",
						"label": "address",
						"numberOfBytes": "20"
					},
					"t_array(t_address)dyn_storage": {
						"base": "t_address",
						"encoding": "dynamic_array",
						"label": "address[]",
						"numberOfBytes": "32"
					},
					"t_bool": {
						"encoding": "inplace",
						"label": "bool",
						"numberOfBytes": "1"
					},
					"t_mapping(t_uint256,t_struct(Request)228_storage)": {
						"encoding": "mapping",
						"key": "t_uint256",
						"label": "mapping(uint256 => struct VRFCoordinatorV2Mock.Request)",
						"numberOfBytes": "32",
						"value": "t_struct(Request)228_storage"
					},
					"t_mapping(t_uint64,t_array(t_address)dyn_storage)": {
						"encoding": "mapping",
						"key": "t_uint64",
						"label": "mapping(uint64 => address[])",
						"numberOfBytes": "32",
						"value": "t_array(t_address)dyn_storage"
					},
					"t_mapping(t_uint64,t_struct(Subscription)211_storage)": {
						"encoding": "mapping",
						"key": "t_uint64",
						"label": "mapping(uint64 => struct VRFCoordinatorV2Mock.Subscription)",
						"numberOfBytes": "32",
						"value": "t_struct(Subscription)211_storage"
					},
					"t_struct(Config)195_storage": {
						"encoding": "inplace",
						"label": "struct VRFCoordinatorV2Mock.Config",
						"members": [
							{
								"astId": 194,
								"contract": "@chainlink/contracts/src/v0.8/mocks/VRFCoordinatorV2Mock.sol:VRFCoordinatorV2Mock",
								"label": "reentrancyLock",
								"offset": 0,
								"slot": "0",
								"type": "t_bool"
							}
						],
						"numberOfBytes": "32"
					},
					"t_struct(Request)228_storage": {
						"encoding": "inplace",
						"label": "struct VRFCoordinatorV2Mock.Request",
						"members": [
							{
								"astId": 223,
								"contract": "@chainlink/contracts/src/v0.8/mocks/VRFCoordinatorV2Mock.sol:VRFCoordinatorV2Mock",
								"label": "subId",
								"offset": 0,
								"slot": "0",
								"type": "t_uint64"
							},
							{
								"astId": 225,
								"contract": "@chainlink/contracts/src/v0.8/mocks/VRFCoordinatorV2Mock.sol:VRFCoordinatorV2Mock",
								"label": "callbackGasLimit",
								"offset": 8,
								"slot": "0",
								"type": "t_uint32"
							},
							{
								"astId": 227,
								"contract": "@chainlink/contracts/src/v0.8/mocks/VRFCoordinatorV2Mock.sol:VRFCoordinatorV2Mock",
								"label": "numWords",
								"offset": 12,
								"slot": "0",
								"type": "t_uint32"
							}
						],
						"numberOfBytes": "32"
					},
					"t_struct(Subscription)211_storage": {
						"encoding": "inplace",
						"label": "struct VRFCoordinatorV2Mock.Subscription",
						"members": [
							{
								"astId": 208,
								"contract": "@chainlink/contracts/src/v0.8/mocks/VRFCoordinatorV2Mock.sol:VRFCoordinatorV2Mock",
								"label": "owner",
								"offset": 0,
								"slot": "0",
								"type": "t_address"
							},
							{
								"astId": 210,
								"contract": "@chainlink/contracts/src/v0.8/mocks/VRFCoordinatorV2Mock.sol:VRFCoordinatorV2Mock",
								"label": "balance",
								"offset": 20,
								"slot": "0",
								"type": "t_uint96"
							}
						],
						"numberOfBytes": "32"
					},
					"t_uint256": {
						"encoding": "inplace",
						"label": "uint256",
						"numberOfBytes": "32"
					},
					"t_uint32": {
						"encoding": "inplace",
						"label": "uint32",
						"numberOfBytes": "4"
					},
					"t_uint64": {
						"encoding": "inplace",
						"label": "uint64",
						"numberOfBytes": "8"
					},
					"t_uint96": {
						"encoding": "inplace",
						"label": "uint96",
						"numberOfBytes": "12"
					}
				}
			},
			"userdoc": {
				"kind": "user",
				"methods": {
					"acceptOwnership()": {
						"notice": "Allows an ownership transfer to be completed by the recipient."
					},
					"createSubscription()": {
						"notice": "Create a VRF subscription."
					},
					"fulfillRandomWords(uint256,address)": {
						"notice": "fulfillRandomWords fulfills the given request, sending the random words to the suppliedconsumer."
					},
					"fulfillRandomWordsWithOverride(uint256,address,uint256[])": {
						"notice": "fulfillRandomWordsWithOverride allows the user to pass in their own random words."
					},
					"fundSubscription(uint64,uint96)": {
						"notice": "fundSubscription allows funding a subscription with an arbitrary amount for testing."
					},
					"getRequestConfig()": {
						"notice": "Get configuration relevant for making requests"
					},
					"owner()": {
						"notice": "Get the current owner"
					},
					"setConfig()": {
						"notice": "Sets the configuration of the vrfv2 mock coordinator"
					},
					"transferOwnership(address)": {
						"notice": "Allows an owner to begin transferring ownership to a new address."
					}
				},
				"version": 1
			}
		}
	}
}