{
  "contracts/Level3.sol": {
    "Level3": {
      "abi": [
        {
          "inputs": [
            {
              "internalType": "bytes",
              "name": "packed",
              "type": "bytes"
            }
          ],
          "name": "solution",
          "outputs": [
            {
              "internalType": "uint16",
              "name": "a",
              "type": "uint16"
            },
            {
              "internalType": "bool",
              "name": "b",
              "type": "bool"
            },
            {
              "internalType": "bytes6",
              "name": "c",
              "type": "bytes6"
            }
          ],
          "stateMutability": "pure",
          "type": "function"
        }
      ],
      "evm": {
        "bytecode": {
          "linkReferences": {},
          "object": "608060405234801561001057600080fd5b506105a5806100206000396000f3fe608060405234801561001057600080fd5b506004361061002b5760003560e01c8063ce0b123814610030575b600080fd5b61004a600480360381019061004591906103d0565b610062565b6040516100599392919061048c565b60405180910390f35b60008060006009845110156100ac576040517f08c379a00000000000000000000000000000000000000000000000000000000081526004016100a390610520565b60405180910390fd5b836001815181106100c0576100bf610540565b5b602001015160f81c60f81b60f81c60ff166008856000815181106100e7576100e6610540565b5b602001015160f81c60f81b60f81c60ff1661ffff16901b179250600060f81b8460028151811061011a57610119610540565b5b602001015160f81c60f81b7effffffffffffffffffffffffffffffffffffffffffffffffffffffffffffff1916141591508360088151811061015f5761015e610540565b5b602001015160f81c60f81b60f81c60ff1660088560078151811061018657610185610540565b5b602001015160f81c60f81b60f81c60ff1665ffffffffffff16901b6010866006815181106101b7576101b6610540565b5b602001015160f81c60f81b60f81c60ff1665ffffffffffff16901b6018876005815181106101e8576101e7610540565b5b602001015160f81c60f81b60f81c60ff1665ffffffffffff16901b60208860048151811061021957610218610540565b5b602001015160f81c60f81b60f81c60ff1665ffffffffffff16901b60288960038151811061024a57610249610540565b5b602001015160f81c60f81b60f81c60ff1665ffffffffffff16901b171717171760d01b90509193909250565b6000604051905090565b600080fd5b600080fd5b600080fd5b600080fd5b6000601f19601f8301169050919050565b7f4e487b7100000000000000000000000000000000000000000000000000000000600052604160045260246000fd5b6102dd82610294565b810181811067ffffffffffffffff821117156102fc576102fb6102a5565b5b80604052505050565b600061030f610276565b905061031b82826102d4565b919050565b600067ffffffffffffffff82111561033b5761033a6102a5565b5b61034482610294565b9050602081019050919050565b82818337600083830152505050565b600061037361036e84610320565b610305565b90508281526020810184848401111561038f5761038e61028f565b5b61039a848285610351565b509392505050565b600082601f8301126103b7576103b661028a565b5b81356103c7848260208601610360565b91505092915050565b6000602082840312156103e6576103e5610280565b5b600082013567ffffffffffffffff81111561040457610403610285565b5b610410848285016103a2565b91505092915050565b600061ffff82169050919050565b61043081610419565b82525050565b60008115159050919050565b61044b81610436565b82525050565b60007fffffffffffff000000000000000000000000000000000000000000000000000082169050919050565b61048681610451565b82525050565b60006060820190506104a16000830186610427565b6104ae6020830185610442565b6104bb604083018461047d565b949350505050565b600082825260208201905092915050565b7f496e70757420746f6f2073686f72740000000000000000000000000000000000600082015250565b600061050a600f836104c3565b9150610515826104d4565b602082019050919050565b60006020820190508181036000830152610539816104fd565b9050919050565b7f4e487b7100000000000000000000000000000000000000000000000000000000600052603260045260246000fdfea2646970667358221220cda3e232d6517bdbfa5e34d6034476c66b588575ef1e46b690cc8b30e07b668d64736f6c63430008130033",
          "opcodes": "PUSH1 0x80 PUSH1 0x40 MSTORE CALLVALUE DUP1 ISZERO PUSH2 0x10 JUMPI PUSH1 0x0 DUP1 REVERT JUMPDEST POP PUSH2 0x5A5 DUP1 PUSH2 0x20 PUSH1 0x0 CODECOPY PUSH1 0x0 RETURN INVALID PUSH1 0x80 PUSH1 0x40 MSTORE CALLVALUE DUP1 ISZERO PUSH2 0x10 JUMPI PUSH1 0x0 DUP1 REVERT JUMPDEST POP PUSH1 0x4 CALLDATASIZE LT PUSH2 0x2B JUMPI PUSH1 0x0 CALLDATALOAD PUSH1 0xE0 SHR DUP1 PUSH4 0xCE0B1238 EQ PUSH2 0x30 JUMPI JUMPDEST PUSH1 0x0 DUP1 REVERT JUMPDEST PUSH2 0x4A PUSH1 0x4 DUP1 CALLDATASIZE SUB DUP2 ADD SWAP1 PUSH2 0x45 SWAP2 SWAP1 PUSH2 0x3D0 JUMP JUMPDEST PUSH2 0x62 JUMP JUMPDEST PUSH1 0x40 MLOAD PUSH2 0x59 SWAP4 SWAP3 SWAP2 SWAP1 PUSH2 0x48C JUMP JUMPDEST PUSH1 0x40 MLOAD DUP1 SWAP2 SUB SWAP1 RETURN JUMPDEST PUSH1 0x0 DUP1 PUSH1 0x0 PUSH1 0x9 DUP5 MLOAD LT ISZERO PUSH2 0xAC JUMPI PUSH1 0x40 MLOAD PUSH32 0x8C379A000000000000000000000000000000000000000000000000000000000 DUP2 MSTORE PUSH1 0x4 ADD PUSH2 0xA3 SWAP1 PUSH2 0x520 JUMP JUMPDEST PUSH1 0x40 MLOAD DUP1 SWAP2 SUB SWAP1 REVERT JUMPDEST DUP4 PUSH1 0x1 DUP2 MLOAD DUP2 LT PUSH2 0xC0 JUMPI PUSH2 0xBF PUSH2 0x540 JUMP JUMPDEST JUMPDEST PUSH1 0x20 ADD ADD MLOAD PUSH1 0xF8 SHR PUSH1 0xF8 SHL PUSH1 0xF8 SHR PUSH1 0xFF AND PUSH1 0x8 DUP6 PUSH1 0x0 DUP2 MLOAD DUP2 LT PUSH2 0xE7 JUMPI PUSH2 0xE6 PUSH2 0x540 JUMP JUMPDEST JUMPDEST PUSH1 0x20 ADD ADD MLOAD PUSH1 0xF8 SHR PUSH1 0xF8 SHL PUSH1 0xF8 SHR PUSH1 0xFF AND PUSH2 0xFFFF AND SWAP1 SHL OR SWAP3 POP PUSH1 0x0 PUSH1 0xF8 SHL DUP5 PUSH1 0x2 DUP2 MLOAD DUP2 LT PUSH2 0x11A JUMPI PUSH2 0x119 PUSH2 0x540 JUMP JUMPDEST JUMPDEST PUSH1 0x20 ADD ADD MLOAD PUSH1 0xF8 SHR PUSH1 0xF8 SHL PUSH31 0xFFFFFFFFFFFFFFFFFFFFFFFFFFFFFFFFFFFFFFFFFFFFFFFFFFFFFFFFFFFFFF NOT AND EQ ISZERO SWAP2 POP DUP4 PUSH1 0x8 DUP2 MLOAD DUP2 LT PUSH2 0x15F JUMPI PUSH2 0x15E PUSH2 0x540 JUMP JUMPDEST JUMPDEST PUSH1 0x20 ADD ADD MLOAD PUSH1 0xF8 SHR PUSH1 0xF8 SHL PUSH1 0xF8 SHR PUSH1 0xFF AND PUSH1 0x8 DUP6 PUSH1 0x7 DUP2 MLOAD DUP2 LT PUSH2 0x186 JUMPI PUSH2 0x185 PUSH2 0x540 JUMP JUMPDEST JUMPDEST PUSH1 0x20 ADD ADD MLOAD PUSH1 0xF8 SHR PUSH1 0xF8 SHL PUSH1 0xF8 SHR PUSH1 0xFF AND PUSH6 0xFFFFFFFFFFFF AND SWAP1 SHL PUSH1 0x10 DUP7 PUSH1 0x6 DUP2 MLOAD DUP2 LT PUSH2 0x1B7 JUMPI PUSH2 0x1B6 PUSH2 0x540 JUMP JUMPDEST JUMPDEST PUSH1 0x20 ADD ADD MLOAD PUSH1 0xF8 SHR PUSH1 0xF8 SHL PUSH1 0xF8 SHR PUSH1 0xFF AND PUSH6 0xFFFFFFFFFFFF AND SWAP1 SHL PUSH1 0x18 DUP8 PUSH1 0x5 DUP2 MLOAD DUP2 LT PUSH2 0x1E8 JUMPI PUSH2 0x1E7 PUSH2 0x540 JUMP JUMPDEST JUMPDEST PUSH1 0x20 ADD ADD MLOAD PUSH1 0xF8 SHR PUSH1 0xF8 SHL PUSH1 0xF8 SHR PUSH1 0xFF AND PUSH6 0xFFFFFFFFFFFF AND SWAP1 SHL PUSH1 0x20 DUP9 PUSH1 0x4 DUP2 MLOAD DUP2 LT PUSH2 0x219 JUMPI PUSH2 0x218 PUSH2 0x540 JUMP JUMPDEST JUMPDEST PUSH1 0x20 ADD ADD MLOAD PUSH1 0xF8 SHR PUSH1 0xF8 SHL PUSH1 0xF8 SHR PUSH1 0xFF AND PUSH6 0xFFFFFFFFFFFF AND SWAP1 SHL PUSH1 0x28 DUP10 PUSH1 0x3 DUP2 MLOAD DUP2 LT PUSH2 0x24A JUMPI PUSH2 0x249 PUSH2 0x540 JUMP JUMPDEST JUMPDEST PUSH1 0x20 ADD ADD MLOAD PUSH1 0xF8 SHR PUSH1 0xF8 SHL PUSH1 0xF8 SHR PUSH1 0xFF AND PUSH6 0xFFFFFFFFFFFF AND SWAP1 SHL OR OR OR OR OR PUSH1 0xD0 SHL SWAP1 POP SWAP2 SWAP4 SWAP1 SWAP3 POP JUMP JUMPDEST PUSH1 0x0 PUSH1 0x40 MLOAD SWAP1 POP SWAP1 JUMP JUMPDEST PUSH1 0x0 DUP1 REVERT JUMPDEST PUSH1 0x0 DUP1 REVERT JUMPDEST PUSH1 0x0 DUP1 REVERT JUMPDEST PUSH1 0x0 DUP1 REVERT JUMPDEST PUSH1 0x0 PUSH1 0x1F NOT PUSH1 0x1F DUP4 ADD AND SWAP1 POP SWAP2 SWAP1 POP JUMP JUMPDEST PUSH32 0x4E487B7100000000000000000000000000000000000000000000000000000000 PUSH1 0x0 MSTORE PUSH1 0x41 PUSH1 0x4 MSTORE PUSH1 0x24 PUSH1 0x0 REVERT JUMPDEST PUSH2 0x2DD DUP3 PUSH2 0x294 JUMP JUMPDEST DUP2 ADD DUP2 DUP2 LT PUSH8 0xFFFFFFFFFFFFFFFF DUP3 GT OR ISZERO PUSH2 0x2FC JUMPI PUSH2 0x2FB PUSH2 0x2A5 JUMP JUMPDEST JUMPDEST DUP1 PUSH1 0x40 MSTORE POP POP POP JUMP JUMPDEST PUSH1 0x0 PUSH2 0x30F PUSH2 0x276 JUMP JUMPDEST SWAP1 POP PUSH2 0x31B DUP3 DUP3 PUSH2 0x2D4 JUMP JUMPDEST SWAP2 SWAP1 POP JUMP JUMPDEST PUSH1 0x0 PUSH8 0xFFFFFFFFFFFFFFFF DUP3 GT ISZERO PUSH2 0x33B JUMPI PUSH2 0x33A PUSH2 0x2A5 JUMP JUMPDEST JUMPDEST PUSH2 0x344 DUP3 PUSH2 0x294 JUMP JUMPDEST SWAP1 POP PUSH1 0x20 DUP2 ADD SWAP1 POP SWAP2 SWAP1 POP JUMP JUMPDEST DUP3 DUP2 DUP4 CALLDATACOPY PUSH1 0x0 DUP4 DUP4 ADD MSTORE POP POP POP JUMP JUMPDEST PUSH1 0x0 PUSH2 0x373 PUSH2 0x36E DUP5 PUSH2 0x320 JUMP JUMPDEST PUSH2 0x305 JUMP JUMPDEST SWAP1 POP DUP3 DUP2 MSTORE PUSH1 0x20 DUP2 ADD DUP5 DUP5 DUP5 ADD GT ISZERO PUSH2 0x38F JUMPI PUSH2 0x38E PUSH2 0x28F JUMP JUMPDEST JUMPDEST PUSH2 0x39A DUP5 DUP3 DUP6 PUSH2 0x351 JUMP JUMPDEST POP SWAP4 SWAP3 POP POP POP JUMP JUMPDEST PUSH1 0x0 DUP3 PUSH1 0x1F DUP4 ADD SLT PUSH2 0x3B7 JUMPI PUSH2 0x3B6 PUSH2 0x28A JUMP JUMPDEST JUMPDEST DUP2 CALLDATALOAD PUSH2 0x3C7 DUP5 DUP3 PUSH1 0x20 DUP7 ADD PUSH2 0x360 JUMP JUMPDEST SWAP2 POP POP SWAP3 SWAP2 POP POP JUMP JUMPDEST PUSH1 0x0 PUSH1 0x20 DUP3 DUP5 SUB SLT ISZERO PUSH2 0x3E6 JUMPI PUSH2 0x3E5 PUSH2 0x280 JUMP JUMPDEST JUMPDEST PUSH1 0x0 DUP3 ADD CALLDATALOAD PUSH8 0xFFFFFFFFFFFFFFFF DUP2 GT ISZERO PUSH2 0x404 JUMPI PUSH2 0x403 PUSH2 0x285 JUMP JUMPDEST JUMPDEST PUSH2 0x410 DUP5 DUP3 DUP6 ADD PUSH2 0x3A2 JUMP JUMPDEST SWAP2 POP POP SWAP3 SWAP2 POP POP JUMP JUMPDEST PUSH1 0x0 PUSH2 0xFFFF DUP3 AND SWAP1 POP SWAP2 SWAP1 POP JUMP JUMPDEST PUSH2 0x430 DUP2 PUSH2 0x419 JUMP JUMPDEST DUP3 MSTORE POP POP JUMP JUMPDEST PUSH1 0x0 DUP2 ISZERO ISZERO SWAP1 POP SWAP2 SWAP1 POP JUMP JUMPDEST PUSH2 0x44B DUP2 PUSH2 0x436 JUMP JUMPDEST DUP3 MSTORE POP POP JUMP JUMPDEST PUSH1 0x0 PUSH32 0xFFFFFFFFFFFF0000000000000000000000000000000000000000000000000000 DUP3 AND SWAP1 POP SWAP2 SWAP1 POP JUMP JUMPDEST PUSH2 0x486 DUP2 PUSH2 0x451 JUMP JUMPDEST DUP3 MSTORE POP POP JUMP JUMPDEST PUSH1 0x0 PUSH1 0x60 DUP3 ADD SWAP1 POP PUSH2 0x4A1 PUSH1 0x0 DUP4 ADD DUP7 PUSH2 0x427 JUMP JUMPDEST PUSH2 0x4AE PUSH1 0x20 DUP4 ADD DUP6 PUSH2 0x442 JUMP JUMPDEST PUSH2 0x4BB PUSH1 0x40 DUP4 ADD DUP5 PUSH2 0x47D JUMP JUMPDEST SWAP5 SWAP4 POP POP POP POP JUMP JUMPDEST PUSH1 0x0 DUP3 DUP3 MSTORE PUSH1 0x20 DUP3 ADD SWAP1 POP SWAP3 SWAP2 POP POP JUMP JUMPDEST PUSH32 0x496E70757420746F6F2073686F72740000000000000000000000000000000000 PUSH1 0x0 DUP3 ADD MSTORE POP JUMP JUMPDEST PUSH1 0x0 PUSH2 0x50A PUSH1 0xF DUP4 PUSH2 0x4C3 JUMP JUMPDEST SWAP2 POP PUSH2 0x515 DUP3 PUSH2 0x4D4 JUMP JUMPDEST PUSH1 0x20 DUP3 ADD SWAP1 POP SWAP2 SWAP1 POP JUMP JUMPDEST PUSH1 0x0 PUSH1 0x20 DUP3 ADD SWAP1 POP DUP2 DUP2 SUB PUSH1 0x0 DUP4 ADD MSTORE PUSH2 0x539 DUP2 PUSH2 0x4FD JUMP JUMPDEST SWAP1 POP SWAP2 SWAP1 POP JUMP JUMPDEST PUSH32 0x4E487B7100000000000000000000000000000000000000000000000000000000 PUSH1 0x0 MSTORE PUSH1 0x32 PUSH1 0x4 MSTORE PUSH1 0x24 PUSH1 0x0 REVERT INVALID LOG2 PUSH5 0x6970667358 0x22 SLT KECCAK256 0xCD LOG3 0xE2 ORIGIN 0xD6 MLOAD PUSH28 0xDBFA5E34D6034476C66B588575EF1E46B690CC8B30E07B668D64736F PUSH13 0x63430008130033000000000000 "
        },
        "methodIdentifiers": {
          "solution(bytes)": "ce0b1238"
        }
      }
    }
  }
}