{
  "contracts/Level2.sol": {
    "Level2": {
      "abi": [
        {
          "inputs": [
            {
              "internalType": "uint256[10]",
              "name": "unsortedArray",
              "type": "uint256[10]"
            }
          ],
          "name": "solution",
          "outputs": [
            {
              "internalType": "uint256[10]",
              "name": "sortedArray",
              "type": "uint256[10]"
            }
          ],
          "stateMutability": "pure",
          "type": "function"
        }
      ],
      "evm": {
        "bytecode": {
          "linkReferences": {},
          "object": "608060405234801561001057600080fd5b5061044d806100206000396000f3fe608060405234801561001057600080fd5b506004361061002b5760003560e01c8063209b472e14610030575b600080fd5b61004a6004803603810190610045919061020a565b610060565b60405161005791906102ed565b60405180910390f35b6100686101bb565b600082600a806020026040519081016040528092919082600a60200280828437600081840152601f19601f820116905080830192505050505050905060005b60098110156101b15760005b8160096100c09190610338565b81101561019d57826001826100d5919061036c565b600a81106100e6576100e56103a0565b5b60200201518382600a81106100fe576100fd6103a0565b5b6020020151111561018a5782600182610117919061036c565b600a8110610128576101276103a0565b5b60200201518382600a81106101405761013f6103a0565b5b60200201518483600a8110610158576101576103a0565b5b602002018560018561016a919061036c565b600a811061017b5761017a6103a0565b5b60200201828152508281525050505b8080610195906103cf565b9150506100b3565b5080806101a9906103cf565b9150506100a7565b5080915050919050565b604051806101400160405280600a90602082028036833780820191505090505090565b600080fd5b600080fd5b6000819050826020600a0282011115610204576102036101e3565b5b92915050565b60006101408284031215610221576102206101de565b5b600061022f848285016101e8565b91505092915050565b6000600a9050919050565b600081905092915050565b6000819050919050565b6000819050919050565b61026b81610258565b82525050565b600061027d8383610262565b60208301905092915050565b6000602082019050919050565b61029f81610238565b6102a98184610243565b92506102b48261024e565b8060005b838110156102e55781516102cc8782610271565b96506102d783610289565b9250506001810190506102b8565b505050505050565b6000610140820190506103036000830184610296565b92915050565b7f4e487b7100000000000000000000000000000000000000000000000000000000600052601160045260246000fd5b600061034382610258565b915061034e83610258565b925082820390508181111561036657610365610309565b5b92915050565b600061037782610258565b915061038283610258565b925082820190508082111561039a57610399610309565b5b92915050565b7f4e487b7100000000000000000000000000000000000000000000000000000000600052603260045260246000fd5b60006103da82610258565b91507fffffffffffffffffffffffffffffffffffffffffffffffffffffffffffffffff820361040c5761040b610309565b5b60018201905091905056fea2646970667358221220d1af2181ca44b02206553b4ca4ff58383e9e89ba9fb49e89bbc1bc18e59ce95b64736f6c63430008130033",
          "opcodes": "PUSH1 0x80 PUSH1 0x40 MSTORE CALLVALUE DUP1 ISZERO PUSH2 0x10 JUMPI PUSH1 0x0 DUP1 REVERT JUMPDEST POP PUSH2 0x44D DUP1 PUSH2 0x20 PUSH1 0x0 CODECOPY PUSH1 0x0 RETURN INVALID PUSH1 0x80 PUSH1 0x40 MSTORE CALLVALUE DUP1 ISZERO PUSH2 0x10 JUMPI PUSH1 0x0 DUP1 REVERT JUMPDEST POP PUSH1 0x4 CALLDATASIZE LT PUSH2 0x2B JUMPI PUSH1 0x0 CALLDATALOAD PUSH1 0xE0 SHR DUP1 PUSH4 0x209B472E EQ PUSH2 0x30 JUMPI JUMPDEST PUSH1 0x0 DUP1 REVERT JUMPDEST PUSH2 0x4A PUSH1 0x4 DUP1 CALLDATASIZE SUB DUP2 ADD SWAP1 PUSH2 0x45 SWAP2 SWAP1 PUSH2 0x20A JUMP JUMPDEST PUSH2 0x60 JUMP JUMPDEST PUSH1 0x40 MLOAD PUSH2 0x57 SWAP2 SWAP1 PUSH2 0x2ED JUMP JUMPDEST PUSH1 0x40 MLOAD DUP1 SWAP2 SUB SWAP1 RETURN JUMPDEST PUSH2 0x68 PUSH2 0x1BB JUMP JUMPDEST PUSH1 0x0 DUP3 PUSH1 0xA DUP1 PUSH1 0x20 MUL PUSH1 0x40 MLOAD SWAP1 DUP2 ADD PUSH1 0x40 MSTORE DUP1 SWAP3 SWAP2 SWAP1 DUP3 PUSH1 0xA PUSH1 0x20 MUL DUP1 DUP3 DUP5 CALLDATACOPY PUSH1 0x0 DUP2 DUP5 ADD MSTORE PUSH1 0x1F NOT PUSH1 0x1F DUP3 ADD AND SWAP1 POP DUP1 DUP4 ADD SWAP3 POP POP POP POP POP POP SWAP1 POP PUSH1 0x0 JUMPDEST PUSH1 0x9 DUP2 LT ISZERO PUSH2 0x1B1 JUMPI PUSH1 0x0 JUMPDEST DUP2 PUSH1 0x9 PUSH2 0xC0 SWAP2 SWAP1 PUSH2 0x338 JUMP JUMPDEST DUP2 LT ISZERO PUSH2 0x19D JUMPI DUP3 PUSH1 0x1 DUP3 PUSH2 0xD5 SWAP2 SWAP1 PUSH2 0x36C JUMP JUMPDEST PUSH1 0xA DUP2 LT PUSH2 0xE6 JUMPI PUSH2 0xE5 PUSH2 0x3A0 JUMP JUMPDEST JUMPDEST PUSH1 0x20 MUL ADD MLOAD DUP4 DUP3 PUSH1 0xA DUP2 LT PUSH2 0xFE JUMPI PUSH2 0xFD PUSH2 0x3A0 JUMP JUMPDEST JUMPDEST PUSH1 0x20 MUL ADD MLOAD GT ISZERO PUSH2 0x18A JUMPI DUP3 PUSH1 0x1 DUP3 PUSH2 0x117 SWAP2 SWAP1 PUSH2 0x36C JUMP JUMPDEST PUSH1 0xA DUP2 LT PUSH2 0x128 JUMPI PUSH2 0x127 PUSH2 0x3A0 JUMP JUMPDEST JUMPDEST PUSH1 0x20 MUL ADD MLOAD DUP4 DUP3 PUSH1 0xA DUP2 LT PUSH2 0x140 JUMPI PUSH2 0x13F PUSH2 0x3A0 JUMP JUMPDEST JUMPDEST PUSH1 0x20 MUL ADD MLOAD DUP5 DUP4 PUSH1 0xA DUP2 LT PUSH2 0x158 JUMPI PUSH2 0x157 PUSH2 0x3A0 JUMP JUMPDEST JUMPDEST PUSH1 0x20 MUL ADD DUP6 PUSH1 0x1 DUP6 PUSH2 0x16A SWAP2 SWAP1 PUSH2 0x36C JUMP JUMPDEST PUSH1 0xA DUP2 LT PUSH2 0x17B JUMPI PUSH2 0x17A PUSH2 0x3A0 JUMP JUMPDEST JUMPDEST PUSH1 0x20 MUL ADD DUP3 DUP2 MSTORE POP DUP3 DUP2 MSTORE POP POP POP JUMPDEST DUP1 DUP1 PUSH2 0x195 SWAP1 PUSH2 0x3CF JUMP JUMPDEST SWAP2 POP POP PUSH2 0xB3 JUMP JUMPDEST POP DUP1 DUP1 PUSH2 0x1A9 SWAP1 PUSH2 0x3CF JUMP JUMPDEST SWAP2 POP POP PUSH2 0xA7 JUMP JUMPDEST POP DUP1 SWAP2 POP POP SWAP2 SWAP1 POP JUMP JUMPDEST PUSH1 0x40 MLOAD DUP1 PUSH2 0x140 ADD PUSH1 0x40 MSTORE DUP1 PUSH1 0xA SWAP1 PUSH1 0x20 DUP3 MUL DUP1 CALLDATASIZE DUP4 CALLDATACOPY DUP1 DUP3 ADD SWAP2 POP POP SWAP1 POP POP SWAP1 JUMP JUMPDEST PUSH1 0x0 DUP1 REVERT JUMPDEST PUSH1 0x0 DUP1 REVERT JUMPDEST PUSH1 0x0 DUP2 SWAP1 POP DUP3 PUSH1 0x20 PUSH1 0xA MUL DUP3 ADD GT ISZERO PUSH2 0x204 JUMPI PUSH2 0x203 PUSH2 0x1E3 JUMP JUMPDEST JUMPDEST SWAP3 SWAP2 POP POP JUMP JUMPDEST PUSH1 0x0 PUSH2 0x140 DUP3 DUP5 SUB SLT ISZERO PUSH2 0x221 JUMPI PUSH2 0x220 PUSH2 0x1DE JUMP JUMPDEST JUMPDEST PUSH1 0x0 PUSH2 0x22F DUP5 DUP3 DUP6 ADD PUSH2 0x1E8 JUMP JUMPDEST SWAP2 POP POP SWAP3 SWAP2 POP POP JUMP JUMPDEST PUSH1 0x0 PUSH1 0xA SWAP1 POP SWAP2 SWAP1 POP JUMP JUMPDEST PUSH1 0x0 DUP2 SWAP1 POP SWAP3 SWAP2 POP POP JUMP JUMPDEST PUSH1 0x0 DUP2 SWAP1 POP SWAP2 SWAP1 POP JUMP JUMPDEST PUSH1 0x0 DUP2 SWAP1 POP SWAP2 SWAP1 POP JUMP JUMPDEST PUSH2 0x26B DUP2 PUSH2 0x258 JUMP JUMPDEST DUP3 MSTORE POP POP JUMP JUMPDEST PUSH1 0x0 PUSH2 0x27D DUP4 DUP4 PUSH2 0x262 JUMP JUMPDEST PUSH1 0x20 DUP4 ADD SWAP1 POP SWAP3 SWAP2 POP POP JUMP JUMPDEST PUSH1 0x0 PUSH1 0x20 DUP3 ADD SWAP1 POP SWAP2 SWAP1 POP JUMP JUMPDEST PUSH2 0x29F DUP2 PUSH2 0x238 JUMP JUMPDEST PUSH2 0x2A9 DUP2 DUP5 PUSH2 0x243 JUMP JUMPDEST SWAP3 POP PUSH2 0x2B4 DUP3 PUSH2 0x24E JUMP JUMPDEST DUP1 PUSH1 0x0 JUMPDEST DUP4 DUP2 LT ISZERO PUSH2 0x2E5 JUMPI DUP2 MLOAD PUSH2 0x2CC DUP8 DUP3 PUSH2 0x271 JUMP JUMPDEST SWAP7 POP PUSH2 0x2D7 DUP4 PUSH2 0x289 JUMP JUMPDEST SWAP3 POP POP PUSH1 0x1 DUP2 ADD SWAP1 POP PUSH2 0x2B8 JUMP JUMPDEST POP POP POP POP POP POP JUMP JUMPDEST PUSH1 0x0 PUSH2 0x140 DUP3 ADD SWAP1 POP PUSH2 0x303 PUSH1 0x0 DUP4 ADD DUP5 PUSH2 0x296 JUMP JUMPDEST SWAP3 SWAP2 POP POP JUMP JUMPDEST PUSH32 0x4E487B7100000000000000000000000000000000000000000000000000000000 PUSH1 0x0 MSTORE PUSH1 0x11 PUSH1 0x4 MSTORE PUSH1 0x24 PUSH1 0x0 REVERT JUMPDEST PUSH1 0x0 PUSH2 0x343 DUP3 PUSH2 0x258 JUMP JUMPDEST SWAP2 POP PUSH2 0x34E DUP4 PUSH2 0x258 JUMP JUMPDEST SWAP3 POP DUP3 DUP3 SUB SWAP1 POP DUP2 DUP2 GT ISZERO PUSH2 0x366 JUMPI PUSH2 0x365 PUSH2 0x309 JUMP JUMPDEST JUMPDEST SWAP3 SWAP2 POP POP JUMP JUMPDEST PUSH1 0x0 PUSH2 0x377 DUP3 PUSH2 0x258 JUMP JUMPDEST SWAP2 POP PUSH2 0x382 DUP4 PUSH2 0x258 JUMP JUMPDEST SWAP3 POP DUP3 DUP3 ADD SWAP1 POP DUP1 DUP3 GT ISZERO PUSH2 0x39A JUMPI PUSH2 0x399 PUSH2 0x309 JUMP JUMPDEST JUMPDEST SWAP3 SWAP2 POP POP JUMP JUMPDEST PUSH32 0x4E487B7100000000000000000000000000000000000000000000000000000000 PUSH1 0x0 MSTORE PUSH1 0x32 PUSH1 0x4 MSTORE PUSH1 0x24 PUSH1 0x0 REVERT JUMPDEST PUSH1 0x0 PUSH2 0x3DA DUP3 PUSH2 0x258 JUMP JUMPDEST SWAP2 POP PUSH32 0xFFFFFFFFFFFFFFFFFFFFFFFFFFFFFFFFFFFFFFFFFFFFFFFFFFFFFFFFFFFFFFFF DUP3 SUB PUSH2 0x40C JUMPI PUSH2 0x40B PUSH2 0x309 JUMP JUMPDEST JUMPDEST PUSH1 0x1 DUP3 ADD SWAP1 POP SWAP2 SWAP1 POP JUMP INVALID LOG2 PUSH5 0x6970667358 0x22 SLT KECCAK256 0xD1 0xAF 0x21 DUP2 0xCA PREVRANDAO 0xB0 0x22 MOD SSTORE EXTCODESIZE 0x4C LOG4 SELFDESTRUCT PC CODESIZE RETURNDATACOPY SWAP15 DUP10 0xBA SWAP16 0xB4 SWAP15 DUP10 0xBB 0xC1 0xBC XOR 0xE5 SWAP13 0xE9 JUMPDEST PUSH5 0x736F6C6343 STOP ADDMOD SGT STOP CALLER "
        },
        "methodIdentifiers": {
          "solution(uint256[10])": "209b472e"
        }
      }
    }
  }
}