{
  "contracts/Level1.sol": {
    "Level1": {
      "abi": [
        {
          "inputs": [
            {
              "internalType": "uint256[2][3]",
              "name": "x",
              "type": "uint256[2][3]"
            },
            {
              "internalType": "uint256[2][3]",
              "name": "y",
              "type": "uint256[2][3]"
            }
          ],
          "name": "solution",
          "outputs": [
            {
              "internalType": "uint256[2][3]",
              "name": "",
              "type": "uint256[2][3]"
            }
          ],
          "stateMutability": "pure",
          "type": "function"
        }
      ],
      "evm": {
        "bytecode": {
          "linkReferences": {},
          "object": "608060405234801561001057600080fd5b5061048b806100206000396000f3fe608060405234801561001057600080fd5b506004361061002b5760003560e01c8063342a2d9a14610030575b600080fd5b61004a600480360381019061004591906101ce565b610060565b6040516100579190610360565b60405180910390f35b610068610153565b610070610153565b60005b60038110156101485760005b60028110156101345784826003811061009b5761009a61037b565b5b6040020181600281106100b1576100b061037b565b5b60200201358683600381106100c9576100c861037b565b5b6040020182600281106100df576100de61037b565b5b60200201356100ee91906103d9565b8383600381106101015761010061037b565b5b602002015182600281106101185761011761037b565b5b602002018181525050808061012c9061040d565b91505061007f565b5080806101409061040d565b915050610073565b508091505092915050565b60405180606001604052806003905b61016a610180565b8152602001906001900390816101625790505090565b6040518060400160405280600290602082028036833780820191505090505090565b600080fd5b600080fd5b6000819050826040600302820111156101c8576101c76101a7565b5b92915050565b60008061018083850312156101e6576101e56101a2565b5b60006101f4858286016101ac565b92505060c0610205858286016101ac565b9150509250929050565b600060039050919050565b600081905092915050565b6000819050919050565b600060029050919050565b600081905092915050565b6000819050919050565b6000819050919050565b6102628161024f565b82525050565b60006102748383610259565b60208301905092915050565b6000602082019050919050565b6102968161022f565b6102a0818461023a565b92506102ab82610245565b8060005b838110156102dc5781516102c38782610268565b96506102ce83610280565b9250506001810190506102af565b505050505050565b60006102f0838361028d565b60408301905092915050565b6000602082019050919050565b6103128161020f565b61031c818461021a565b925061032782610225565b8060005b8381101561035857815161033f87826102e4565b965061034a836102fc565b92505060018101905061032b565b505050505050565b600060c0820190506103756000830184610309565b92915050565b7f4e487b7100000000000000000000000000000000000000000000000000000000600052603260045260246000fd5b7f4e487b7100000000000000000000000000000000000000000000000000000000600052601160045260246000fd5b60006103e48261024f565b91506103ef8361024f565b9250828201905080821115610407576104066103aa565b5b92915050565b60006104188261024f565b91507fffffffffffffffffffffffffffffffffffffffffffffffffffffffffffffffff820361044a576104496103aa565b5b60018201905091905056fea2646970667358221220286cbd31499ce5537c139c72fdbfda7082ebf9b009516b709b36407ef8f31ccd64736f6c63430008130033",
          "opcodes": "PUSH1 0x80 PUSH1 0x40 MSTORE CALLVALUE DUP1 ISZERO PUSH2 0x10 JUMPI PUSH1 0x0 DUP1 REVERT JUMPDEST POP PUSH2 0x48B DUP1 PUSH2 0x20 PUSH1 0x0 CODECOPY PUSH1 0x0 RETURN INVALID PUSH1 0x80 PUSH1 0x40 MSTORE CALLVALUE DUP1 ISZERO PUSH2 0x10 JUMPI PUSH1 0x0 DUP1 REVERT JUMPDEST POP PUSH1 0x4 CALLDATASIZE LT PUSH2 0x2B JUMPI PUSH1 0x0 CALLDATALOAD PUSH1 0xE0 SHR DUP1 PUSH4 0x342A2D9A EQ PUSH2 0x30 JUMPI JUMPDEST PUSH1 0x0 DUP1 REVERT JUMPDEST PUSH2 0x4A PUSH1 0x4 DUP1 CALLDATASIZE SUB DUP2 ADD SWAP1 PUSH2 0x45 SWAP2 SWAP1 PUSH2 0x1CE JUMP JUMPDEST PUSH2 0x60 JUMP JUMPDEST PUSH1 0x40 MLOAD PUSH2 0x57 SWAP2 SWAP1 PUSH2 0x360 JUMP JUMPDEST PUSH1 0x40 MLOAD DUP1 SWAP2 SUB SWAP1 RETURN JUMPDEST PUSH2 0x68 PUSH2 0x153 JUMP JUMPDEST PUSH2 0x70 PUSH2 0x153 JUMP JUMPDEST PUSH1 0x0 JUMPDEST PUSH1 0x3 DUP2 LT ISZERO PUSH2 0x148 JUMPI PUSH1 0x0 JUMPDEST PUSH1 0x2 DUP2 LT ISZERO PUSH2 0x134 JUMPI DUP5 DUP3 PUSH1 0x3 DUP2 LT PUSH2 0x9B JUMPI PUSH2 0x9A PUSH2 0x37B JUMP JUMPDEST JUMPDEST PUSH1 0x40 MUL ADD DUP2 PUSH1 0x2 DUP2 LT PUSH2 0xB1 JUMPI PUSH2 0xB0 PUSH2 0x37B JUMP JUMPDEST JUMPDEST PUSH1 0x20 MUL ADD CALLDATALOAD DUP7 DUP4 PUSH1 0x3 DUP2 LT PUSH2 0xC9 JUMPI PUSH2 0xC8 PUSH2 0x37B JUMP JUMPDEST JUMPDEST PUSH1 0x40 MUL ADD DUP3 PUSH1 0x2 DUP2 LT PUSH2 0xDF JUMPI PUSH2 0xDE PUSH2 0x37B JUMP JUMPDEST JUMPDEST PUSH1 0x20 MUL ADD CALLDATALOAD PUSH2 0xEE SWAP2 SWAP1 PUSH2 0x3D9 JUMP JUMPDEST DUP4 DUP4 PUSH1 0x3 DUP2 LT PUSH2 0x101 JUMPI PUSH2 0x100 PUSH2 0x37B JUMP JUMPDEST JUMPDEST PUSH1 0x20 MUL ADD MLOAD DUP3 PUSH1 0x2 DUP2 LT PUSH2 0x118 JUMPI PUSH2 0x117 PUSH2 0x37B JUMP JUMPDEST JUMPDEST PUSH1 0x20 MUL ADD DUP2 DUP2 MSTORE POP POP DUP1 DUP1 PUSH2 0x12C SWAP1 PUSH2 0x40D JUMP JUMPDEST SWAP2 POP POP PUSH2 0x7F JUMP JUMPDEST POP DUP1 DUP1 PUSH2 0x140 SWAP1 PUSH2 0x40D JUMP JUMPDEST SWAP2 POP POP PUSH2 0x73 JUMP JUMPDEST POP DUP1 SWAP2 POP POP SWAP3 SWAP2 POP POP JUMP JUMPDEST PUSH1 0x40 MLOAD DUP1 PUSH1 0x60 ADD PUSH1 0x40 MSTORE DUP1 PUSH1 0x3 SWAP1 JUMPDEST PUSH2 0x16A PUSH2 0x180 JUMP JUMPDEST DUP2 MSTORE PUSH1 0x20 ADD SWAP1 PUSH1 0x1 SWAP1 SUB SWAP1 DUP2 PUSH2 0x162 JUMPI SWAP1 POP POP SWAP1 JUMP JUMPDEST PUSH1 0x40 MLOAD DUP1 PUSH1 0x40 ADD PUSH1 0x40 MSTORE DUP1 PUSH1 0x2 SWAP1 PUSH1 0x20 DUP3 MUL DUP1 CALLDATASIZE DUP4 CALLDATACOPY DUP1 DUP3 ADD SWAP2 POP POP SWAP1 POP POP SWAP1 JUMP JUMPDEST PUSH1 0x0 DUP1 REVERT JUMPDEST PUSH1 0x0 DUP1 REVERT JUMPDEST PUSH1 0x0 DUP2 SWAP1 POP DUP3 PUSH1 0x40 PUSH1 0x3 MUL DUP3 ADD GT ISZERO PUSH2 0x1C8 JUMPI PUSH2 0x1C7 PUSH2 0x1A7 JUMP JUMPDEST JUMPDEST SWAP3 SWAP2 POP POP JUMP JUMPDEST PUSH1 0x0 DUP1 PUSH2 0x180 DUP4 DUP6 SUB SLT ISZERO PUSH2 0x1E6 JUMPI PUSH2 0x1E5 PUSH2 0x1A2 JUMP JUMPDEST JUMPDEST PUSH1 0x0 PUSH2 0x1F4 DUP6 DUP3 DUP7 ADD PUSH2 0x1AC JUMP JUMPDEST SWAP3 POP POP PUSH1 0xC0 PUSH2 0x205 DUP6 DUP3 DUP7 ADD PUSH2 0x1AC JUMP JUMPDEST SWAP2 POP POP SWAP3 POP SWAP3 SWAP1 POP JUMP JUMPDEST PUSH1 0x0 PUSH1 0x3 SWAP1 POP SWAP2 SWAP1 POP JUMP JUMPDEST PUSH1 0x0 DUP2 SWAP1 POP SWAP3 SWAP2 POP POP JUMP JUMPDEST PUSH1 0x0 DUP2 SWAP1 POP SWAP2 SWAP1 POP JUMP JUMPDEST PUSH1 0x0 PUSH1 0x2 SWAP1 POP SWAP2 SWAP1 POP JUMP JUMPDEST PUSH1 0x0 DUP2 SWAP1 POP SWAP3 SWAP2 POP POP JUMP JUMPDEST PUSH1 0x0 DUP2 SWAP1 POP SWAP2 SWAP1 POP JUMP JUMPDEST PUSH1 0x0 DUP2 SWAP1 POP SWAP2 SWAP1 POP JUMP JUMPDEST PUSH2 0x262 DUP2 PUSH2 0x24F JUMP JUMPDEST DUP3 MSTORE POP POP JUMP JUMPDEST PUSH1 0x0 PUSH2 0x274 DUP4 DUP4 PUSH2 0x259 JUMP JUMPDEST PUSH1 0x20 DUP4 ADD SWAP1 POP SWAP3 SWAP2 POP POP JUMP JUMPDEST PUSH1 0x0 PUSH1 0x20 DUP3 ADD SWAP1 POP SWAP2 SWAP1 POP JUMP JUMPDEST PUSH2 0x296 DUP2 PUSH2 0x22F JUMP JUMPDEST PUSH2 0x2A0 DUP2 DUP5 PUSH2 0x23A JUMP JUMPDEST SWAP3 POP PUSH2 0x2AB DUP3 PUSH2 0x245 JUMP JUMPDEST DUP1 PUSH1 0x0 JUMPDEST DUP4 DUP2 LT ISZERO PUSH2 0x2DC JUMPI DUP2 MLOAD PUSH2 0x2C3 DUP8 DUP3 PUSH2 0x268 JUMP JUMPDEST SWAP7 POP PUSH2 0x2CE DUP4 PUSH2 0x280 JUMP JUMPDEST SWAP3 POP POP PUSH1 0x1 DUP2 ADD SWAP1 POP PUSH2 0x2AF JUMP JUMPDEST POP POP POP POP POP POP JUMP JUMPDEST PUSH1 0x0 PUSH2 0x2F0 DUP4 DUP4 PUSH2 0x28D JUMP JUMPDEST PUSH1 0x40 DUP4 ADD SWAP1 POP SWAP3 SWAP2 POP POP JUMP JUMPDEST PUSH1 0x0 PUSH1 0x20 DUP3 ADD SWAP1 POP SWAP2 SWAP1 POP JUMP JUMPDEST PUSH2 0x312 DUP2 PUSH2 0x20F JUMP JUMPDEST PUSH2 0x31C DUP2 DUP5 PUSH2 0x21A JUMP JUMPDEST SWAP3 POP PUSH2 0x327 DUP3 PUSH2 0x225 JUMP JUMPDEST DUP1 PUSH1 0x0 JUMPDEST DUP4 DUP2 LT ISZERO PUSH2 0x358 JUMPI DUP2 MLOAD PUSH2 0x33F DUP8 DUP3 PUSH2 0x2E4 JUMP JUMPDEST SWAP7 POP PUSH2 0x34A DUP4 PUSH2 0x2FC JUMP JUMPDEST SWAP3 POP POP PUSH1 0x1 DUP2 ADD SWAP1 POP PUSH2 0x32B JUMP JUMPDEST POP POP POP POP POP POP JUMP JUMPDEST PUSH1 0x0 PUSH1 0xC0 DUP3 ADD SWAP1 POP PUSH2 0x375 PUSH1 0x0 DUP4 ADD DUP5 PUSH2 0x309 JUMP JUMPDEST SWAP3 SWAP2 POP POP JUMP JUMPDEST PUSH32 0x4E487B7100000000000000000000000000000000000000000000000000000000 PUSH1 0x0 MSTORE PUSH1 0x32 PUSH1 0x4 MSTORE PUSH1 0x24 PUSH1 0x0 REVERT JUMPDEST PUSH32 0x4E487B7100000000000000000000000000000000000000000000000000000000 PUSH1 0x0 MSTORE PUSH1 0x11 PUSH1 0x4 MSTORE PUSH1 0x24 PUSH1 0x0 REVERT JUMPDEST PUSH1 0x0 PUSH2 0x3E4 DUP3 PUSH2 0x24F JUMP JUMPDEST SWAP2 POP PUSH2 0x3EF DUP4 PUSH2 0x24F JUMP JUMPDEST SWAP3 POP DUP3 DUP3 ADD SWAP1 POP DUP1 DUP3 GT ISZERO PUSH2 0x407 JUMPI PUSH2 0x406 PUSH2 0x3AA JUMP JUMPDEST JUMPDEST SWAP3 SWAP2 POP POP JUMP JUMPDEST PUSH1 0x0 PUSH2 0x418 DUP3 PUSH2 0x24F JUMP JUMPDEST SWAP2 POP PUSH32 0xFFFFFFFFFFFFFFFFFFFFFFFFFFFFFFFFFFFFFFFFFFFFFFFFFFFFFFFFFFFFFFFF DUP3 SUB PUSH2 0x44A JUMPI PUSH2 0x449 PUSH2 0x3AA JUMP JUMPDEST JUMPDEST PUSH1 0x1 DUP3 ADD SWAP1 POP SWAP2 SWAP1 POP JUMP INVALID LOG2 PUSH5 0x6970667358 0x22 SLT KECCAK256 0x28 PUSH13 0xBD31499CE5537C139C72FDBFDA PUSH17 0x82EBF9B009516B709B36407EF8F31CCD64 PUSH20 0x6F6C634300081300330000000000000000000000 "
        },
        "methodIdentifiers": {
          "solution(uint256[2][3],uint256[2][3])": "342a2d9a"
        }
      }
    }
  }
}