{
  "_format": "hh-sol-artifact-1",
  "contractName": "Level3",
  "sourceName": "contracts/Level3.sol",
  "abi": [
    {
      "inputs": [
        {
          "internalType": "bytes",
          "name": "packed",
          "type": "bytes"
        }
      ],
      "name": "solution",
      "outputs": [
        {
          "internalType": "uint16",
          "name": "a",
          "type": "uint16"
        },
        {
          "internalType": "bool",
          "name": "b",
          "type": "bool"
        },
        {
          "internalType": "bytes6",
          "name": "c",
          "type": "bytes6"
        }
      ],
      "stateMutability": "pure",
      "type": "function"
    }
  ],
  "bytecode": "0x608060405234801561001057600080fd5b506105a5806100206000396000f3fe608060405234801561001057600080fd5b506004361061002b5760003560e01c8063ce0b123814610030575b600080fd5b61004a600480360381019061004591906103d0565b610062565b6040516100599392919061048c565b60405180910390f35b60008060006009845110156100ac576040517f08c379a00000000000000000000000000000000000000000000000000000000081526004016100a390610520565b60405180910390fd5b836001815181106100c0576100bf610540565b5b602001015160f81c60f81b60f81c60ff166008856000815181106100e7576100e6610540565b5b602001015160f81c60f81b60f81c60ff1661ffff16901b179250600060f81b8460028151811061011a57610119610540565b5b602001015160f81c60f81b7effffffffffffffffffffffffffffffffffffffffffffffffffffffffffffff1916141591508360088151811061015f5761015e610540565b5b602001015160f81c60f81b60f81c60ff1660088560078151811061018657610185610540565b5b602001015160f81c60f81b60f81c60ff1665ffffffffffff16901b6010866006815181106101b7576101b6610540565b5b602001015160f81c60f81b60f81c60ff1665ffffffffffff16901b6018876005815181106101e8576101e7610540565b5b602001015160f81c60f81b60f81c60ff1665ffffffffffff16901b60208860048151811061021957610218610540565b5b602001015160f81c60f81b60f81c60ff1665ffffffffffff16901b60288960038151811061024a57610249610540565b5b602001015160f81c60f81b60f81c60ff1665ffffffffffff16901b171717171760d01b90509193909250565b6000604051905090565b600080fd5b600080fd5b600080fd5b600080fd5b6000601f19601f8301169050919050565b7f4e487b7100000000000000000000000000000000000000000000000000000000600052604160045260246000fd5b6102dd82610294565b810181811067ffffffffffffffff821117156102fc576102fb6102a5565b5b80604052505050565b600061030f610276565b905061031b82826102d4565b919050565b600067ffffffffffffffff82111561033b5761033a6102a5565b5b61034482610294565b9050602081019050919050565b82818337600083830152505050565b600061037361036e84610320565b610305565b90508281526020810184848401111561038f5761038e61028f565b5b61039a848285610351565b509392505050565b600082601f8301126103b7576103b661028a565b5b81356103c7848260208601610360565b91505092915050565b6000602082840312156103e6576103e5610280565b5b600082013567ffffffffffffffff81111561040457610403610285565b5b610410848285016103a2565b91505092915050565b600061ffff82169050919050565b61043081610419565b82525050565b60008115159050919050565b61044b81610436565b82525050565b60007fffffffffffff000000000000000000000000000000000000000000000000000082169050919050565b61048681610451565b82525050565b60006060820190506104a16000830186610427565b6104ae6020830185610442565b6104bb604083018461047d565b949350505050565b600082825260208201905092915050565b7f496e70757420746f6f2073686f72740000000000000000000000000000000000600082015250565b600061050a600f836104c3565b9150610515826104d4565b602082019050919050565b60006020820190508181036000830152610539816104fd565b9050919050565b7f4e487b7100000000000000000000000000000000000000000000000000000000600052603260045260246000fdfea2646970667358221220cda3e232d6517bdbfa5e34d6034476c66b588575ef1e46b690cc8b30e07b668d64736f6c63430008130033",
  "linkReferences": {},
  "deployedLinkReferences": {}
}