{
  "_format": "hh-sol-artifact-1",
  "contractName": "Level1",
  "sourceName": "contracts/Level1.sol",
  "abi": [
    {
      "inputs": [
        {
          "internalType": "uint256[2][3]",
          "name": "x",
          "type": "uint256[2][3]"
        },
        {
          "internalType": "uint256[2][3]",
          "name": "y",
          "type": "uint256[2][3]"
        }
      ],
      "name": "solution",
      "outputs": [
        {
          "internalType": "uint256[2][3]",
          "name": "",
          "type": "uint256[2][3]"
        }
      ],
      "stateMutability": "pure",
      "type": "function"
    }
  ],
  "bytecode": "0x608060405234801561001057600080fd5b5061048b806100206000396000f3fe608060405234801561001057600080fd5b506004361061002b5760003560e01c8063342a2d9a14610030575b600080fd5b61004a600480360381019061004591906101ce565b610060565b6040516100579190610360565b60405180910390f35b610068610153565b610070610153565b60005b60038110156101485760005b60028110156101345784826003811061009b5761009a61037b565b5b6040020181600281106100b1576100b061037b565b5b60200201358683600381106100c9576100c861037b565b5b6040020182600281106100df576100de61037b565b5b60200201356100ee91906103d9565b8383600381106101015761010061037b565b5b602002015182600281106101185761011761037b565b5b602002018181525050808061012c9061040d565b91505061007f565b5080806101409061040d565b915050610073565b508091505092915050565b60405180606001604052806003905b61016a610180565b8152602001906001900390816101625790505090565b6040518060400160405280600290602082028036833780820191505090505090565b600080fd5b600080fd5b6000819050826040600302820111156101c8576101c76101a7565b5b92915050565b60008061018083850312156101e6576101e56101a2565b5b60006101f4858286016101ac565b92505060c0610205858286016101ac565b9150509250929050565b600060039050919050565b600081905092915050565b6000819050919050565b600060029050919050565b600081905092915050565b6000819050919050565b6000819050919050565b6102628161024f565b82525050565b60006102748383610259565b60208301905092915050565b6000602082019050919050565b6102968161022f565b6102a0818461023a565b92506102ab82610245565b8060005b838110156102dc5781516102c38782610268565b96506102ce83610280565b9250506001810190506102af565b505050505050565b60006102f0838361028d565b60408301905092915050565b6000602082019050919050565b6103128161020f565b61031c818461021a565b925061032782610225565b8060005b8381101561035857815161033f87826102e4565b965061034a836102fc565b92505060018101905061032b565b505050505050565b600060c0820190506103756000830184610309565b92915050565b7f4e487b7100000000000000000000000000000000000000000000000000000000600052603260045260246000fd5b7f4e487b7100000000000000000000000000000000000000000000000000000000600052601160045260246000fd5b60006103e48261024f565b91506103ef8361024f565b9250828201905080821115610407576104066103aa565b5b92915050565b60006104188261024f565b91507fffffffffffffffffffffffffffffffffffffffffffffffffffffffffffffffff820361044a576104496103aa565b5b60018201905091905056fea2646970667358221220f9643306f26037bb0a297bc269bfa7925959b9d1ba7dd863f7d382bceb13d67f64736f6c63430008130033",
  "linkReferences": {},
  "deployedLinkReferences": {}
}