{
  "_format": "hh-sol-artifact-1",
  "contractName": "Level2",
  "sourceName": "contracts/Level2.sol",
  "abi": [
    {
      "inputs": [
        {
          "internalType": "uint256[10]",
          "name": "unsortedArray",
          "type": "uint256[10]"
        }
      ],
      "name": "solution",
      "outputs": [
        {
          "internalType": "uint256[10]",
          "name": "sortedArray",
          "type": "uint256[10]"
        }
      ],
      "stateMutability": "pure",
      "type": "function"
    }
  ],
  "bytecode": "0x608060405234801561001057600080fd5b5061044d806100206000396000f3fe608060405234801561001057600080fd5b506004361061002b5760003560e01c8063209b472e14610030575b600080fd5b61004a6004803603810190610045919061020a565b610060565b60405161005791906102ed565b60405180910390f35b6100686101bb565b600082600a806020026040519081016040528092919082600a60200280828437600081840152601f19601f820116905080830192505050505050905060005b60098110156101b15760005b8160096100c09190610338565b81101561019d57826001826100d5919061036c565b600a81106100e6576100e56103a0565b5b60200201518382600a81106100fe576100fd6103a0565b5b6020020151111561018a5782600182610117919061036c565b600a8110610128576101276103a0565b5b60200201518382600a81106101405761013f6103a0565b5b60200201518483600a8110610158576101576103a0565b5b602002018560018561016a919061036c565b600a811061017b5761017a6103a0565b5b60200201828152508281525050505b8080610195906103cf565b9150506100b3565b5080806101a9906103cf565b9150506100a7565b5080915050919050565b604051806101400160405280600a90602082028036833780820191505090505090565b600080fd5b600080fd5b6000819050826020600a0282011115610204576102036101e3565b5b92915050565b60006101408284031215610221576102206101de565b5b600061022f848285016101e8565b91505092915050565b6000600a9050919050565b600081905092915050565b6000819050919050565b6000819050919050565b61026b81610258565b82525050565b600061027d8383610262565b60208301905092915050565b6000602082019050919050565b61029f81610238565b6102a98184610243565b92506102b48261024e565b8060005b838110156102e55781516102cc8782610271565b96506102d783610289565b9250506001810190506102b8565b505050505050565b6000610140820190506103036000830184610296565b92915050565b7f4e487b7100000000000000000000000000000000000000000000000000000000600052601160045260246000fd5b600061034382610258565b915061034e83610258565b925082820390508181111561036657610365610309565b5b92915050565b600061037782610258565b915061038283610258565b925082820190508082111561039a57610399610309565b5b92915050565b7f4e487b7100000000000000000000000000000000000000000000000000000000600052603260045260246000fd5b60006103da82610258565b91507fffffffffffffffffffffffffffffffffffffffffffffffffffffffffffffffff820361040c5761040b610309565b5b60018201905091905056fea2646970667358221220b5de4f7420e663a510a5cfa5dcb431f4260f143032f302f9b823d9f25f78061e64736f6c63430008130033",
  "linkReferences": {},
  "deployedLinkReferences": {}
}