{
	"data": {
		"bytecode": {
			"linkReferences": {},
			"object": "608060405260405180606001604052806040518060800160405280605c815260200162005706605c913981526020016040518060800160405280605c81526020016200581c605c913981526020016040518060800160405280605d8152602001620056a9605d913981525060139060036200007c92919062000650565b5060405180606001604052806040518060800160405280605d8152602001620057bf605d913981526020016040518060800160405280605d815260200162005878605d913981526020016040518060800160405280605d815260200162005762605d91398152506014906003620000f592919062000650565b507f787d74caea10b2b357790d5b5247c2f63d1d91572a9846f780606e4d953677ae5f1b6019556207a120601a5f6101000a81548163ffffffff021916908363ffffffff1602179055505f601a60046101000a81548160ff0219169083600181111562000167576200016662000735565b5b021790555034801562000178575f80fd5b50604051620058d5380380620058d583398181016040528101906200019e9190620007ff565b8033805f6040518060400160405280600981526020017f42756c6c264265617200000000000000000000000000000000000000000000008152506040518060400160405280600481526020017f4242544b00000000000000000000000000000000000000000000000000000000815250815f90816200021e919062000ab3565b50806001908162000230919062000ab3565b5050505f73ffffffffffffffffffffffffffffffffffffffff168273ffffffffffffffffffffffffffffffffffffffff1603620002a4576040517f08c379a00000000000000000000000000000000000000000000000000000000081526004016200029b9062000bf5565b60405180910390fd5b81600b5f6101000a81548173ffffffffffffffffffffffffffffffffffffffff021916908373ffffffffffffffffffffffffffffffffffffffff1602179055505f73ffffffffffffffffffffffffffffffffffffffff168173ffffffffffffffffffffffffffffffffffffffff16146200032a5762000329816200048160201b60201c565b5b5050505f73ffffffffffffffffffffffffffffffffffffffff168173ffffffffffffffffffffffffffffffffffffffff160362000393576040517fd92e233d00000000000000000000000000000000000000000000000000000000815260040160405180910390fd5b80600d5f6101000a81548173ffffffffffffffffffffffffffffffffffffffff021916908373ffffffffffffffffffffffffffffffffffffffff16021790555050826010819055504260118190555081600f5f6101000a81548173ffffffffffffffffffffffffffffffffffffffff021916908373ffffffffffffffffffffffffffffffffffffffff16021790555062000432620005b060201b60201c565b6012819055508060155f6101000a81548173ffffffffffffffffffffffffffffffffffffffff021916908373ffffffffffffffffffffffffffffffffffffffff16021790555050505062000d83565b3373ffffffffffffffffffffffffffffffffffffffff168173ffffffffffffffffffffffffffffffffffffffff1603620004f2576040517f08c379a0000000000000000000000000000000000000000000000000000000008152600401620004e99062000c63565b60405180910390fd5b80600c5f6101000a81548173ffffffffffffffffffffffffffffffffffffffff021916908373ffffffffffffffffffffffffffffffffffffffff1602179055508073ffffffffffffffffffffffffffffffffffffffff16600b5f9054906101000a900473ffffffffffffffffffffffffffffffffffffffff1673ffffffffffffffffffffffffffffffffffffffff167fed8889f560326eb138920d842192f0eb3dd22b4f139c87a2c57538e05bae127860405160405180910390a350565b5f80600f5f9054906101000a900473ffffffffffffffffffffffffffffffffffffffff1673ffffffffffffffffffffffffffffffffffffffff1663feaf968c6040518163ffffffff1660e01b815260040160a060405180830381865afa1580156200061d573d5f803e3d5ffd5b505050506040513d601f19601f8201168201806040525081019062000643919062000cff565b5050509150508091505090565b828054828255905f5260205f209081019282156200069b579160200282015b828111156200069a57825182908162000689919062000ab3565b50916020019190600101906200066f565b5b509050620006aa9190620006ae565b5090565b5b80821115620006d1575f8181620006c79190620006d5565b50600101620006af565b5090565b508054620006e390620008bc565b5f825580601f10620006f6575062000715565b601f0160209004905f5260205f209081019062000714919062000718565b5b50565b5b8082111562000731575f815f90555060010162000719565b5090565b7f4e487b71000000000000000000000000000000000000000000000000000000005f52602160045260245ffd5b5f80fd5b5f819050919050565b6200077a8162000766565b811462000785575f80fd5b50565b5f8151905062000798816200076f565b92915050565b5f73ffffffffffffffffffffffffffffffffffffffff82169050919050565b5f620007c9826200079e565b9050919050565b620007db81620007bd565b8114620007e6575f80fd5b50565b5f81519050620007f981620007d0565b92915050565b5f805f6060848603121562000819576200081862000762565b5b5f620008288682870162000788565b93505060206200083b86828701620007e9565b92505060406200084e86828701620007e9565b9150509250925092565b5f81519050919050565b7f4e487b71000000000000000000000000000000000000000000000000000000005f52604160045260245ffd5b7f4e487b71000000000000000000000000000000000000000000000000000000005f52602260045260245ffd5b5f6002820490506001821680620008d457607f821691505b602082108103620008ea57620008e96200088f565b5b50919050565b5f819050815f5260205f209050919050565b5f6020601f8301049050919050565b5f82821b905092915050565b5f600883026200094e7fffffffffffffffffffffffffffffffffffffffffffffffffffffffffffffffff8262000911565b6200095a868362000911565b95508019841693508086168417925050509392505050565b5f819050919050565b5f6200099b620009956200098f8462000766565b62000972565b62000766565b9050919050565b5f819050919050565b620009b6836200097b565b620009ce620009c582620009a2565b8484546200091d565b825550505050565b5f90565b620009e4620009d6565b620009f1818484620009ab565b505050565b5b8181101562000a185762000a0c5f82620009da565b600181019050620009f7565b5050565b601f82111562000a675762000a3181620008f0565b62000a3c8462000902565b8101602085101562000a4c578190505b62000a6462000a5b8562000902565b830182620009f6565b50505b505050565b5f82821c905092915050565b5f62000a895f198460080262000a6c565b1980831691505092915050565b5f62000aa3838362000a78565b9150826002028217905092915050565b62000abe8262000858565b67ffffffffffffffff81111562000ada5762000ad962000862565b5b62000ae68254620008bc565b62000af382828562000a1c565b5f60209050601f83116001811462000b29575f841562000b14578287015190505b62000b20858262000a96565b86555062000b8f565b601f19841662000b3986620008f0565b5f5b8281101562000b625784890151825560018201915060208501945060208101905062000b3b565b8683101562000b82578489015162000b7e601f89168262000a78565b8355505b6001600288020188555050505b505050505050565b5f82825260208201905092915050565b7f43616e6e6f7420736574206f776e657220746f207a65726f00000000000000005f82015250565b5f62000bdd60188362000b97565b915062000bea8262000ba7565b602082019050919050565b5f6020820190508181035f83015262000c0e8162000bcf565b9050919050565b7f43616e6e6f74207472616e7366657220746f2073656c660000000000000000005f82015250565b5f62000c4b60178362000b97565b915062000c588262000c15565b602082019050919050565b5f6020820190508181035f83015262000c7c8162000c3d565b9050919050565b5f69ffffffffffffffffffff82169050919050565b62000ca38162000c83565b811462000cae575f80fd5b50565b5f8151905062000cc18162000c98565b92915050565b5f819050919050565b62000cdb8162000cc7565b811462000ce6575f80fd5b50565b5f8151905062000cf98162000cd0565b92915050565b5f805f805f60a0868803121562000d1b5762000d1a62000762565b5b5f62000d2a8882890162000cb1565b955050602062000d3d8882890162000ce9565b945050604062000d508882890162000788565b935050606062000d638882890162000788565b925050608062000d768882890162000cb1565b9150509295509295909350565b6149188062000d915f395ff3fe608060405234801561000f575f80fd5b5060043610610246575f3560e01c806379ba509711610139578063a4eb718c116100b6578063e89e106a1161007a578063e89e106a146106c5578063e985e9c5146106e3578063f0e8b3ae14610713578063f2fde38b14610731578063f6eaffc81461074d57610246565b8063a4eb718c14610625578063b88d4fde14610641578063c1e0d2361461065d578063c87b56dd14610679578063cb028802146106a957610246565b8063947a36fb116100fd578063947a36fb1461059157806395d89b41146105af5780639d1b464a146105cd5780639eccacf6146105eb578063a22cb4651461060957610246565b806379ba5097146105115780638ac000211461051b5780638da5cb5b146105395780638e15f473146105575780638ea981171461057557610246565b80633f3b3b27116101c7578063590f21131161018b578063590f2113146104465780636352211e146104645780636e04ff0d1461049457806370a08231146104c5578063724e78da146104f557610246565b80633f3b3b27146103a457806340d097c3146103c257806342842e0e146103de5780634585e33b146103fa5780634f6ccce71461041657610246565b80631fe543e31161020e5780631fe543e31461030257806322a900821461031e57806323b872dd1461033a5780632f745c59146103565780633b2bcbf11461038657610246565b806301ffc9a71461024a57806306fdde031461027a578063081812fc14610298578063095ea7b3146102c857806318160ddd146102e4575b5f80fd5b610264600480360381019061025f9190613507565b61077d565b604051610271919061354c565b60405180910390f35b61028261078d565b60405161028f91906135ef565b60405180910390f35b6102b260048036038101906102ad9190613642565b61081c565b6040516102bf91906136ac565b60405180910390f35b6102e260048036038101906102dd91906136ef565b610837565b005b6102ec61084d565b6040516102f9919061373c565b60405180910390f35b61031c60048036038101906103179190613895565b610859565b005b61033860048036038101906103339190613642565b61091b565b005b610354600480360381019061034f91906138ef565b61092d565b005b610370600480360381019061036b91906136ef565b610a2c565b60405161037d919061373c565b60405180910390f35b61038e610ad0565b60405161039b919061399a565b60405180910390f35b6103ac610af5565b6040516103b9919061373c565b60405180910390f35b6103dc60048036038101906103d791906139b3565b610afb565b005b6103f860048036038101906103f391906138ef565b610c47565b005b610414600480360381019061040f9190613a37565b610c66565b005b610430600480360381019061042b9190613642565b610e1a565b60405161043d919061373c565b60405180910390f35b61044e610e8c565b60405161045b9190613aa2565b60405180910390f35b61047e60048036038101906104799190613642565b610eb1565b60405161048b91906136ac565b60405180910390f35b6104ae60048036038101906104a99190613a37565b610ec2565b6040516104bc929190613b0d565b60405180910390f35b6104df60048036038101906104da91906139b3565b610ee0565b6040516104ec919061373c565b60405180910390f35b61050f600480360381019061050a91906139b3565b610f96565b005b610519610fe1565b005b610523611172565b604051610530919061373c565b60405180910390f35b610541611178565b60405161054e91906136ac565b60405180910390f35b61055f6111a0565b60405161056c9190613b53565b60405180910390f35b61058f600480360381019061058a91906139b3565b61123d565b005b61059961141a565b6040516105a6919061373c565b60405180910390f35b6105b7611420565b6040516105c491906135ef565b60405180910390f35b6105d56114b0565b6040516105e29190613b53565b60405180910390f35b6105f36114b6565b604051610600919061399a565b60405180910390f35b610623600480360381019061061e9190613b96565b6114db565b005b61063f600480360381019061063a9190613c0d565b6114f1565b005b61065b60048036038101906106569190613ce8565b61151c565b005b61067760048036038101906106729190613642565b611539565b005b610693600480360381019061068e9190613642565b61154b565b6040516106a091906135ef565b60405180910390f35b6106c360048036038101906106be91906139b3565b61155d565b005b6106cd6115a8565b6040516106da919061373c565b60405180910390f35b6106fd60048036038101906106f89190613d68565b6115ae565b60405161070a919061354c565b60405180910390f35b61071b61163c565b6040516107289190613e19565b60405180910390f35b61074b600480360381019061074691906139b3565b61164f565b005b61076760048036038101906107629190613642565b611663565b604051610774919061373c565b60405180910390f35b5f61078782611683565b50919050565b60605f805461079b90613e5f565b80601f01602080910402602001604051908101604052809291908181526020018280546107c790613e5f565b80156108125780601f106107e957610100808354040283529160200191610812565b820191905f5260205f20905b8154815290600101906020018083116107f557829003601f168201915b5050505050905090565b5f610826826116e3565b5061083082611769565b9050919050565b61084982826108446117a2565b6117a9565b5050565b5f600880549050905090565b600d5f9054906101000a900473ffffffffffffffffffffffffffffffffffffffff1673ffffffffffffffffffffffffffffffffffffffff163373ffffffffffffffffffffffffffffffffffffffff161461090d5733600d5f9054906101000a900473ffffffffffffffffffffffffffffffffffffffff166040517f1cf993f4000000000000000000000000000000000000000000000000000000008152600401610904929190613e8f565b60405180910390fd5b61091782826117bb565b5050565b610923611a84565b8060108190555050565b5f73ffffffffffffffffffffffffffffffffffffffff168273ffffffffffffffffffffffffffffffffffffffff160361099d575f6040517f64a0ae9200000000000000000000000000000000000000000000000000000000815260040161099491906136ac565b60405180910390fd5b5f6109b083836109ab6117a2565b611b15565b90508373ffffffffffffffffffffffffffffffffffffffff168173ffffffffffffffffffffffffffffffffffffffff1614610a26578382826040517f64283d7b000000000000000000000000000000000000000000000000000000008152600401610a1d93929190613eb6565b60405180910390fd5b50505050565b5f610a3683610ee0565b8210610a7b5782826040517fa57d13dc000000000000000000000000000000000000000000000000000000008152600401610a72929190613eeb565b60405180910390fd5b60065f8473ffffffffffffffffffffffffffffffffffffffff1673ffffffffffffffffffffffffffffffffffffffff1681526020019081526020015f205f8381526020019081526020015f2054905092915050565b60155f9054906101000a900473ffffffffffffffffffffffffffffffffffffffff1681565b60115481565b5f610b06600e611b29565b9050610b12600e611b35565b610b1c8282611b49565b5f60135f81548110610b3157610b30613f12565b5b905f5260205f20018054610b4490613e5f565b80601f0160208091040260200160405190810160405280929190818152602001828054610b7090613e5f565b8015610bbb5780601f10610b9257610100808354040283529160200191610bbb565b820191905f5260205f20905b815481529060010190602001808311610b9e57829003601f168201915b50505050509050610bcc8282611b66565b610c426040518060400160405280601581526020017f444f4e45212121206d696e74656420746f6b656e200000000000000000000000815250836040518060400160405280601981526020017f20616e642061737369676e656420746f6b656e2075726c3a200000000000000081525084611bc0565b505050565b610c6183838360405180602001604052805f81525061151c565b505050565b60105460115442610c779190613f6c565b1115610dd257426011819055505f610c8d6111a0565b90506012548103610cdc57610cd66040518060400160405280601781526020017f4e4f204348414e4745202d3e2072657475726e696e6721000000000000000000815250611c62565b50610e16565b601254811215610d5457610d246040518060400160405280600d81526020017f49545320424541522054494d4500000000000000000000000000000000000000815250611c62565b6001601a60046101000a81548160ff02191690836001811115610d4a57610d49613da6565b5b0217905550610dbd565b610d926040518060400160405280600d81526020017f4954532042554c4c2054494d4500000000000000000000000000000000000000815250611c62565b5f601a60046101000a81548160ff02191690836001811115610db757610db6613da6565b5b02179055505b610dc5611cfb565b8060128190555050610e15565b610e106040518060400160405280601181526020017f20494e54455256414c204e4f5420555021000000000000000000000000000000815250611c62565b610e16565b5b5050565b5f610e2361084d565b8210610e68575f826040517fa57d13dc000000000000000000000000000000000000000000000000000000008152600401610e5f929190613eeb565b60405180910390fd5b60088281548110610e7c57610e7b613f12565b5b905f5260205f2001549050919050565b600f5f9054906101000a900473ffffffffffffffffffffffffffffffffffffffff1681565b5f610ebb826116e3565b9050919050565b5f606060105460115442610ed69190613f6c565b1191509250929050565b5f8073ffffffffffffffffffffffffffffffffffffffff168273ffffffffffffffffffffffffffffffffffffffff1603610f51575f6040517f89c62b64000000000000000000000000000000000000000000000000000000008152600401610f4891906136ac565b60405180910390fd5b60035f8373ffffffffffffffffffffffffffffffffffffffff1673ffffffffffffffffffffffffffffffffffffffff1681526020019081526020015f20549050919050565b610f9e611a84565b80600f5f6101000a81548173ffffffffffffffffffffffffffffffffffffffff021916908373ffffffffffffffffffffffffffffffffffffffff16021790555050565b600c5f9054906101000a900473ffffffffffffffffffffffffffffffffffffffff1673ffffffffffffffffffffffffffffffffffffffff163373ffffffffffffffffffffffffffffffffffffffff1614611070576040517f08c379a000000000000000000000000000000000000000000000000000000000815260040161106790613fe9565b60405180910390fd5b5f600b5f9054906101000a900473ffffffffffffffffffffffffffffffffffffffff16905033600b5f6101000a81548173ffffffffffffffffffffffffffffffffffffffff021916908373ffffffffffffffffffffffffffffffffffffffff1602179055505f600c5f6101000a81548173ffffffffffffffffffffffffffffffffffffffff021916908373ffffffffffffffffffffffffffffffffffffffff1602179055503373ffffffffffffffffffffffffffffffffffffffff168173ffffffffffffffffffffffffffffffffffffffff167f8be0079c531659141344cd1fd0a4f28419497f9722a3daafe3b4186f6b6457e060405160405180910390a350565b60165481565b5f600b5f9054906101000a900473ffffffffffffffffffffffffffffffffffffffff16905090565b5f80600f5f9054906101000a900473ffffffffffffffffffffffffffffffffffffffff1673ffffffffffffffffffffffffffffffffffffffff1663feaf968c6040518163ffffffff1660e01b815260040160a060405180830381865afa15801561120c573d5f803e3d5ffd5b505050506040513d601f19601f820116820180604052508101906112309190614084565b5050509150508091505090565b611245611178565b73ffffffffffffffffffffffffffffffffffffffff163373ffffffffffffffffffffffffffffffffffffffff16141580156112cd5750600d5f9054906101000a900473ffffffffffffffffffffffffffffffffffffffff1673ffffffffffffffffffffffffffffffffffffffff163373ffffffffffffffffffffffffffffffffffffffff1614155b1561133b57336112db611178565b600d5f9054906101000a900473ffffffffffffffffffffffffffffffffffffffff166040517f061db9c1000000000000000000000000000000000000000000000000000000008152600401611332939291906140fb565b60405180910390fd5b5f73ffffffffffffffffffffffffffffffffffffffff168173ffffffffffffffffffffffffffffffffffffffff16036113a0576040517fd92e233d00000000000000000000000000000000000000000000000000000000815260040160405180910390fd5b80600d5f6101000a81548173ffffffffffffffffffffffffffffffffffffffff021916908373ffffffffffffffffffffffffffffffffffffffff1602179055507fd1a6a14209a385a964d036e404cb5cfb71f4000cdb03c9366292430787261be68160405161140f91906136ac565b60405180910390a150565b60105481565b60606001805461142f90613e5f565b80601f016020809104026020016040519081016040528092919081815260200182805461145b90613e5f565b80156114a65780601f1061147d576101008083540402835291602001916114a6565b820191905f5260205f20905b81548152906001019060200180831161148957829003601f168201915b5050505050905090565b60125481565b600d5f9054906101000a900473ffffffffffffffffffffffffffffffffffffffff1681565b6114ed6114e66117a2565b8383611e8d565b5050565b6114f9611a84565b80601a5f6101000a81548163ffffffff021916908363ffffffff16021790555050565b61152784848461092d565b61153384848484611ff6565b50505050565b611541611a84565b8060168190555050565b6060611556826121a8565b9050919050565b611565611a84565b8060155f6101000a81548173ffffffffffffffffffffffffffffffffffffffff021916908373ffffffffffffffffffffffffffffffffffffffff16021790555050565b60185481565b5f60055f8473ffffffffffffffffffffffffffffffffffffffff1673ffffffffffffffffffffffffffffffffffffffff1681526020019081526020015f205f8373ffffffffffffffffffffffffffffffffffffffff1673ffffffffffffffffffffffffffffffffffffffff1681526020019081526020015f205f9054906101000a900460ff16905092915050565b601a60049054906101000a900460ff1681565b611657611a84565b611660816122b3565b50565b60178181548110611672575f80fd5b905f5260205f20015f915090505481565b5f634906490660e01b7bffffffffffffffffffffffffffffffffffffffffffffffffffffffff1916827bffffffffffffffffffffffffffffffffffffffffffffffffffffffff191614806116dc57506116db826123df565b5b9050919050565b5f806116ee83612458565b90505f73ffffffffffffffffffffffffffffffffffffffff168173ffffffffffffffffffffffffffffffffffffffff160361176057826040517f7e273289000000000000000000000000000000000000000000000000000000008152600401611757919061373c565b60405180910390fd5b80915050919050565b5f60045f8381526020019081526020015f205f9054906101000a900473ffffffffffffffffffffffffffffffffffffffff169050919050565b5f33905090565b6117b68383836001612491565b505050565b80601790805190602001906117d1929190613431565b506118106040518060400160405280601a81526020017f2e2e2e46756c66696c6c696e672072616e646f6d20576f726473000000000000815250611c62565b5f80600181111561182457611823613da6565b5b601a60049054906101000a900460ff16600181111561184657611845613da6565b5b14611852576014611855565b60135b805480602002602001604051908101604052809291908181526020015f905b8282101561191c578382905f5260205f2001805461189190613e5f565b80601f01602080910402602001604051908101604052809291908181526020018280546118bd90613e5f565b80156119085780601f106118df57610100808354040283529160200191611908565b820191905f5260205f20905b8154815290600101906020018083116118eb57829003601f168201915b505050505081526020019060010190611874565b5050505090505f8151835f8151811061193857611937613f12565b5b602002602001015161194a919061415d565b90505f5b611958600e611b29565b811015611996576119838184848151811061197657611975613f12565b5b6020026020010151611b66565b808061198e9061418d565b91505061194e565b505f8060018111156119ab576119aa613da6565b5b601a60049054906101000a900460ff1660018111156119cd576119cc613da6565b5b14611a0d576040518060400160405280600781526020017f6265617269736800000000000000000000000000000000000000000000000000815250611a44565b6040518060400160405280600781526020017f62756c6c697368000000000000000000000000000000000000000000000000008152505b90507f1cd67277dcd039d660f99499bdb46e90175d6160e3f9ab788a032b7a1ad2356a81604051611a7591906135ef565b60405180910390a15050505050565b600b5f9054906101000a900473ffffffffffffffffffffffffffffffffffffffff1673ffffffffffffffffffffffffffffffffffffffff163373ffffffffffffffffffffffffffffffffffffffff1614611b13576040517f08c379a0000000000000000000000000000000000000000000000000000000008152600401611b0a9061421e565b60405180910390fd5b565b5f611b21848484612650565b509392505050565b5f815f01549050919050565b6001815f015f828254019250508190555050565b611b62828260405180602001604052805f81525061276a565b5050565b80600a5f8481526020019081526020015f209081611b8491906143d0565b507ff8e1a15aba9398e019f0b49df1a4fde98ee17ae345cb5f6b5e2c27f5033e8ce782604051611bb4919061373c565b60405180910390a15050565b611c5c84848484604051602401611bda949392919061449f565b6040516020818303038152906040527f5ab84e1f000000000000000000000000000000000000000000000000000000007bffffffffffffffffffffffffffffffffffffffffffffffffffffffff19166020820180517bffffffffffffffffffffffffffffffffffffffffffffffffffffffff8381831617835250505050612785565b50505050565b611cf881604051602401611c7691906135ef565b6040516020818303038152906040527f41304fac000000000000000000000000000000000000000000000000000000007bffffffffffffffffffffffffffffffffffffffffffffffffffffffff19166020820180517bffffffffffffffffffffffffffffffffffffffffffffffffffffffff8381831617835250505050612785565b50565b5f60165403611d3f576040517f08c379a0000000000000000000000000000000000000000000000000000000008152600401611d3690614541565b60405180910390fd5b60155f9054906101000a900473ffffffffffffffffffffffffffffffffffffffff1673ffffffffffffffffffffffffffffffffffffffff16639b1c385e6040518060c0016040528060195481526020016016548152602001600361ffff168152602001601a5f9054906101000a900463ffffffff1663ffffffff168152602001600163ffffffff168152602001611de560405180602001604052805f151581525061279f565b8152506040518263ffffffff1660e01b8152600401611e04919061467f565b6020604051808303815f875af1158015611e20573d5f803e3d5ffd5b505050506040513d601f19601f82011682018060405250810190611e44919061469f565b601881905550611e8b6040518060400160405280600c81526020017f526571756573742049443a200000000000000000000000000000000000000000815250601854612837565b565b5f73ffffffffffffffffffffffffffffffffffffffff168273ffffffffffffffffffffffffffffffffffffffff1603611efd57816040517f5b08ba18000000000000000000000000000000000000000000000000000000008152600401611ef491906136ac565b60405180910390fd5b8060055f8573ffffffffffffffffffffffffffffffffffffffff1673ffffffffffffffffffffffffffffffffffffffff1681526020019081526020015f205f8473ffffffffffffffffffffffffffffffffffffffff1673ffffffffffffffffffffffffffffffffffffffff1681526020019081526020015f205f6101000a81548160ff0219169083151502179055508173ffffffffffffffffffffffffffffffffffffffff168373ffffffffffffffffffffffffffffffffffffffff167f17307eab39ab6107e8899845ad3d59bd9653f200f220920489ca2b5937696c3183604051611fe9919061354c565b60405180910390a3505050565b5f8373ffffffffffffffffffffffffffffffffffffffff163b11156121a2578273ffffffffffffffffffffffffffffffffffffffff1663150b7a026120396117a2565b8685856040518563ffffffff1660e01b815260040161205b94939291906146ca565b6020604051808303815f875af192505050801561209657506040513d601f19601f820116820180604052508101906120939190614728565b60015b612117573d805f81146120c4576040519150601f19603f3d011682016040523d82523d5f602084013e6120c9565b606091505b505f81510361210f57836040517f64a0ae9200000000000000000000000000000000000000000000000000000000815260040161210691906136ac565b60405180910390fd5b805181602001fd5b63150b7a0260e01b7bffffffffffffffffffffffffffffffffffffffffffffffffffffffff1916817bffffffffffffffffffffffffffffffffffffffffffffffffffffffff1916146121a057836040517f64a0ae9200000000000000000000000000000000000000000000000000000000815260040161219791906136ac565b60405180910390fd5b505b50505050565b60606121b3826116e3565b505f600a5f8481526020019081526020015f2080546121d190613e5f565b80601f01602080910402602001604051908101604052809291908181526020018280546121fd90613e5f565b80156122485780601f1061221f57610100808354040283529160200191612248565b820191905f5260205f20905b81548152906001019060200180831161222b57829003601f168201915b505050505090505f6122586128d3565b90505f81510361226c5781925050506122ae565b5f825111156122a057808260405160200161228892919061478d565b604051602081830303815290604052925050506122ae565b6122a9846128e9565b925050505b919050565b3373ffffffffffffffffffffffffffffffffffffffff168173ffffffffffffffffffffffffffffffffffffffff1603612321576040517f08c379a0000000000000000000000000000000000000000000000000000000008152600401612318906147fa565b60405180910390fd5b80600c5f6101000a81548173ffffffffffffffffffffffffffffffffffffffff021916908373ffffffffffffffffffffffffffffffffffffffff1602179055508073ffffffffffffffffffffffffffffffffffffffff16600b5f9054906101000a900473ffffffffffffffffffffffffffffffffffffffff1673ffffffffffffffffffffffffffffffffffffffff167fed8889f560326eb138920d842192f0eb3dd22b4f139c87a2c57538e05bae127860405160405180910390a350565b5f7f780e9d63000000000000000000000000000000000000000000000000000000007bffffffffffffffffffffffffffffffffffffffffffffffffffffffff1916827bffffffffffffffffffffffffffffffffffffffffffffffffffffffff1916148061245157506124508261294f565b5b9050919050565b5f60025f8381526020019081526020015f205f9054906101000a900473ffffffffffffffffffffffffffffffffffffffff169050919050565b80806124c957505f73ffffffffffffffffffffffffffffffffffffffff168273ffffffffffffffffffffffffffffffffffffffff1614155b156125fb575f6124d8846116e3565b90505f73ffffffffffffffffffffffffffffffffffffffff168373ffffffffffffffffffffffffffffffffffffffff161415801561254257508273ffffffffffffffffffffffffffffffffffffffff168173ffffffffffffffffffffffffffffffffffffffff1614155b8015612555575061255381846115ae565b155b1561259757826040517fa9fbf51f00000000000000000000000000000000000000000000000000000000815260040161258e91906136ac565b60405180910390fd5b81156125f957838573ffffffffffffffffffffffffffffffffffffffff168273ffffffffffffffffffffffffffffffffffffffff167f8c5be1e5ebec7d5bd14f71427d1e84f3dd0314c0f7b2291e5b200ac8c7c3b92560405160405180910390a45b505b8360045f8581526020019081526020015f205f6101000a81548173ffffffffffffffffffffffffffffffffffffffff021916908373ffffffffffffffffffffffffffffffffffffffff16021790555050505050565b5f8061265d858585612a30565b90505f73ffffffffffffffffffffffffffffffffffffffff168173ffffffffffffffffffffffffffffffffffffffff16036126a05761269b84612c3b565b6126df565b8473ffffffffffffffffffffffffffffffffffffffff168173ffffffffffffffffffffffffffffffffffffffff16146126de576126dd8185612c7f565b5b5b5f73ffffffffffffffffffffffffffffffffffffffff168573ffffffffffffffffffffffffffffffffffffffff16036127205761271b84612dc9565b61275f565b8473ffffffffffffffffffffffffffffffffffffffff168173ffffffffffffffffffffffffffffffffffffffff161461275e5761275d8585612e89565b5b5b809150509392505050565b6127748383612f0d565b6127805f848484611ff6565b505050565b61279c8161279461300061301f565b63ffffffff16565b50565b60607f92fd13387c7fe7befbc38d303d6468778fb9731bc4583f17d92989c6fcfdeaaa826040516024016127d39190614841565b604051602081830303815290604052907bffffffffffffffffffffffffffffffffffffffffffffffffffffffff19166020820180517bffffffffffffffffffffffffffffffffffffffffffffffffffffffff83818316178352505050509050919050565b6128cf828260405160240161284d92919061485a565b6040516020818303038152906040527fb60e72cc000000000000000000000000000000000000000000000000000000007bffffffffffffffffffffffffffffffffffffffffffffffffffffffff19166020820180517bffffffffffffffffffffffffffffffffffffffffffffffffffffffff8381831617835250505050612785565b5050565b606060405180602001604052805f815250905090565b60606128f4826116e3565b505f6128fe6128d3565b90505f81511161291c5760405180602001604052805f815250612947565b806129268461302a565b60405160200161293792919061478d565b6040516020818303038152906040525b915050919050565b5f7f80ac58cd000000000000000000000000000000000000000000000000000000007bffffffffffffffffffffffffffffffffffffffffffffffffffffffff1916827bffffffffffffffffffffffffffffffffffffffffffffffffffffffff19161480612a1957507f5b5e139f000000000000000000000000000000000000000000000000000000007bffffffffffffffffffffffffffffffffffffffffffffffffffffffff1916827bffffffffffffffffffffffffffffffffffffffffffffffffffffffff1916145b80612a295750612a28826130f4565b5b9050919050565b5f80612a3b84612458565b90505f73ffffffffffffffffffffffffffffffffffffffff168373ffffffffffffffffffffffffffffffffffffffff1614612a7c57612a7b81848661315d565b5b5f73ffffffffffffffffffffffffffffffffffffffff168173ffffffffffffffffffffffffffffffffffffffff1614612b0757612abb5f855f80612491565b600160035f8373ffffffffffffffffffffffffffffffffffffffff1673ffffffffffffffffffffffffffffffffffffffff1681526020019081526020015f205f82825403925050819055505b5f73ffffffffffffffffffffffffffffffffffffffff168573ffffffffffffffffffffffffffffffffffffffff1614612b8657600160035f8773ffffffffffffffffffffffffffffffffffffffff1673ffffffffffffffffffffffffffffffffffffffff1681526020019081526020015f205f82825401925050819055505b8460025f8681526020019081526020015f205f6101000a81548173ffffffffffffffffffffffffffffffffffffffff021916908373ffffffffffffffffffffffffffffffffffffffff160217905550838573ffffffffffffffffffffffffffffffffffffffff168273ffffffffffffffffffffffffffffffffffffffff167fddf252ad1be2c89b69c2b068fc378daa952ba7f163c4a11628f55a4df523b3ef60405160405180910390a4809150509392505050565b60088054905060095f8381526020019081526020015f2081905550600881908060018154018082558091505060019003905f5260205f20015f909190919091505550565b5f612c8983610ee0565b90505f60075f8481526020019081526020015f20549050818114612d60575f60065f8673ffffffffffffffffffffffffffffffffffffffff1673ffffffffffffffffffffffffffffffffffffffff1681526020019081526020015f205f8481526020019081526020015f205490508060065f8773ffffffffffffffffffffffffffffffffffffffff1673ffffffffffffffffffffffffffffffffffffffff1681526020019081526020015f205f8481526020019081526020015f20819055508160075f8381526020019081526020015f2081905550505b60075f8481526020019081526020015f205f905560065f8573ffffffffffffffffffffffffffffffffffffffff1673ffffffffffffffffffffffffffffffffffffffff1681526020019081526020015f205f8381526020019081526020015f205f905550505050565b5f6001600880549050612ddc9190613f6c565b90505f60095f8481526020019081526020015f205490505f60088381548110612e0857612e07613f12565b5b905f5260205f20015490508060088381548110612e2857612e27613f12565b5b905f5260205f2001819055508160095f8381526020019081526020015f208190555060095f8581526020019081526020015f205f90556008805480612e7057612e6f614888565b5b600190038181905f5260205f20015f9055905550505050565b5f6001612e9584610ee0565b612e9f9190613f6c565b90508160065f8573ffffffffffffffffffffffffffffffffffffffff1673ffffffffffffffffffffffffffffffffffffffff1681526020019081526020015f205f8381526020019081526020015f20819055508060075f8481526020019081526020015f2081905550505050565b5f73ffffffffffffffffffffffffffffffffffffffff168273ffffffffffffffffffffffffffffffffffffffff1603612f7d575f6040517f64a0ae92000000000000000000000000000000000000000000000000000000008152600401612f7491906136ac565b60405180910390fd5b5f612f8983835f611b15565b90505f73ffffffffffffffffffffffffffffffffffffffff168173ffffffffffffffffffffffffffffffffffffffff1614612ffb575f6040517f73c6ac6e000000000000000000000000000000000000000000000000000000008152600401612ff291906136ac565b60405180910390fd5b505050565b5f6a636f6e736f6c652e6c6f6790505f80835160208501845afa505050565b61347c819050919050565b60605f600161303884613220565b0190505f8167ffffffffffffffff81111561305657613055613759565b5b6040519080825280601f01601f1916602001820160405280156130885781602001600182028036833780820191505090505b5090505f82602001820190505b6001156130e9578080600190039150507f3031323334353637383961626364656600000000000000000000000000000000600a86061a8153600a85816130de576130dd614130565b5b0494505f8503613095575b819350505050919050565b5f7f01ffc9a7000000000000000000000000000000000000000000000000000000007bffffffffffffffffffffffffffffffffffffffffffffffffffffffff1916827bffffffffffffffffffffffffffffffffffffffffffffffffffffffff1916149050919050565b613168838383613371565b61321b575f73ffffffffffffffffffffffffffffffffffffffff168373ffffffffffffffffffffffffffffffffffffffff16036131dc57806040517f7e2732890000000000000000000000000000000000000000000000000000000081526004016131d3919061373c565b60405180910390fd5b81816040517f177e802f000000000000000000000000000000000000000000000000000000008152600401613212929190613eeb565b60405180910390fd5b505050565b5f805f90507a184f03e93ff9f4daa797ed6e38ed64bf6a1f010000000000000000831061327c577a184f03e93ff9f4daa797ed6e38ed64bf6a1f010000000000000000838161327257613271614130565b5b0492506040810190505b6d04ee2d6d415b85acef810000000083106132b9576d04ee2d6d415b85acef810000000083816132af576132ae614130565b5b0492506020810190505b662386f26fc1000083106132e857662386f26fc1000083816132de576132dd614130565b5b0492506010810190505b6305f5e1008310613311576305f5e100838161330757613306614130565b5b0492506008810190505b612710831061333657612710838161332c5761332b614130565b5b0492506004810190505b60648310613359576064838161334f5761334e614130565b5b0492506002810190505b600a8310613368576001810190505b80915050919050565b5f8073ffffffffffffffffffffffffffffffffffffffff168373ffffffffffffffffffffffffffffffffffffffff161415801561342857508273ffffffffffffffffffffffffffffffffffffffff168473ffffffffffffffffffffffffffffffffffffffff1614806133e957506133e884846115ae565b5b8061342757508273ffffffffffffffffffffffffffffffffffffffff1661340f83611769565b73ffffffffffffffffffffffffffffffffffffffff16145b5b90509392505050565b828054828255905f5260205f2090810192821561346b579160200282015b8281111561346a57825182559160200191906001019061344f565b5b5090506134789190613486565b5090565b6134846148b5565b565b5b8082111561349d575f815f905550600101613487565b5090565b5f604051905090565b5f80fd5b5f80fd5b5f7fffffffff0000000000000000000000000000000000000000000000000000000082169050919050565b6134e6816134b2565b81146134f0575f80fd5b50565b5f81359050613501816134dd565b92915050565b5f6020828403121561351c5761351b6134aa565b5b5f613529848285016134f3565b91505092915050565b5f8115159050919050565b61354681613532565b82525050565b5f60208201905061355f5f83018461353d565b92915050565b5f81519050919050565b5f82825260208201905092915050565b5f5b8381101561359c578082015181840152602081019050613581565b5f8484015250505050565b5f601f19601f8301169050919050565b5f6135c182613565565b6135cb818561356f565b93506135db81856020860161357f565b6135e4816135a7565b840191505092915050565b5f6020820190508181035f83015261360781846135b7565b905092915050565b5f819050919050565b6136218161360f565b811461362b575f80fd5b50565b5f8135905061363c81613618565b92915050565b5f60208284031215613657576136566134aa565b5b5f6136648482850161362e565b91505092915050565b5f73ffffffffffffffffffffffffffffffffffffffff82169050919050565b5f6136968261366d565b9050919050565b6136a68161368c565b82525050565b5f6020820190506136bf5f83018461369d565b92915050565b6136ce8161368c565b81146136d8575f80fd5b50565b5f813590506136e9816136c5565b92915050565b5f8060408385031215613705576137046134aa565b5b5f613712858286016136db565b92505060206137238582860161362e565b9150509250929050565b6137368161360f565b82525050565b5f60208201905061374f5f83018461372d565b92915050565b5f80fd5b7f4e487b71000000000000000000000000000000000000000000000000000000005f52604160045260245ffd5b61378f826135a7565b810181811067ffffffffffffffff821117156137ae576137ad613759565b5b80604052505050565b5f6137c06134a1565b90506137cc8282613786565b919050565b5f67ffffffffffffffff8211156137eb576137ea613759565b5b602082029050602081019050919050565b5f80fd5b5f61381261380d846137d1565b6137b7565b90508083825260208201905060208402830185811115613835576138346137fc565b5b835b8181101561385e578061384a888261362e565b845260208401935050602081019050613837565b5050509392505050565b5f82601f83011261387c5761387b613755565b5b813561388c848260208601613800565b91505092915050565b5f80604083850312156138ab576138aa6134aa565b5b5f6138b88582860161362e565b925050602083013567ffffffffffffffff8111156138d9576138d86134ae565b5b6138e585828601613868565b9150509250929050565b5f805f60608486031215613906576139056134aa565b5b5f613913868287016136db565b9350506020613924868287016136db565b92505060406139358682870161362e565b9150509250925092565b5f819050919050565b5f61396261395d6139588461366d565b61393f565b61366d565b9050919050565b5f61397382613948565b9050919050565b5f61398482613969565b9050919050565b6139948161397a565b82525050565b5f6020820190506139ad5f83018461398b565b92915050565b5f602082840312156139c8576139c76134aa565b5b5f6139d5848285016136db565b91505092915050565b5f80fd5b5f8083601f8401126139f7576139f6613755565b5b8235905067ffffffffffffffff811115613a1457613a136139de565b5b602083019150836001820283011115613a3057613a2f6137fc565b5b9250929050565b5f8060208385031215613a4d57613a4c6134aa565b5b5f83013567ffffffffffffffff811115613a6a57613a696134ae565b5b613a76858286016139e2565b92509250509250929050565b5f613a8c82613969565b9050919050565b613a9c81613a82565b82525050565b5f602082019050613ab55f830184613a93565b92915050565b5f81519050919050565b5f82825260208201905092915050565b5f613adf82613abb565b613ae98185613ac5565b9350613af981856020860161357f565b613b02816135a7565b840191505092915050565b5f604082019050613b205f83018561353d565b8181036020830152613b328184613ad5565b90509392505050565b5f819050919050565b613b4d81613b3b565b82525050565b5f602082019050613b665f830184613b44565b92915050565b613b7581613532565b8114613b7f575f80fd5b50565b5f81359050613b9081613b6c565b92915050565b5f8060408385031215613bac57613bab6134aa565b5b5f613bb9858286016136db565b9250506020613bca85828601613b82565b9150509250929050565b5f63ffffffff82169050919050565b613bec81613bd4565b8114613bf6575f80fd5b50565b5f81359050613c0781613be3565b92915050565b5f60208284031215613c2257613c216134aa565b5b5f613c2f84828501613bf9565b91505092915050565b5f80fd5b5f67ffffffffffffffff821115613c5657613c55613759565b5b613c5f826135a7565b9050602081019050919050565b828183375f83830152505050565b5f613c8c613c8784613c3c565b6137b7565b905082815260208101848484011115613ca857613ca7613c38565b5b613cb3848285613c6c565b509392505050565b5f82601f830112613ccf57613cce613755565b5b8135613cdf848260208601613c7a565b91505092915050565b5f805f8060808587031215613d0057613cff6134aa565b5b5f613d0d878288016136db565b9450506020613d1e878288016136db565b9350506040613d2f8782880161362e565b925050606085013567ffffffffffffffff811115613d5057613d4f6134ae565b5b613d5c87828801613cbb565b91505092959194509250565b5f8060408385031215613d7e57613d7d6134aa565b5b5f613d8b858286016136db565b9250506020613d9c858286016136db565b9150509250929050565b7f4e487b71000000000000000000000000000000000000000000000000000000005f52602160045260245ffd5b60028110613de457613de3613da6565b5b50565b5f819050613df482613dd3565b919050565b5f613e0382613de7565b9050919050565b613e1381613df9565b82525050565b5f602082019050613e2c5f830184613e0a565b92915050565b7f4e487b71000000000000000000000000000000000000000000000000000000005f52602260045260245ffd5b5f6002820490506001821680613e7657607f821691505b602082108103613e8957613e88613e32565b5b50919050565b5f604082019050613ea25f83018561369d565b613eaf602083018461369d565b9392505050565b5f606082019050613ec95f83018661369d565b613ed6602083018561372d565b613ee3604083018461369d565b949350505050565b5f604082019050613efe5f83018561369d565b613f0b602083018461372d565b9392505050565b7f4e487b71000000000000000000000000000000000000000000000000000000005f52603260045260245ffd5b7f4e487b71000000000000000000000000000000000000000000000000000000005f52601160045260245ffd5b5f613f768261360f565b9150613f818361360f565b9250828203905081811115613f9957613f98613f3f565b5b92915050565b7f4d7573742062652070726f706f736564206f776e6572000000000000000000005f82015250565b5f613fd360168361356f565b9150613fde82613f9f565b602082019050919050565b5f6020820190508181035f83015261400081613fc7565b9050919050565b5f69ffffffffffffffffffff82169050919050565b61402581614007565b811461402f575f80fd5b50565b5f815190506140408161401c565b92915050565b61404f81613b3b565b8114614059575f80fd5b50565b5f8151905061406a81614046565b92915050565b5f8151905061407e81613618565b92915050565b5f805f805f60a0868803121561409d5761409c6134aa565b5b5f6140aa88828901614032565b95505060206140bb8882890161405c565b94505060406140cc88828901614070565b93505060606140dd88828901614070565b92505060806140ee88828901614032565b9150509295509295909350565b5f60608201905061410e5f83018661369d565b61411b602083018561369d565b614128604083018461369d565b949350505050565b7f4e487b71000000000000000000000000000000000000000000000000000000005f52601260045260245ffd5b5f6141678261360f565b91506141728361360f565b92508261418257614181614130565b5b828206905092915050565b5f6141978261360f565b91507fffffffffffffffffffffffffffffffffffffffffffffffffffffffffffffffff82036141c9576141c8613f3f565b5b600182019050919050565b7f4f6e6c792063616c6c61626c65206279206f776e6572000000000000000000005f82015250565b5f61420860168361356f565b9150614213826141d4565b602082019050919050565b5f6020820190508181035f830152614235816141fc565b9050919050565b5f819050815f5260205f209050919050565b5f6020601f8301049050919050565b5f82821b905092915050565b5f600883026142987fffffffffffffffffffffffffffffffffffffffffffffffffffffffffffffffff8261425d565b6142a2868361425d565b95508019841693508086168417925050509392505050565b5f6142d46142cf6142ca8461360f565b61393f565b61360f565b9050919050565b5f819050919050565b6142ed836142ba565b6143016142f9826142db565b848454614269565b825550505050565b5f90565b614315614309565b6143208184846142e4565b505050565b5b81811015614343576143385f8261430d565b600181019050614326565b5050565b601f821115614388576143598161423c565b6143628461424e565b81016020851015614371578190505b61438561437d8561424e565b830182614325565b50505b505050565b5f82821c905092915050565b5f6143a85f198460080261438d565b1980831691505092915050565b5f6143c08383614399565b9150826002028217905092915050565b6143d982613565565b67ffffffffffffffff8111156143f2576143f1613759565b5b6143fc8254613e5f565b614407828285614347565b5f60209050601f831160018114614438575f8415614426578287015190505b61443085826143b5565b865550614497565b601f1984166144468661423c565b5f5b8281101561446d57848901518255600182019150602085019450602081019050614448565b8683101561448a5784890151614486601f891682614399565b8355505b6001600288020188555050505b505050505050565b5f6080820190508181035f8301526144b781876135b7565b90506144c6602083018661372d565b81810360408301526144d881856135b7565b905081810360608301526144ec81846135b7565b905095945050505050565b7f537562736372697074696f6e204944206e6f74207365740000000000000000005f82015250565b5f61452b60178361356f565b9150614536826144f7565b602082019050919050565b5f6020820190508181035f8301526145588161451f565b9050919050565b5f819050919050565b6145718161455f565b82525050565b6145808161360f565b82525050565b5f61ffff82169050919050565b61459c81614586565b82525050565b6145ab81613bd4565b82525050565b5f82825260208201905092915050565b5f6145cb82613abb565b6145d581856145b1565b93506145e581856020860161357f565b6145ee816135a7565b840191505092915050565b5f60c083015f83015161460e5f860182614568565b5060208301516146216020860182614577565b5060408301516146346040860182614593565b50606083015161464760608601826145a2565b50608083015161465a60808601826145a2565b5060a083015184820360a086015261467282826145c1565b9150508091505092915050565b5f6020820190508181035f83015261469781846145f9565b905092915050565b5f602082840312156146b4576146b36134aa565b5b5f6146c184828501614070565b91505092915050565b5f6080820190506146dd5f83018761369d565b6146ea602083018661369d565b6146f7604083018561372d565b81810360608301526147098184613ad5565b905095945050505050565b5f81519050614722816134dd565b92915050565b5f6020828403121561473d5761473c6134aa565b5b5f61474a84828501614714565b91505092915050565b5f81905092915050565b5f61476782613565565b6147718185614753565b935061478181856020860161357f565b80840191505092915050565b5f614798828561475d565b91506147a4828461475d565b91508190509392505050565b7f43616e6e6f74207472616e7366657220746f2073656c660000000000000000005f82015250565b5f6147e460178361356f565b91506147ef826147b0565b602082019050919050565b5f6020820190508181035f830152614811816147d8565b9050919050565b61482181613532565b82525050565b602082015f82015161483b5f850182614818565b50505050565b5f6020820190506148545f830184614827565b92915050565b5f6040820190508181035f83015261487281856135b7565b9050614881602083018461372d565b9392505050565b7f4e487b71000000000000000000000000000000000000000000000000000000005f52603160045260245ffd5b7f4e487b71000000000000000000000000000000000000000000000000000000005f52605160045260245ffdfea26469706673582212202d1bedfb8f793f0dd362382d565a2262036436e139bb8747f4afb4d906c789a464736f6c6343000814003368747470733a2f2f697066732e696f2f697066732f516d646355526d4e316b4545744b676e626b564a4a3868726d73535748705a764c6b5267734b4b6f6957765739673f66696c656e616d653d73696d706c655f62756c6c2e6a736f6e68747470733a2f2f697066732e696f2f697066732f516d5258796669336f4e5a43756244786956467265336b4c5a3858654774367051736e4151525a37616b68534e733f66696c656e616d653d67616d65725f62756c6c2e6a736f6e68747470733a2f2f697066732e696f2f697066732f516d624b68425856576d777259735450465966726f52324e374e41656b414d78485556673243576b73376939716a3f66696c656e616d653d73696d706c655f626561722e6a736f6e68747470733a2f2f697066732e696f2f697066732f516d6478394878374643445a474578796a4c52367659636e75745552384b68425a426e5a6641504869556f6d6d4e3f66696c656e616d653d6265616e69655f626561722e6a736f6e68747470733a2f2f697066732e696f2f697066732f516d524a5646654d7274595332435556554d3263484a70425635615832787572706e73665a784c545451626944333f66696c656e616d653d70617274795f62756c6c2e6a736f6e68747470733a2f2f697066732e696f2f697066732f516d54564c79545375694b4755456d6238384267584733714e4338596770485a6946626a4872584b4833514845753f66696c656e616d653d636f6f6c696f5f626561722e6a736f6e",
			"opcodes": "PUSH1 0x80 PUSH1 0x40 MSTORE PUSH1 0x40 MLOAD DUP1 PUSH1 0x60 ADD PUSH1 0x40 MSTORE DUP1 PUSH1 0x40 MLOAD DUP1 PUSH1 0x80 ADD PUSH1 0x40 MSTORE DUP1 PUSH1 0x5C DUP2 MSTORE PUSH1 0x20 ADD PUSH3 0x5706 PUSH1 0x5C SWAP2 CODECOPY DUP2 MSTORE PUSH1 0x20 ADD PUSH1 0x40 MLOAD DUP1 PUSH1 0x80 ADD PUSH1 0x40 MSTORE DUP1 PUSH1 0x5C DUP2 MSTORE PUSH1 0x20 ADD PUSH3 0x581C PUSH1 0x5C SWAP2 CODECOPY DUP2 MSTORE PUSH1 0x20 ADD PUSH1 0x40 MLOAD DUP1 PUSH1 0x80 ADD PUSH1 0x40 MSTORE DUP1 PUSH1 0x5D DUP2 MSTORE PUSH1 0x20 ADD PUSH3 0x56A9 PUSH1 0x5D SWAP2 CODECOPY DUP2 MSTORE POP PUSH1 0x13 SWAP1 PUSH1 0x3 PUSH3 0x7C SWAP3 SWAP2 SWAP1 PUSH3 0x650 JUMP JUMPDEST POP PUSH1 0x40 MLOAD DUP1 PUSH1 0x60 ADD PUSH1 0x40 MSTORE DUP1 PUSH1 0x40 MLOAD DUP1 PUSH1 0x80 ADD PUSH1 0x40 MSTORE DUP1 PUSH1 0x5D DUP2 MSTORE PUSH1 0x20 ADD PUSH3 0x57BF PUSH1 0x5D SWAP2 CODECOPY DUP2 MSTORE PUSH1 0x20 ADD PUSH1 0x40 MLOAD DUP1 PUSH1 0x80 ADD PUSH1 0x40 MSTORE DUP1 PUSH1 0x5D DUP2 MSTORE PUSH1 0x20 ADD PUSH3 0x5878 PUSH1 0x5D SWAP2 CODECOPY DUP2 MSTORE PUSH1 0x20 ADD PUSH1 0x40 MLOAD DUP1 PUSH1 0x80 ADD PUSH1 0x40 MSTORE DUP1 PUSH1 0x5D DUP2 MSTORE PUSH1 0x20 ADD PUSH3 0x5762 PUSH1 0x5D SWAP2 CODECOPY DUP2 MSTORE POP PUSH1 0x14 SWAP1 PUSH1 0x3 PUSH3 0xF5 SWAP3 SWAP2 SWAP1 PUSH3 0x650 JUMP JUMPDEST POP PUSH32 0x787D74CAEA10B2B357790D5B5247C2F63D1D91572A9846F780606E4D953677AE PUSH0 SHL PUSH1 0x19 SSTORE PUSH3 0x7A120 PUSH1 0x1A PUSH0 PUSH2 0x100 EXP DUP2 SLOAD DUP2 PUSH4 0xFFFFFFFF MUL NOT AND SWAP1 DUP4 PUSH4 0xFFFFFFFF AND MUL OR SWAP1 SSTORE POP PUSH0 PUSH1 0x1A PUSH1 0x4 PUSH2 0x100 EXP DUP2 SLOAD DUP2 PUSH1 0xFF MUL NOT AND SWAP1 DUP4 PUSH1 0x1 DUP2 GT ISZERO PUSH3 0x167 JUMPI PUSH3 0x166 PUSH3 0x735 JUMP JUMPDEST JUMPDEST MUL OR SWAP1 SSTORE POP CALLVALUE DUP1 ISZERO PUSH3 0x178 JUMPI PUSH0 DUP1 REVERT JUMPDEST POP PUSH1 0x40 MLOAD PUSH3 0x58D5 CODESIZE SUB DUP1 PUSH3 0x58D5 DUP4 CODECOPY DUP2 DUP2 ADD PUSH1 0x40 MSTORE DUP2 ADD SWAP1 PUSH3 0x19E SWAP2 SWAP1 PUSH3 0x7FF JUMP JUMPDEST DUP1 CALLER DUP1 PUSH0 PUSH1 0x40 MLOAD DUP1 PUSH1 0x40 ADD PUSH1 0x40 MSTORE DUP1 PUSH1 0x9 DUP2 MSTORE PUSH1 0x20 ADD PUSH32 0x42756C6C26426561720000000000000000000000000000000000000000000000 DUP2 MSTORE POP PUSH1 0x40 MLOAD DUP1 PUSH1 0x40 ADD PUSH1 0x40 MSTORE DUP1 PUSH1 0x4 DUP2 MSTORE PUSH1 0x20 ADD PUSH32 0x4242544B00000000000000000000000000000000000000000000000000000000 DUP2 MSTORE POP DUP2 PUSH0 SWAP1 DUP2 PUSH3 0x21E SWAP2 SWAP1 PUSH3 0xAB3 JUMP JUMPDEST POP DUP1 PUSH1 0x1 SWAP1 DUP2 PUSH3 0x230 SWAP2 SWAP1 PUSH3 0xAB3 JUMP JUMPDEST POP POP POP PUSH0 PUSH20 0xFFFFFFFFFFFFFFFFFFFFFFFFFFFFFFFFFFFFFFFF AND DUP3 PUSH20 0xFFFFFFFFFFFFFFFFFFFFFFFFFFFFFFFFFFFFFFFF AND SUB PUSH3 0x2A4 JUMPI PUSH1 0x40 MLOAD PUSH32 0x8C379A000000000000000000000000000000000000000000000000000000000 DUP2 MSTORE PUSH1 0x4 ADD PUSH3 0x29B SWAP1 PUSH3 0xBF5 JUMP JUMPDEST PUSH1 0x40 MLOAD DUP1 SWAP2 SUB SWAP1 REVERT JUMPDEST DUP2 PUSH1 0xB PUSH0 PUSH2 0x100 EXP DUP2 SLOAD DUP2 PUSH20 0xFFFFFFFFFFFFFFFFFFFFFFFFFFFFFFFFFFFFFFFF MUL NOT AND SWAP1 DUP4 PUSH20 0xFFFFFFFFFFFFFFFFFFFFFFFFFFFFFFFFFFFFFFFF AND MUL OR SWAP1 SSTORE POP PUSH0 PUSH20 0xFFFFFFFFFFFFFFFFFFFFFFFFFFFFFFFFFFFFFFFF AND DUP2 PUSH20 0xFFFFFFFFFFFFFFFFFFFFFFFFFFFFFFFFFFFFFFFF AND EQ PUSH3 0x32A JUMPI PUSH3 0x329 DUP2 PUSH3 0x481 PUSH1 0x20 SHL PUSH1 0x20 SHR JUMP JUMPDEST JUMPDEST POP POP POP PUSH0 PUSH20 0xFFFFFFFFFFFFFFFFFFFFFFFFFFFFFFFFFFFFFFFF AND DUP2 PUSH20 0xFFFFFFFFFFFFFFFFFFFFFFFFFFFFFFFFFFFFFFFF AND SUB PUSH3 0x393 JUMPI PUSH1 0x40 MLOAD PUSH32 0xD92E233D00000000000000000000000000000000000000000000000000000000 DUP2 MSTORE PUSH1 0x4 ADD PUSH1 0x40 MLOAD DUP1 SWAP2 SUB SWAP1 REVERT JUMPDEST DUP1 PUSH1 0xD PUSH0 PUSH2 0x100 EXP DUP2 SLOAD DUP2 PUSH20 0xFFFFFFFFFFFFFFFFFFFFFFFFFFFFFFFFFFFFFFFF MUL NOT AND SWAP1 DUP4 PUSH20 0xFFFFFFFFFFFFFFFFFFFFFFFFFFFFFFFFFFFFFFFF AND MUL OR SWAP1 SSTORE POP POP DUP3 PUSH1 0x10 DUP2 SWAP1 SSTORE POP TIMESTAMP PUSH1 0x11 DUP2 SWAP1 SSTORE POP DUP2 PUSH1 0xF PUSH0 PUSH2 0x100 EXP DUP2 SLOAD DUP2 PUSH20 0xFFFFFFFFFFFFFFFFFFFFFFFFFFFFFFFFFFFFFFFF MUL NOT AND SWAP1 DUP4 PUSH20 0xFFFFFFFFFFFFFFFFFFFFFFFFFFFFFFFFFFFFFFFF AND MUL OR SWAP1 SSTORE POP PUSH3 0x432 PUSH3 0x5B0 PUSH1 0x20 SHL PUSH1 0x20 SHR JUMP JUMPDEST PUSH1 0x12 DUP2 SWAP1 SSTORE POP DUP1 PUSH1 0x15 PUSH0 PUSH2 0x100 EXP DUP2 SLOAD DUP2 PUSH20 0xFFFFFFFFFFFFFFFFFFFFFFFFFFFFFFFFFFFFFFFF MUL NOT AND SWAP1 DUP4 PUSH20 0xFFFFFFFFFFFFFFFFFFFFFFFFFFFFFFFFFFFFFFFF AND MUL OR SWAP1 SSTORE POP POP POP POP PUSH3 0xD83 JUMP JUMPDEST CALLER PUSH20 0xFFFFFFFFFFFFFFFFFFFFFFFFFFFFFFFFFFFFFFFF AND DUP2 PUSH20 0xFFFFFFFFFFFFFFFFFFFFFFFFFFFFFFFFFFFFFFFF AND SUB PUSH3 0x4F2 JUMPI PUSH1 0x40 MLOAD PUSH32 0x8C379A000000000000000000000000000000000000000000000000000000000 DUP2 MSTORE PUSH1 0x4 ADD PUSH3 0x4E9 SWAP1 PUSH3 0xC63 JUMP JUMPDEST PUSH1 0x40 MLOAD DUP1 SWAP2 SUB SWAP1 REVERT JUMPDEST DUP1 PUSH1 0xC PUSH0 PUSH2 0x100 EXP DUP2 SLOAD DUP2 PUSH20 0xFFFFFFFFFFFFFFFFFFFFFFFFFFFFFFFFFFFFFFFF MUL NOT AND SWAP1 DUP4 PUSH20 0xFFFFFFFFFFFFFFFFFFFFFFFFFFFFFFFFFFFFFFFF AND MUL OR SWAP1 SSTORE POP DUP1 PUSH20 0xFFFFFFFFFFFFFFFFFFFFFFFFFFFFFFFFFFFFFFFF AND PUSH1 0xB PUSH0 SWAP1 SLOAD SWAP1 PUSH2 0x100 EXP SWAP1 DIV PUSH20 0xFFFFFFFFFFFFFFFFFFFFFFFFFFFFFFFFFFFFFFFF AND PUSH20 0xFFFFFFFFFFFFFFFFFFFFFFFFFFFFFFFFFFFFFFFF AND PUSH32 0xED8889F560326EB138920D842192F0EB3DD22B4F139C87A2C57538E05BAE1278 PUSH1 0x40 MLOAD PUSH1 0x40 MLOAD DUP1 SWAP2 SUB SWAP1 LOG3 POP JUMP JUMPDEST PUSH0 DUP1 PUSH1 0xF PUSH0 SWAP1 SLOAD SWAP1 PUSH2 0x100 EXP SWAP1 DIV PUSH20 0xFFFFFFFFFFFFFFFFFFFFFFFFFFFFFFFFFFFFFFFF AND PUSH20 0xFFFFFFFFFFFFFFFFFFFFFFFFFFFFFFFFFFFFFFFF AND PUSH4 0xFEAF968C PUSH1 0x40 MLOAD DUP2 PUSH4 0xFFFFFFFF AND PUSH1 0xE0 SHL DUP2 MSTORE PUSH1 0x4 ADD PUSH1 0xA0 PUSH1 0x40 MLOAD DUP1 DUP4 SUB DUP2 DUP7 GAS STATICCALL ISZERO DUP1 ISZERO PUSH3 0x61D JUMPI RETURNDATASIZE PUSH0 DUP1 RETURNDATACOPY RETURNDATASIZE PUSH0 REVERT JUMPDEST POP POP POP POP PUSH1 0x40 MLOAD RETURNDATASIZE PUSH1 0x1F NOT PUSH1 0x1F DUP3 ADD AND DUP3 ADD DUP1 PUSH1 0x40 MSTORE POP DUP2 ADD SWAP1 PUSH3 0x643 SWAP2 SWAP1 PUSH3 0xCFF JUMP JUMPDEST POP POP POP SWAP2 POP POP DUP1 SWAP2 POP POP SWAP1 JUMP JUMPDEST DUP3 DUP1 SLOAD DUP3 DUP3 SSTORE SWAP1 PUSH0 MSTORE PUSH1 0x20 PUSH0 KECCAK256 SWAP1 DUP2 ADD SWAP3 DUP3 ISZERO PUSH3 0x69B JUMPI SWAP2 PUSH1 0x20 MUL DUP3 ADD JUMPDEST DUP3 DUP2 GT ISZERO PUSH3 0x69A JUMPI DUP3 MLOAD DUP3 SWAP1 DUP2 PUSH3 0x689 SWAP2 SWAP1 PUSH3 0xAB3 JUMP JUMPDEST POP SWAP2 PUSH1 0x20 ADD SWAP2 SWAP1 PUSH1 0x1 ADD SWAP1 PUSH3 0x66F JUMP JUMPDEST JUMPDEST POP SWAP1 POP PUSH3 0x6AA SWAP2 SWAP1 PUSH3 0x6AE JUMP JUMPDEST POP SWAP1 JUMP JUMPDEST JUMPDEST DUP1 DUP3 GT ISZERO PUSH3 0x6D1 JUMPI PUSH0 DUP2 DUP2 PUSH3 0x6C7 SWAP2 SWAP1 PUSH3 0x6D5 JUMP JUMPDEST POP PUSH1 0x1 ADD PUSH3 0x6AF JUMP JUMPDEST POP SWAP1 JUMP JUMPDEST POP DUP1 SLOAD PUSH3 0x6E3 SWAP1 PUSH3 0x8BC JUMP JUMPDEST PUSH0 DUP3 SSTORE DUP1 PUSH1 0x1F LT PUSH3 0x6F6 JUMPI POP PUSH3 0x715 JUMP JUMPDEST PUSH1 0x1F ADD PUSH1 0x20 SWAP1 DIV SWAP1 PUSH0 MSTORE PUSH1 0x20 PUSH0 KECCAK256 SWAP1 DUP2 ADD SWAP1 PUSH3 0x714 SWAP2 SWAP1 PUSH3 0x718 JUMP JUMPDEST JUMPDEST POP JUMP JUMPDEST JUMPDEST DUP1 DUP3 GT ISZERO PUSH3 0x731 JUMPI PUSH0 DUP2 PUSH0 SWAP1 SSTORE POP PUSH1 0x1 ADD PUSH3 0x719 JUMP JUMPDEST POP SWAP1 JUMP JUMPDEST PUSH32 0x4E487B7100000000000000000000000000000000000000000000000000000000 PUSH0 MSTORE PUSH1 0x21 PUSH1 0x4 MSTORE PUSH1 0x24 PUSH0 REVERT JUMPDEST PUSH0 DUP1 REVERT JUMPDEST PUSH0 DUP2 SWAP1 POP SWAP2 SWAP1 POP JUMP JUMPDEST PUSH3 0x77A DUP2 PUSH3 0x766 JUMP JUMPDEST DUP2 EQ PUSH3 0x785 JUMPI PUSH0 DUP1 REVERT JUMPDEST POP JUMP JUMPDEST PUSH0 DUP2 MLOAD SWAP1 POP PUSH3 0x798 DUP2 PUSH3 0x76F JUMP JUMPDEST SWAP3 SWAP2 POP POP JUMP JUMPDEST PUSH0 PUSH20 0xFFFFFFFFFFFFFFFFFFFFFFFFFFFFFFFFFFFFFFFF DUP3 AND SWAP1 POP SWAP2 SWAP1 POP JUMP JUMPDEST PUSH0 PUSH3 0x7C9 DUP3 PUSH3 0x79E JUMP JUMPDEST SWAP1 POP SWAP2 SWAP1 POP JUMP JUMPDEST PUSH3 0x7DB DUP2 PUSH3 0x7BD JUMP JUMPDEST DUP2 EQ PUSH3 0x7E6 JUMPI PUSH0 DUP1 REVERT JUMPDEST POP JUMP JUMPDEST PUSH0 DUP2 MLOAD SWAP1 POP PUSH3 0x7F9 DUP2 PUSH3 0x7D0 JUMP JUMPDEST SWAP3 SWAP2 POP POP JUMP JUMPDEST PUSH0 DUP1 PUSH0 PUSH1 0x60 DUP5 DUP7 SUB SLT ISZERO PUSH3 0x819 JUMPI PUSH3 0x818 PUSH3 0x762 JUMP JUMPDEST JUMPDEST PUSH0 PUSH3 0x828 DUP7 DUP3 DUP8 ADD PUSH3 0x788 JUMP JUMPDEST SWAP4 POP POP PUSH1 0x20 PUSH3 0x83B DUP7 DUP3 DUP8 ADD PUSH3 0x7E9 JUMP JUMPDEST SWAP3 POP POP PUSH1 0x40 PUSH3 0x84E DUP7 DUP3 DUP8 ADD PUSH3 0x7E9 JUMP JUMPDEST SWAP2 POP POP SWAP3 POP SWAP3 POP SWAP3 JUMP JUMPDEST PUSH0 DUP2 MLOAD SWAP1 POP SWAP2 SWAP1 POP JUMP JUMPDEST PUSH32 0x4E487B7100000000000000000000000000000000000000000000000000000000 PUSH0 MSTORE PUSH1 0x41 PUSH1 0x4 MSTORE PUSH1 0x24 PUSH0 REVERT JUMPDEST PUSH32 0x4E487B7100000000000000000000000000000000000000000000000000000000 PUSH0 MSTORE PUSH1 0x22 PUSH1 0x4 MSTORE PUSH1 0x24 PUSH0 REVERT JUMPDEST PUSH0 PUSH1 0x2 DUP3 DIV SWAP1 POP PUSH1 0x1 DUP3 AND DUP1 PUSH3 0x8D4 JUMPI PUSH1 0x7F DUP3 AND SWAP2 POP JUMPDEST PUSH1 0x20 DUP3 LT DUP2 SUB PUSH3 0x8EA JUMPI PUSH3 0x8E9 PUSH3 0x88F JUMP JUMPDEST JUMPDEST POP SWAP2 SWAP1 POP JUMP JUMPDEST PUSH0 DUP2 SWAP1 POP DUP2 PUSH0 MSTORE PUSH1 0x20 PUSH0 KECCAK256 SWAP1 POP SWAP2 SWAP1 POP JUMP JUMPDEST PUSH0 PUSH1 0x20 PUSH1 0x1F DUP4 ADD DIV SWAP1 POP SWAP2 SWAP1 POP JUMP JUMPDEST PUSH0 DUP3 DUP3 SHL SWAP1 POP SWAP3 SWAP2 POP POP JUMP JUMPDEST PUSH0 PUSH1 0x8 DUP4 MUL PUSH3 0x94E PUSH32 0xFFFFFFFFFFFFFFFFFFFFFFFFFFFFFFFFFFFFFFFFFFFFFFFFFFFFFFFFFFFFFFFF DUP3 PUSH3 0x911 JUMP JUMPDEST PUSH3 0x95A DUP7 DUP4 PUSH3 0x911 JUMP JUMPDEST SWAP6 POP DUP1 NOT DUP5 AND SWAP4 POP DUP1 DUP7 AND DUP5 OR SWAP3 POP POP POP SWAP4 SWAP3 POP POP POP JUMP JUMPDEST PUSH0 DUP2 SWAP1 POP SWAP2 SWAP1 POP JUMP JUMPDEST PUSH0 PUSH3 0x99B PUSH3 0x995 PUSH3 0x98F DUP5 PUSH3 0x766 JUMP JUMPDEST PUSH3 0x972 JUMP JUMPDEST PUSH3 0x766 JUMP JUMPDEST SWAP1 POP SWAP2 SWAP1 POP JUMP JUMPDEST PUSH0 DUP2 SWAP1 POP SWAP2 SWAP1 POP JUMP JUMPDEST PUSH3 0x9B6 DUP4 PUSH3 0x97B JUMP JUMPDEST PUSH3 0x9CE PUSH3 0x9C5 DUP3 PUSH3 0x9A2 JUMP JUMPDEST DUP5 DUP5 SLOAD PUSH3 0x91D JUMP JUMPDEST DUP3 SSTORE POP POP POP POP JUMP JUMPDEST PUSH0 SWAP1 JUMP JUMPDEST PUSH3 0x9E4 PUSH3 0x9D6 JUMP JUMPDEST PUSH3 0x9F1 DUP2 DUP5 DUP5 PUSH3 0x9AB JUMP JUMPDEST POP POP POP JUMP JUMPDEST JUMPDEST DUP2 DUP2 LT ISZERO PUSH3 0xA18 JUMPI PUSH3 0xA0C PUSH0 DUP3 PUSH3 0x9DA JUMP JUMPDEST PUSH1 0x1 DUP2 ADD SWAP1 POP PUSH3 0x9F7 JUMP JUMPDEST POP POP JUMP JUMPDEST PUSH1 0x1F DUP3 GT ISZERO PUSH3 0xA67 JUMPI PUSH3 0xA31 DUP2 PUSH3 0x8F0 JUMP JUMPDEST PUSH3 0xA3C DUP5 PUSH3 0x902 JUMP JUMPDEST DUP2 ADD PUSH1 0x20 DUP6 LT ISZERO PUSH3 0xA4C JUMPI DUP2 SWAP1 POP JUMPDEST PUSH3 0xA64 PUSH3 0xA5B DUP6 PUSH3 0x902 JUMP JUMPDEST DUP4 ADD DUP3 PUSH3 0x9F6 JUMP JUMPDEST POP POP JUMPDEST POP POP POP JUMP JUMPDEST PUSH0 DUP3 DUP3 SHR SWAP1 POP SWAP3 SWAP2 POP POP JUMP JUMPDEST PUSH0 PUSH3 0xA89 PUSH0 NOT DUP5 PUSH1 0x8 MUL PUSH3 0xA6C JUMP JUMPDEST NOT DUP1 DUP4 AND SWAP2 POP POP SWAP3 SWAP2 POP POP JUMP JUMPDEST PUSH0 PUSH3 0xAA3 DUP4 DUP4 PUSH3 0xA78 JUMP JUMPDEST SWAP2 POP DUP3 PUSH1 0x2 MUL DUP3 OR SWAP1 POP SWAP3 SWAP2 POP POP JUMP JUMPDEST PUSH3 0xABE DUP3 PUSH3 0x858 JUMP JUMPDEST PUSH8 0xFFFFFFFFFFFFFFFF DUP2 GT ISZERO PUSH3 0xADA JUMPI PUSH3 0xAD9 PUSH3 0x862 JUMP JUMPDEST JUMPDEST PUSH3 0xAE6 DUP3 SLOAD PUSH3 0x8BC JUMP JUMPDEST PUSH3 0xAF3 DUP3 DUP3 DUP6 PUSH3 0xA1C JUMP JUMPDEST PUSH0 PUSH1 0x20 SWAP1 POP PUSH1 0x1F DUP4 GT PUSH1 0x1 DUP2 EQ PUSH3 0xB29 JUMPI PUSH0 DUP5 ISZERO PUSH3 0xB14 JUMPI DUP3 DUP8 ADD MLOAD SWAP1 POP JUMPDEST PUSH3 0xB20 DUP6 DUP3 PUSH3 0xA96 JUMP JUMPDEST DUP7 SSTORE POP PUSH3 0xB8F JUMP JUMPDEST PUSH1 0x1F NOT DUP5 AND PUSH3 0xB39 DUP7 PUSH3 0x8F0 JUMP JUMPDEST PUSH0 JUMPDEST DUP3 DUP2 LT ISZERO PUSH3 0xB62 JUMPI DUP5 DUP10 ADD MLOAD DUP3 SSTORE PUSH1 0x1 DUP3 ADD SWAP2 POP PUSH1 0x20 DUP6 ADD SWAP5 POP PUSH1 0x20 DUP2 ADD SWAP1 POP PUSH3 0xB3B JUMP JUMPDEST DUP7 DUP4 LT ISZERO PUSH3 0xB82 JUMPI DUP5 DUP10 ADD MLOAD PUSH3 0xB7E PUSH1 0x1F DUP10 AND DUP3 PUSH3 0xA78 JUMP JUMPDEST DUP4 SSTORE POP JUMPDEST PUSH1 0x1 PUSH1 0x2 DUP9 MUL ADD DUP9 SSTORE POP POP POP JUMPDEST POP POP POP POP POP POP JUMP JUMPDEST PUSH0 DUP3 DUP3 MSTORE PUSH1 0x20 DUP3 ADD SWAP1 POP SWAP3 SWAP2 POP POP JUMP JUMPDEST PUSH32 0x43616E6E6F7420736574206F776E657220746F207A65726F0000000000000000 PUSH0 DUP3 ADD MSTORE POP JUMP JUMPDEST PUSH0 PUSH3 0xBDD PUSH1 0x18 DUP4 PUSH3 0xB97 JUMP JUMPDEST SWAP2 POP PUSH3 0xBEA DUP3 PUSH3 0xBA7 JUMP JUMPDEST PUSH1 0x20 DUP3 ADD SWAP1 POP SWAP2 SWAP1 POP JUMP JUMPDEST PUSH0 PUSH1 0x20 DUP3 ADD SWAP1 POP DUP2 DUP2 SUB PUSH0 DUP4 ADD MSTORE PUSH3 0xC0E DUP2 PUSH3 0xBCF JUMP JUMPDEST SWAP1 POP SWAP2 SWAP1 POP JUMP JUMPDEST PUSH32 0x43616E6E6F74207472616E7366657220746F2073656C66000000000000000000 PUSH0 DUP3 ADD MSTORE POP JUMP JUMPDEST PUSH0 PUSH3 0xC4B PUSH1 0x17 DUP4 PUSH3 0xB97 JUMP JUMPDEST SWAP2 POP PUSH3 0xC58 DUP3 PUSH3 0xC15 JUMP JUMPDEST PUSH1 0x20 DUP3 ADD SWAP1 POP SWAP2 SWAP1 POP JUMP JUMPDEST PUSH0 PUSH1 0x20 DUP3 ADD SWAP1 POP DUP2 DUP2 SUB PUSH0 DUP4 ADD MSTORE PUSH3 0xC7C DUP2 PUSH3 0xC3D JUMP JUMPDEST SWAP1 POP SWAP2 SWAP1 POP JUMP JUMPDEST PUSH0 PUSH10 0xFFFFFFFFFFFFFFFFFFFF DUP3 AND SWAP1 POP SWAP2 SWAP1 POP JUMP JUMPDEST PUSH3 0xCA3 DUP2 PUSH3 0xC83 JUMP JUMPDEST DUP2 EQ PUSH3 0xCAE JUMPI PUSH0 DUP1 REVERT JUMPDEST POP JUMP JUMPDEST PUSH0 DUP2 MLOAD SWAP1 POP PUSH3 0xCC1 DUP2 PUSH3 0xC98 JUMP JUMPDEST SWAP3 SWAP2 POP POP JUMP JUMPDEST PUSH0 DUP2 SWAP1 POP SWAP2 SWAP1 POP JUMP JUMPDEST PUSH3 0xCDB DUP2 PUSH3 0xCC7 JUMP JUMPDEST DUP2 EQ PUSH3 0xCE6 JUMPI PUSH0 DUP1 REVERT JUMPDEST POP JUMP JUMPDEST PUSH0 DUP2 MLOAD SWAP1 POP PUSH3 0xCF9 DUP2 PUSH3 0xCD0 JUMP JUMPDEST SWAP3 SWAP2 POP POP JUMP JUMPDEST PUSH0 DUP1 PUSH0 DUP1 PUSH0 PUSH1 0xA0 DUP7 DUP9 SUB SLT ISZERO PUSH3 0xD1B JUMPI PUSH3 0xD1A PUSH3 0x762 JUMP JUMPDEST JUMPDEST PUSH0 PUSH3 0xD2A DUP9 DUP3 DUP10 ADD PUSH3 0xCB1 JUMP JUMPDEST SWAP6 POP POP PUSH1 0x20 PUSH3 0xD3D DUP9 DUP3 DUP10 ADD PUSH3 0xCE9 JUMP JUMPDEST SWAP5 POP POP PUSH1 0x40 PUSH3 0xD50 DUP9 DUP3 DUP10 ADD PUSH3 0x788 JUMP JUMPDEST SWAP4 POP POP PUSH1 0x60 PUSH3 0xD63 DUP9 DUP3 DUP10 ADD PUSH3 0x788 JUMP JUMPDEST SWAP3 POP POP PUSH1 0x80 PUSH3 0xD76 DUP9 DUP3 DUP10 ADD PUSH3 0xCB1 JUMP JUMPDEST SWAP2 POP POP SWAP3 SWAP6 POP SWAP3 SWAP6 SWAP1 SWAP4 POP JUMP JUMPDEST PUSH2 0x4918 DUP1 PUSH3 0xD91 PUSH0 CODECOPY PUSH0 RETURN INVALID PUSH1 0x80 PUSH1 0x40 MSTORE CALLVALUE DUP1 ISZERO PUSH2 0xF JUMPI PUSH0 DUP1 REVERT JUMPDEST POP PUSH1 0x4 CALLDATASIZE LT PUSH2 0x246 JUMPI PUSH0 CALLDATALOAD PUSH1 0xE0 SHR DUP1 PUSH4 0x79BA5097 GT PUSH2 0x139 JUMPI DUP1 PUSH4 0xA4EB718C GT PUSH2 0xB6 JUMPI DUP1 PUSH4 0xE89E106A GT PUSH2 0x7A JUMPI DUP1 PUSH4 0xE89E106A EQ PUSH2 0x6C5 JUMPI DUP1 PUSH4 0xE985E9C5 EQ PUSH2 0x6E3 JUMPI DUP1 PUSH4 0xF0E8B3AE EQ PUSH2 0x713 JUMPI DUP1 PUSH4 0xF2FDE38B EQ PUSH2 0x731 JUMPI DUP1 PUSH4 0xF6EAFFC8 EQ PUSH2 0x74D JUMPI PUSH2 0x246 JUMP JUMPDEST DUP1 PUSH4 0xA4EB718C EQ PUSH2 0x625 JUMPI DUP1 PUSH4 0xB88D4FDE EQ PUSH2 0x641 JUMPI DUP1 PUSH4 0xC1E0D236 EQ PUSH2 0x65D JUMPI DUP1 PUSH4 0xC87B56DD EQ PUSH2 0x679 JUMPI DUP1 PUSH4 0xCB028802 EQ PUSH2 0x6A9 JUMPI PUSH2 0x246 JUMP JUMPDEST DUP1 PUSH4 0x947A36FB GT PUSH2 0xFD JUMPI DUP1 PUSH4 0x947A36FB EQ PUSH2 0x591 JUMPI DUP1 PUSH4 0x95D89B41 EQ PUSH2 0x5AF JUMPI DUP1 PUSH4 0x9D1B464A EQ PUSH2 0x5CD JUMPI DUP1 PUSH4 0x9ECCACF6 EQ PUSH2 0x5EB JUMPI DUP1 PUSH4 0xA22CB465 EQ PUSH2 0x609 JUMPI PUSH2 0x246 JUMP JUMPDEST DUP1 PUSH4 0x79BA5097 EQ PUSH2 0x511 JUMPI DUP1 PUSH4 0x8AC00021 EQ PUSH2 0x51B JUMPI DUP1 PUSH4 0x8DA5CB5B EQ PUSH2 0x539 JUMPI DUP1 PUSH4 0x8E15F473 EQ PUSH2 0x557 JUMPI DUP1 PUSH4 0x8EA98117 EQ PUSH2 0x575 JUMPI PUSH2 0x246 JUMP JUMPDEST DUP1 PUSH4 0x3F3B3B27 GT PUSH2 0x1C7 JUMPI DUP1 PUSH4 0x590F2113 GT PUSH2 0x18B JUMPI DUP1 PUSH4 0x590F2113 EQ PUSH2 0x446 JUMPI DUP1 PUSH4 0x6352211E EQ PUSH2 0x464 JUMPI DUP1 PUSH4 0x6E04FF0D EQ PUSH2 0x494 JUMPI DUP1 PUSH4 0x70A08231 EQ PUSH2 0x4C5 JUMPI DUP1 PUSH4 0x724E78DA EQ PUSH2 0x4F5 JUMPI PUSH2 0x246 JUMP JUMPDEST DUP1 PUSH4 0x3F3B3B27 EQ PUSH2 0x3A4 JUMPI DUP1 PUSH4 0x40D097C3 EQ PUSH2 0x3C2 JUMPI DUP1 PUSH4 0x42842E0E EQ PUSH2 0x3DE JUMPI DUP1 PUSH4 0x4585E33B EQ PUSH2 0x3FA JUMPI DUP1 PUSH4 0x4F6CCCE7 EQ PUSH2 0x416 JUMPI PUSH2 0x246 JUMP JUMPDEST DUP1 PUSH4 0x1FE543E3 GT PUSH2 0x20E JUMPI DUP1 PUSH4 0x1FE543E3 EQ PUSH2 0x302 JUMPI DUP1 PUSH4 0x22A90082 EQ PUSH2 0x31E JUMPI DUP1 PUSH4 0x23B872DD EQ PUSH2 0x33A JUMPI DUP1 PUSH4 0x2F745C59 EQ PUSH2 0x356 JUMPI DUP1 PUSH4 0x3B2BCBF1 EQ PUSH2 0x386 JUMPI PUSH2 0x246 JUMP JUMPDEST DUP1 PUSH4 0x1FFC9A7 EQ PUSH2 0x24A JUMPI DUP1 PUSH4 0x6FDDE03 EQ PUSH2 0x27A JUMPI DUP1 PUSH4 0x81812FC EQ PUSH2 0x298 JUMPI DUP1 PUSH4 0x95EA7B3 EQ PUSH2 0x2C8 JUMPI DUP1 PUSH4 0x18160DDD EQ PUSH2 0x2E4 JUMPI JUMPDEST PUSH0 DUP1 REVERT JUMPDEST PUSH2 0x264 PUSH1 0x4 DUP1 CALLDATASIZE SUB DUP2 ADD SWAP1 PUSH2 0x25F SWAP2 SWAP1 PUSH2 0x3507 JUMP JUMPDEST PUSH2 0x77D JUMP JUMPDEST PUSH1 0x40 MLOAD PUSH2 0x271 SWAP2 SWAP1 PUSH2 0x354C JUMP JUMPDEST PUSH1 0x40 MLOAD DUP1 SWAP2 SUB SWAP1 RETURN JUMPDEST PUSH2 0x282 PUSH2 0x78D JUMP JUMPDEST PUSH1 0x40 MLOAD PUSH2 0x28F SWAP2 SWAP1 PUSH2 0x35EF JUMP JUMPDEST PUSH1 0x40 MLOAD DUP1 SWAP2 SUB SWAP1 RETURN JUMPDEST PUSH2 0x2B2 PUSH1 0x4 DUP1 CALLDATASIZE SUB DUP2 ADD SWAP1 PUSH2 0x2AD SWAP2 SWAP1 PUSH2 0x3642 JUMP JUMPDEST PUSH2 0x81C JUMP JUMPDEST PUSH1 0x40 MLOAD PUSH2 0x2BF SWAP2 SWAP1 PUSH2 0x36AC JUMP JUMPDEST PUSH1 0x40 MLOAD DUP1 SWAP2 SUB SWAP1 RETURN JUMPDEST PUSH2 0x2E2 PUSH1 0x4 DUP1 CALLDATASIZE SUB DUP2 ADD SWAP1 PUSH2 0x2DD SWAP2 SWAP1 PUSH2 0x36EF JUMP JUMPDEST PUSH2 0x837 JUMP JUMPDEST STOP JUMPDEST PUSH2 0x2EC PUSH2 0x84D JUMP JUMPDEST PUSH1 0x40 MLOAD PUSH2 0x2F9 SWAP2 SWAP1 PUSH2 0x373C JUMP JUMPDEST PUSH1 0x40 MLOAD DUP1 SWAP2 SUB SWAP1 RETURN JUMPDEST PUSH2 0x31C PUSH1 0x4 DUP1 CALLDATASIZE SUB DUP2 ADD SWAP1 PUSH2 0x317 SWAP2 SWAP1 PUSH2 0x3895 JUMP JUMPDEST PUSH2 0x859 JUMP JUMPDEST STOP JUMPDEST PUSH2 0x338 PUSH1 0x4 DUP1 CALLDATASIZE SUB DUP2 ADD SWAP1 PUSH2 0x333 SWAP2 SWAP1 PUSH2 0x3642 JUMP JUMPDEST PUSH2 0x91B JUMP JUMPDEST STOP JUMPDEST PUSH2 0x354 PUSH1 0x4 DUP1 CALLDATASIZE SUB DUP2 ADD SWAP1 PUSH2 0x34F SWAP2 SWAP1 PUSH2 0x38EF JUMP JUMPDEST PUSH2 0x92D JUMP JUMPDEST STOP JUMPDEST PUSH2 0x370 PUSH1 0x4 DUP1 CALLDATASIZE SUB DUP2 ADD SWAP1 PUSH2 0x36B SWAP2 SWAP1 PUSH2 0x36EF JUMP JUMPDEST PUSH2 0xA2C JUMP JUMPDEST PUSH1 0x40 MLOAD PUSH2 0x37D SWAP2 SWAP1 PUSH2 0x373C JUMP JUMPDEST PUSH1 0x40 MLOAD DUP1 SWAP2 SUB SWAP1 RETURN JUMPDEST PUSH2 0x38E PUSH2 0xAD0 JUMP JUMPDEST PUSH1 0x40 MLOAD PUSH2 0x39B SWAP2 SWAP1 PUSH2 0x399A JUMP JUMPDEST PUSH1 0x40 MLOAD DUP1 SWAP2 SUB SWAP1 RETURN JUMPDEST PUSH2 0x3AC PUSH2 0xAF5 JUMP JUMPDEST PUSH1 0x40 MLOAD PUSH2 0x3B9 SWAP2 SWAP1 PUSH2 0x373C JUMP JUMPDEST PUSH1 0x40 MLOAD DUP1 SWAP2 SUB SWAP1 RETURN JUMPDEST PUSH2 0x3DC PUSH1 0x4 DUP1 CALLDATASIZE SUB DUP2 ADD SWAP1 PUSH2 0x3D7 SWAP2 SWAP1 PUSH2 0x39B3 JUMP JUMPDEST PUSH2 0xAFB JUMP JUMPDEST STOP JUMPDEST PUSH2 0x3F8 PUSH1 0x4 DUP1 CALLDATASIZE SUB DUP2 ADD SWAP1 PUSH2 0x3F3 SWAP2 SWAP1 PUSH2 0x38EF JUMP JUMPDEST PUSH2 0xC47 JUMP JUMPDEST STOP JUMPDEST PUSH2 0x414 PUSH1 0x4 DUP1 CALLDATASIZE SUB DUP2 ADD SWAP1 PUSH2 0x40F SWAP2 SWAP1 PUSH2 0x3A37 JUMP JUMPDEST PUSH2 0xC66 JUMP JUMPDEST STOP JUMPDEST PUSH2 0x430 PUSH1 0x4 DUP1 CALLDATASIZE SUB DUP2 ADD SWAP1 PUSH2 0x42B SWAP2 SWAP1 PUSH2 0x3642 JUMP JUMPDEST PUSH2 0xE1A JUMP JUMPDEST PUSH1 0x40 MLOAD PUSH2 0x43D SWAP2 SWAP1 PUSH2 0x373C JUMP JUMPDEST PUSH1 0x40 MLOAD DUP1 SWAP2 SUB SWAP1 RETURN JUMPDEST PUSH2 0x44E PUSH2 0xE8C JUMP JUMPDEST PUSH1 0x40 MLOAD PUSH2 0x45B SWAP2 SWAP1 PUSH2 0x3AA2 JUMP JUMPDEST PUSH1 0x40 MLOAD DUP1 SWAP2 SUB SWAP1 RETURN JUMPDEST PUSH2 0x47E PUSH1 0x4 DUP1 CALLDATASIZE SUB DUP2 ADD SWAP1 PUSH2 0x479 SWAP2 SWAP1 PUSH2 0x3642 JUMP JUMPDEST PUSH2 0xEB1 JUMP JUMPDEST PUSH1 0x40 MLOAD PUSH2 0x48B SWAP2 SWAP1 PUSH2 0x36AC JUMP JUMPDEST PUSH1 0x40 MLOAD DUP1 SWAP2 SUB SWAP1 RETURN JUMPDEST PUSH2 0x4AE PUSH1 0x4 DUP1 CALLDATASIZE SUB DUP2 ADD SWAP1 PUSH2 0x4A9 SWAP2 SWAP1 PUSH2 0x3A37 JUMP JUMPDEST PUSH2 0xEC2 JUMP JUMPDEST PUSH1 0x40 MLOAD PUSH2 0x4BC SWAP3 SWAP2 SWAP1 PUSH2 0x3B0D JUMP JUMPDEST PUSH1 0x40 MLOAD DUP1 SWAP2 SUB SWAP1 RETURN JUMPDEST PUSH2 0x4DF PUSH1 0x4 DUP1 CALLDATASIZE SUB DUP2 ADD SWAP1 PUSH2 0x4DA SWAP2 SWAP1 PUSH2 0x39B3 JUMP JUMPDEST PUSH2 0xEE0 JUMP JUMPDEST PUSH1 0x40 MLOAD PUSH2 0x4EC SWAP2 SWAP1 PUSH2 0x373C JUMP JUMPDEST PUSH1 0x40 MLOAD DUP1 SWAP2 SUB SWAP1 RETURN JUMPDEST PUSH2 0x50F PUSH1 0x4 DUP1 CALLDATASIZE SUB DUP2 ADD SWAP1 PUSH2 0x50A SWAP2 SWAP1 PUSH2 0x39B3 JUMP JUMPDEST PUSH2 0xF96 JUMP JUMPDEST STOP JUMPDEST PUSH2 0x519 PUSH2 0xFE1 JUMP JUMPDEST STOP JUMPDEST PUSH2 0x523 PUSH2 0x1172 JUMP JUMPDEST PUSH1 0x40 MLOAD PUSH2 0x530 SWAP2 SWAP1 PUSH2 0x373C JUMP JUMPDEST PUSH1 0x40 MLOAD DUP1 SWAP2 SUB SWAP1 RETURN JUMPDEST PUSH2 0x541 PUSH2 0x1178 JUMP JUMPDEST PUSH1 0x40 MLOAD PUSH2 0x54E SWAP2 SWAP1 PUSH2 0x36AC JUMP JUMPDEST PUSH1 0x40 MLOAD DUP1 SWAP2 SUB SWAP1 RETURN JUMPDEST PUSH2 0x55F PUSH2 0x11A0 JUMP JUMPDEST PUSH1 0x40 MLOAD PUSH2 0x56C SWAP2 SWAP1 PUSH2 0x3B53 JUMP JUMPDEST PUSH1 0x40 MLOAD DUP1 SWAP2 SUB SWAP1 RETURN JUMPDEST PUSH2 0x58F PUSH1 0x4 DUP1 CALLDATASIZE SUB DUP2 ADD SWAP1 PUSH2 0x58A SWAP2 SWAP1 PUSH2 0x39B3 JUMP JUMPDEST PUSH2 0x123D JUMP JUMPDEST STOP JUMPDEST PUSH2 0x599 PUSH2 0x141A JUMP JUMPDEST PUSH1 0x40 MLOAD PUSH2 0x5A6 SWAP2 SWAP1 PUSH2 0x373C JUMP JUMPDEST PUSH1 0x40 MLOAD DUP1 SWAP2 SUB SWAP1 RETURN JUMPDEST PUSH2 0x5B7 PUSH2 0x1420 JUMP JUMPDEST PUSH1 0x40 MLOAD PUSH2 0x5C4 SWAP2 SWAP1 PUSH2 0x35EF JUMP JUMPDEST PUSH1 0x40 MLOAD DUP1 SWAP2 SUB SWAP1 RETURN JUMPDEST PUSH2 0x5D5 PUSH2 0x14B0 JUMP JUMPDEST PUSH1 0x40 MLOAD PUSH2 0x5E2 SWAP2 SWAP1 PUSH2 0x3B53 JUMP JUMPDEST PUSH1 0x40 MLOAD DUP1 SWAP2 SUB SWAP1 RETURN JUMPDEST PUSH2 0x5F3 PUSH2 0x14B6 JUMP JUMPDEST PUSH1 0x40 MLOAD PUSH2 0x600 SWAP2 SWAP1 PUSH2 0x399A JUMP JUMPDEST PUSH1 0x40 MLOAD DUP1 SWAP2 SUB SWAP1 RETURN JUMPDEST PUSH2 0x623 PUSH1 0x4 DUP1 CALLDATASIZE SUB DUP2 ADD SWAP1 PUSH2 0x61E SWAP2 SWAP1 PUSH2 0x3B96 JUMP JUMPDEST PUSH2 0x14DB JUMP JUMPDEST STOP JUMPDEST PUSH2 0x63F PUSH1 0x4 DUP1 CALLDATASIZE SUB DUP2 ADD SWAP1 PUSH2 0x63A SWAP2 SWAP1 PUSH2 0x3C0D JUMP JUMPDEST PUSH2 0x14F1 JUMP JUMPDEST STOP JUMPDEST PUSH2 0x65B PUSH1 0x4 DUP1 CALLDATASIZE SUB DUP2 ADD SWAP1 PUSH2 0x656 SWAP2 SWAP1 PUSH2 0x3CE8 JUMP JUMPDEST PUSH2 0x151C JUMP JUMPDEST STOP JUMPDEST PUSH2 0x677 PUSH1 0x4 DUP1 CALLDATASIZE SUB DUP2 ADD SWAP1 PUSH2 0x672 SWAP2 SWAP1 PUSH2 0x3642 JUMP JUMPDEST PUSH2 0x1539 JUMP JUMPDEST STOP JUMPDEST PUSH2 0x693 PUSH1 0x4 DUP1 CALLDATASIZE SUB DUP2 ADD SWAP1 PUSH2 0x68E SWAP2 SWAP1 PUSH2 0x3642 JUMP JUMPDEST PUSH2 0x154B JUMP JUMPDEST PUSH1 0x40 MLOAD PUSH2 0x6A0 SWAP2 SWAP1 PUSH2 0x35EF JUMP JUMPDEST PUSH1 0x40 MLOAD DUP1 SWAP2 SUB SWAP1 RETURN JUMPDEST PUSH2 0x6C3 PUSH1 0x4 DUP1 CALLDATASIZE SUB DUP2 ADD SWAP1 PUSH2 0x6BE SWAP2 SWAP1 PUSH2 0x39B3 JUMP JUMPDEST PUSH2 0x155D JUMP JUMPDEST STOP JUMPDEST PUSH2 0x6CD PUSH2 0x15A8 JUMP JUMPDEST PUSH1 0x40 MLOAD PUSH2 0x6DA SWAP2 SWAP1 PUSH2 0x373C JUMP JUMPDEST PUSH1 0x40 MLOAD DUP1 SWAP2 SUB SWAP1 RETURN JUMPDEST PUSH2 0x6FD PUSH1 0x4 DUP1 CALLDATASIZE SUB DUP2 ADD SWAP1 PUSH2 0x6F8 SWAP2 SWAP1 PUSH2 0x3D68 JUMP JUMPDEST PUSH2 0x15AE JUMP JUMPDEST PUSH1 0x40 MLOAD PUSH2 0x70A SWAP2 SWAP1 PUSH2 0x354C JUMP JUMPDEST PUSH1 0x40 MLOAD DUP1 SWAP2 SUB SWAP1 RETURN JUMPDEST PUSH2 0x71B PUSH2 0x163C JUMP JUMPDEST PUSH1 0x40 MLOAD PUSH2 0x728 SWAP2 SWAP1 PUSH2 0x3E19 JUMP JUMPDEST PUSH1 0x40 MLOAD DUP1 SWAP2 SUB SWAP1 RETURN JUMPDEST PUSH2 0x74B PUSH1 0x4 DUP1 CALLDATASIZE SUB DUP2 ADD SWAP1 PUSH2 0x746 SWAP2 SWAP1 PUSH2 0x39B3 JUMP JUMPDEST PUSH2 0x164F JUMP JUMPDEST STOP JUMPDEST PUSH2 0x767 PUSH1 0x4 DUP1 CALLDATASIZE SUB DUP2 ADD SWAP1 PUSH2 0x762 SWAP2 SWAP1 PUSH2 0x3642 JUMP JUMPDEST PUSH2 0x1663 JUMP JUMPDEST PUSH1 0x40 MLOAD PUSH2 0x774 SWAP2 SWAP1 PUSH2 0x373C JUMP JUMPDEST PUSH1 0x40 MLOAD DUP1 SWAP2 SUB SWAP1 RETURN JUMPDEST PUSH0 PUSH2 0x787 DUP3 PUSH2 0x1683 JUMP JUMPDEST POP SWAP2 SWAP1 POP JUMP JUMPDEST PUSH1 0x60 PUSH0 DUP1 SLOAD PUSH2 0x79B SWAP1 PUSH2 0x3E5F JUMP JUMPDEST DUP1 PUSH1 0x1F ADD PUSH1 0x20 DUP1 SWAP2 DIV MUL PUSH1 0x20 ADD PUSH1 0x40 MLOAD SWAP1 DUP2 ADD PUSH1 0x40 MSTORE DUP1 SWAP3 SWAP2 SWAP1 DUP2 DUP2 MSTORE PUSH1 0x20 ADD DUP3 DUP1 SLOAD PUSH2 0x7C7 SWAP1 PUSH2 0x3E5F JUMP JUMPDEST DUP1 ISZERO PUSH2 0x812 JUMPI DUP1 PUSH1 0x1F LT PUSH2 0x7E9 JUMPI PUSH2 0x100 DUP1 DUP4 SLOAD DIV MUL DUP4 MSTORE SWAP2 PUSH1 0x20 ADD SWAP2 PUSH2 0x812 JUMP JUMPDEST DUP3 ADD SWAP2 SWAP1 PUSH0 MSTORE PUSH1 0x20 PUSH0 KECCAK256 SWAP1 JUMPDEST DUP2 SLOAD DUP2 MSTORE SWAP1 PUSH1 0x1 ADD SWAP1 PUSH1 0x20 ADD DUP1 DUP4 GT PUSH2 0x7F5 JUMPI DUP3 SWAP1 SUB PUSH1 0x1F AND DUP3 ADD SWAP2 JUMPDEST POP POP POP POP POP SWAP1 POP SWAP1 JUMP JUMPDEST PUSH0 PUSH2 0x826 DUP3 PUSH2 0x16E3 JUMP JUMPDEST POP PUSH2 0x830 DUP3 PUSH2 0x1769 JUMP JUMPDEST SWAP1 POP SWAP2 SWAP1 POP JUMP JUMPDEST PUSH2 0x849 DUP3 DUP3 PUSH2 0x844 PUSH2 0x17A2 JUMP JUMPDEST PUSH2 0x17A9 JUMP JUMPDEST POP POP JUMP JUMPDEST PUSH0 PUSH1 0x8 DUP1 SLOAD SWAP1 POP SWAP1 POP SWAP1 JUMP JUMPDEST PUSH1 0xD PUSH0 SWAP1 SLOAD SWAP1 PUSH2 0x100 EXP SWAP1 DIV PUSH20 0xFFFFFFFFFFFFFFFFFFFFFFFFFFFFFFFFFFFFFFFF AND PUSH20 0xFFFFFFFFFFFFFFFFFFFFFFFFFFFFFFFFFFFFFFFF AND CALLER PUSH20 0xFFFFFFFFFFFFFFFFFFFFFFFFFFFFFFFFFFFFFFFF AND EQ PUSH2 0x90D JUMPI CALLER PUSH1 0xD PUSH0 SWAP1 SLOAD SWAP1 PUSH2 0x100 EXP SWAP1 DIV PUSH20 0xFFFFFFFFFFFFFFFFFFFFFFFFFFFFFFFFFFFFFFFF AND PUSH1 0x40 MLOAD PUSH32 0x1CF993F400000000000000000000000000000000000000000000000000000000 DUP2 MSTORE PUSH1 0x4 ADD PUSH2 0x904 SWAP3 SWAP2 SWAP1 PUSH2 0x3E8F JUMP JUMPDEST PUSH1 0x40 MLOAD DUP1 SWAP2 SUB SWAP1 REVERT JUMPDEST PUSH2 0x917 DUP3 DUP3 PUSH2 0x17BB JUMP JUMPDEST POP POP JUMP JUMPDEST PUSH2 0x923 PUSH2 0x1A84 JUMP JUMPDEST DUP1 PUSH1 0x10 DUP2 SWAP1 SSTORE POP POP JUMP JUMPDEST PUSH0 PUSH20 0xFFFFFFFFFFFFFFFFFFFFFFFFFFFFFFFFFFFFFFFF AND DUP3 PUSH20 0xFFFFFFFFFFFFFFFFFFFFFFFFFFFFFFFFFFFFFFFF AND SUB PUSH2 0x99D JUMPI PUSH0 PUSH1 0x40 MLOAD PUSH32 0x64A0AE9200000000000000000000000000000000000000000000000000000000 DUP2 MSTORE PUSH1 0x4 ADD PUSH2 0x994 SWAP2 SWAP1 PUSH2 0x36AC JUMP JUMPDEST PUSH1 0x40 MLOAD DUP1 SWAP2 SUB SWAP1 REVERT JUMPDEST PUSH0 PUSH2 0x9B0 DUP4 DUP4 PUSH2 0x9AB PUSH2 0x17A2 JUMP JUMPDEST PUSH2 0x1B15 JUMP JUMPDEST SWAP1 POP DUP4 PUSH20 0xFFFFFFFFFFFFFFFFFFFFFFFFFFFFFFFFFFFFFFFF AND DUP2 PUSH20 0xFFFFFFFFFFFFFFFFFFFFFFFFFFFFFFFFFFFFFFFF AND EQ PUSH2 0xA26 JUMPI DUP4 DUP3 DUP3 PUSH1 0x40 MLOAD PUSH32 0x64283D7B00000000000000000000000000000000000000000000000000000000 DUP2 MSTORE PUSH1 0x4 ADD PUSH2 0xA1D SWAP4 SWAP3 SWAP2 SWAP1 PUSH2 0x3EB6 JUMP JUMPDEST PUSH1 0x40 MLOAD DUP1 SWAP2 SUB SWAP1 REVERT JUMPDEST POP POP POP POP JUMP JUMPDEST PUSH0 PUSH2 0xA36 DUP4 PUSH2 0xEE0 JUMP JUMPDEST DUP3 LT PUSH2 0xA7B JUMPI DUP3 DUP3 PUSH1 0x40 MLOAD PUSH32 0xA57D13DC00000000000000000000000000000000000000000000000000000000 DUP2 MSTORE PUSH1 0x4 ADD PUSH2 0xA72 SWAP3 SWAP2 SWAP1 PUSH2 0x3EEB JUMP JUMPDEST PUSH1 0x40 MLOAD DUP1 SWAP2 SUB SWAP1 REVERT JUMPDEST PUSH1 0x6 PUSH0 DUP5 PUSH20 0xFFFFFFFFFFFFFFFFFFFFFFFFFFFFFFFFFFFFFFFF AND PUSH20 0xFFFFFFFFFFFFFFFFFFFFFFFFFFFFFFFFFFFFFFFF AND DUP2 MSTORE PUSH1 0x20 ADD SWAP1 DUP2 MSTORE PUSH1 0x20 ADD PUSH0 KECCAK256 PUSH0 DUP4 DUP2 MSTORE PUSH1 0x20 ADD SWAP1 DUP2 MSTORE PUSH1 0x20 ADD PUSH0 KECCAK256 SLOAD SWAP1 POP SWAP3 SWAP2 POP POP JUMP JUMPDEST PUSH1 0x15 PUSH0 SWAP1 SLOAD SWAP1 PUSH2 0x100 EXP SWAP1 DIV PUSH20 0xFFFFFFFFFFFFFFFFFFFFFFFFFFFFFFFFFFFFFFFF AND DUP2 JUMP JUMPDEST PUSH1 0x11 SLOAD DUP2 JUMP JUMPDEST PUSH0 PUSH2 0xB06 PUSH1 0xE PUSH2 0x1B29 JUMP JUMPDEST SWAP1 POP PUSH2 0xB12 PUSH1 0xE PUSH2 0x1B35 JUMP JUMPDEST PUSH2 0xB1C DUP3 DUP3 PUSH2 0x1B49 JUMP JUMPDEST PUSH0 PUSH1 0x13 PUSH0 DUP2 SLOAD DUP2 LT PUSH2 0xB31 JUMPI PUSH2 0xB30 PUSH2 0x3F12 JUMP JUMPDEST JUMPDEST SWAP1 PUSH0 MSTORE PUSH1 0x20 PUSH0 KECCAK256 ADD DUP1 SLOAD PUSH2 0xB44 SWAP1 PUSH2 0x3E5F JUMP JUMPDEST DUP1 PUSH1 0x1F ADD PUSH1 0x20 DUP1 SWAP2 DIV MUL PUSH1 0x20 ADD PUSH1 0x40 MLOAD SWAP1 DUP2 ADD PUSH1 0x40 MSTORE DUP1 SWAP3 SWAP2 SWAP1 DUP2 DUP2 MSTORE PUSH1 0x20 ADD DUP3 DUP1 SLOAD PUSH2 0xB70 SWAP1 PUSH2 0x3E5F JUMP JUMPDEST DUP1 ISZERO PUSH2 0xBBB JUMPI DUP1 PUSH1 0x1F LT PUSH2 0xB92 JUMPI PUSH2 0x100 DUP1 DUP4 SLOAD DIV MUL DUP4 MSTORE SWAP2 PUSH1 0x20 ADD SWAP2 PUSH2 0xBBB JUMP JUMPDEST DUP3 ADD SWAP2 SWAP1 PUSH0 MSTORE PUSH1 0x20 PUSH0 KECCAK256 SWAP1 JUMPDEST DUP2 SLOAD DUP2 MSTORE SWAP1 PUSH1 0x1 ADD SWAP1 PUSH1 0x20 ADD DUP1 DUP4 GT PUSH2 0xB9E JUMPI DUP3 SWAP1 SUB PUSH1 0x1F AND DUP3 ADD SWAP2 JUMPDEST POP POP POP POP POP SWAP1 POP PUSH2 0xBCC DUP3 DUP3 PUSH2 0x1B66 JUMP JUMPDEST PUSH2 0xC42 PUSH1 0x40 MLOAD DUP1 PUSH1 0x40 ADD PUSH1 0x40 MSTORE DUP1 PUSH1 0x15 DUP2 MSTORE PUSH1 0x20 ADD PUSH32 0x444F4E45212121206D696E74656420746F6B656E200000000000000000000000 DUP2 MSTORE POP DUP4 PUSH1 0x40 MLOAD DUP1 PUSH1 0x40 ADD PUSH1 0x40 MSTORE DUP1 PUSH1 0x19 DUP2 MSTORE PUSH1 0x20 ADD PUSH32 0x20616E642061737369676E656420746F6B656E2075726C3A2000000000000000 DUP2 MSTORE POP DUP5 PUSH2 0x1BC0 JUMP JUMPDEST POP POP POP JUMP JUMPDEST PUSH2 0xC61 DUP4 DUP4 DUP4 PUSH1 0x40 MLOAD DUP1 PUSH1 0x20 ADD PUSH1 0x40 MSTORE DUP1 PUSH0 DUP2 MSTORE POP PUSH2 0x151C JUMP JUMPDEST POP POP POP JUMP JUMPDEST PUSH1 0x10 SLOAD PUSH1 0x11 SLOAD TIMESTAMP PUSH2 0xC77 SWAP2 SWAP1 PUSH2 0x3F6C JUMP JUMPDEST GT ISZERO PUSH2 0xDD2 JUMPI TIMESTAMP PUSH1 0x11 DUP2 SWAP1 SSTORE POP PUSH0 PUSH2 0xC8D PUSH2 0x11A0 JUMP JUMPDEST SWAP1 POP PUSH1 0x12 SLOAD DUP2 SUB PUSH2 0xCDC JUMPI PUSH2 0xCD6 PUSH1 0x40 MLOAD DUP1 PUSH1 0x40 ADD PUSH1 0x40 MSTORE DUP1 PUSH1 0x17 DUP2 MSTORE PUSH1 0x20 ADD PUSH32 0x4E4F204348414E4745202D3E2072657475726E696E6721000000000000000000 DUP2 MSTORE POP PUSH2 0x1C62 JUMP JUMPDEST POP PUSH2 0xE16 JUMP JUMPDEST PUSH1 0x12 SLOAD DUP2 SLT ISZERO PUSH2 0xD54 JUMPI PUSH2 0xD24 PUSH1 0x40 MLOAD DUP1 PUSH1 0x40 ADD PUSH1 0x40 MSTORE DUP1 PUSH1 0xD DUP2 MSTORE PUSH1 0x20 ADD PUSH32 0x49545320424541522054494D4500000000000000000000000000000000000000 DUP2 MSTORE POP PUSH2 0x1C62 JUMP JUMPDEST PUSH1 0x1 PUSH1 0x1A PUSH1 0x4 PUSH2 0x100 EXP DUP2 SLOAD DUP2 PUSH1 0xFF MUL NOT AND SWAP1 DUP4 PUSH1 0x1 DUP2 GT ISZERO PUSH2 0xD4A JUMPI PUSH2 0xD49 PUSH2 0x3DA6 JUMP JUMPDEST JUMPDEST MUL OR SWAP1 SSTORE POP PUSH2 0xDBD JUMP JUMPDEST PUSH2 0xD92 PUSH1 0x40 MLOAD DUP1 PUSH1 0x40 ADD PUSH1 0x40 MSTORE DUP1 PUSH1 0xD DUP2 MSTORE PUSH1 0x20 ADD PUSH32 0x4954532042554C4C2054494D4500000000000000000000000000000000000000 DUP2 MSTORE POP PUSH2 0x1C62 JUMP JUMPDEST PUSH0 PUSH1 0x1A PUSH1 0x4 PUSH2 0x100 EXP DUP2 SLOAD DUP2 PUSH1 0xFF MUL NOT AND SWAP1 DUP4 PUSH1 0x1 DUP2 GT ISZERO PUSH2 0xDB7 JUMPI PUSH2 0xDB6 PUSH2 0x3DA6 JUMP JUMPDEST JUMPDEST MUL OR SWAP1 SSTORE POP JUMPDEST PUSH2 0xDC5 PUSH2 0x1CFB JUMP JUMPDEST DUP1 PUSH1 0x12 DUP2 SWAP1 SSTORE POP POP PUSH2 0xE15 JUMP JUMPDEST PUSH2 0xE10 PUSH1 0x40 MLOAD DUP1 PUSH1 0x40 ADD PUSH1 0x40 MSTORE DUP1 PUSH1 0x11 DUP2 MSTORE PUSH1 0x20 ADD PUSH32 0x20494E54455256414C204E4F5420555021000000000000000000000000000000 DUP2 MSTORE POP PUSH2 0x1C62 JUMP JUMPDEST PUSH2 0xE16 JUMP JUMPDEST JUMPDEST POP POP JUMP JUMPDEST PUSH0 PUSH2 0xE23 PUSH2 0x84D JUMP JUMPDEST DUP3 LT PUSH2 0xE68 JUMPI PUSH0 DUP3 PUSH1 0x40 MLOAD PUSH32 0xA57D13DC00000000000000000000000000000000000000000000000000000000 DUP2 MSTORE PUSH1 0x4 ADD PUSH2 0xE5F SWAP3 SWAP2 SWAP1 PUSH2 0x3EEB JUMP JUMPDEST PUSH1 0x40 MLOAD DUP1 SWAP2 SUB SWAP1 REVERT JUMPDEST PUSH1 0x8 DUP3 DUP2 SLOAD DUP2 LT PUSH2 0xE7C JUMPI PUSH2 0xE7B PUSH2 0x3F12 JUMP JUMPDEST JUMPDEST SWAP1 PUSH0 MSTORE PUSH1 0x20 PUSH0 KECCAK256 ADD SLOAD SWAP1 POP SWAP2 SWAP1 POP JUMP JUMPDEST PUSH1 0xF PUSH0 SWAP1 SLOAD SWAP1 PUSH2 0x100 EXP SWAP1 DIV PUSH20 0xFFFFFFFFFFFFFFFFFFFFFFFFFFFFFFFFFFFFFFFF AND DUP2 JUMP JUMPDEST PUSH0 PUSH2 0xEBB DUP3 PUSH2 0x16E3 JUMP JUMPDEST SWAP1 POP SWAP2 SWAP1 POP JUMP JUMPDEST PUSH0 PUSH1 0x60 PUSH1 0x10 SLOAD PUSH1 0x11 SLOAD TIMESTAMP PUSH2 0xED6 SWAP2 SWAP1 PUSH2 0x3F6C JUMP JUMPDEST GT SWAP2 POP SWAP3 POP SWAP3 SWAP1 POP JUMP JUMPDEST PUSH0 DUP1 PUSH20 0xFFFFFFFFFFFFFFFFFFFFFFFFFFFFFFFFFFFFFFFF AND DUP3 PUSH20 0xFFFFFFFFFFFFFFFFFFFFFFFFFFFFFFFFFFFFFFFF AND SUB PUSH2 0xF51 JUMPI PUSH0 PUSH1 0x40 MLOAD PUSH32 0x89C62B6400000000000000000000000000000000000000000000000000000000 DUP2 MSTORE PUSH1 0x4 ADD PUSH2 0xF48 SWAP2 SWAP1 PUSH2 0x36AC JUMP JUMPDEST PUSH1 0x40 MLOAD DUP1 SWAP2 SUB SWAP1 REVERT JUMPDEST PUSH1 0x3 PUSH0 DUP4 PUSH20 0xFFFFFFFFFFFFFFFFFFFFFFFFFFFFFFFFFFFFFFFF AND PUSH20 0xFFFFFFFFFFFFFFFFFFFFFFFFFFFFFFFFFFFFFFFF AND DUP2 MSTORE PUSH1 0x20 ADD SWAP1 DUP2 MSTORE PUSH1 0x20 ADD PUSH0 KECCAK256 SLOAD SWAP1 POP SWAP2 SWAP1 POP JUMP JUMPDEST PUSH2 0xF9E PUSH2 0x1A84 JUMP JUMPDEST DUP1 PUSH1 0xF PUSH0 PUSH2 0x100 EXP DUP2 SLOAD DUP2 PUSH20 0xFFFFFFFFFFFFFFFFFFFFFFFFFFFFFFFFFFFFFFFF MUL NOT AND SWAP1 DUP4 PUSH20 0xFFFFFFFFFFFFFFFFFFFFFFFFFFFFFFFFFFFFFFFF AND MUL OR SWAP1 SSTORE POP POP JUMP JUMPDEST PUSH1 0xC PUSH0 SWAP1 SLOAD SWAP1 PUSH2 0x100 EXP SWAP1 DIV PUSH20 0xFFFFFFFFFFFFFFFFFFFFFFFFFFFFFFFFFFFFFFFF AND PUSH20 0xFFFFFFFFFFFFFFFFFFFFFFFFFFFFFFFFFFFFFFFF AND CALLER PUSH20 0xFFFFFFFFFFFFFFFFFFFFFFFFFFFFFFFFFFFFFFFF AND EQ PUSH2 0x1070 JUMPI PUSH1 0x40 MLOAD PUSH32 0x8C379A000000000000000000000000000000000000000000000000000000000 DUP2 MSTORE PUSH1 0x4 ADD PUSH2 0x1067 SWAP1 PUSH2 0x3FE9 JUMP JUMPDEST PUSH1 0x40 MLOAD DUP1 SWAP2 SUB SWAP1 REVERT JUMPDEST PUSH0 PUSH1 0xB PUSH0 SWAP1 SLOAD SWAP1 PUSH2 0x100 EXP SWAP1 DIV PUSH20 0xFFFFFFFFFFFFFFFFFFFFFFFFFFFFFFFFFFFFFFFF AND SWAP1 POP CALLER PUSH1 0xB PUSH0 PUSH2 0x100 EXP DUP2 SLOAD DUP2 PUSH20 0xFFFFFFFFFFFFFFFFFFFFFFFFFFFFFFFFFFFFFFFF MUL NOT AND SWAP1 DUP4 PUSH20 0xFFFFFFFFFFFFFFFFFFFFFFFFFFFFFFFFFFFFFFFF AND MUL OR SWAP1 SSTORE POP PUSH0 PUSH1 0xC PUSH0 PUSH2 0x100 EXP DUP2 SLOAD DUP2 PUSH20 0xFFFFFFFFFFFFFFFFFFFFFFFFFFFFFFFFFFFFFFFF MUL NOT AND SWAP1 DUP4 PUSH20 0xFFFFFFFFFFFFFFFFFFFFFFFFFFFFFFFFFFFFFFFF AND MUL OR SWAP1 SSTORE POP CALLER PUSH20 0xFFFFFFFFFFFFFFFFFFFFFFFFFFFFFFFFFFFFFFFF AND DUP2 PUSH20 0xFFFFFFFFFFFFFFFFFFFFFFFFFFFFFFFFFFFFFFFF AND PUSH32 0x8BE0079C531659141344CD1FD0A4F28419497F9722A3DAAFE3B4186F6B6457E0 PUSH1 0x40 MLOAD PUSH1 0x40 MLOAD DUP1 SWAP2 SUB SWAP1 LOG3 POP JUMP JUMPDEST PUSH1 0x16 SLOAD DUP2 JUMP JUMPDEST PUSH0 PUSH1 0xB PUSH0 SWAP1 SLOAD SWAP1 PUSH2 0x100 EXP SWAP1 DIV PUSH20 0xFFFFFFFFFFFFFFFFFFFFFFFFFFFFFFFFFFFFFFFF AND SWAP1 POP SWAP1 JUMP JUMPDEST PUSH0 DUP1 PUSH1 0xF PUSH0 SWAP1 SLOAD SWAP1 PUSH2 0x100 EXP SWAP1 DIV PUSH20 0xFFFFFFFFFFFFFFFFFFFFFFFFFFFFFFFFFFFFFFFF AND PUSH20 0xFFFFFFFFFFFFFFFFFFFFFFFFFFFFFFFFFFFFFFFF AND PUSH4 0xFEAF968C PUSH1 0x40 MLOAD DUP2 PUSH4 0xFFFFFFFF AND PUSH1 0xE0 SHL DUP2 MSTORE PUSH1 0x4 ADD PUSH1 0xA0 PUSH1 0x40 MLOAD DUP1 DUP4 SUB DUP2 DUP7 GAS STATICCALL ISZERO DUP1 ISZERO PUSH2 0x120C JUMPI RETURNDATASIZE PUSH0 DUP1 RETURNDATACOPY RETURNDATASIZE PUSH0 REVERT JUMPDEST POP POP POP POP PUSH1 0x40 MLOAD RETURNDATASIZE PUSH1 0x1F NOT PUSH1 0x1F DUP3 ADD AND DUP3 ADD DUP1 PUSH1 0x40 MSTORE POP DUP2 ADD SWAP1 PUSH2 0x1230 SWAP2 SWAP1 PUSH2 0x4084 JUMP JUMPDEST POP POP POP SWAP2 POP POP DUP1 SWAP2 POP POP SWAP1 JUMP JUMPDEST PUSH2 0x1245 PUSH2 0x1178 JUMP JUMPDEST PUSH20 0xFFFFFFFFFFFFFFFFFFFFFFFFFFFFFFFFFFFFFFFF AND CALLER PUSH20 0xFFFFFFFFFFFFFFFFFFFFFFFFFFFFFFFFFFFFFFFF AND EQ ISZERO DUP1 ISZERO PUSH2 0x12CD JUMPI POP PUSH1 0xD PUSH0 SWAP1 SLOAD SWAP1 PUSH2 0x100 EXP SWAP1 DIV PUSH20 0xFFFFFFFFFFFFFFFFFFFFFFFFFFFFFFFFFFFFFFFF AND PUSH20 0xFFFFFFFFFFFFFFFFFFFFFFFFFFFFFFFFFFFFFFFF AND CALLER PUSH20 0xFFFFFFFFFFFFFFFFFFFFFFFFFFFFFFFFFFFFFFFF AND EQ ISZERO JUMPDEST ISZERO PUSH2 0x133B JUMPI CALLER PUSH2 0x12DB PUSH2 0x1178 JUMP JUMPDEST PUSH1 0xD PUSH0 SWAP1 SLOAD SWAP1 PUSH2 0x100 EXP SWAP1 DIV PUSH20 0xFFFFFFFFFFFFFFFFFFFFFFFFFFFFFFFFFFFFFFFF AND PUSH1 0x40 MLOAD PUSH32 0x61DB9C100000000000000000000000000000000000000000000000000000000 DUP2 MSTORE PUSH1 0x4 ADD PUSH2 0x1332 SWAP4 SWAP3 SWAP2 SWAP1 PUSH2 0x40FB JUMP JUMPDEST PUSH1 0x40 MLOAD DUP1 SWAP2 SUB SWAP1 REVERT JUMPDEST PUSH0 PUSH20 0xFFFFFFFFFFFFFFFFFFFFFFFFFFFFFFFFFFFFFFFF AND DUP2 PUSH20 0xFFFFFFFFFFFFFFFFFFFFFFFFFFFFFFFFFFFFFFFF AND SUB PUSH2 0x13A0 JUMPI PUSH1 0x40 MLOAD PUSH32 0xD92E233D00000000000000000000000000000000000000000000000000000000 DUP2 MSTORE PUSH1 0x4 ADD PUSH1 0x40 MLOAD DUP1 SWAP2 SUB SWAP1 REVERT JUMPDEST DUP1 PUSH1 0xD PUSH0 PUSH2 0x100 EXP DUP2 SLOAD DUP2 PUSH20 0xFFFFFFFFFFFFFFFFFFFFFFFFFFFFFFFFFFFFFFFF MUL NOT AND SWAP1 DUP4 PUSH20 0xFFFFFFFFFFFFFFFFFFFFFFFFFFFFFFFFFFFFFFFF AND MUL OR SWAP1 SSTORE POP PUSH32 0xD1A6A14209A385A964D036E404CB5CFB71F4000CDB03C9366292430787261BE6 DUP2 PUSH1 0x40 MLOAD PUSH2 0x140F SWAP2 SWAP1 PUSH2 0x36AC JUMP JUMPDEST PUSH1 0x40 MLOAD DUP1 SWAP2 SUB SWAP1 LOG1 POP JUMP JUMPDEST PUSH1 0x10 SLOAD DUP2 JUMP JUMPDEST PUSH1 0x60 PUSH1 0x1 DUP1 SLOAD PUSH2 0x142F SWAP1 PUSH2 0x3E5F JUMP JUMPDEST DUP1 PUSH1 0x1F ADD PUSH1 0x20 DUP1 SWAP2 DIV MUL PUSH1 0x20 ADD PUSH1 0x40 MLOAD SWAP1 DUP2 ADD PUSH1 0x40 MSTORE DUP1 SWAP3 SWAP2 SWAP1 DUP2 DUP2 MSTORE PUSH1 0x20 ADD DUP3 DUP1 SLOAD PUSH2 0x145B SWAP1 PUSH2 0x3E5F JUMP JUMPDEST DUP1 ISZERO PUSH2 0x14A6 JUMPI DUP1 PUSH1 0x1F LT PUSH2 0x147D JUMPI PUSH2 0x100 DUP1 DUP4 SLOAD DIV MUL DUP4 MSTORE SWAP2 PUSH1 0x20 ADD SWAP2 PUSH2 0x14A6 JUMP JUMPDEST DUP3 ADD SWAP2 SWAP1 PUSH0 MSTORE PUSH1 0x20 PUSH0 KECCAK256 SWAP1 JUMPDEST DUP2 SLOAD DUP2 MSTORE SWAP1 PUSH1 0x1 ADD SWAP1 PUSH1 0x20 ADD DUP1 DUP4 GT PUSH2 0x1489 JUMPI DUP3 SWAP1 SUB PUSH1 0x1F AND DUP3 ADD SWAP2 JUMPDEST POP POP POP POP POP SWAP1 POP SWAP1 JUMP JUMPDEST PUSH1 0x12 SLOAD DUP2 JUMP JUMPDEST PUSH1 0xD PUSH0 SWAP1 SLOAD SWAP1 PUSH2 0x100 EXP SWAP1 DIV PUSH20 0xFFFFFFFFFFFFFFFFFFFFFFFFFFFFFFFFFFFFFFFF AND DUP2 JUMP JUMPDEST PUSH2 0x14ED PUSH2 0x14E6 PUSH2 0x17A2 JUMP JUMPDEST DUP4 DUP4 PUSH2 0x1E8D JUMP JUMPDEST POP POP JUMP JUMPDEST PUSH2 0x14F9 PUSH2 0x1A84 JUMP JUMPDEST DUP1 PUSH1 0x1A PUSH0 PUSH2 0x100 EXP DUP2 SLOAD DUP2 PUSH4 0xFFFFFFFF MUL NOT AND SWAP1 DUP4 PUSH4 0xFFFFFFFF AND MUL OR SWAP1 SSTORE POP POP JUMP JUMPDEST PUSH2 0x1527 DUP5 DUP5 DUP5 PUSH2 0x92D JUMP JUMPDEST PUSH2 0x1533 DUP5 DUP5 DUP5 DUP5 PUSH2 0x1FF6 JUMP JUMPDEST POP POP POP POP JUMP JUMPDEST PUSH2 0x1541 PUSH2 0x1A84 JUMP JUMPDEST DUP1 PUSH1 0x16 DUP2 SWAP1 SSTORE POP POP JUMP JUMPDEST PUSH1 0x60 PUSH2 0x1556 DUP3 PUSH2 0x21A8 JUMP JUMPDEST SWAP1 POP SWAP2 SWAP1 POP JUMP JUMPDEST PUSH2 0x1565 PUSH2 0x1A84 JUMP JUMPDEST DUP1 PUSH1 0x15 PUSH0 PUSH2 0x100 EXP DUP2 SLOAD DUP2 PUSH20 0xFFFFFFFFFFFFFFFFFFFFFFFFFFFFFFFFFFFFFFFF MUL NOT AND SWAP1 DUP4 PUSH20 0xFFFFFFFFFFFFFFFFFFFFFFFFFFFFFFFFFFFFFFFF AND MUL OR SWAP1 SSTORE POP POP JUMP JUMPDEST PUSH1 0x18 SLOAD DUP2 JUMP JUMPDEST PUSH0 PUSH1 0x5 PUSH0 DUP5 PUSH20 0xFFFFFFFFFFFFFFFFFFFFFFFFFFFFFFFFFFFFFFFF AND PUSH20 0xFFFFFFFFFFFFFFFFFFFFFFFFFFFFFFFFFFFFFFFF AND DUP2 MSTORE PUSH1 0x20 ADD SWAP1 DUP2 MSTORE PUSH1 0x20 ADD PUSH0 KECCAK256 PUSH0 DUP4 PUSH20 0xFFFFFFFFFFFFFFFFFFFFFFFFFFFFFFFFFFFFFFFF AND PUSH20 0xFFFFFFFFFFFFFFFFFFFFFFFFFFFFFFFFFFFFFFFF AND DUP2 MSTORE PUSH1 0x20 ADD SWAP1 DUP2 MSTORE PUSH1 0x20 ADD PUSH0 KECCAK256 PUSH0 SWAP1 SLOAD SWAP1 PUSH2 0x100 EXP SWAP1 DIV PUSH1 0xFF AND SWAP1 POP SWAP3 SWAP2 POP POP JUMP JUMPDEST PUSH1 0x1A PUSH1 0x4 SWAP1 SLOAD SWAP1 PUSH2 0x100 EXP SWAP1 DIV PUSH1 0xFF AND DUP2 JUMP JUMPDEST PUSH2 0x1657 PUSH2 0x1A84 JUMP JUMPDEST PUSH2 0x1660 DUP2 PUSH2 0x22B3 JUMP JUMPDEST POP JUMP JUMPDEST PUSH1 0x17 DUP2 DUP2 SLOAD DUP2 LT PUSH2 0x1672 JUMPI PUSH0 DUP1 REVERT JUMPDEST SWAP1 PUSH0 MSTORE PUSH1 0x20 PUSH0 KECCAK256 ADD PUSH0 SWAP2 POP SWAP1 POP SLOAD DUP2 JUMP JUMPDEST PUSH0 PUSH4 0x49064906 PUSH1 0xE0 SHL PUSH28 0xFFFFFFFFFFFFFFFFFFFFFFFFFFFFFFFFFFFFFFFFFFFFFFFFFFFFFFFF NOT AND DUP3 PUSH28 0xFFFFFFFFFFFFFFFFFFFFFFFFFFFFFFFFFFFFFFFFFFFFFFFFFFFFFFFF NOT AND EQ DUP1 PUSH2 0x16DC JUMPI POP PUSH2 0x16DB DUP3 PUSH2 0x23DF JUMP JUMPDEST JUMPDEST SWAP1 POP SWAP2 SWAP1 POP JUMP JUMPDEST PUSH0 DUP1 PUSH2 0x16EE DUP4 PUSH2 0x2458 JUMP JUMPDEST SWAP1 POP PUSH0 PUSH20 0xFFFFFFFFFFFFFFFFFFFFFFFFFFFFFFFFFFFFFFFF AND DUP2 PUSH20 0xFFFFFFFFFFFFFFFFFFFFFFFFFFFFFFFFFFFFFFFF AND SUB PUSH2 0x1760 JUMPI DUP3 PUSH1 0x40 MLOAD PUSH32 0x7E27328900000000000000000000000000000000000000000000000000000000 DUP2 MSTORE PUSH1 0x4 ADD PUSH2 0x1757 SWAP2 SWAP1 PUSH2 0x373C JUMP JUMPDEST PUSH1 0x40 MLOAD DUP1 SWAP2 SUB SWAP1 REVERT JUMPDEST DUP1 SWAP2 POP POP SWAP2 SWAP1 POP JUMP JUMPDEST PUSH0 PUSH1 0x4 PUSH0 DUP4 DUP2 MSTORE PUSH1 0x20 ADD SWAP1 DUP2 MSTORE PUSH1 0x20 ADD PUSH0 KECCAK256 PUSH0 SWAP1 SLOAD SWAP1 PUSH2 0x100 EXP SWAP1 DIV PUSH20 0xFFFFFFFFFFFFFFFFFFFFFFFFFFFFFFFFFFFFFFFF AND SWAP1 POP SWAP2 SWAP1 POP JUMP JUMPDEST PUSH0 CALLER SWAP1 POP SWAP1 JUMP JUMPDEST PUSH2 0x17B6 DUP4 DUP4 DUP4 PUSH1 0x1 PUSH2 0x2491 JUMP JUMPDEST POP POP POP JUMP JUMPDEST DUP1 PUSH1 0x17 SWAP1 DUP1 MLOAD SWAP1 PUSH1 0x20 ADD SWAP1 PUSH2 0x17D1 SWAP3 SWAP2 SWAP1 PUSH2 0x3431 JUMP JUMPDEST POP PUSH2 0x1810 PUSH1 0x40 MLOAD DUP1 PUSH1 0x40 ADD PUSH1 0x40 MSTORE DUP1 PUSH1 0x1A DUP2 MSTORE PUSH1 0x20 ADD PUSH32 0x2E2E2E46756C66696C6C696E672072616E646F6D20576F726473000000000000 DUP2 MSTORE POP PUSH2 0x1C62 JUMP JUMPDEST PUSH0 DUP1 PUSH1 0x1 DUP2 GT ISZERO PUSH2 0x1824 JUMPI PUSH2 0x1823 PUSH2 0x3DA6 JUMP JUMPDEST JUMPDEST PUSH1 0x1A PUSH1 0x4 SWAP1 SLOAD SWAP1 PUSH2 0x100 EXP SWAP1 DIV PUSH1 0xFF AND PUSH1 0x1 DUP2 GT ISZERO PUSH2 0x1846 JUMPI PUSH2 0x1845 PUSH2 0x3DA6 JUMP JUMPDEST JUMPDEST EQ PUSH2 0x1852 JUMPI PUSH1 0x14 PUSH2 0x1855 JUMP JUMPDEST PUSH1 0x13 JUMPDEST DUP1 SLOAD DUP1 PUSH1 0x20 MUL PUSH1 0x20 ADD PUSH1 0x40 MLOAD SWAP1 DUP2 ADD PUSH1 0x40 MSTORE DUP1 SWAP3 SWAP2 SWAP1 DUP2 DUP2 MSTORE PUSH1 0x20 ADD PUSH0 SWAP1 JUMPDEST DUP3 DUP3 LT ISZERO PUSH2 0x191C JUMPI DUP4 DUP3 SWAP1 PUSH0 MSTORE PUSH1 0x20 PUSH0 KECCAK256 ADD DUP1 SLOAD PUSH2 0x1891 SWAP1 PUSH2 0x3E5F JUMP JUMPDEST DUP1 PUSH1 0x1F ADD PUSH1 0x20 DUP1 SWAP2 DIV MUL PUSH1 0x20 ADD PUSH1 0x40 MLOAD SWAP1 DUP2 ADD PUSH1 0x40 MSTORE DUP1 SWAP3 SWAP2 SWAP1 DUP2 DUP2 MSTORE PUSH1 0x20 ADD DUP3 DUP1 SLOAD PUSH2 0x18BD SWAP1 PUSH2 0x3E5F JUMP JUMPDEST DUP1 ISZERO PUSH2 0x1908 JUMPI DUP1 PUSH1 0x1F LT PUSH2 0x18DF JUMPI PUSH2 0x100 DUP1 DUP4 SLOAD DIV MUL DUP4 MSTORE SWAP2 PUSH1 0x20 ADD SWAP2 PUSH2 0x1908 JUMP JUMPDEST DUP3 ADD SWAP2 SWAP1 PUSH0 MSTORE PUSH1 0x20 PUSH0 KECCAK256 SWAP1 JUMPDEST DUP2 SLOAD DUP2 MSTORE SWAP1 PUSH1 0x1 ADD SWAP1 PUSH1 0x20 ADD DUP1 DUP4 GT PUSH2 0x18EB JUMPI DUP3 SWAP1 SUB PUSH1 0x1F AND DUP3 ADD SWAP2 JUMPDEST POP POP POP POP POP DUP2 MSTORE PUSH1 0x20 ADD SWAP1 PUSH1 0x1 ADD SWAP1 PUSH2 0x1874 JUMP JUMPDEST POP POP POP POP SWAP1 POP PUSH0 DUP2 MLOAD DUP4 PUSH0 DUP2 MLOAD DUP2 LT PUSH2 0x1938 JUMPI PUSH2 0x1937 PUSH2 0x3F12 JUMP JUMPDEST JUMPDEST PUSH1 0x20 MUL PUSH1 0x20 ADD ADD MLOAD PUSH2 0x194A SWAP2 SWAP1 PUSH2 0x415D JUMP JUMPDEST SWAP1 POP PUSH0 JUMPDEST PUSH2 0x1958 PUSH1 0xE PUSH2 0x1B29 JUMP JUMPDEST DUP2 LT ISZERO PUSH2 0x1996 JUMPI PUSH2 0x1983 DUP2 DUP5 DUP5 DUP2 MLOAD DUP2 LT PUSH2 0x1976 JUMPI PUSH2 0x1975 PUSH2 0x3F12 JUMP JUMPDEST JUMPDEST PUSH1 0x20 MUL PUSH1 0x20 ADD ADD MLOAD PUSH2 0x1B66 JUMP JUMPDEST DUP1 DUP1 PUSH2 0x198E SWAP1 PUSH2 0x418D JUMP JUMPDEST SWAP2 POP POP PUSH2 0x194E JUMP JUMPDEST POP PUSH0 DUP1 PUSH1 0x1 DUP2 GT ISZERO PUSH2 0x19AB JUMPI PUSH2 0x19AA PUSH2 0x3DA6 JUMP JUMPDEST JUMPDEST PUSH1 0x1A PUSH1 0x4 SWAP1 SLOAD SWAP1 PUSH2 0x100 EXP SWAP1 DIV PUSH1 0xFF AND PUSH1 0x1 DUP2 GT ISZERO PUSH2 0x19CD JUMPI PUSH2 0x19CC PUSH2 0x3DA6 JUMP JUMPDEST JUMPDEST EQ PUSH2 0x1A0D JUMPI PUSH1 0x40 MLOAD DUP1 PUSH1 0x40 ADD PUSH1 0x40 MSTORE DUP1 PUSH1 0x7 DUP2 MSTORE PUSH1 0x20 ADD PUSH32 0x6265617269736800000000000000000000000000000000000000000000000000 DUP2 MSTORE POP PUSH2 0x1A44 JUMP JUMPDEST PUSH1 0x40 MLOAD DUP1 PUSH1 0x40 ADD PUSH1 0x40 MSTORE DUP1 PUSH1 0x7 DUP2 MSTORE PUSH1 0x20 ADD PUSH32 0x62756C6C69736800000000000000000000000000000000000000000000000000 DUP2 MSTORE POP JUMPDEST SWAP1 POP PUSH32 0x1CD67277DCD039D660F99499BDB46E90175D6160E3F9AB788A032B7A1AD2356A DUP2 PUSH1 0x40 MLOAD PUSH2 0x1A75 SWAP2 SWAP1 PUSH2 0x35EF JUMP JUMPDEST PUSH1 0x40 MLOAD DUP1 SWAP2 SUB SWAP1 LOG1 POP POP POP POP POP JUMP JUMPDEST PUSH1 0xB PUSH0 SWAP1 SLOAD SWAP1 PUSH2 0x100 EXP SWAP1 DIV PUSH20 0xFFFFFFFFFFFFFFFFFFFFFFFFFFFFFFFFFFFFFFFF AND PUSH20 0xFFFFFFFFFFFFFFFFFFFFFFFFFFFFFFFFFFFFFFFF AND CALLER PUSH20 0xFFFFFFFFFFFFFFFFFFFFFFFFFFFFFFFFFFFFFFFF AND EQ PUSH2 0x1B13 JUMPI PUSH1 0x40 MLOAD PUSH32 0x8C379A000000000000000000000000000000000000000000000000000000000 DUP2 MSTORE PUSH1 0x4 ADD PUSH2 0x1B0A SWAP1 PUSH2 0x421E JUMP JUMPDEST PUSH1 0x40 MLOAD DUP1 SWAP2 SUB SWAP1 REVERT JUMPDEST JUMP JUMPDEST PUSH0 PUSH2 0x1B21 DUP5 DUP5 DUP5 PUSH2 0x2650 JUMP JUMPDEST POP SWAP4 SWAP3 POP POP POP JUMP JUMPDEST PUSH0 DUP2 PUSH0 ADD SLOAD SWAP1 POP SWAP2 SWAP1 POP JUMP JUMPDEST PUSH1 0x1 DUP2 PUSH0 ADD PUSH0 DUP3 DUP3 SLOAD ADD SWAP3 POP POP DUP2 SWAP1 SSTORE POP POP JUMP JUMPDEST PUSH2 0x1B62 DUP3 DUP3 PUSH1 0x40 MLOAD DUP1 PUSH1 0x20 ADD PUSH1 0x40 MSTORE DUP1 PUSH0 DUP2 MSTORE POP PUSH2 0x276A JUMP JUMPDEST POP POP JUMP JUMPDEST DUP1 PUSH1 0xA PUSH0 DUP5 DUP2 MSTORE PUSH1 0x20 ADD SWAP1 DUP2 MSTORE PUSH1 0x20 ADD PUSH0 KECCAK256 SWAP1 DUP2 PUSH2 0x1B84 SWAP2 SWAP1 PUSH2 0x43D0 JUMP JUMPDEST POP PUSH32 0xF8E1A15ABA9398E019F0B49DF1A4FDE98EE17AE345CB5F6B5E2C27F5033E8CE7 DUP3 PUSH1 0x40 MLOAD PUSH2 0x1BB4 SWAP2 SWAP1 PUSH2 0x373C JUMP JUMPDEST PUSH1 0x40 MLOAD DUP1 SWAP2 SUB SWAP1 LOG1 POP POP JUMP JUMPDEST PUSH2 0x1C5C DUP5 DUP5 DUP5 DUP5 PUSH1 0x40 MLOAD PUSH1 0x24 ADD PUSH2 0x1BDA SWAP5 SWAP4 SWAP3 SWAP2 SWAP1 PUSH2 0x449F JUMP JUMPDEST PUSH1 0x40 MLOAD PUSH1 0x20 DUP2 DUP4 SUB SUB DUP2 MSTORE SWAP1 PUSH1 0x40 MSTORE PUSH32 0x5AB84E1F00000000000000000000000000000000000000000000000000000000 PUSH28 0xFFFFFFFFFFFFFFFFFFFFFFFFFFFFFFFFFFFFFFFFFFFFFFFFFFFFFFFF NOT AND PUSH1 0x20 DUP3 ADD DUP1 MLOAD PUSH28 0xFFFFFFFFFFFFFFFFFFFFFFFFFFFFFFFFFFFFFFFFFFFFFFFFFFFFFFFF DUP4 DUP2 DUP4 AND OR DUP4 MSTORE POP POP POP POP PUSH2 0x2785 JUMP JUMPDEST POP POP POP POP JUMP JUMPDEST PUSH2 0x1CF8 DUP2 PUSH1 0x40 MLOAD PUSH1 0x24 ADD PUSH2 0x1C76 SWAP2 SWAP1 PUSH2 0x35EF JUMP JUMPDEST PUSH1 0x40 MLOAD PUSH1 0x20 DUP2 DUP4 SUB SUB DUP2 MSTORE SWAP1 PUSH1 0x40 MSTORE PUSH32 0x41304FAC00000000000000000000000000000000000000000000000000000000 PUSH28 0xFFFFFFFFFFFFFFFFFFFFFFFFFFFFFFFFFFFFFFFFFFFFFFFFFFFFFFFF NOT AND PUSH1 0x20 DUP3 ADD DUP1 MLOAD PUSH28 0xFFFFFFFFFFFFFFFFFFFFFFFFFFFFFFFFFFFFFFFFFFFFFFFFFFFFFFFF DUP4 DUP2 DUP4 AND OR DUP4 MSTORE POP POP POP POP PUSH2 0x2785 JUMP JUMPDEST POP JUMP JUMPDEST PUSH0 PUSH1 0x16 SLOAD SUB PUSH2 0x1D3F JUMPI PUSH1 0x40 MLOAD PUSH32 0x8C379A000000000000000000000000000000000000000000000000000000000 DUP2 MSTORE PUSH1 0x4 ADD PUSH2 0x1D36 SWAP1 PUSH2 0x4541 JUMP JUMPDEST PUSH1 0x40 MLOAD DUP1 SWAP2 SUB SWAP1 REVERT JUMPDEST PUSH1 0x15 PUSH0 SWAP1 SLOAD SWAP1 PUSH2 0x100 EXP SWAP1 DIV PUSH20 0xFFFFFFFFFFFFFFFFFFFFFFFFFFFFFFFFFFFFFFFF AND PUSH20 0xFFFFFFFFFFFFFFFFFFFFFFFFFFFFFFFFFFFFFFFF AND PUSH4 0x9B1C385E PUSH1 0x40 MLOAD DUP1 PUSH1 0xC0 ADD PUSH1 0x40 MSTORE DUP1 PUSH1 0x19 SLOAD DUP2 MSTORE PUSH1 0x20 ADD PUSH1 0x16 SLOAD DUP2 MSTORE PUSH1 0x20 ADD PUSH1 0x3 PUSH2 0xFFFF AND DUP2 MSTORE PUSH1 0x20 ADD PUSH1 0x1A PUSH0 SWAP1 SLOAD SWAP1 PUSH2 0x100 EXP SWAP1 DIV PUSH4 0xFFFFFFFF AND PUSH4 0xFFFFFFFF AND DUP2 MSTORE PUSH1 0x20 ADD PUSH1 0x1 PUSH4 0xFFFFFFFF AND DUP2 MSTORE PUSH1 0x20 ADD PUSH2 0x1DE5 PUSH1 0x40 MLOAD DUP1 PUSH1 0x20 ADD PUSH1 0x40 MSTORE DUP1 PUSH0 ISZERO ISZERO DUP2 MSTORE POP PUSH2 0x279F JUMP JUMPDEST DUP2 MSTORE POP PUSH1 0x40 MLOAD DUP3 PUSH4 0xFFFFFFFF AND PUSH1 0xE0 SHL DUP2 MSTORE PUSH1 0x4 ADD PUSH2 0x1E04 SWAP2 SWAP1 PUSH2 0x467F JUMP JUMPDEST PUSH1 0x20 PUSH1 0x40 MLOAD DUP1 DUP4 SUB DUP2 PUSH0 DUP8 GAS CALL ISZERO DUP1 ISZERO PUSH2 0x1E20 JUMPI RETURNDATASIZE PUSH0 DUP1 RETURNDATACOPY RETURNDATASIZE PUSH0 REVERT JUMPDEST POP POP POP POP PUSH1 0x40 MLOAD RETURNDATASIZE PUSH1 0x1F NOT PUSH1 0x1F DUP3 ADD AND DUP3 ADD DUP1 PUSH1 0x40 MSTORE POP DUP2 ADD SWAP1 PUSH2 0x1E44 SWAP2 SWAP1 PUSH2 0x469F JUMP JUMPDEST PUSH1 0x18 DUP2 SWAP1 SSTORE POP PUSH2 0x1E8B PUSH1 0x40 MLOAD DUP1 PUSH1 0x40 ADD PUSH1 0x40 MSTORE DUP1 PUSH1 0xC DUP2 MSTORE PUSH1 0x20 ADD PUSH32 0x526571756573742049443A200000000000000000000000000000000000000000 DUP2 MSTORE POP PUSH1 0x18 SLOAD PUSH2 0x2837 JUMP JUMPDEST JUMP JUMPDEST PUSH0 PUSH20 0xFFFFFFFFFFFFFFFFFFFFFFFFFFFFFFFFFFFFFFFF AND DUP3 PUSH20 0xFFFFFFFFFFFFFFFFFFFFFFFFFFFFFFFFFFFFFFFF AND SUB PUSH2 0x1EFD JUMPI DUP2 PUSH1 0x40 MLOAD PUSH32 0x5B08BA1800000000000000000000000000000000000000000000000000000000 DUP2 MSTORE PUSH1 0x4 ADD PUSH2 0x1EF4 SWAP2 SWAP1 PUSH2 0x36AC JUMP JUMPDEST PUSH1 0x40 MLOAD DUP1 SWAP2 SUB SWAP1 REVERT JUMPDEST DUP1 PUSH1 0x5 PUSH0 DUP6 PUSH20 0xFFFFFFFFFFFFFFFFFFFFFFFFFFFFFFFFFFFFFFFF AND PUSH20 0xFFFFFFFFFFFFFFFFFFFFFFFFFFFFFFFFFFFFFFFF AND DUP2 MSTORE PUSH1 0x20 ADD SWAP1 DUP2 MSTORE PUSH1 0x20 ADD PUSH0 KECCAK256 PUSH0 DUP5 PUSH20 0xFFFFFFFFFFFFFFFFFFFFFFFFFFFFFFFFFFFFFFFF AND PUSH20 0xFFFFFFFFFFFFFFFFFFFFFFFFFFFFFFFFFFFFFFFF AND DUP2 MSTORE PUSH1 0x20 ADD SWAP1 DUP2 MSTORE PUSH1 0x20 ADD PUSH0 KECCAK256 PUSH0 PUSH2 0x100 EXP DUP2 SLOAD DUP2 PUSH1 0xFF MUL NOT AND SWAP1 DUP4 ISZERO ISZERO MUL OR SWAP1 SSTORE POP DUP2 PUSH20 0xFFFFFFFFFFFFFFFFFFFFFFFFFFFFFFFFFFFFFFFF AND DUP4 PUSH20 0xFFFFFFFFFFFFFFFFFFFFFFFFFFFFFFFFFFFFFFFF AND PUSH32 0x17307EAB39AB6107E8899845AD3D59BD9653F200F220920489CA2B5937696C31 DUP4 PUSH1 0x40 MLOAD PUSH2 0x1FE9 SWAP2 SWAP1 PUSH2 0x354C JUMP JUMPDEST PUSH1 0x40 MLOAD DUP1 SWAP2 SUB SWAP1 LOG3 POP POP POP JUMP JUMPDEST PUSH0 DUP4 PUSH20 0xFFFFFFFFFFFFFFFFFFFFFFFFFFFFFFFFFFFFFFFF AND EXTCODESIZE GT ISZERO PUSH2 0x21A2 JUMPI DUP3 PUSH20 0xFFFFFFFFFFFFFFFFFFFFFFFFFFFFFFFFFFFFFFFF AND PUSH4 0x150B7A02 PUSH2 0x2039 PUSH2 0x17A2 JUMP JUMPDEST DUP7 DUP6 DUP6 PUSH1 0x40 MLOAD DUP6 PUSH4 0xFFFFFFFF AND PUSH1 0xE0 SHL DUP2 MSTORE PUSH1 0x4 ADD PUSH2 0x205B SWAP5 SWAP4 SWAP3 SWAP2 SWAP1 PUSH2 0x46CA JUMP JUMPDEST PUSH1 0x20 PUSH1 0x40 MLOAD DUP1 DUP4 SUB DUP2 PUSH0 DUP8 GAS CALL SWAP3 POP POP POP DUP1 ISZERO PUSH2 0x2096 JUMPI POP PUSH1 0x40 MLOAD RETURNDATASIZE PUSH1 0x1F NOT PUSH1 0x1F DUP3 ADD AND DUP3 ADD DUP1 PUSH1 0x40 MSTORE POP DUP2 ADD SWAP1 PUSH2 0x2093 SWAP2 SWAP1 PUSH2 0x4728 JUMP JUMPDEST PUSH1 0x1 JUMPDEST PUSH2 0x2117 JUMPI RETURNDATASIZE DUP1 PUSH0 DUP2 EQ PUSH2 0x20C4 JUMPI PUSH1 0x40 MLOAD SWAP2 POP PUSH1 0x1F NOT PUSH1 0x3F RETURNDATASIZE ADD AND DUP3 ADD PUSH1 0x40 MSTORE RETURNDATASIZE DUP3 MSTORE RETURNDATASIZE PUSH0 PUSH1 0x20 DUP5 ADD RETURNDATACOPY PUSH2 0x20C9 JUMP JUMPDEST PUSH1 0x60 SWAP2 POP JUMPDEST POP PUSH0 DUP2 MLOAD SUB PUSH2 0x210F JUMPI DUP4 PUSH1 0x40 MLOAD PUSH32 0x64A0AE9200000000000000000000000000000000000000000000000000000000 DUP2 MSTORE PUSH1 0x4 ADD PUSH2 0x2106 SWAP2 SWAP1 PUSH2 0x36AC JUMP JUMPDEST PUSH1 0x40 MLOAD DUP1 SWAP2 SUB SWAP1 REVERT JUMPDEST DUP1 MLOAD DUP2 PUSH1 0x20 ADD REVERT JUMPDEST PUSH4 0x150B7A02 PUSH1 0xE0 SHL PUSH28 0xFFFFFFFFFFFFFFFFFFFFFFFFFFFFFFFFFFFFFFFFFFFFFFFFFFFFFFFF NOT AND DUP2 PUSH28 0xFFFFFFFFFFFFFFFFFFFFFFFFFFFFFFFFFFFFFFFFFFFFFFFFFFFFFFFF NOT AND EQ PUSH2 0x21A0 JUMPI DUP4 PUSH1 0x40 MLOAD PUSH32 0x64A0AE9200000000000000000000000000000000000000000000000000000000 DUP2 MSTORE PUSH1 0x4 ADD PUSH2 0x2197 SWAP2 SWAP1 PUSH2 0x36AC JUMP JUMPDEST PUSH1 0x40 MLOAD DUP1 SWAP2 SUB SWAP1 REVERT JUMPDEST POP JUMPDEST POP POP POP POP JUMP JUMPDEST PUSH1 0x60 PUSH2 0x21B3 DUP3 PUSH2 0x16E3 JUMP JUMPDEST POP PUSH0 PUSH1 0xA PUSH0 DUP5 DUP2 MSTORE PUSH1 0x20 ADD SWAP1 DUP2 MSTORE PUSH1 0x20 ADD PUSH0 KECCAK256 DUP1 SLOAD PUSH2 0x21D1 SWAP1 PUSH2 0x3E5F JUMP JUMPDEST DUP1 PUSH1 0x1F ADD PUSH1 0x20 DUP1 SWAP2 DIV MUL PUSH1 0x20 ADD PUSH1 0x40 MLOAD SWAP1 DUP2 ADD PUSH1 0x40 MSTORE DUP1 SWAP3 SWAP2 SWAP1 DUP2 DUP2 MSTORE PUSH1 0x20 ADD DUP3 DUP1 SLOAD PUSH2 0x21FD SWAP1 PUSH2 0x3E5F JUMP JUMPDEST DUP1 ISZERO PUSH2 0x2248 JUMPI DUP1 PUSH1 0x1F LT PUSH2 0x221F JUMPI PUSH2 0x100 DUP1 DUP4 SLOAD DIV MUL DUP4 MSTORE SWAP2 PUSH1 0x20 ADD SWAP2 PUSH2 0x2248 JUMP JUMPDEST DUP3 ADD SWAP2 SWAP1 PUSH0 MSTORE PUSH1 0x20 PUSH0 KECCAK256 SWAP1 JUMPDEST DUP2 SLOAD DUP2 MSTORE SWAP1 PUSH1 0x1 ADD SWAP1 PUSH1 0x20 ADD DUP1 DUP4 GT PUSH2 0x222B JUMPI DUP3 SWAP1 SUB PUSH1 0x1F AND DUP3 ADD SWAP2 JUMPDEST POP POP POP POP POP SWAP1 POP PUSH0 PUSH2 0x2258 PUSH2 0x28D3 JUMP JUMPDEST SWAP1 POP PUSH0 DUP2 MLOAD SUB PUSH2 0x226C JUMPI DUP2 SWAP3 POP POP POP PUSH2 0x22AE JUMP JUMPDEST PUSH0 DUP3 MLOAD GT ISZERO PUSH2 0x22A0 JUMPI DUP1 DUP3 PUSH1 0x40 MLOAD PUSH1 0x20 ADD PUSH2 0x2288 SWAP3 SWAP2 SWAP1 PUSH2 0x478D JUMP JUMPDEST PUSH1 0x40 MLOAD PUSH1 0x20 DUP2 DUP4 SUB SUB DUP2 MSTORE SWAP1 PUSH1 0x40 MSTORE SWAP3 POP POP POP PUSH2 0x22AE JUMP JUMPDEST PUSH2 0x22A9 DUP5 PUSH2 0x28E9 JUMP JUMPDEST SWAP3 POP POP POP JUMPDEST SWAP2 SWAP1 POP JUMP JUMPDEST CALLER PUSH20 0xFFFFFFFFFFFFFFFFFFFFFFFFFFFFFFFFFFFFFFFF AND DUP2 PUSH20 0xFFFFFFFFFFFFFFFFFFFFFFFFFFFFFFFFFFFFFFFF AND SUB PUSH2 0x2321 JUMPI PUSH1 0x40 MLOAD PUSH32 0x8C379A000000000000000000000000000000000000000000000000000000000 DUP2 MSTORE PUSH1 0x4 ADD PUSH2 0x2318 SWAP1 PUSH2 0x47FA JUMP JUMPDEST PUSH1 0x40 MLOAD DUP1 SWAP2 SUB SWAP1 REVERT JUMPDEST DUP1 PUSH1 0xC PUSH0 PUSH2 0x100 EXP DUP2 SLOAD DUP2 PUSH20 0xFFFFFFFFFFFFFFFFFFFFFFFFFFFFFFFFFFFFFFFF MUL NOT AND SWAP1 DUP4 PUSH20 0xFFFFFFFFFFFFFFFFFFFFFFFFFFFFFFFFFFFFFFFF AND MUL OR SWAP1 SSTORE POP DUP1 PUSH20 0xFFFFFFFFFFFFFFFFFFFFFFFFFFFFFFFFFFFFFFFF AND PUSH1 0xB PUSH0 SWAP1 SLOAD SWAP1 PUSH2 0x100 EXP SWAP1 DIV PUSH20 0xFFFFFFFFFFFFFFFFFFFFFFFFFFFFFFFFFFFFFFFF AND PUSH20 0xFFFFFFFFFFFFFFFFFFFFFFFFFFFFFFFFFFFFFFFF AND PUSH32 0xED8889F560326EB138920D842192F0EB3DD22B4F139C87A2C57538E05BAE1278 PUSH1 0x40 MLOAD PUSH1 0x40 MLOAD DUP1 SWAP2 SUB SWAP1 LOG3 POP JUMP JUMPDEST PUSH0 PUSH32 0x780E9D6300000000000000000000000000000000000000000000000000000000 PUSH28 0xFFFFFFFFFFFFFFFFFFFFFFFFFFFFFFFFFFFFFFFFFFFFFFFFFFFFFFFF NOT AND DUP3 PUSH28 0xFFFFFFFFFFFFFFFFFFFFFFFFFFFFFFFFFFFFFFFFFFFFFFFFFFFFFFFF NOT AND EQ DUP1 PUSH2 0x2451 JUMPI POP PUSH2 0x2450 DUP3 PUSH2 0x294F JUMP JUMPDEST JUMPDEST SWAP1 POP SWAP2 SWAP1 POP JUMP JUMPDEST PUSH0 PUSH1 0x2 PUSH0 DUP4 DUP2 MSTORE PUSH1 0x20 ADD SWAP1 DUP2 MSTORE PUSH1 0x20 ADD PUSH0 KECCAK256 PUSH0 SWAP1 SLOAD SWAP1 PUSH2 0x100 EXP SWAP1 DIV PUSH20 0xFFFFFFFFFFFFFFFFFFFFFFFFFFFFFFFFFFFFFFFF AND SWAP1 POP SWAP2 SWAP1 POP JUMP JUMPDEST DUP1 DUP1 PUSH2 0x24C9 JUMPI POP PUSH0 PUSH20 0xFFFFFFFFFFFFFFFFFFFFFFFFFFFFFFFFFFFFFFFF AND DUP3 PUSH20 0xFFFFFFFFFFFFFFFFFFFFFFFFFFFFFFFFFFFFFFFF AND EQ ISZERO JUMPDEST ISZERO PUSH2 0x25FB JUMPI PUSH0 PUSH2 0x24D8 DUP5 PUSH2 0x16E3 JUMP JUMPDEST SWAP1 POP PUSH0 PUSH20 0xFFFFFFFFFFFFFFFFFFFFFFFFFFFFFFFFFFFFFFFF AND DUP4 PUSH20 0xFFFFFFFFFFFFFFFFFFFFFFFFFFFFFFFFFFFFFFFF AND EQ ISZERO DUP1 ISZERO PUSH2 0x2542 JUMPI POP DUP3 PUSH20 0xFFFFFFFFFFFFFFFFFFFFFFFFFFFFFFFFFFFFFFFF AND DUP2 PUSH20 0xFFFFFFFFFFFFFFFFFFFFFFFFFFFFFFFFFFFFFFFF AND EQ ISZERO JUMPDEST DUP1 ISZERO PUSH2 0x2555 JUMPI POP PUSH2 0x2553 DUP2 DUP5 PUSH2 0x15AE JUMP JUMPDEST ISZERO JUMPDEST ISZERO PUSH2 0x2597 JUMPI DUP3 PUSH1 0x40 MLOAD PUSH32 0xA9FBF51F00000000000000000000000000000000000000000000000000000000 DUP2 MSTORE PUSH1 0x4 ADD PUSH2 0x258E SWAP2 SWAP1 PUSH2 0x36AC JUMP JUMPDEST PUSH1 0x40 MLOAD DUP1 SWAP2 SUB SWAP1 REVERT JUMPDEST DUP2 ISZERO PUSH2 0x25F9 JUMPI DUP4 DUP6 PUSH20 0xFFFFFFFFFFFFFFFFFFFFFFFFFFFFFFFFFFFFFFFF AND DUP3 PUSH20 0xFFFFFFFFFFFFFFFFFFFFFFFFFFFFFFFFFFFFFFFF AND PUSH32 0x8C5BE1E5EBEC7D5BD14F71427D1E84F3DD0314C0F7B2291E5B200AC8C7C3B925 PUSH1 0x40 MLOAD PUSH1 0x40 MLOAD DUP1 SWAP2 SUB SWAP1 LOG4 JUMPDEST POP JUMPDEST DUP4 PUSH1 0x4 PUSH0 DUP6 DUP2 MSTORE PUSH1 0x20 ADD SWAP1 DUP2 MSTORE PUSH1 0x20 ADD PUSH0 KECCAK256 PUSH0 PUSH2 0x100 EXP DUP2 SLOAD DUP2 PUSH20 0xFFFFFFFFFFFFFFFFFFFFFFFFFFFFFFFFFFFFFFFF MUL NOT AND SWAP1 DUP4 PUSH20 0xFFFFFFFFFFFFFFFFFFFFFFFFFFFFFFFFFFFFFFFF AND MUL OR SWAP1 SSTORE POP POP POP POP POP JUMP JUMPDEST PUSH0 DUP1 PUSH2 0x265D DUP6 DUP6 DUP6 PUSH2 0x2A30 JUMP JUMPDEST SWAP1 POP PUSH0 PUSH20 0xFFFFFFFFFFFFFFFFFFFFFFFFFFFFFFFFFFFFFFFF AND DUP2 PUSH20 0xFFFFFFFFFFFFFFFFFFFFFFFFFFFFFFFFFFFFFFFF AND SUB PUSH2 0x26A0 JUMPI PUSH2 0x269B DUP5 PUSH2 0x2C3B JUMP JUMPDEST PUSH2 0x26DF JUMP JUMPDEST DUP5 PUSH20 0xFFFFFFFFFFFFFFFFFFFFFFFFFFFFFFFFFFFFFFFF AND DUP2 PUSH20 0xFFFFFFFFFFFFFFFFFFFFFFFFFFFFFFFFFFFFFFFF AND EQ PUSH2 0x26DE JUMPI PUSH2 0x26DD DUP2 DUP6 PUSH2 0x2C7F JUMP JUMPDEST JUMPDEST JUMPDEST PUSH0 PUSH20 0xFFFFFFFFFFFFFFFFFFFFFFFFFFFFFFFFFFFFFFFF AND DUP6 PUSH20 0xFFFFFFFFFFFFFFFFFFFFFFFFFFFFFFFFFFFFFFFF AND SUB PUSH2 0x2720 JUMPI PUSH2 0x271B DUP5 PUSH2 0x2DC9 JUMP JUMPDEST PUSH2 0x275F JUMP JUMPDEST DUP5 PUSH20 0xFFFFFFFFFFFFFFFFFFFFFFFFFFFFFFFFFFFFFFFF AND DUP2 PUSH20 0xFFFFFFFFFFFFFFFFFFFFFFFFFFFFFFFFFFFFFFFF AND EQ PUSH2 0x275E JUMPI PUSH2 0x275D DUP6 DUP6 PUSH2 0x2E89 JUMP JUMPDEST JUMPDEST JUMPDEST DUP1 SWAP2 POP POP SWAP4 SWAP3 POP POP POP JUMP JUMPDEST PUSH2 0x2774 DUP4 DUP4 PUSH2 0x2F0D JUMP JUMPDEST PUSH2 0x2780 PUSH0 DUP5 DUP5 DUP5 PUSH2 0x1FF6 JUMP JUMPDEST POP POP POP JUMP JUMPDEST PUSH2 0x279C DUP2 PUSH2 0x2794 PUSH2 0x3000 PUSH2 0x301F JUMP JUMPDEST PUSH4 0xFFFFFFFF AND JUMP JUMPDEST POP JUMP JUMPDEST PUSH1 0x60 PUSH32 0x92FD13387C7FE7BEFBC38D303D6468778FB9731BC4583F17D92989C6FCFDEAAA DUP3 PUSH1 0x40 MLOAD PUSH1 0x24 ADD PUSH2 0x27D3 SWAP2 SWAP1 PUSH2 0x4841 JUMP JUMPDEST PUSH1 0x40 MLOAD PUSH1 0x20 DUP2 DUP4 SUB SUB DUP2 MSTORE SWAP1 PUSH1 0x40 MSTORE SWAP1 PUSH28 0xFFFFFFFFFFFFFFFFFFFFFFFFFFFFFFFFFFFFFFFFFFFFFFFFFFFFFFFF NOT AND PUSH1 0x20 DUP3 ADD DUP1 MLOAD PUSH28 0xFFFFFFFFFFFFFFFFFFFFFFFFFFFFFFFFFFFFFFFFFFFFFFFFFFFFFFFF DUP4 DUP2 DUP4 AND OR DUP4 MSTORE POP POP POP POP SWAP1 POP SWAP2 SWAP1 POP JUMP JUMPDEST PUSH2 0x28CF DUP3 DUP3 PUSH1 0x40 MLOAD PUSH1 0x24 ADD PUSH2 0x284D SWAP3 SWAP2 SWAP1 PUSH2 0x485A JUMP JUMPDEST PUSH1 0x40 MLOAD PUSH1 0x20 DUP2 DUP4 SUB SUB DUP2 MSTORE SWAP1 PUSH1 0x40 MSTORE PUSH32 0xB60E72CC00000000000000000000000000000000000000000000000000000000 PUSH28 0xFFFFFFFFFFFFFFFFFFFFFFFFFFFFFFFFFFFFFFFFFFFFFFFFFFFFFFFF NOT AND PUSH1 0x20 DUP3 ADD DUP1 MLOAD PUSH28 0xFFFFFFFFFFFFFFFFFFFFFFFFFFFFFFFFFFFFFFFFFFFFFFFFFFFFFFFF DUP4 DUP2 DUP4 AND OR DUP4 MSTORE POP POP POP POP PUSH2 0x2785 JUMP JUMPDEST POP POP JUMP JUMPDEST PUSH1 0x60 PUSH1 0x40 MLOAD DUP1 PUSH1 0x20 ADD PUSH1 0x40 MSTORE DUP1 PUSH0 DUP2 MSTORE POP SWAP1 POP SWAP1 JUMP JUMPDEST PUSH1 0x60 PUSH2 0x28F4 DUP3 PUSH2 0x16E3 JUMP JUMPDEST POP PUSH0 PUSH2 0x28FE PUSH2 0x28D3 JUMP JUMPDEST SWAP1 POP PUSH0 DUP2 MLOAD GT PUSH2 0x291C JUMPI PUSH1 0x40 MLOAD DUP1 PUSH1 0x20 ADD PUSH1 0x40 MSTORE DUP1 PUSH0 DUP2 MSTORE POP PUSH2 0x2947 JUMP JUMPDEST DUP1 PUSH2 0x2926 DUP5 PUSH2 0x302A JUMP JUMPDEST PUSH1 0x40 MLOAD PUSH1 0x20 ADD PUSH2 0x2937 SWAP3 SWAP2 SWAP1 PUSH2 0x478D JUMP JUMPDEST PUSH1 0x40 MLOAD PUSH1 0x20 DUP2 DUP4 SUB SUB DUP2 MSTORE SWAP1 PUSH1 0x40 MSTORE JUMPDEST SWAP2 POP POP SWAP2 SWAP1 POP JUMP JUMPDEST PUSH0 PUSH32 0x80AC58CD00000000000000000000000000000000000000000000000000000000 PUSH28 0xFFFFFFFFFFFFFFFFFFFFFFFFFFFFFFFFFFFFFFFFFFFFFFFFFFFFFFFF NOT AND DUP3 PUSH28 0xFFFFFFFFFFFFFFFFFFFFFFFFFFFFFFFFFFFFFFFFFFFFFFFFFFFFFFFF NOT AND EQ DUP1 PUSH2 0x2A19 JUMPI POP PUSH32 0x5B5E139F00000000000000000000000000000000000000000000000000000000 PUSH28 0xFFFFFFFFFFFFFFFFFFFFFFFFFFFFFFFFFFFFFFFFFFFFFFFFFFFFFFFF NOT AND DUP3 PUSH28 0xFFFFFFFFFFFFFFFFFFFFFFFFFFFFFFFFFFFFFFFFFFFFFFFFFFFFFFFF NOT AND EQ JUMPDEST DUP1 PUSH2 0x2A29 JUMPI POP PUSH2 0x2A28 DUP3 PUSH2 0x30F4 JUMP JUMPDEST JUMPDEST SWAP1 POP SWAP2 SWAP1 POP JUMP JUMPDEST PUSH0 DUP1 PUSH2 0x2A3B DUP5 PUSH2 0x2458 JUMP JUMPDEST SWAP1 POP PUSH0 PUSH20 0xFFFFFFFFFFFFFFFFFFFFFFFFFFFFFFFFFFFFFFFF AND DUP4 PUSH20 0xFFFFFFFFFFFFFFFFFFFFFFFFFFFFFFFFFFFFFFFF AND EQ PUSH2 0x2A7C JUMPI PUSH2 0x2A7B DUP2 DUP5 DUP7 PUSH2 0x315D JUMP JUMPDEST JUMPDEST PUSH0 PUSH20 0xFFFFFFFFFFFFFFFFFFFFFFFFFFFFFFFFFFFFFFFF AND DUP2 PUSH20 0xFFFFFFFFFFFFFFFFFFFFFFFFFFFFFFFFFFFFFFFF AND EQ PUSH2 0x2B07 JUMPI PUSH2 0x2ABB PUSH0 DUP6 PUSH0 DUP1 PUSH2 0x2491 JUMP JUMPDEST PUSH1 0x1 PUSH1 0x3 PUSH0 DUP4 PUSH20 0xFFFFFFFFFFFFFFFFFFFFFFFFFFFFFFFFFFFFFFFF AND PUSH20 0xFFFFFFFFFFFFFFFFFFFFFFFFFFFFFFFFFFFFFFFF AND DUP2 MSTORE PUSH1 0x20 ADD SWAP1 DUP2 MSTORE PUSH1 0x20 ADD PUSH0 KECCAK256 PUSH0 DUP3 DUP3 SLOAD SUB SWAP3 POP POP DUP2 SWAP1 SSTORE POP JUMPDEST PUSH0 PUSH20 0xFFFFFFFFFFFFFFFFFFFFFFFFFFFFFFFFFFFFFFFF AND DUP6 PUSH20 0xFFFFFFFFFFFFFFFFFFFFFFFFFFFFFFFFFFFFFFFF AND EQ PUSH2 0x2B86 JUMPI PUSH1 0x1 PUSH1 0x3 PUSH0 DUP8 PUSH20 0xFFFFFFFFFFFFFFFFFFFFFFFFFFFFFFFFFFFFFFFF AND PUSH20 0xFFFFFFFFFFFFFFFFFFFFFFFFFFFFFFFFFFFFFFFF AND DUP2 MSTORE PUSH1 0x20 ADD SWAP1 DUP2 MSTORE PUSH1 0x20 ADD PUSH0 KECCAK256 PUSH0 DUP3 DUP3 SLOAD ADD SWAP3 POP POP DUP2 SWAP1 SSTORE POP JUMPDEST DUP5 PUSH1 0x2 PUSH0 DUP7 DUP2 MSTORE PUSH1 0x20 ADD SWAP1 DUP2 MSTORE PUSH1 0x20 ADD PUSH0 KECCAK256 PUSH0 PUSH2 0x100 EXP DUP2 SLOAD DUP2 PUSH20 0xFFFFFFFFFFFFFFFFFFFFFFFFFFFFFFFFFFFFFFFF MUL NOT AND SWAP1 DUP4 PUSH20 0xFFFFFFFFFFFFFFFFFFFFFFFFFFFFFFFFFFFFFFFF AND MUL OR SWAP1 SSTORE POP DUP4 DUP6 PUSH20 0xFFFFFFFFFFFFFFFFFFFFFFFFFFFFFFFFFFFFFFFF AND DUP3 PUSH20 0xFFFFFFFFFFFFFFFFFFFFFFFFFFFFFFFFFFFFFFFF AND PUSH32 0xDDF252AD1BE2C89B69C2B068FC378DAA952BA7F163C4A11628F55A4DF523B3EF PUSH1 0x40 MLOAD PUSH1 0x40 MLOAD DUP1 SWAP2 SUB SWAP1 LOG4 DUP1 SWAP2 POP POP SWAP4 SWAP3 POP POP POP JUMP JUMPDEST PUSH1 0x8 DUP1 SLOAD SWAP1 POP PUSH1 0x9 PUSH0 DUP4 DUP2 MSTORE PUSH1 0x20 ADD SWAP1 DUP2 MSTORE PUSH1 0x20 ADD PUSH0 KECCAK256 DUP2 SWAP1 SSTORE POP PUSH1 0x8 DUP2 SWAP1 DUP1 PUSH1 0x1 DUP2 SLOAD ADD DUP1 DUP3 SSTORE DUP1 SWAP2 POP POP PUSH1 0x1 SWAP1 SUB SWAP1 PUSH0 MSTORE PUSH1 0x20 PUSH0 KECCAK256 ADD PUSH0 SWAP1 SWAP2 SWAP1 SWAP2 SWAP1 SWAP2 POP SSTORE POP JUMP JUMPDEST PUSH0 PUSH2 0x2C89 DUP4 PUSH2 0xEE0 JUMP JUMPDEST SWAP1 POP PUSH0 PUSH1 0x7 PUSH0 DUP5 DUP2 MSTORE PUSH1 0x20 ADD SWAP1 DUP2 MSTORE PUSH1 0x20 ADD PUSH0 KECCAK256 SLOAD SWAP1 POP DUP2 DUP2 EQ PUSH2 0x2D60 JUMPI PUSH0 PUSH1 0x6 PUSH0 DUP7 PUSH20 0xFFFFFFFFFFFFFFFFFFFFFFFFFFFFFFFFFFFFFFFF AND PUSH20 0xFFFFFFFFFFFFFFFFFFFFFFFFFFFFFFFFFFFFFFFF AND DUP2 MSTORE PUSH1 0x20 ADD SWAP1 DUP2 MSTORE PUSH1 0x20 ADD PUSH0 KECCAK256 PUSH0 DUP5 DUP2 MSTORE PUSH1 0x20 ADD SWAP1 DUP2 MSTORE PUSH1 0x20 ADD PUSH0 KECCAK256 SLOAD SWAP1 POP DUP1 PUSH1 0x6 PUSH0 DUP8 PUSH20 0xFFFFFFFFFFFFFFFFFFFFFFFFFFFFFFFFFFFFFFFF AND PUSH20 0xFFFFFFFFFFFFFFFFFFFFFFFFFFFFFFFFFFFFFFFF AND DUP2 MSTORE PUSH1 0x20 ADD SWAP1 DUP2 MSTORE PUSH1 0x20 ADD PUSH0 KECCAK256 PUSH0 DUP5 DUP2 MSTORE PUSH1 0x20 ADD SWAP1 DUP2 MSTORE PUSH1 0x20 ADD PUSH0 KECCAK256 DUP2 SWAP1 SSTORE POP DUP2 PUSH1 0x7 PUSH0 DUP4 DUP2 MSTORE PUSH1 0x20 ADD SWAP1 DUP2 MSTORE PUSH1 0x20 ADD PUSH0 KECCAK256 DUP2 SWAP1 SSTORE POP POP JUMPDEST PUSH1 0x7 PUSH0 DUP5 DUP2 MSTORE PUSH1 0x20 ADD SWAP1 DUP2 MSTORE PUSH1 0x20 ADD PUSH0 KECCAK256 PUSH0 SWAP1 SSTORE PUSH1 0x6 PUSH0 DUP6 PUSH20 0xFFFFFFFFFFFFFFFFFFFFFFFFFFFFFFFFFFFFFFFF AND PUSH20 0xFFFFFFFFFFFFFFFFFFFFFFFFFFFFFFFFFFFFFFFF AND DUP2 MSTORE PUSH1 0x20 ADD SWAP1 DUP2 MSTORE PUSH1 0x20 ADD PUSH0 KECCAK256 PUSH0 DUP4 DUP2 MSTORE PUSH1 0x20 ADD SWAP1 DUP2 MSTORE PUSH1 0x20 ADD PUSH0 KECCAK256 PUSH0 SWAP1 SSTORE POP POP POP POP JUMP JUMPDEST PUSH0 PUSH1 0x1 PUSH1 0x8 DUP1 SLOAD SWAP1 POP PUSH2 0x2DDC SWAP2 SWAP1 PUSH2 0x3F6C JUMP JUMPDEST SWAP1 POP PUSH0 PUSH1 0x9 PUSH0 DUP5 DUP2 MSTORE PUSH1 0x20 ADD SWAP1 DUP2 MSTORE PUSH1 0x20 ADD PUSH0 KECCAK256 SLOAD SWAP1 POP PUSH0 PUSH1 0x8 DUP4 DUP2 SLOAD DUP2 LT PUSH2 0x2E08 JUMPI PUSH2 0x2E07 PUSH2 0x3F12 JUMP JUMPDEST JUMPDEST SWAP1 PUSH0 MSTORE PUSH1 0x20 PUSH0 KECCAK256 ADD SLOAD SWAP1 POP DUP1 PUSH1 0x8 DUP4 DUP2 SLOAD DUP2 LT PUSH2 0x2E28 JUMPI PUSH2 0x2E27 PUSH2 0x3F12 JUMP JUMPDEST JUMPDEST SWAP1 PUSH0 MSTORE PUSH1 0x20 PUSH0 KECCAK256 ADD DUP2 SWAP1 SSTORE POP DUP2 PUSH1 0x9 PUSH0 DUP4 DUP2 MSTORE PUSH1 0x20 ADD SWAP1 DUP2 MSTORE PUSH1 0x20 ADD PUSH0 KECCAK256 DUP2 SWAP1 SSTORE POP PUSH1 0x9 PUSH0 DUP6 DUP2 MSTORE PUSH1 0x20 ADD SWAP1 DUP2 MSTORE PUSH1 0x20 ADD PUSH0 KECCAK256 PUSH0 SWAP1 SSTORE PUSH1 0x8 DUP1 SLOAD DUP1 PUSH2 0x2E70 JUMPI PUSH2 0x2E6F PUSH2 0x4888 JUMP JUMPDEST JUMPDEST PUSH1 0x1 SWAP1 SUB DUP2 DUP2 SWAP1 PUSH0 MSTORE PUSH1 0x20 PUSH0 KECCAK256 ADD PUSH0 SWAP1 SSTORE SWAP1 SSTORE POP POP POP POP JUMP JUMPDEST PUSH0 PUSH1 0x1 PUSH2 0x2E95 DUP5 PUSH2 0xEE0 JUMP JUMPDEST PUSH2 0x2E9F SWAP2 SWAP1 PUSH2 0x3F6C JUMP JUMPDEST SWAP1 POP DUP2 PUSH1 0x6 PUSH0 DUP6 PUSH20 0xFFFFFFFFFFFFFFFFFFFFFFFFFFFFFFFFFFFFFFFF AND PUSH20 0xFFFFFFFFFFFFFFFFFFFFFFFFFFFFFFFFFFFFFFFF AND DUP2 MSTORE PUSH1 0x20 ADD SWAP1 DUP2 MSTORE PUSH1 0x20 ADD PUSH0 KECCAK256 PUSH0 DUP4 DUP2 MSTORE PUSH1 0x20 ADD SWAP1 DUP2 MSTORE PUSH1 0x20 ADD PUSH0 KECCAK256 DUP2 SWAP1 SSTORE POP DUP1 PUSH1 0x7 PUSH0 DUP5 DUP2 MSTORE PUSH1 0x20 ADD SWAP1 DUP2 MSTORE PUSH1 0x20 ADD PUSH0 KECCAK256 DUP2 SWAP1 SSTORE POP POP POP POP JUMP JUMPDEST PUSH0 PUSH20 0xFFFFFFFFFFFFFFFFFFFFFFFFFFFFFFFFFFFFFFFF AND DUP3 PUSH20 0xFFFFFFFFFFFFFFFFFFFFFFFFFFFFFFFFFFFFFFFF AND SUB PUSH2 0x2F7D JUMPI PUSH0 PUSH1 0x40 MLOAD PUSH32 0x64A0AE9200000000000000000000000000000000000000000000000000000000 DUP2 MSTORE PUSH1 0x4 ADD PUSH2 0x2F74 SWAP2 SWAP1 PUSH2 0x36AC JUMP JUMPDEST PUSH1 0x40 MLOAD DUP1 SWAP2 SUB SWAP1 REVERT JUMPDEST PUSH0 PUSH2 0x2F89 DUP4 DUP4 PUSH0 PUSH2 0x1B15 JUMP JUMPDEST SWAP1 POP PUSH0 PUSH20 0xFFFFFFFFFFFFFFFFFFFFFFFFFFFFFFFFFFFFFFFF AND DUP2 PUSH20 0xFFFFFFFFFFFFFFFFFFFFFFFFFFFFFFFFFFFFFFFF AND EQ PUSH2 0x2FFB JUMPI PUSH0 PUSH1 0x40 MLOAD PUSH32 0x73C6AC6E00000000000000000000000000000000000000000000000000000000 DUP2 MSTORE PUSH1 0x4 ADD PUSH2 0x2FF2 SWAP2 SWAP1 PUSH2 0x36AC JUMP JUMPDEST PUSH1 0x40 MLOAD DUP1 SWAP2 SUB SWAP1 REVERT JUMPDEST POP POP POP JUMP JUMPDEST PUSH0 PUSH11 0x636F6E736F6C652E6C6F67 SWAP1 POP PUSH0 DUP1 DUP4 MLOAD PUSH1 0x20 DUP6 ADD DUP5 GAS STATICCALL POP POP POP JUMP JUMPDEST PUSH2 0x347C DUP2 SWAP1 POP SWAP2 SWAP1 POP JUMP JUMPDEST PUSH1 0x60 PUSH0 PUSH1 0x1 PUSH2 0x3038 DUP5 PUSH2 0x3220 JUMP JUMPDEST ADD SWAP1 POP PUSH0 DUP2 PUSH8 0xFFFFFFFFFFFFFFFF DUP2 GT ISZERO PUSH2 0x3056 JUMPI PUSH2 0x3055 PUSH2 0x3759 JUMP JUMPDEST JUMPDEST PUSH1 0x40 MLOAD SWAP1 DUP1 DUP3 MSTORE DUP1 PUSH1 0x1F ADD PUSH1 0x1F NOT AND PUSH1 0x20 ADD DUP3 ADD PUSH1 0x40 MSTORE DUP1 ISZERO PUSH2 0x3088 JUMPI DUP2 PUSH1 0x20 ADD PUSH1 0x1 DUP3 MUL DUP1 CALLDATASIZE DUP4 CALLDATACOPY DUP1 DUP3 ADD SWAP2 POP POP SWAP1 POP JUMPDEST POP SWAP1 POP PUSH0 DUP3 PUSH1 0x20 ADD DUP3 ADD SWAP1 POP JUMPDEST PUSH1 0x1 ISZERO PUSH2 0x30E9 JUMPI DUP1 DUP1 PUSH1 0x1 SWAP1 SUB SWAP2 POP POP PUSH32 0x3031323334353637383961626364656600000000000000000000000000000000 PUSH1 0xA DUP7 MOD BYTE DUP2 MSTORE8 PUSH1 0xA DUP6 DUP2 PUSH2 0x30DE JUMPI PUSH2 0x30DD PUSH2 0x4130 JUMP JUMPDEST JUMPDEST DIV SWAP5 POP PUSH0 DUP6 SUB PUSH2 0x3095 JUMPI JUMPDEST DUP2 SWAP4 POP POP POP POP SWAP2 SWAP1 POP JUMP JUMPDEST PUSH0 PUSH32 0x1FFC9A700000000000000000000000000000000000000000000000000000000 PUSH28 0xFFFFFFFFFFFFFFFFFFFFFFFFFFFFFFFFFFFFFFFFFFFFFFFFFFFFFFFF NOT AND DUP3 PUSH28 0xFFFFFFFFFFFFFFFFFFFFFFFFFFFFFFFFFFFFFFFFFFFFFFFFFFFFFFFF NOT AND EQ SWAP1 POP SWAP2 SWAP1 POP JUMP JUMPDEST PUSH2 0x3168 DUP4 DUP4 DUP4 PUSH2 0x3371 JUMP JUMPDEST PUSH2 0x321B JUMPI PUSH0 PUSH20 0xFFFFFFFFFFFFFFFFFFFFFFFFFFFFFFFFFFFFFFFF AND DUP4 PUSH20 0xFFFFFFFFFFFFFFFFFFFFFFFFFFFFFFFFFFFFFFFF AND SUB PUSH2 0x31DC JUMPI DUP1 PUSH1 0x40 MLOAD PUSH32 0x7E27328900000000000000000000000000000000000000000000000000000000 DUP2 MSTORE PUSH1 0x4 ADD PUSH2 0x31D3 SWAP2 SWAP1 PUSH2 0x373C JUMP JUMPDEST PUSH1 0x40 MLOAD DUP1 SWAP2 SUB SWAP1 REVERT JUMPDEST DUP2 DUP2 PUSH1 0x40 MLOAD PUSH32 0x177E802F00000000000000000000000000000000000000000000000000000000 DUP2 MSTORE PUSH1 0x4 ADD PUSH2 0x3212 SWAP3 SWAP2 SWAP1 PUSH2 0x3EEB JUMP JUMPDEST PUSH1 0x40 MLOAD DUP1 SWAP2 SUB SWAP1 REVERT JUMPDEST POP POP POP JUMP JUMPDEST PUSH0 DUP1 PUSH0 SWAP1 POP PUSH27 0x184F03E93FF9F4DAA797ED6E38ED64BF6A1F010000000000000000 DUP4 LT PUSH2 0x327C JUMPI PUSH27 0x184F03E93FF9F4DAA797ED6E38ED64BF6A1F010000000000000000 DUP4 DUP2 PUSH2 0x3272 JUMPI PUSH2 0x3271 PUSH2 0x4130 JUMP JUMPDEST JUMPDEST DIV SWAP3 POP PUSH1 0x40 DUP2 ADD SWAP1 POP JUMPDEST PUSH14 0x4EE2D6D415B85ACEF8100000000 DUP4 LT PUSH2 0x32B9 JUMPI PUSH14 0x4EE2D6D415B85ACEF8100000000 DUP4 DUP2 PUSH2 0x32AF JUMPI PUSH2 0x32AE PUSH2 0x4130 JUMP JUMPDEST JUMPDEST DIV SWAP3 POP PUSH1 0x20 DUP2 ADD SWAP1 POP JUMPDEST PUSH7 0x2386F26FC10000 DUP4 LT PUSH2 0x32E8 JUMPI PUSH7 0x2386F26FC10000 DUP4 DUP2 PUSH2 0x32DE JUMPI PUSH2 0x32DD PUSH2 0x4130 JUMP JUMPDEST JUMPDEST DIV SWAP3 POP PUSH1 0x10 DUP2 ADD SWAP1 POP JUMPDEST PUSH4 0x5F5E100 DUP4 LT PUSH2 0x3311 JUMPI PUSH4 0x5F5E100 DUP4 DUP2 PUSH2 0x3307 JUMPI PUSH2 0x3306 PUSH2 0x4130 JUMP JUMPDEST JUMPDEST DIV SWAP3 POP PUSH1 0x8 DUP2 ADD SWAP1 POP JUMPDEST PUSH2 0x2710 DUP4 LT PUSH2 0x3336 JUMPI PUSH2 0x2710 DUP4 DUP2 PUSH2 0x332C JUMPI PUSH2 0x332B PUSH2 0x4130 JUMP JUMPDEST JUMPDEST DIV SWAP3 POP PUSH1 0x4 DUP2 ADD SWAP1 POP JUMPDEST PUSH1 0x64 DUP4 LT PUSH2 0x3359 JUMPI PUSH1 0x64 DUP4 DUP2 PUSH2 0x334F JUMPI PUSH2 0x334E PUSH2 0x4130 JUMP JUMPDEST JUMPDEST DIV SWAP3 POP PUSH1 0x2 DUP2 ADD SWAP1 POP JUMPDEST PUSH1 0xA DUP4 LT PUSH2 0x3368 JUMPI PUSH1 0x1 DUP2 ADD SWAP1 POP JUMPDEST DUP1 SWAP2 POP POP SWAP2 SWAP1 POP JUMP JUMPDEST PUSH0 DUP1 PUSH20 0xFFFFFFFFFFFFFFFFFFFFFFFFFFFFFFFFFFFFFFFF AND DUP4 PUSH20 0xFFFFFFFFFFFFFFFFFFFFFFFFFFFFFFFFFFFFFFFF AND EQ ISZERO DUP1 ISZERO PUSH2 0x3428 JUMPI POP DUP3 PUSH20 0xFFFFFFFFFFFFFFFFFFFFFFFFFFFFFFFFFFFFFFFF AND DUP5 PUSH20 0xFFFFFFFFFFFFFFFFFFFFFFFFFFFFFFFFFFFFFFFF AND EQ DUP1 PUSH2 0x33E9 JUMPI POP PUSH2 0x33E8 DUP5 DUP5 PUSH2 0x15AE JUMP JUMPDEST JUMPDEST DUP1 PUSH2 0x3427 JUMPI POP DUP3 PUSH20 0xFFFFFFFFFFFFFFFFFFFFFFFFFFFFFFFFFFFFFFFF AND PUSH2 0x340F DUP4 PUSH2 0x1769 JUMP JUMPDEST PUSH20 0xFFFFFFFFFFFFFFFFFFFFFFFFFFFFFFFFFFFFFFFF AND EQ JUMPDEST JUMPDEST SWAP1 POP SWAP4 SWAP3 POP POP POP JUMP JUMPDEST DUP3 DUP1 SLOAD DUP3 DUP3 SSTORE SWAP1 PUSH0 MSTORE PUSH1 0x20 PUSH0 KECCAK256 SWAP1 DUP2 ADD SWAP3 DUP3 ISZERO PUSH2 0x346B JUMPI SWAP2 PUSH1 0x20 MUL DUP3 ADD JUMPDEST DUP3 DUP2 GT ISZERO PUSH2 0x346A JUMPI DUP3 MLOAD DUP3 SSTORE SWAP2 PUSH1 0x20 ADD SWAP2 SWAP1 PUSH1 0x1 ADD SWAP1 PUSH2 0x344F JUMP JUMPDEST JUMPDEST POP SWAP1 POP PUSH2 0x3478 SWAP2 SWAP1 PUSH2 0x3486 JUMP JUMPDEST POP SWAP1 JUMP JUMPDEST PUSH2 0x3484 PUSH2 0x48B5 JUMP JUMPDEST JUMP JUMPDEST JUMPDEST DUP1 DUP3 GT ISZERO PUSH2 0x349D JUMPI PUSH0 DUP2 PUSH0 SWAP1 SSTORE POP PUSH1 0x1 ADD PUSH2 0x3487 JUMP JUMPDEST POP SWAP1 JUMP JUMPDEST PUSH0 PUSH1 0x40 MLOAD SWAP1 POP SWAP1 JUMP JUMPDEST PUSH0 DUP1 REVERT JUMPDEST PUSH0 DUP1 REVERT JUMPDEST PUSH0 PUSH32 0xFFFFFFFF00000000000000000000000000000000000000000000000000000000 DUP3 AND SWAP1 POP SWAP2 SWAP1 POP JUMP JUMPDEST PUSH2 0x34E6 DUP2 PUSH2 0x34B2 JUMP JUMPDEST DUP2 EQ PUSH2 0x34F0 JUMPI PUSH0 DUP1 REVERT JUMPDEST POP JUMP JUMPDEST PUSH0 DUP2 CALLDATALOAD SWAP1 POP PUSH2 0x3501 DUP2 PUSH2 0x34DD JUMP JUMPDEST SWAP3 SWAP2 POP POP JUMP JUMPDEST PUSH0 PUSH1 0x20 DUP3 DUP5 SUB SLT ISZERO PUSH2 0x351C JUMPI PUSH2 0x351B PUSH2 0x34AA JUMP JUMPDEST JUMPDEST PUSH0 PUSH2 0x3529 DUP5 DUP3 DUP6 ADD PUSH2 0x34F3 JUMP JUMPDEST SWAP2 POP POP SWAP3 SWAP2 POP POP JUMP JUMPDEST PUSH0 DUP2 ISZERO ISZERO SWAP1 POP SWAP2 SWAP1 POP JUMP JUMPDEST PUSH2 0x3546 DUP2 PUSH2 0x3532 JUMP JUMPDEST DUP3 MSTORE POP POP JUMP JUMPDEST PUSH0 PUSH1 0x20 DUP3 ADD SWAP1 POP PUSH2 0x355F PUSH0 DUP4 ADD DUP5 PUSH2 0x353D JUMP JUMPDEST SWAP3 SWAP2 POP POP JUMP JUMPDEST PUSH0 DUP2 MLOAD SWAP1 POP SWAP2 SWAP1 POP JUMP JUMPDEST PUSH0 DUP3 DUP3 MSTORE PUSH1 0x20 DUP3 ADD SWAP1 POP SWAP3 SWAP2 POP POP JUMP JUMPDEST PUSH0 JUMPDEST DUP4 DUP2 LT ISZERO PUSH2 0x359C JUMPI DUP1 DUP3 ADD MLOAD DUP2 DUP5 ADD MSTORE PUSH1 0x20 DUP2 ADD SWAP1 POP PUSH2 0x3581 JUMP JUMPDEST PUSH0 DUP5 DUP5 ADD MSTORE POP POP POP POP JUMP JUMPDEST PUSH0 PUSH1 0x1F NOT PUSH1 0x1F DUP4 ADD AND SWAP1 POP SWAP2 SWAP1 POP JUMP JUMPDEST PUSH0 PUSH2 0x35C1 DUP3 PUSH2 0x3565 JUMP JUMPDEST PUSH2 0x35CB DUP2 DUP6 PUSH2 0x356F JUMP JUMPDEST SWAP4 POP PUSH2 0x35DB DUP2 DUP6 PUSH1 0x20 DUP7 ADD PUSH2 0x357F JUMP JUMPDEST PUSH2 0x35E4 DUP2 PUSH2 0x35A7 JUMP JUMPDEST DUP5 ADD SWAP2 POP POP SWAP3 SWAP2 POP POP JUMP JUMPDEST PUSH0 PUSH1 0x20 DUP3 ADD SWAP1 POP DUP2 DUP2 SUB PUSH0 DUP4 ADD MSTORE PUSH2 0x3607 DUP2 DUP5 PUSH2 0x35B7 JUMP JUMPDEST SWAP1 POP SWAP3 SWAP2 POP POP JUMP JUMPDEST PUSH0 DUP2 SWAP1 POP SWAP2 SWAP1 POP JUMP JUMPDEST PUSH2 0x3621 DUP2 PUSH2 0x360F JUMP JUMPDEST DUP2 EQ PUSH2 0x362B JUMPI PUSH0 DUP1 REVERT JUMPDEST POP JUMP JUMPDEST PUSH0 DUP2 CALLDATALOAD SWAP1 POP PUSH2 0x363C DUP2 PUSH2 0x3618 JUMP JUMPDEST SWAP3 SWAP2 POP POP JUMP JUMPDEST PUSH0 PUSH1 0x20 DUP3 DUP5 SUB SLT ISZERO PUSH2 0x3657 JUMPI PUSH2 0x3656 PUSH2 0x34AA JUMP JUMPDEST JUMPDEST PUSH0 PUSH2 0x3664 DUP5 DUP3 DUP6 ADD PUSH2 0x362E JUMP JUMPDEST SWAP2 POP POP SWAP3 SWAP2 POP POP JUMP JUMPDEST PUSH0 PUSH20 0xFFFFFFFFFFFFFFFFFFFFFFFFFFFFFFFFFFFFFFFF DUP3 AND SWAP1 POP SWAP2 SWAP1 POP JUMP JUMPDEST PUSH0 PUSH2 0x3696 DUP3 PUSH2 0x366D JUMP JUMPDEST SWAP1 POP SWAP2 SWAP1 POP JUMP JUMPDEST PUSH2 0x36A6 DUP2 PUSH2 0x368C JUMP JUMPDEST DUP3 MSTORE POP POP JUMP JUMPDEST PUSH0 PUSH1 0x20 DUP3 ADD SWAP1 POP PUSH2 0x36BF PUSH0 DUP4 ADD DUP5 PUSH2 0x369D JUMP JUMPDEST SWAP3 SWAP2 POP POP JUMP JUMPDEST PUSH2 0x36CE DUP2 PUSH2 0x368C JUMP JUMPDEST DUP2 EQ PUSH2 0x36D8 JUMPI PUSH0 DUP1 REVERT JUMPDEST POP JUMP JUMPDEST PUSH0 DUP2 CALLDATALOAD SWAP1 POP PUSH2 0x36E9 DUP2 PUSH2 0x36C5 JUMP JUMPDEST SWAP3 SWAP2 POP POP JUMP JUMPDEST PUSH0 DUP1 PUSH1 0x40 DUP4 DUP6 SUB SLT ISZERO PUSH2 0x3705 JUMPI PUSH2 0x3704 PUSH2 0x34AA JUMP JUMPDEST JUMPDEST PUSH0 PUSH2 0x3712 DUP6 DUP3 DUP7 ADD PUSH2 0x36DB JUMP JUMPDEST SWAP3 POP POP PUSH1 0x20 PUSH2 0x3723 DUP6 DUP3 DUP7 ADD PUSH2 0x362E JUMP JUMPDEST SWAP2 POP POP SWAP3 POP SWAP3 SWAP1 POP JUMP JUMPDEST PUSH2 0x3736 DUP2 PUSH2 0x360F JUMP JUMPDEST DUP3 MSTORE POP POP JUMP JUMPDEST PUSH0 PUSH1 0x20 DUP3 ADD SWAP1 POP PUSH2 0x374F PUSH0 DUP4 ADD DUP5 PUSH2 0x372D JUMP JUMPDEST SWAP3 SWAP2 POP POP JUMP JUMPDEST PUSH0 DUP1 REVERT JUMPDEST PUSH32 0x4E487B7100000000000000000000000000000000000000000000000000000000 PUSH0 MSTORE PUSH1 0x41 PUSH1 0x4 MSTORE PUSH1 0x24 PUSH0 REVERT JUMPDEST PUSH2 0x378F DUP3 PUSH2 0x35A7 JUMP JUMPDEST DUP2 ADD DUP2 DUP2 LT PUSH8 0xFFFFFFFFFFFFFFFF DUP3 GT OR ISZERO PUSH2 0x37AE JUMPI PUSH2 0x37AD PUSH2 0x3759 JUMP JUMPDEST JUMPDEST DUP1 PUSH1 0x40 MSTORE POP POP POP JUMP JUMPDEST PUSH0 PUSH2 0x37C0 PUSH2 0x34A1 JUMP JUMPDEST SWAP1 POP PUSH2 0x37CC DUP3 DUP3 PUSH2 0x3786 JUMP JUMPDEST SWAP2 SWAP1 POP JUMP JUMPDEST PUSH0 PUSH8 0xFFFFFFFFFFFFFFFF DUP3 GT ISZERO PUSH2 0x37EB JUMPI PUSH2 0x37EA PUSH2 0x3759 JUMP JUMPDEST JUMPDEST PUSH1 0x20 DUP3 MUL SWAP1 POP PUSH1 0x20 DUP2 ADD SWAP1 POP SWAP2 SWAP1 POP JUMP JUMPDEST PUSH0 DUP1 REVERT JUMPDEST PUSH0 PUSH2 0x3812 PUSH2 0x380D DUP5 PUSH2 0x37D1 JUMP JUMPDEST PUSH2 0x37B7 JUMP JUMPDEST SWAP1 POP DUP1 DUP4 DUP3 MSTORE PUSH1 0x20 DUP3 ADD SWAP1 POP PUSH1 0x20 DUP5 MUL DUP4 ADD DUP6 DUP2 GT ISZERO PUSH2 0x3835 JUMPI PUSH2 0x3834 PUSH2 0x37FC JUMP JUMPDEST JUMPDEST DUP4 JUMPDEST DUP2 DUP2 LT ISZERO PUSH2 0x385E JUMPI DUP1 PUSH2 0x384A DUP9 DUP3 PUSH2 0x362E JUMP JUMPDEST DUP5 MSTORE PUSH1 0x20 DUP5 ADD SWAP4 POP POP PUSH1 0x20 DUP2 ADD SWAP1 POP PUSH2 0x3837 JUMP JUMPDEST POP POP POP SWAP4 SWAP3 POP POP POP JUMP JUMPDEST PUSH0 DUP3 PUSH1 0x1F DUP4 ADD SLT PUSH2 0x387C JUMPI PUSH2 0x387B PUSH2 0x3755 JUMP JUMPDEST JUMPDEST DUP2 CALLDATALOAD PUSH2 0x388C DUP5 DUP3 PUSH1 0x20 DUP7 ADD PUSH2 0x3800 JUMP JUMPDEST SWAP2 POP POP SWAP3 SWAP2 POP POP JUMP JUMPDEST PUSH0 DUP1 PUSH1 0x40 DUP4 DUP6 SUB SLT ISZERO PUSH2 0x38AB JUMPI PUSH2 0x38AA PUSH2 0x34AA JUMP JUMPDEST JUMPDEST PUSH0 PUSH2 0x38B8 DUP6 DUP3 DUP7 ADD PUSH2 0x362E JUMP JUMPDEST SWAP3 POP POP PUSH1 0x20 DUP4 ADD CALLDATALOAD PUSH8 0xFFFFFFFFFFFFFFFF DUP2 GT ISZERO PUSH2 0x38D9 JUMPI PUSH2 0x38D8 PUSH2 0x34AE JUMP JUMPDEST JUMPDEST PUSH2 0x38E5 DUP6 DUP3 DUP7 ADD PUSH2 0x3868 JUMP JUMPDEST SWAP2 POP POP SWAP3 POP SWAP3 SWAP1 POP JUMP JUMPDEST PUSH0 DUP1 PUSH0 PUSH1 0x60 DUP5 DUP7 SUB SLT ISZERO PUSH2 0x3906 JUMPI PUSH2 0x3905 PUSH2 0x34AA JUMP JUMPDEST JUMPDEST PUSH0 PUSH2 0x3913 DUP7 DUP3 DUP8 ADD PUSH2 0x36DB JUMP JUMPDEST SWAP4 POP POP PUSH1 0x20 PUSH2 0x3924 DUP7 DUP3 DUP8 ADD PUSH2 0x36DB JUMP JUMPDEST SWAP3 POP POP PUSH1 0x40 PUSH2 0x3935 DUP7 DUP3 DUP8 ADD PUSH2 0x362E JUMP JUMPDEST SWAP2 POP POP SWAP3 POP SWAP3 POP SWAP3 JUMP JUMPDEST PUSH0 DUP2 SWAP1 POP SWAP2 SWAP1 POP JUMP JUMPDEST PUSH0 PUSH2 0x3962 PUSH2 0x395D PUSH2 0x3958 DUP5 PUSH2 0x366D JUMP JUMPDEST PUSH2 0x393F JUMP JUMPDEST PUSH2 0x366D JUMP JUMPDEST SWAP1 POP SWAP2 SWAP1 POP JUMP JUMPDEST PUSH0 PUSH2 0x3973 DUP3 PUSH2 0x3948 JUMP JUMPDEST SWAP1 POP SWAP2 SWAP1 POP JUMP JUMPDEST PUSH0 PUSH2 0x3984 DUP3 PUSH2 0x3969 JUMP JUMPDEST SWAP1 POP SWAP2 SWAP1 POP JUMP JUMPDEST PUSH2 0x3994 DUP2 PUSH2 0x397A JUMP JUMPDEST DUP3 MSTORE POP POP JUMP JUMPDEST PUSH0 PUSH1 0x20 DUP3 ADD SWAP1 POP PUSH2 0x39AD PUSH0 DUP4 ADD DUP5 PUSH2 0x398B JUMP JUMPDEST SWAP3 SWAP2 POP POP JUMP JUMPDEST PUSH0 PUSH1 0x20 DUP3 DUP5 SUB SLT ISZERO PUSH2 0x39C8 JUMPI PUSH2 0x39C7 PUSH2 0x34AA JUMP JUMPDEST JUMPDEST PUSH0 PUSH2 0x39D5 DUP5 DUP3 DUP6 ADD PUSH2 0x36DB JUMP JUMPDEST SWAP2 POP POP SWAP3 SWAP2 POP POP JUMP JUMPDEST PUSH0 DUP1 REVERT JUMPDEST PUSH0 DUP1 DUP4 PUSH1 0x1F DUP5 ADD SLT PUSH2 0x39F7 JUMPI PUSH2 0x39F6 PUSH2 0x3755 JUMP JUMPDEST JUMPDEST DUP3 CALLDATALOAD SWAP1 POP PUSH8 0xFFFFFFFFFFFFFFFF DUP2 GT ISZERO PUSH2 0x3A14 JUMPI PUSH2 0x3A13 PUSH2 0x39DE JUMP JUMPDEST JUMPDEST PUSH1 0x20 DUP4 ADD SWAP2 POP DUP4 PUSH1 0x1 DUP3 MUL DUP4 ADD GT ISZERO PUSH2 0x3A30 JUMPI PUSH2 0x3A2F PUSH2 0x37FC JUMP JUMPDEST JUMPDEST SWAP3 POP SWAP3 SWAP1 POP JUMP JUMPDEST PUSH0 DUP1 PUSH1 0x20 DUP4 DUP6 SUB SLT ISZERO PUSH2 0x3A4D JUMPI PUSH2 0x3A4C PUSH2 0x34AA JUMP JUMPDEST JUMPDEST PUSH0 DUP4 ADD CALLDATALOAD PUSH8 0xFFFFFFFFFFFFFFFF DUP2 GT ISZERO PUSH2 0x3A6A JUMPI PUSH2 0x3A69 PUSH2 0x34AE JUMP JUMPDEST JUMPDEST PUSH2 0x3A76 DUP6 DUP3 DUP7 ADD PUSH2 0x39E2 JUMP JUMPDEST SWAP3 POP SWAP3 POP POP SWAP3 POP SWAP3 SWAP1 POP JUMP JUMPDEST PUSH0 PUSH2 0x3A8C DUP3 PUSH2 0x3969 JUMP JUMPDEST SWAP1 POP SWAP2 SWAP1 POP JUMP JUMPDEST PUSH2 0x3A9C DUP2 PUSH2 0x3A82 JUMP JUMPDEST DUP3 MSTORE POP POP JUMP JUMPDEST PUSH0 PUSH1 0x20 DUP3 ADD SWAP1 POP PUSH2 0x3AB5 PUSH0 DUP4 ADD DUP5 PUSH2 0x3A93 JUMP JUMPDEST SWAP3 SWAP2 POP POP JUMP JUMPDEST PUSH0 DUP2 MLOAD SWAP1 POP SWAP2 SWAP1 POP JUMP JUMPDEST PUSH0 DUP3 DUP3 MSTORE PUSH1 0x20 DUP3 ADD SWAP1 POP SWAP3 SWAP2 POP POP JUMP JUMPDEST PUSH0 PUSH2 0x3ADF DUP3 PUSH2 0x3ABB JUMP JUMPDEST PUSH2 0x3AE9 DUP2 DUP6 PUSH2 0x3AC5 JUMP JUMPDEST SWAP4 POP PUSH2 0x3AF9 DUP2 DUP6 PUSH1 0x20 DUP7 ADD PUSH2 0x357F JUMP JUMPDEST PUSH2 0x3B02 DUP2 PUSH2 0x35A7 JUMP JUMPDEST DUP5 ADD SWAP2 POP POP SWAP3 SWAP2 POP POP JUMP JUMPDEST PUSH0 PUSH1 0x40 DUP3 ADD SWAP1 POP PUSH2 0x3B20 PUSH0 DUP4 ADD DUP6 PUSH2 0x353D JUMP JUMPDEST DUP2 DUP2 SUB PUSH1 0x20 DUP4 ADD MSTORE PUSH2 0x3B32 DUP2 DUP5 PUSH2 0x3AD5 JUMP JUMPDEST SWAP1 POP SWAP4 SWAP3 POP POP POP JUMP JUMPDEST PUSH0 DUP2 SWAP1 POP SWAP2 SWAP1 POP JUMP JUMPDEST PUSH2 0x3B4D DUP2 PUSH2 0x3B3B JUMP JUMPDEST DUP3 MSTORE POP POP JUMP JUMPDEST PUSH0 PUSH1 0x20 DUP3 ADD SWAP1 POP PUSH2 0x3B66 PUSH0 DUP4 ADD DUP5 PUSH2 0x3B44 JUMP JUMPDEST SWAP3 SWAP2 POP POP JUMP JUMPDEST PUSH2 0x3B75 DUP2 PUSH2 0x3532 JUMP JUMPDEST DUP2 EQ PUSH2 0x3B7F JUMPI PUSH0 DUP1 REVERT JUMPDEST POP JUMP JUMPDEST PUSH0 DUP2 CALLDATALOAD SWAP1 POP PUSH2 0x3B90 DUP2 PUSH2 0x3B6C JUMP JUMPDEST SWAP3 SWAP2 POP POP JUMP JUMPDEST PUSH0 DUP1 PUSH1 0x40 DUP4 DUP6 SUB SLT ISZERO PUSH2 0x3BAC JUMPI PUSH2 0x3BAB PUSH2 0x34AA JUMP JUMPDEST JUMPDEST PUSH0 PUSH2 0x3BB9 DUP6 DUP3 DUP7 ADD PUSH2 0x36DB JUMP JUMPDEST SWAP3 POP POP PUSH1 0x20 PUSH2 0x3BCA DUP6 DUP3 DUP7 ADD PUSH2 0x3B82 JUMP JUMPDEST SWAP2 POP POP SWAP3 POP SWAP3 SWAP1 POP JUMP JUMPDEST PUSH0 PUSH4 0xFFFFFFFF DUP3 AND SWAP1 POP SWAP2 SWAP1 POP JUMP JUMPDEST PUSH2 0x3BEC DUP2 PUSH2 0x3BD4 JUMP JUMPDEST DUP2 EQ PUSH2 0x3BF6 JUMPI PUSH0 DUP1 REVERT JUMPDEST POP JUMP JUMPDEST PUSH0 DUP2 CALLDATALOAD SWAP1 POP PUSH2 0x3C07 DUP2 PUSH2 0x3BE3 JUMP JUMPDEST SWAP3 SWAP2 POP POP JUMP JUMPDEST PUSH0 PUSH1 0x20 DUP3 DUP5 SUB SLT ISZERO PUSH2 0x3C22 JUMPI PUSH2 0x3C21 PUSH2 0x34AA JUMP JUMPDEST JUMPDEST PUSH0 PUSH2 0x3C2F DUP5 DUP3 DUP6 ADD PUSH2 0x3BF9 JUMP JUMPDEST SWAP2 POP POP SWAP3 SWAP2 POP POP JUMP JUMPDEST PUSH0 DUP1 REVERT JUMPDEST PUSH0 PUSH8 0xFFFFFFFFFFFFFFFF DUP3 GT ISZERO PUSH2 0x3C56 JUMPI PUSH2 0x3C55 PUSH2 0x3759 JUMP JUMPDEST JUMPDEST PUSH2 0x3C5F DUP3 PUSH2 0x35A7 JUMP JUMPDEST SWAP1 POP PUSH1 0x20 DUP2 ADD SWAP1 POP SWAP2 SWAP1 POP JUMP JUMPDEST DUP3 DUP2 DUP4 CALLDATACOPY PUSH0 DUP4 DUP4 ADD MSTORE POP POP POP JUMP JUMPDEST PUSH0 PUSH2 0x3C8C PUSH2 0x3C87 DUP5 PUSH2 0x3C3C JUMP JUMPDEST PUSH2 0x37B7 JUMP JUMPDEST SWAP1 POP DUP3 DUP2 MSTORE PUSH1 0x20 DUP2 ADD DUP5 DUP5 DUP5 ADD GT ISZERO PUSH2 0x3CA8 JUMPI PUSH2 0x3CA7 PUSH2 0x3C38 JUMP JUMPDEST JUMPDEST PUSH2 0x3CB3 DUP5 DUP3 DUP6 PUSH2 0x3C6C JUMP JUMPDEST POP SWAP4 SWAP3 POP POP POP JUMP JUMPDEST PUSH0 DUP3 PUSH1 0x1F DUP4 ADD SLT PUSH2 0x3CCF JUMPI PUSH2 0x3CCE PUSH2 0x3755 JUMP JUMPDEST JUMPDEST DUP2 CALLDATALOAD PUSH2 0x3CDF DUP5 DUP3 PUSH1 0x20 DUP7 ADD PUSH2 0x3C7A JUMP JUMPDEST SWAP2 POP POP SWAP3 SWAP2 POP POP JUMP JUMPDEST PUSH0 DUP1 PUSH0 DUP1 PUSH1 0x80 DUP6 DUP8 SUB SLT ISZERO PUSH2 0x3D00 JUMPI PUSH2 0x3CFF PUSH2 0x34AA JUMP JUMPDEST JUMPDEST PUSH0 PUSH2 0x3D0D DUP8 DUP3 DUP9 ADD PUSH2 0x36DB JUMP JUMPDEST SWAP5 POP POP PUSH1 0x20 PUSH2 0x3D1E DUP8 DUP3 DUP9 ADD PUSH2 0x36DB JUMP JUMPDEST SWAP4 POP POP PUSH1 0x40 PUSH2 0x3D2F DUP8 DUP3 DUP9 ADD PUSH2 0x362E JUMP JUMPDEST SWAP3 POP POP PUSH1 0x60 DUP6 ADD CALLDATALOAD PUSH8 0xFFFFFFFFFFFFFFFF DUP2 GT ISZERO PUSH2 0x3D50 JUMPI PUSH2 0x3D4F PUSH2 0x34AE JUMP JUMPDEST JUMPDEST PUSH2 0x3D5C DUP8 DUP3 DUP9 ADD PUSH2 0x3CBB JUMP JUMPDEST SWAP2 POP POP SWAP3 SWAP6 SWAP2 SWAP5 POP SWAP3 POP JUMP JUMPDEST PUSH0 DUP1 PUSH1 0x40 DUP4 DUP6 SUB SLT ISZERO PUSH2 0x3D7E JUMPI PUSH2 0x3D7D PUSH2 0x34AA JUMP JUMPDEST JUMPDEST PUSH0 PUSH2 0x3D8B DUP6 DUP3 DUP7 ADD PUSH2 0x36DB JUMP JUMPDEST SWAP3 POP POP PUSH1 0x20 PUSH2 0x3D9C DUP6 DUP3 DUP7 ADD PUSH2 0x36DB JUMP JUMPDEST SWAP2 POP POP SWAP3 POP SWAP3 SWAP1 POP JUMP JUMPDEST PUSH32 0x4E487B7100000000000000000000000000000000000000000000000000000000 PUSH0 MSTORE PUSH1 0x21 PUSH1 0x4 MSTORE PUSH1 0x24 PUSH0 REVERT JUMPDEST PUSH1 0x2 DUP2 LT PUSH2 0x3DE4 JUMPI PUSH2 0x3DE3 PUSH2 0x3DA6 JUMP JUMPDEST JUMPDEST POP JUMP JUMPDEST PUSH0 DUP2 SWAP1 POP PUSH2 0x3DF4 DUP3 PUSH2 0x3DD3 JUMP JUMPDEST SWAP2 SWAP1 POP JUMP JUMPDEST PUSH0 PUSH2 0x3E03 DUP3 PUSH2 0x3DE7 JUMP JUMPDEST SWAP1 POP SWAP2 SWAP1 POP JUMP JUMPDEST PUSH2 0x3E13 DUP2 PUSH2 0x3DF9 JUMP JUMPDEST DUP3 MSTORE POP POP JUMP JUMPDEST PUSH0 PUSH1 0x20 DUP3 ADD SWAP1 POP PUSH2 0x3E2C PUSH0 DUP4 ADD DUP5 PUSH2 0x3E0A JUMP JUMPDEST SWAP3 SWAP2 POP POP JUMP JUMPDEST PUSH32 0x4E487B7100000000000000000000000000000000000000000000000000000000 PUSH0 MSTORE PUSH1 0x22 PUSH1 0x4 MSTORE PUSH1 0x24 PUSH0 REVERT JUMPDEST PUSH0 PUSH1 0x2 DUP3 DIV SWAP1 POP PUSH1 0x1 DUP3 AND DUP1 PUSH2 0x3E76 JUMPI PUSH1 0x7F DUP3 AND SWAP2 POP JUMPDEST PUSH1 0x20 DUP3 LT DUP2 SUB PUSH2 0x3E89 JUMPI PUSH2 0x3E88 PUSH2 0x3E32 JUMP JUMPDEST JUMPDEST POP SWAP2 SWAP1 POP JUMP JUMPDEST PUSH0 PUSH1 0x40 DUP3 ADD SWAP1 POP PUSH2 0x3EA2 PUSH0 DUP4 ADD DUP6 PUSH2 0x369D JUMP JUMPDEST PUSH2 0x3EAF PUSH1 0x20 DUP4 ADD DUP5 PUSH2 0x369D JUMP JUMPDEST SWAP4 SWAP3 POP POP POP JUMP JUMPDEST PUSH0 PUSH1 0x60 DUP3 ADD SWAP1 POP PUSH2 0x3EC9 PUSH0 DUP4 ADD DUP7 PUSH2 0x369D JUMP JUMPDEST PUSH2 0x3ED6 PUSH1 0x20 DUP4 ADD DUP6 PUSH2 0x372D JUMP JUMPDEST PUSH2 0x3EE3 PUSH1 0x40 DUP4 ADD DUP5 PUSH2 0x369D JUMP JUMPDEST SWAP5 SWAP4 POP POP POP POP JUMP JUMPDEST PUSH0 PUSH1 0x40 DUP3 ADD SWAP1 POP PUSH2 0x3EFE PUSH0 DUP4 ADD DUP6 PUSH2 0x369D JUMP JUMPDEST PUSH2 0x3F0B PUSH1 0x20 DUP4 ADD DUP5 PUSH2 0x372D JUMP JUMPDEST SWAP4 SWAP3 POP POP POP JUMP JUMPDEST PUSH32 0x4E487B7100000000000000000000000000000000000000000000000000000000 PUSH0 MSTORE PUSH1 0x32 PUSH1 0x4 MSTORE PUSH1 0x24 PUSH0 REVERT JUMPDEST PUSH32 0x4E487B7100000000000000000000000000000000000000000000000000000000 PUSH0 MSTORE PUSH1 0x11 PUSH1 0x4 MSTORE PUSH1 0x24 PUSH0 REVERT JUMPDEST PUSH0 PUSH2 0x3F76 DUP3 PUSH2 0x360F JUMP JUMPDEST SWAP2 POP PUSH2 0x3F81 DUP4 PUSH2 0x360F JUMP JUMPDEST SWAP3 POP DUP3 DUP3 SUB SWAP1 POP DUP2 DUP2 GT ISZERO PUSH2 0x3F99 JUMPI PUSH2 0x3F98 PUSH2 0x3F3F JUMP JUMPDEST JUMPDEST SWAP3 SWAP2 POP POP JUMP JUMPDEST PUSH32 0x4D7573742062652070726F706F736564206F776E657200000000000000000000 PUSH0 DUP3 ADD MSTORE POP JUMP JUMPDEST PUSH0 PUSH2 0x3FD3 PUSH1 0x16 DUP4 PUSH2 0x356F JUMP JUMPDEST SWAP2 POP PUSH2 0x3FDE DUP3 PUSH2 0x3F9F JUMP JUMPDEST PUSH1 0x20 DUP3 ADD SWAP1 POP SWAP2 SWAP1 POP JUMP JUMPDEST PUSH0 PUSH1 0x20 DUP3 ADD SWAP1 POP DUP2 DUP2 SUB PUSH0 DUP4 ADD MSTORE PUSH2 0x4000 DUP2 PUSH2 0x3FC7 JUMP JUMPDEST SWAP1 POP SWAP2 SWAP1 POP JUMP JUMPDEST PUSH0 PUSH10 0xFFFFFFFFFFFFFFFFFFFF DUP3 AND SWAP1 POP SWAP2 SWAP1 POP JUMP JUMPDEST PUSH2 0x4025 DUP2 PUSH2 0x4007 JUMP JUMPDEST DUP2 EQ PUSH2 0x402F JUMPI PUSH0 DUP1 REVERT JUMPDEST POP JUMP JUMPDEST PUSH0 DUP2 MLOAD SWAP1 POP PUSH2 0x4040 DUP2 PUSH2 0x401C JUMP JUMPDEST SWAP3 SWAP2 POP POP JUMP JUMPDEST PUSH2 0x404F DUP2 PUSH2 0x3B3B JUMP JUMPDEST DUP2 EQ PUSH2 0x4059 JUMPI PUSH0 DUP1 REVERT JUMPDEST POP JUMP JUMPDEST PUSH0 DUP2 MLOAD SWAP1 POP PUSH2 0x406A DUP2 PUSH2 0x4046 JUMP JUMPDEST SWAP3 SWAP2 POP POP JUMP JUMPDEST PUSH0 DUP2 MLOAD SWAP1 POP PUSH2 0x407E DUP2 PUSH2 0x3618 JUMP JUMPDEST SWAP3 SWAP2 POP POP JUMP JUMPDEST PUSH0 DUP1 PUSH0 DUP1 PUSH0 PUSH1 0xA0 DUP7 DUP9 SUB SLT ISZERO PUSH2 0x409D JUMPI PUSH2 0x409C PUSH2 0x34AA JUMP JUMPDEST JUMPDEST PUSH0 PUSH2 0x40AA DUP9 DUP3 DUP10 ADD PUSH2 0x4032 JUMP JUMPDEST SWAP6 POP POP PUSH1 0x20 PUSH2 0x40BB DUP9 DUP3 DUP10 ADD PUSH2 0x405C JUMP JUMPDEST SWAP5 POP POP PUSH1 0x40 PUSH2 0x40CC DUP9 DUP3 DUP10 ADD PUSH2 0x4070 JUMP JUMPDEST SWAP4 POP POP PUSH1 0x60 PUSH2 0x40DD DUP9 DUP3 DUP10 ADD PUSH2 0x4070 JUMP JUMPDEST SWAP3 POP POP PUSH1 0x80 PUSH2 0x40EE DUP9 DUP3 DUP10 ADD PUSH2 0x4032 JUMP JUMPDEST SWAP2 POP POP SWAP3 SWAP6 POP SWAP3 SWAP6 SWAP1 SWAP4 POP JUMP JUMPDEST PUSH0 PUSH1 0x60 DUP3 ADD SWAP1 POP PUSH2 0x410E PUSH0 DUP4 ADD DUP7 PUSH2 0x369D JUMP JUMPDEST PUSH2 0x411B PUSH1 0x20 DUP4 ADD DUP6 PUSH2 0x369D JUMP JUMPDEST PUSH2 0x4128 PUSH1 0x40 DUP4 ADD DUP5 PUSH2 0x369D JUMP JUMPDEST SWAP5 SWAP4 POP POP POP POP JUMP JUMPDEST PUSH32 0x4E487B7100000000000000000000000000000000000000000000000000000000 PUSH0 MSTORE PUSH1 0x12 PUSH1 0x4 MSTORE PUSH1 0x24 PUSH0 REVERT JUMPDEST PUSH0 PUSH2 0x4167 DUP3 PUSH2 0x360F JUMP JUMPDEST SWAP2 POP PUSH2 0x4172 DUP4 PUSH2 0x360F JUMP JUMPDEST SWAP3 POP DUP3 PUSH2 0x4182 JUMPI PUSH2 0x4181 PUSH2 0x4130 JUMP JUMPDEST JUMPDEST DUP3 DUP3 MOD SWAP1 POP SWAP3 SWAP2 POP POP JUMP JUMPDEST PUSH0 PUSH2 0x4197 DUP3 PUSH2 0x360F JUMP JUMPDEST SWAP2 POP PUSH32 0xFFFFFFFFFFFFFFFFFFFFFFFFFFFFFFFFFFFFFFFFFFFFFFFFFFFFFFFFFFFFFFFF DUP3 SUB PUSH2 0x41C9 JUMPI PUSH2 0x41C8 PUSH2 0x3F3F JUMP JUMPDEST JUMPDEST PUSH1 0x1 DUP3 ADD SWAP1 POP SWAP2 SWAP1 POP JUMP JUMPDEST PUSH32 0x4F6E6C792063616C6C61626C65206279206F776E657200000000000000000000 PUSH0 DUP3 ADD MSTORE POP JUMP JUMPDEST PUSH0 PUSH2 0x4208 PUSH1 0x16 DUP4 PUSH2 0x356F JUMP JUMPDEST SWAP2 POP PUSH2 0x4213 DUP3 PUSH2 0x41D4 JUMP JUMPDEST PUSH1 0x20 DUP3 ADD SWAP1 POP SWAP2 SWAP1 POP JUMP JUMPDEST PUSH0 PUSH1 0x20 DUP3 ADD SWAP1 POP DUP2 DUP2 SUB PUSH0 DUP4 ADD MSTORE PUSH2 0x4235 DUP2 PUSH2 0x41FC JUMP JUMPDEST SWAP1 POP SWAP2 SWAP1 POP JUMP JUMPDEST PUSH0 DUP2 SWAP1 POP DUP2 PUSH0 MSTORE PUSH1 0x20 PUSH0 KECCAK256 SWAP1 POP SWAP2 SWAP1 POP JUMP JUMPDEST PUSH0 PUSH1 0x20 PUSH1 0x1F DUP4 ADD DIV SWAP1 POP SWAP2 SWAP1 POP JUMP JUMPDEST PUSH0 DUP3 DUP3 SHL SWAP1 POP SWAP3 SWAP2 POP POP JUMP JUMPDEST PUSH0 PUSH1 0x8 DUP4 MUL PUSH2 0x4298 PUSH32 0xFFFFFFFFFFFFFFFFFFFFFFFFFFFFFFFFFFFFFFFFFFFFFFFFFFFFFFFFFFFFFFFF DUP3 PUSH2 0x425D JUMP JUMPDEST PUSH2 0x42A2 DUP7 DUP4 PUSH2 0x425D JUMP JUMPDEST SWAP6 POP DUP1 NOT DUP5 AND SWAP4 POP DUP1 DUP7 AND DUP5 OR SWAP3 POP POP POP SWAP4 SWAP3 POP POP POP JUMP JUMPDEST PUSH0 PUSH2 0x42D4 PUSH2 0x42CF PUSH2 0x42CA DUP5 PUSH2 0x360F JUMP JUMPDEST PUSH2 0x393F JUMP JUMPDEST PUSH2 0x360F JUMP JUMPDEST SWAP1 POP SWAP2 SWAP1 POP JUMP JUMPDEST PUSH0 DUP2 SWAP1 POP SWAP2 SWAP1 POP JUMP JUMPDEST PUSH2 0x42ED DUP4 PUSH2 0x42BA JUMP JUMPDEST PUSH2 0x4301 PUSH2 0x42F9 DUP3 PUSH2 0x42DB JUMP JUMPDEST DUP5 DUP5 SLOAD PUSH2 0x4269 JUMP JUMPDEST DUP3 SSTORE POP POP POP POP JUMP JUMPDEST PUSH0 SWAP1 JUMP JUMPDEST PUSH2 0x4315 PUSH2 0x4309 JUMP JUMPDEST PUSH2 0x4320 DUP2 DUP5 DUP5 PUSH2 0x42E4 JUMP JUMPDEST POP POP POP JUMP JUMPDEST JUMPDEST DUP2 DUP2 LT ISZERO PUSH2 0x4343 JUMPI PUSH2 0x4338 PUSH0 DUP3 PUSH2 0x430D JUMP JUMPDEST PUSH1 0x1 DUP2 ADD SWAP1 POP PUSH2 0x4326 JUMP JUMPDEST POP POP JUMP JUMPDEST PUSH1 0x1F DUP3 GT ISZERO PUSH2 0x4388 JUMPI PUSH2 0x4359 DUP2 PUSH2 0x423C JUMP JUMPDEST PUSH2 0x4362 DUP5 PUSH2 0x424E JUMP JUMPDEST DUP2 ADD PUSH1 0x20 DUP6 LT ISZERO PUSH2 0x4371 JUMPI DUP2 SWAP1 POP JUMPDEST PUSH2 0x4385 PUSH2 0x437D DUP6 PUSH2 0x424E JUMP JUMPDEST DUP4 ADD DUP3 PUSH2 0x4325 JUMP JUMPDEST POP POP JUMPDEST POP POP POP JUMP JUMPDEST PUSH0 DUP3 DUP3 SHR SWAP1 POP SWAP3 SWAP2 POP POP JUMP JUMPDEST PUSH0 PUSH2 0x43A8 PUSH0 NOT DUP5 PUSH1 0x8 MUL PUSH2 0x438D JUMP JUMPDEST NOT DUP1 DUP4 AND SWAP2 POP POP SWAP3 SWAP2 POP POP JUMP JUMPDEST PUSH0 PUSH2 0x43C0 DUP4 DUP4 PUSH2 0x4399 JUMP JUMPDEST SWAP2 POP DUP3 PUSH1 0x2 MUL DUP3 OR SWAP1 POP SWAP3 SWAP2 POP POP JUMP JUMPDEST PUSH2 0x43D9 DUP3 PUSH2 0x3565 JUMP JUMPDEST PUSH8 0xFFFFFFFFFFFFFFFF DUP2 GT ISZERO PUSH2 0x43F2 JUMPI PUSH2 0x43F1 PUSH2 0x3759 JUMP JUMPDEST JUMPDEST PUSH2 0x43FC DUP3 SLOAD PUSH2 0x3E5F JUMP JUMPDEST PUSH2 0x4407 DUP3 DUP3 DUP6 PUSH2 0x4347 JUMP JUMPDEST PUSH0 PUSH1 0x20 SWAP1 POP PUSH1 0x1F DUP4 GT PUSH1 0x1 DUP2 EQ PUSH2 0x4438 JUMPI PUSH0 DUP5 ISZERO PUSH2 0x4426 JUMPI DUP3 DUP8 ADD MLOAD SWAP1 POP JUMPDEST PUSH2 0x4430 DUP6 DUP3 PUSH2 0x43B5 JUMP JUMPDEST DUP7 SSTORE POP PUSH2 0x4497 JUMP JUMPDEST PUSH1 0x1F NOT DUP5 AND PUSH2 0x4446 DUP7 PUSH2 0x423C JUMP JUMPDEST PUSH0 JUMPDEST DUP3 DUP2 LT ISZERO PUSH2 0x446D JUMPI DUP5 DUP10 ADD MLOAD DUP3 SSTORE PUSH1 0x1 DUP3 ADD SWAP2 POP PUSH1 0x20 DUP6 ADD SWAP5 POP PUSH1 0x20 DUP2 ADD SWAP1 POP PUSH2 0x4448 JUMP JUMPDEST DUP7 DUP4 LT ISZERO PUSH2 0x448A JUMPI DUP5 DUP10 ADD MLOAD PUSH2 0x4486 PUSH1 0x1F DUP10 AND DUP3 PUSH2 0x4399 JUMP JUMPDEST DUP4 SSTORE POP JUMPDEST PUSH1 0x1 PUSH1 0x2 DUP9 MUL ADD DUP9 SSTORE POP POP POP JUMPDEST POP POP POP POP POP POP JUMP JUMPDEST PUSH0 PUSH1 0x80 DUP3 ADD SWAP1 POP DUP2 DUP2 SUB PUSH0 DUP4 ADD MSTORE PUSH2 0x44B7 DUP2 DUP8 PUSH2 0x35B7 JUMP JUMPDEST SWAP1 POP PUSH2 0x44C6 PUSH1 0x20 DUP4 ADD DUP7 PUSH2 0x372D JUMP JUMPDEST DUP2 DUP2 SUB PUSH1 0x40 DUP4 ADD MSTORE PUSH2 0x44D8 DUP2 DUP6 PUSH2 0x35B7 JUMP JUMPDEST SWAP1 POP DUP2 DUP2 SUB PUSH1 0x60 DUP4 ADD MSTORE PUSH2 0x44EC DUP2 DUP5 PUSH2 0x35B7 JUMP JUMPDEST SWAP1 POP SWAP6 SWAP5 POP POP POP POP POP JUMP JUMPDEST PUSH32 0x537562736372697074696F6E204944206E6F7420736574000000000000000000 PUSH0 DUP3 ADD MSTORE POP JUMP JUMPDEST PUSH0 PUSH2 0x452B PUSH1 0x17 DUP4 PUSH2 0x356F JUMP JUMPDEST SWAP2 POP PUSH2 0x4536 DUP3 PUSH2 0x44F7 JUMP JUMPDEST PUSH1 0x20 DUP3 ADD SWAP1 POP SWAP2 SWAP1 POP JUMP JUMPDEST PUSH0 PUSH1 0x20 DUP3 ADD SWAP1 POP DUP2 DUP2 SUB PUSH0 DUP4 ADD MSTORE PUSH2 0x4558 DUP2 PUSH2 0x451F JUMP JUMPDEST SWAP1 POP SWAP2 SWAP1 POP JUMP JUMPDEST PUSH0 DUP2 SWAP1 POP SWAP2 SWAP1 POP JUMP JUMPDEST PUSH2 0x4571 DUP2 PUSH2 0x455F JUMP JUMPDEST DUP3 MSTORE POP POP JUMP JUMPDEST PUSH2 0x4580 DUP2 PUSH2 0x360F JUMP JUMPDEST DUP3 MSTORE POP POP JUMP JUMPDEST PUSH0 PUSH2 0xFFFF DUP3 AND SWAP1 POP SWAP2 SWAP1 POP JUMP JUMPDEST PUSH2 0x459C DUP2 PUSH2 0x4586 JUMP JUMPDEST DUP3 MSTORE POP POP JUMP JUMPDEST PUSH2 0x45AB DUP2 PUSH2 0x3BD4 JUMP JUMPDEST DUP3 MSTORE POP POP JUMP JUMPDEST PUSH0 DUP3 DUP3 MSTORE PUSH1 0x20 DUP3 ADD SWAP1 POP SWAP3 SWAP2 POP POP JUMP JUMPDEST PUSH0 PUSH2 0x45CB DUP3 PUSH2 0x3ABB JUMP JUMPDEST PUSH2 0x45D5 DUP2 DUP6 PUSH2 0x45B1 JUMP JUMPDEST SWAP4 POP PUSH2 0x45E5 DUP2 DUP6 PUSH1 0x20 DUP7 ADD PUSH2 0x357F JUMP JUMPDEST PUSH2 0x45EE DUP2 PUSH2 0x35A7 JUMP JUMPDEST DUP5 ADD SWAP2 POP POP SWAP3 SWAP2 POP POP JUMP JUMPDEST PUSH0 PUSH1 0xC0 DUP4 ADD PUSH0 DUP4 ADD MLOAD PUSH2 0x460E PUSH0 DUP7 ADD DUP3 PUSH2 0x4568 JUMP JUMPDEST POP PUSH1 0x20 DUP4 ADD MLOAD PUSH2 0x4621 PUSH1 0x20 DUP7 ADD DUP3 PUSH2 0x4577 JUMP JUMPDEST POP PUSH1 0x40 DUP4 ADD MLOAD PUSH2 0x4634 PUSH1 0x40 DUP7 ADD DUP3 PUSH2 0x4593 JUMP JUMPDEST POP PUSH1 0x60 DUP4 ADD MLOAD PUSH2 0x4647 PUSH1 0x60 DUP7 ADD DUP3 PUSH2 0x45A2 JUMP JUMPDEST POP PUSH1 0x80 DUP4 ADD MLOAD PUSH2 0x465A PUSH1 0x80 DUP7 ADD DUP3 PUSH2 0x45A2 JUMP JUMPDEST POP PUSH1 0xA0 DUP4 ADD MLOAD DUP5 DUP3 SUB PUSH1 0xA0 DUP7 ADD MSTORE PUSH2 0x4672 DUP3 DUP3 PUSH2 0x45C1 JUMP JUMPDEST SWAP2 POP POP DUP1 SWAP2 POP POP SWAP3 SWAP2 POP POP JUMP JUMPDEST PUSH0 PUSH1 0x20 DUP3 ADD SWAP1 POP DUP2 DUP2 SUB PUSH0 DUP4 ADD MSTORE PUSH2 0x4697 DUP2 DUP5 PUSH2 0x45F9 JUMP JUMPDEST SWAP1 POP SWAP3 SWAP2 POP POP JUMP JUMPDEST PUSH0 PUSH1 0x20 DUP3 DUP5 SUB SLT ISZERO PUSH2 0x46B4 JUMPI PUSH2 0x46B3 PUSH2 0x34AA JUMP JUMPDEST JUMPDEST PUSH0 PUSH2 0x46C1 DUP5 DUP3 DUP6 ADD PUSH2 0x4070 JUMP JUMPDEST SWAP2 POP POP SWAP3 SWAP2 POP POP JUMP JUMPDEST PUSH0 PUSH1 0x80 DUP3 ADD SWAP1 POP PUSH2 0x46DD PUSH0 DUP4 ADD DUP8 PUSH2 0x369D JUMP JUMPDEST PUSH2 0x46EA PUSH1 0x20 DUP4 ADD DUP7 PUSH2 0x369D JUMP JUMPDEST PUSH2 0x46F7 PUSH1 0x40 DUP4 ADD DUP6 PUSH2 0x372D JUMP JUMPDEST DUP2 DUP2 SUB PUSH1 0x60 DUP4 ADD MSTORE PUSH2 0x4709 DUP2 DUP5 PUSH2 0x3AD5 JUMP JUMPDEST SWAP1 POP SWAP6 SWAP5 POP POP POP POP POP JUMP JUMPDEST PUSH0 DUP2 MLOAD SWAP1 POP PUSH2 0x4722 DUP2 PUSH2 0x34DD JUMP JUMPDEST SWAP3 SWAP2 POP POP JUMP JUMPDEST PUSH0 PUSH1 0x20 DUP3 DUP5 SUB SLT ISZERO PUSH2 0x473D JUMPI PUSH2 0x473C PUSH2 0x34AA JUMP JUMPDEST JUMPDEST PUSH0 PUSH2 0x474A DUP5 DUP3 DUP6 ADD PUSH2 0x4714 JUMP JUMPDEST SWAP2 POP POP SWAP3 SWAP2 POP POP JUMP JUMPDEST PUSH0 DUP2 SWAP1 POP SWAP3 SWAP2 POP POP JUMP JUMPDEST PUSH0 PUSH2 0x4767 DUP3 PUSH2 0x3565 JUMP JUMPDEST PUSH2 0x4771 DUP2 DUP6 PUSH2 0x4753 JUMP JUMPDEST SWAP4 POP PUSH2 0x4781 DUP2 DUP6 PUSH1 0x20 DUP7 ADD PUSH2 0x357F JUMP JUMPDEST DUP1 DUP5 ADD SWAP2 POP POP SWAP3 SWAP2 POP POP JUMP JUMPDEST PUSH0 PUSH2 0x4798 DUP3 DUP6 PUSH2 0x475D JUMP JUMPDEST SWAP2 POP PUSH2 0x47A4 DUP3 DUP5 PUSH2 0x475D JUMP JUMPDEST SWAP2 POP DUP2 SWAP1 POP SWAP4 SWAP3 POP POP POP JUMP JUMPDEST PUSH32 0x43616E6E6F74207472616E7366657220746F2073656C66000000000000000000 PUSH0 DUP3 ADD MSTORE POP JUMP JUMPDEST PUSH0 PUSH2 0x47E4 PUSH1 0x17 DUP4 PUSH2 0x356F JUMP JUMPDEST SWAP2 POP PUSH2 0x47EF DUP3 PUSH2 0x47B0 JUMP JUMPDEST PUSH1 0x20 DUP3 ADD SWAP1 POP SWAP2 SWAP1 POP JUMP JUMPDEST PUSH0 PUSH1 0x20 DUP3 ADD SWAP1 POP DUP2 DUP2 SUB PUSH0 DUP4 ADD MSTORE PUSH2 0x4811 DUP2 PUSH2 0x47D8 JUMP JUMPDEST SWAP1 POP SWAP2 SWAP1 POP JUMP JUMPDEST PUSH2 0x4821 DUP2 PUSH2 0x3532 JUMP JUMPDEST DUP3 MSTORE POP POP JUMP JUMPDEST PUSH1 0x20 DUP3 ADD PUSH0 DUP3 ADD MLOAD PUSH2 0x483B PUSH0 DUP6 ADD DUP3 PUSH2 0x4818 JUMP JUMPDEST POP POP POP POP JUMP JUMPDEST PUSH0 PUSH1 0x20 DUP3 ADD SWAP1 POP PUSH2 0x4854 PUSH0 DUP4 ADD DUP5 PUSH2 0x4827 JUMP JUMPDEST SWAP3 SWAP2 POP POP JUMP JUMPDEST PUSH0 PUSH1 0x40 DUP3 ADD SWAP1 POP DUP2 DUP2 SUB PUSH0 DUP4 ADD MSTORE PUSH2 0x4872 DUP2 DUP6 PUSH2 0x35B7 JUMP JUMPDEST SWAP1 POP PUSH2 0x4881 PUSH1 0x20 DUP4 ADD DUP5 PUSH2 0x372D JUMP JUMPDEST SWAP4 SWAP3 POP POP POP JUMP JUMPDEST PUSH32 0x4E487B7100000000000000000000000000000000000000000000000000000000 PUSH0 MSTORE PUSH1 0x31 PUSH1 0x4 MSTORE PUSH1 0x24 PUSH0 REVERT JUMPDEST PUSH32 0x4E487B7100000000000000000000000000000000000000000000000000000000 PUSH0 MSTORE PUSH1 0x51 PUSH1 0x4 MSTORE PUSH1 0x24 PUSH0 REVERT INVALID LOG2 PUSH5 0x6970667358 0x22 SLT KECCAK256 0x2D SHL 0xED 0xFB DUP16 PUSH26 0x3F0DD362382D565A2262036436E139BB8747F4AFB4D906C789A4 PUSH5 0x736F6C6343 STOP ADDMOD EQ STOP CALLER PUSH9 0x747470733A2F2F6970 PUSH7 0x732E696F2F6970 PUSH7 0x732F516D646355 MSTORE PUSH14 0x4E316B4545744B676E626B564A4A CODESIZE PUSH9 0x726D73535748705A76 0x4C PUSH12 0x5267734B4B6F695776573967 EXTCODEHASH PUSH7 0x696C656E616D65 RETURNDATASIZE PUSH20 0x696D706C655F62756C6C2E6A736F6E6874747073 GASPRICE 0x2F 0x2F PUSH10 0x7066732E696F2F697066 PUSH20 0x2F516D5258796669336F4E5A4375624478695646 PUSH19 0x65336B4C5A3858654774367051736E4151525A CALLDATACOPY PUSH2 0x6B68 MSTORE8 0x4E PUSH20 0x3F66696C656E616D653D67616D65725F62756C6C 0x2E PUSH11 0x736F6E68747470733A2F2F PUSH10 0x7066732E696F2F697066 PUSH20 0x2F516D624B68425856576D777259735450465966 PUSH19 0x6F52324E374E41656B414D7848555667324357 PUSH12 0x73376939716A3F66696C656E PUSH2 0x6D65 RETURNDATASIZE PUSH20 0x696D706C655F626561722E6A736F6E6874747073 GASPRICE 0x2F 0x2F PUSH10 0x7066732E696F2F697066 PUSH20 0x2F516D6478394878374643445A474578796A4C52 CALLDATASIZE PUSH23 0x59636E75745552384B68425A426E5A6641504869556F6D PUSH14 0x4E3F66696C656E616D653D626561 PUSH15 0x69655F626561722E6A736F6E687474 PUSH17 0x733A2F2F697066732E696F2F697066732F MLOAD PUSH14 0x524A5646654D7274595332435556 SSTORE 0x4D ORIGIN PUSH4 0x484A7042 JUMP CALLDATALOAD PUSH2 0x5832 PUSH25 0x7572706E73665A784C545451626944333F66696C656E616D65 RETURNDATASIZE PUSH17 0x617274795F62756C6C2E6A736F6E687474 PUSH17 0x733A2F2F697066732E696F2F697066732F MLOAD PUSH14 0x54564C79545375694B4755456D62 CODESIZE CODESIZE TIMESTAMP PUSH8 0x584733714E433859 PUSH8 0x70485A6946626A48 PUSH19 0x584B4833514845753F66696C656E616D653D63 PUSH16 0x6F6C696F5F626561722E6A736F6E0000 "
		},
		"gasEstimates": {
			"creation": {
				"codeDepositCost": "3742400",
				"executionCost": "infinite",
				"totalCost": "infinite"
			},
			"external": {
				"COORDINATOR()": "infinite",
				"acceptOwnership()": "54579",
				"approve(address,uint256)": "infinite",
				"balanceOf(address)": "infinite",
				"checkUpkeep(bytes)": "infinite",
				"currentMarketTrend()": "2693",
				"currentPrice()": "2514",
				"getApproved(uint256)": "infinite",
				"getLatestPrice()": "infinite",
				"interval()": "2470",
				"isApprovedForAll(address,address)": "infinite",
				"lastTimeStamp()": "2471",
				"name()": "infinite",
				"owner()": "2605",
				"ownerOf(uint256)": "infinite",
				"performUpkeep(bytes)": "infinite",
				"pricefeed()": "infinite",
				"rawFulfillRandomWords(uint256,uint256[])": "infinite",
				"s_randomWords(uint256)": "infinite",
				"s_requestId()": "2469",
				"s_subscriptionId()": "2493",
				"s_vrfCoordinator()": "infinite",
				"safeMint(address)": "infinite",
				"safeTransferFrom(address,address,uint256)": "infinite",
				"safeTransferFrom(address,address,uint256,bytes)": "infinite",
				"setApprovalForAll(address,bool)": "infinite",
				"setCallbackGasLimit(uint32)": "26911",
				"setCoordinator(address)": "infinite",
				"setInterval(uint256)": "24776",
				"setPriceFeed(address)": "27041",
				"setSubscriptionId(uint256)": "24797",
				"setVrfCoodinator(address)": "27041",
				"supportsInterface(bytes4)": "1031",
				"symbol()": "infinite",
				"tokenByIndex(uint256)": "infinite",
				"tokenOfOwnerByIndex(address,uint256)": "infinite",
				"tokenURI(uint256)": "infinite",
				"totalSupply()": "2575",
				"transferFrom(address,address,uint256)": "infinite",
				"transferOwnership(address)": "30761"
			},
			"internal": {
				"_increaseBalance(address,uint128)": "infinite",
				"_update(address,uint256,address)": "infinite",
				"compareStrings(string memory,string memory)": "infinite",
				"fulfillRandomWords(uint256,uint256[] memory)": "infinite",
				"requestRandomnessForNFTUris()": "infinite",
				"updateAllTokenUris(string memory)": "infinite"
			}
		},
		"methodIdentifiers": {
			"COORDINATOR()": "3b2bcbf1",
			"acceptOwnership()": "79ba5097",
			"approve(address,uint256)": "095ea7b3",
			"balanceOf(address)": "70a08231",
			"checkUpkeep(bytes)": "6e04ff0d",
			"currentMarketTrend()": "f0e8b3ae",
			"currentPrice()": "9d1b464a",
			"getApproved(uint256)": "081812fc",
			"getLatestPrice()": "8e15f473",
			"interval()": "947a36fb",
			"isApprovedForAll(address,address)": "e985e9c5",
			"lastTimeStamp()": "3f3b3b27",
			"name()": "06fdde03",
			"owner()": "8da5cb5b",
			"ownerOf(uint256)": "6352211e",
			"performUpkeep(bytes)": "4585e33b",
			"pricefeed()": "590f2113",
			"rawFulfillRandomWords(uint256,uint256[])": "1fe543e3",
			"s_randomWords(uint256)": "f6eaffc8",
			"s_requestId()": "e89e106a",
			"s_subscriptionId()": "8ac00021",
			"s_vrfCoordinator()": "9eccacf6",
			"safeMint(address)": "40d097c3",
			"safeTransferFrom(address,address,uint256)": "42842e0e",
			"safeTransferFrom(address,address,uint256,bytes)": "b88d4fde",
			"setApprovalForAll(address,bool)": "a22cb465",
			"setCallbackGasLimit(uint32)": "a4eb718c",
			"setCoordinator(address)": "8ea98117",
			"setInterval(uint256)": "22a90082",
			"setPriceFeed(address)": "724e78da",
			"setSubscriptionId(uint256)": "c1e0d236",
			"setVrfCoodinator(address)": "cb028802",
			"supportsInterface(bytes4)": "01ffc9a7",
			"symbol()": "95d89b41",
			"tokenByIndex(uint256)": "4f6ccce7",
			"tokenOfOwnerByIndex(address,uint256)": "2f745c59",
			"tokenURI(uint256)": "c87b56dd",
			"totalSupply()": "18160ddd",
			"transferFrom(address,address,uint256)": "23b872dd",
			"transferOwnership(address)": "f2fde38b"
		}
	},
	"abi": [
		{
			"inputs": [
				{
					"internalType": "uint256",
					"name": "updateInterval",
					"type": "uint256"
				},
				{
					"internalType": "address",
					"name": "_priceFeed",
					"type": "address"
				},
				{
					"internalType": "address",
					"name": "_coordinator",
					"type": "address"
				}
			],
			"stateMutability": "nonpayable",
			"type": "constructor"
		},
		{
			"inputs": [],
			"name": "ERC721EnumerableForbiddenBatchMint",
			"type": "error"
		},
		{
			"inputs": [
				{
					"internalType": "address",
					"name": "sender",
					"type": "address"
				},
				{
					"internalType": "uint256",
					"name": "tokenId",
					"type": "uint256"
				},
				{
					"internalType": "address",
					"name": "owner",
					"type": "address"
				}
			],
			"name": "ERC721IncorrectOwner",
			"type": "error"
		},
		{
			"inputs": [
				{
					"internalType": "address",
					"name": "operator",
					"type": "address"
				},
				{
					"internalType": "uint256",
					"name": "tokenId",
					"type": "uint256"
				}
			],
			"name": "ERC721InsufficientApproval",
			"type": "error"
		},
		{
			"inputs": [
				{
					"internalType": "address",
					"name": "approver",
					"type": "address"
				}
			],
			"name": "ERC721InvalidApprover",
			"type": "error"
		},
		{
			"inputs": [
				{
					"internalType": "address",
					"name": "operator",
					"type": "address"
				}
			],
			"name": "ERC721InvalidOperator",
			"type": "error"
		},
		{
			"inputs": [
				{
					"internalType": "address",
					"name": "owner",
					"type": "address"
				}
			],
			"name": "ERC721InvalidOwner",
			"type": "error"
		},
		{
			"inputs": [
				{
					"internalType": "address",
					"name": "receiver",
					"type": "address"
				}
			],
			"name": "ERC721InvalidReceiver",
			"type": "error"
		},
		{
			"inputs": [
				{
					"internalType": "address",
					"name": "sender",
					"type": "address"
				}
			],
			"name": "ERC721InvalidSender",
			"type": "error"
		},
		{
			"inputs": [
				{
					"internalType": "uint256",
					"name": "tokenId",
					"type": "uint256"
				}
			],
			"name": "ERC721NonexistentToken",
			"type": "error"
		},
		{
			"inputs": [
				{
					"internalType": "address",
					"name": "owner",
					"type": "address"
				},
				{
					"internalType": "uint256",
					"name": "index",
					"type": "uint256"
				}
			],
			"name": "ERC721OutOfBoundsIndex",
			"type": "error"
		},
		{
			"inputs": [
				{
					"internalType": "address",
					"name": "have",
					"type": "address"
				},
				{
					"internalType": "address",
					"name": "want",
					"type": "address"
				}
			],
			"name": "OnlyCoordinatorCanFulfill",
			"type": "error"
		},
		{
			"inputs": [
				{
					"internalType": "address",
					"name": "have",
					"type": "address"
				},
				{
					"internalType": "address",
					"name": "owner",
					"type": "address"
				},
				{
					"internalType": "address",
					"name": "coordinator",
					"type": "address"
				}
			],
			"name": "OnlyOwnerOrCoordinator",
			"type": "error"
		},
		{
			"inputs": [
				{
					"internalType": "address",
					"name": "account",
					"type": "address"
				}
			],
			"name": "OwnableUnauthorizedAccount",
			"type": "error"
		},
		{
			"inputs": [],
			"name": "ZeroAddress",
			"type": "error"
		},
		{
			"anonymous": false,
			"inputs": [
				{
					"indexed": true,
					"internalType": "address",
					"name": "owner",
					"type": "address"
				},
				{
					"indexed": true,
					"internalType": "address",
					"name": "approved",
					"type": "address"
				},
				{
					"indexed": true,
					"internalType": "uint256",
					"name": "tokenId",
					"type": "uint256"
				}
			],
			"name": "Approval",
			"type": "event"
		},
		{
			"anonymous": false,
			"inputs": [
				{
					"indexed": true,
					"internalType": "address",
					"name": "owner",
					"type": "address"
				},
				{
					"indexed": true,
					"internalType": "address",
					"name": "operator",
					"type": "address"
				},
				{
					"indexed": false,
					"internalType": "bool",
					"name": "approved",
					"type": "bool"
				}
			],
			"name": "ApprovalForAll",
			"type": "event"
		},
		{
			"anonymous": false,
			"inputs": [
				{
					"indexed": false,
					"internalType": "uint256",
					"name": "_fromTokenId",
					"type": "uint256"
				},
				{
					"indexed": false,
					"internalType": "uint256",
					"name": "_toTokenId",
					"type": "uint256"
				}
			],
			"name": "BatchMetadataUpdate",
			"type": "event"
		},
		{
			"anonymous": false,
			"inputs": [
				{
					"indexed": false,
					"internalType": "address",
					"name": "vrfCoordinator",
					"type": "address"
				}
			],
			"name": "CoordinatorSet",
			"type": "event"
		},
		{
			"anonymous": false,
			"inputs": [
				{
					"indexed": false,
					"internalType": "uint256",
					"name": "_tokenId",
					"type": "uint256"
				}
			],
			"name": "MetadataUpdate",
			"type": "event"
		},
		{
			"anonymous": false,
			"inputs": [
				{
					"indexed": true,
					"internalType": "address",
					"name": "from",
					"type": "address"
				},
				{
					"indexed": true,
					"internalType": "address",
					"name": "to",
					"type": "address"
				}
			],
			"name": "OwnershipTransferRequested",
			"type": "event"
		},
		{
			"anonymous": false,
			"inputs": [
				{
					"indexed": true,
					"internalType": "address",
					"name": "from",
					"type": "address"
				},
				{
					"indexed": true,
					"internalType": "address",
					"name": "to",
					"type": "address"
				}
			],
			"name": "OwnershipTransferred",
			"type": "event"
		},
		{
			"anonymous": false,
			"inputs": [
				{
					"indexed": false,
					"internalType": "string",
					"name": "marketTrend",
					"type": "string"
				}
			],
			"name": "TokensUpdated",
			"type": "event"
		},
		{
			"anonymous": false,
			"inputs": [
				{
					"indexed": true,
					"internalType": "address",
					"name": "from",
					"type": "address"
				},
				{
					"indexed": true,
					"internalType": "address",
					"name": "to",
					"type": "address"
				},
				{
					"indexed": true,
					"internalType": "uint256",
					"name": "tokenId",
					"type": "uint256"
				}
			],
			"name": "Transfer",
			"type": "event"
		},
		{
			"inputs": [],
			"name": "COORDINATOR",
			"outputs": [
				{
					"internalType": "contract IVRFCoordinatorV2Plus",
					"name": "",
					"type": "address"
				}
			],
			"stateMutability": "view",
			"type": "function"
		},
		{
			"inputs": [],
			"name": "acceptOwnership",
			"outputs": [],
			"stateMutability": "nonpayable",
			"type": "function"
		},
		{
			"inputs": [
				{
					"internalType": "address",
					"name": "to",
					"type": "address"
				},
				{
					"internalType": "uint256",
					"name": "tokenId",
					"type": "uint256"
				}
			],
			"name": "approve",
			"outputs": [],
			"stateMutability": "nonpayable",
			"type": "function"
		},
		{
			"inputs": [
				{
					"internalType": "address",
					"name": "owner",
					"type": "address"
				}
			],
			"name": "balanceOf",
			"outputs": [
				{
					"internalType": "uint256",
					"name": "",
					"type": "uint256"
				}
			],
			"stateMutability": "view",
			"type": "function"
		},
		{
			"inputs": [
				{
					"internalType": "bytes",
					"name": "",
					"type": "bytes"
				}
			],
			"name": "checkUpkeep",
			"outputs": [
				{
					"internalType": "bool",
					"name": "upkeepNeeded",
					"type": "bool"
				},
				{
					"internalType": "bytes",
					"name": "",
					"type": "bytes"
				}
			],
			"stateMutability": "view",
			"type": "function"
		},
		{
			"inputs": [],
			"name": "currentMarketTrend",
			"outputs": [
				{
					"internalType": "enum BullBear.MarketTrend",
					"name": "",
					"type": "uint8"
				}
			],
			"stateMutability": "view",
			"type": "function"
		},
		{
			"inputs": [],
			"name": "currentPrice",
			"outputs": [
				{
					"internalType": "int256",
					"name": "",
					"type": "int256"
				}
			],
			"stateMutability": "view",
			"type": "function"
		},
		{
			"inputs": [
				{
					"internalType": "uint256",
					"name": "tokenId",
					"type": "uint256"
				}
			],
			"name": "getApproved",
			"outputs": [
				{
					"internalType": "address",
					"name": "",
					"type": "address"
				}
			],
			"stateMutability": "view",
			"type": "function"
		},
		{
			"inputs": [],
			"name": "getLatestPrice",
			"outputs": [
				{
					"internalType": "int256",
					"name": "",
					"type": "int256"
				}
			],
			"stateMutability": "view",
			"type": "function"
		},
		{
			"inputs": [],
			"name": "interval",
			"outputs": [
				{
					"internalType": "uint256",
					"name": "",
					"type": "uint256"
				}
			],
			"stateMutability": "view",
			"type": "function"
		},
		{
			"inputs": [
				{
					"internalType": "address",
					"name": "owner",
					"type": "address"
				},
				{
					"internalType": "address",
					"name": "operator",
					"type": "address"
				}
			],
			"name": "isApprovedForAll",
			"outputs": [
				{
					"internalType": "bool",
					"name": "",
					"type": "bool"
				}
			],
			"stateMutability": "view",
			"type": "function"
		},
		{
			"inputs": [],
			"name": "lastTimeStamp",
			"outputs": [
				{
					"internalType": "uint256",
					"name": "",
					"type": "uint256"
				}
			],
			"stateMutability": "view",
			"type": "function"
		},
		{
			"inputs": [],
			"name": "name",
			"outputs": [
				{
					"internalType": "string",
					"name": "",
					"type": "string"
				}
			],
			"stateMutability": "view",
			"type": "function"
		},
		{
			"inputs": [],
			"name": "owner",
			"outputs": [
				{
					"internalType": "address",
					"name": "",
					"type": "address"
				}
			],
			"stateMutability": "view",
			"type": "function"
		},
		{
			"inputs": [
				{
					"internalType": "uint256",
					"name": "tokenId",
					"type": "uint256"
				}
			],
			"name": "ownerOf",
			"outputs": [
				{
					"internalType": "address",
					"name": "",
					"type": "address"
				}
			],
			"stateMutability": "view",
			"type": "function"
		},
		{
			"inputs": [
				{
					"internalType": "bytes",
					"name": "",
					"type": "bytes"
				}
			],
			"name": "performUpkeep",
			"outputs": [],
			"stateMutability": "nonpayable",
			"type": "function"
		},
		{
			"inputs": [],
			"name": "pricefeed",
			"outputs": [
				{
					"internalType": "contract AggregatorV3Interface",
					"name": "",
					"type": "address"
				}
			],
			"stateMutability": "view",
			"type": "function"
		},
		{
			"inputs": [
				{
					"internalType": "uint256",
					"name": "requestId",
					"type": "uint256"
				},
				{
					"internalType": "uint256[]",
					"name": "randomWords",
					"type": "uint256[]"
				}
			],
			"name": "rawFulfillRandomWords",
			"outputs": [],
			"stateMutability": "nonpayable",
			"type": "function"
		},
		{
			"inputs": [
				{
					"internalType": "uint256",
					"name": "",
					"type": "uint256"
				}
			],
			"name": "s_randomWords",
			"outputs": [
				{
					"internalType": "uint256",
					"name": "",
					"type": "uint256"
				}
			],
			"stateMutability": "view",
			"type": "function"
		},
		{
			"inputs": [],
			"name": "s_requestId",
			"outputs": [
				{
					"internalType": "uint256",
					"name": "",
					"type": "uint256"
				}
			],
			"stateMutability": "view",
			"type": "function"
		},
		{
			"inputs": [],
			"name": "s_subscriptionId",
			"outputs": [
				{
					"internalType": "uint256",
					"name": "",
					"type": "uint256"
				}
			],
			"stateMutability": "view",
			"type": "function"
		},
		{
			"inputs": [],
			"name": "s_vrfCoordinator",
			"outputs": [
				{
					"internalType": "contract IVRFCoordinatorV2Plus",
					"name": "",
					"type": "address"
				}
			],
			"stateMutability": "view",
			"type": "function"
		},
		{
			"inputs": [
				{
					"internalType": "address",
					"name": "to",
					"type": "address"
				}
			],
			"name": "safeMint",
			"outputs": [],
			"stateMutability": "nonpayable",
			"type": "function"
		},
		{
			"inputs": [
				{
					"internalType": "address",
					"name": "from",
					"type": "address"
				},
				{
					"internalType": "address",
					"name": "to",
					"type": "address"
				},
				{
					"internalType": "uint256",
					"name": "tokenId",
					"type": "uint256"
				}
			],
			"name": "safeTransferFrom",
			"outputs": [],
			"stateMutability": "nonpayable",
			"type": "function"
		},
		{
			"inputs": [
				{
					"internalType": "address",
					"name": "from",
					"type": "address"
				},
				{
					"internalType": "address",
					"name": "to",
					"type": "address"
				},
				{
					"internalType": "uint256",
					"name": "tokenId",
					"type": "uint256"
				},
				{
					"internalType": "bytes",
					"name": "data",
					"type": "bytes"
				}
			],
			"name": "safeTransferFrom",
			"outputs": [],
			"stateMutability": "nonpayable",
			"type": "function"
		},
		{
			"inputs": [
				{
					"internalType": "address",
					"name": "operator",
					"type": "address"
				},
				{
					"internalType": "bool",
					"name": "approved",
					"type": "bool"
				}
			],
			"name": "setApprovalForAll",
			"outputs": [],
			"stateMutability": "nonpayable",
			"type": "function"
		},
		{
			"inputs": [
				{
					"internalType": "uint32",
					"name": "maxGas",
					"type": "uint32"
				}
			],
			"name": "setCallbackGasLimit",
			"outputs": [],
			"stateMutability": "nonpayable",
			"type": "function"
		},
		{
			"inputs": [
				{
					"internalType": "address",
					"name": "_vrfCoordinator",
					"type": "address"
				}
			],
			"name": "setCoordinator",
			"outputs": [],
			"stateMutability": "nonpayable",
			"type": "function"
		},
		{
			"inputs": [
				{
					"internalType": "uint256",
					"name": "newInterval",
					"type": "uint256"
				}
			],
			"name": "setInterval",
			"outputs": [],
			"stateMutability": "nonpayable",
			"type": "function"
		},
		{
			"inputs": [
				{
					"internalType": "address",
					"name": "newFeed",
					"type": "address"
				}
			],
			"name": "setPriceFeed",
			"outputs": [],
			"stateMutability": "nonpayable",
			"type": "function"
		},
		{
			"inputs": [
				{
					"internalType": "uint256",
					"name": "_id",
					"type": "uint256"
				}
			],
			"name": "setSubscriptionId",
			"outputs": [],
			"stateMutability": "nonpayable",
			"type": "function"
		},
		{
			"inputs": [
				{
					"internalType": "address",
					"name": "_address",
					"type": "address"
				}
			],
			"name": "setVrfCoodinator",
			"outputs": [],
			"stateMutability": "nonpayable",
			"type": "function"
		},
		{
			"inputs": [
				{
					"internalType": "bytes4",
					"name": "interfaceId",
					"type": "bytes4"
				}
			],
			"name": "supportsInterface",
			"outputs": [
				{
					"internalType": "bool",
					"name": "",
					"type": "bool"
				}
			],
			"stateMutability": "view",
			"type": "function"
		},
		{
			"inputs": [],
			"name": "symbol",
			"outputs": [
				{
					"internalType": "string",
					"name": "",
					"type": "string"
				}
			],
			"stateMutability": "view",
			"type": "function"
		},
		{
			"inputs": [
				{
					"internalType": "uint256",
					"name": "index",
					"type": "uint256"
				}
			],
			"name": "tokenByIndex",
			"outputs": [
				{
					"internalType": "uint256",
					"name": "",
					"type": "uint256"
				}
			],
			"stateMutability": "view",
			"type": "function"
		},
		{
			"inputs": [
				{
					"internalType": "address",
					"name": "owner",
					"type": "address"
				},
				{
					"internalType": "uint256",
					"name": "index",
					"type": "uint256"
				}
			],
			"name": "tokenOfOwnerByIndex",
			"outputs": [
				{
					"internalType": "uint256",
					"name": "",
					"type": "uint256"
				}
			],
			"stateMutability": "view",
			"type": "function"
		},
		{
			"inputs": [
				{
					"internalType": "uint256",
					"name": "tokenId",
					"type": "uint256"
				}
			],
			"name": "tokenURI",
			"outputs": [
				{
					"internalType": "string",
					"name": "",
					"type": "string"
				}
			],
			"stateMutability": "view",
			"type": "function"
		},
		{
			"inputs": [],
			"name": "totalSupply",
			"outputs": [
				{
					"internalType": "uint256",
					"name": "",
					"type": "uint256"
				}
			],
			"stateMutability": "view",
			"type": "function"
		},
		{
			"inputs": [
				{
					"internalType": "address",
					"name": "from",
					"type": "address"
				},
				{
					"internalType": "address",
					"name": "to",
					"type": "address"
				},
				{
					"internalType": "uint256",
					"name": "tokenId",
					"type": "uint256"
				}
			],
			"name": "transferFrom",
			"outputs": [],
			"stateMutability": "nonpayable",
			"type": "function"
		},
		{
			"inputs": [
				{
					"internalType": "address",
					"name": "to",
					"type": "address"
				}
			],
			"name": "transferOwnership",
			"outputs": [],
			"stateMutability": "nonpayable",
			"type": "function"
		}
	]
}